:020000040800F2
:100000000000052021200108151200081B1200081D
:1000100021120008271200082D120008000000001D
:1000200000000000000000000000000011E70008D0
:10003000331200080000000021E9000889E90008E7
:100040007120010871200108712001087120010848
:100050007120010871200108712001087120010838
:100060007120010871200108712001087120010828
:100070007120010871200108712001087120010818
:100080007120010871200108712001087120010808
:1000900071200108712001087120010871200108F8
:1000A00071200108712001087120010871200108E8
:1000B00071200108712001087120010871200108D8
:1000C00071200108712001087120010871200108C8
:1000D00071200108712001087120010871200108B8
:1000E00071200108712001087120010871200108A8
:1000F0007120010871200108712001087120010898
:1001000071200108411200087120010871200108C6
:1001100071200108712001085512000871200108A2
:10012000712001087120010871200108691200087E
:100130007120010871200108712001087120010857
:100140007120010871200108712001087120010847
:10015000712001087D12000871200108712001083A
:100160007120010871200108712001087120010827
:1001700071200108911200087120010800000000A0
:100180007120010871200108712001087120010807
:1001900071200108712001087120010871200108F7
:1001A000A5120008712001087120010871200108C2
:1001B00071200108712001087120010871200108D7
:0801C000712001087120010803
:1001D00010B5054C237833B9044B13B10448AFF381
:1001E00000800123237010BDA0010020000000004A
:1001F000F423010808B5034B1BB103490348AFF3CF
:10020000008008BD00000000A4010020F4230108C4
:1002100053B94AB9002908BF00281CBF4FF0FF316D
:100220004FF0FF3000F074B9ADF1080C6DE904CE69
:1002300000F006F8DDF804E0DDE9022304B07047C1
:100240002DE9F047089D04468E46002B4DD18A4289
:10025000944669D9B2FA82F252B101FA02F3C2F1BC
:10026000200120FA01F10CFA02FC41EA030E94404D
:100270004FEA1C48210CBEFBF8F61FFA8CF708FB6E
:1002800016E341EA034306FB07F199420AD91CEB46
:10029000030306F1FF3080F01F81994240F21C8178
:1002A000023E63445B1AA4B2B3FBF8F008FB1033C0
:1002B00044EA034400FB07F7A7420AD91CEB0404F5
:1002C00000F1FF3380F00A81A74240F207816444C5
:1002D000023840EA0640E41B00261DB1D44000234A
:1002E000C5E900433146BDE8F0878B4209D9002DAE
:1002F00000F0EF800026C5E9000130463146BDE838
:10030000F087B3FA83F6002E4AD18B4202D38242A1
:1003100000F2F980841A61EB030301209E46002D50
:10032000E0D0C5E9004EDDE702B9FFDEB2FA82F2A5
:10033000002A40F09280A1EB0C014FEA1C471FFA03
:100340008CFE0126200CB1FBF7F307FB131140EAEA
:1003500001410EFB03F0884208D91CEB010103F1B7
:10036000FF3802D2884200F2CB804346091AA4B279
:10037000B1FBF7F007FB101144EA01440EFB00FE4D
:10038000A64508D91CEB040400F1FF3102D2A645B2
:1003900000F2BB800846A4EB0E0440EA03409CE751
:1003A000C6F12007B34022FA07FC4CEA030C20FAFE
:1003B00007F401FA06F31C43F9404FEA1C4900FA1E
:1003C00006F3B1FBF9F8200C1FFA8CFE09FB18119B
:1003D00040EA014108FB0EF0884202FA06F20BD90E
:1003E0001CEB010108F1FF3A80F08880884240F25E
:1003F0008580A8F102086144091AA4B2B1FBF9F0A2
:1004000009FB101144EA014100FB0EFE8E4508D99C
:100410001CEB010100F1FF346CD28E456AD9023821
:10042000614440EA0840A0FB0294A1EB0E01A14206
:10043000C846A64656D353D05DB1B3EB080261EB74
:100440000E0101FA07F722FA06F3F1401F43C5E94E
:10045000007100263146BDE8F087C2F12003D84084
:100460000CFA02FC21FA03F3914001434FEA1C47C6
:100470001FFA8CFEB3FBF7F007FB10360B0C43EAB8
:10048000064300FB0EF69E4204FA02F408D91CEB68
:10049000030300F1FF382FD29E422DD90238634466
:1004A0009B1B89B2B3FBF7F607FB163341EA034106
:1004B00006FB0EF38B4208D91CEB010106F1FF3855
:1004C00016D28B4214D9023E6144C91A46EA00464C
:1004D00038E72E46284605E70646E3E61846F8E6DE
:1004E0004B45A9D2B9EB020864EB0C0E0138A3E727
:1004F0004646EAE7204694E74046D1E7D0467BE708
:10050000023B614432E7304609E76444023842E77F
:10051000704700BFB0B592B000AF234B07F1200485
:100520001D460FCD0FC40FCD0FC495E8030020600A
:100530000434218002340B0C237007F071FB00F0AF
:1005400039F800F0A7F800F059FB00F0D3F800F0FC
:1005500005FB00F0F1F800F02FF900F06DF900F064
:10056000EDF900F017FA00F035FA00F071FA00F03A
:100570009FFA01F0B3FE00F0CBFA01F00DFC0B4B3B
:100580003C1D1D460FCD0FC495E8070084E8070009
:100590003B1D002118460DF02CFD0346044A136054
:1005A0000DF004FDFEE700BF1824010840240108F7
:1005B0006C06002080B594B000AF07F12003302214
:1005C0000021184611F098FD07F10C0300221A6073
:1005D0005A609A60DA601A6107F0E0F92B4B1B6CE5
:1005E0002A4A43F080531364284B1B6C03F080535A
:1005F000BB60BB68264B1B68254A43F4404313602D
:10060000234B1B6803F440437B607B6801233B6200
:100610004FF480337B620223BB634FF48003FB63A0
:1006200019233B644FF4C8737B640223BB64092322
:10063000FB6407F12003184605F080FB0346002BFE
:1006400001D000F0AFFD07F0B9F90346002B01D04F
:1006500000F0A8FD0F23FB6002233B6100237B61B8
:100660004FF4A053BB614FF48053FB6107F10C03BF
:100670000621184605F006FE0346002B01D000F0C7
:1006800091FD00BF5037BD4680BD00BF003802401D
:100690000070004080B5A2B000AF3B1D8422002155
:1006A000184611F029FD124B7B604FF4C073BB61FB
:1006B00005233B620223FB6103237B620123FB6270
:1006C0004FF400333B634FF00063C7F880300023E2
:1006D000C7F884303B1D184605F0ECFF0346002B9D
:1006E00001D000F05FFD00BF8837BD4680BD00BF70
:1006F0000800A00080B500AF0D4B0E4A1A600C4BED
:1007000000221A710A4B00225A71094B00225A61C9
:10071000074B00229A61064B01221A62044807F037
:10072000F9FB0346002B01D000F03CFD00BF80BD6B
:10073000C00100200030024080B500AF1B4B1C4AB6
:100740001A601A4B1B4A5A60184B00229A60174BCA
:100750000122DA60154B00221A61144B00225A6103
:10076000124B00229A61114B0022DA610F4B0022DA
:100770001A620E4807F0A6FA0346002B01D000F0DB
:1007800011FD0021094807F02DFB0346002B01D085
:1007900000F008FD0021054807F06FFB0346002B21
:1007A00001D000F0FFFC00BF80BD00BFE4010020CD
:1007B00000540040FFEAC00080B500AF1B4B1C4A4C
:1007C0001A601A4B1B4A5A60184B00229A60174B4A
:1007D0000122DA60154B00221A61144B00225A6183
:1007E000124B00229A61114B0022DA610F4B00225A
:1007F0001A620E4807F066FA0346002B01D000F09B
:10080000D1FC0021094807F0EDFA0346002B01D086
:1008100000F0C8FC0021054807F02FFB0346002B21
:1008200001D000F0BFFC00BF80BD00BF3802002037
:10083000005C0040FFEAC00080B58EB000AF3B1DF9
:1008400034220021184611F057FC3A4B3A4A1A60FC
:10085000384B00225A60374B00229A60354B0022F9
:10086000DA60344B00221A61324B28225A61314B34
:1008700009229A612F4B3522DA612E4B0B221A6224
:100880002C4B40F215225A622A4B40F21B129A62FC
:10089000284B40F23522DA62264B40F21D121A63D1
:1008A000244B002283F83420224B002283F8352089
:1008B000204B002283F836201E4807F00FFD034628
:1008C000002B01D000F06EFC00237B604FF4F0732E
:1008D000BB600023FB604FF488733B6102237B61A4
:1008E000FF23BB610023FB614FF4C0633B6207231E
:1008F0007B624FF04043BB624FF4F073FB624FF4F6
:1009000088733B63002387F83430002387F8353041
:10091000002387F836303B1D00221946054807F0B2
:100920006FFE0346002B01D000F03CFC00BF3837BF
:10093000BD4680BD8C0200200068014080B500AF3C
:10094000124B134A1A60114B01225A600F4B0422BA
:100950009A600E4B1022DA600C4B18221A610B4B76
:100960004FF4A0625A61094B00229A61074B0022A2
:10097000DA61064B00221A62044808F019F80346AF
:10098000002B01D000F00EFC00BF80BD340300201E
:10099000001000A080B400AF0C4B0D4A1A600B4B46
:1009A00000225A60094B00229A60084B0022DA604C
:1009B000064B00221A61054B00225A61034B0022AC
:1009C0009A6100BFBD465DF8047B7047800300203C
:1009D000002C014080B500AF1B4B1C4A1A601A4B1B
:1009E0004FF482725A60184B00229A60164B4FF4F3
:1009F0004072DA60144B00221A61134B00225A61D4
:100A0000114B4FF400729A610F4B0022DA610E4BCA
:100A100000221A620C4B00225A620B4B00229A628F
:100A2000094B0722DA62084B00221A63064B0822A0
:100A30005A6305480AF083FC0346002B01D000F0FE
:100A4000B1FB00BF80BD00BFC404002000380040DF
:100A500080B500AF144B154A1A60134B4FF4E132C6
:100A60005A60114B00229A600F4B0022DA600E4B45
:100A700000221A610C4B0C225A610B4B00229A6126
:100A8000094B0022DA61084B00221A62064B002251
:100A90005A6205480AF0DEFF0346002B01D000F041
:100AA00081FB00BF80BD00BF280500200010014071
:100AB00080B500AF144B154A1A60134B4FF4E13266
:100AC0005A60114B00229A600F4B0022DA600E4BE5
:100AD00000221A610C4B0C225A610B4B00229A61C6
:100AE000094B0022DA61084B00221A62064B0022F1
:100AF0005A6205480AF0AEFF0346002B01D000F011
:100B000051FB00BF80BD00BFB005002000140140B4
:100B100080B582B000AF104B1B6B0F4A43F48003CB
:100B200013630D4B1B6B03F480037B607B68002217
:100B300005213B2007F04AF83B2007F063F800222C
:100B40000521452007F042F8452007F05BF800BF7B
:100B50000837BD4680BD00BF0038024080B588B070
:100B600000AF3B1D00221A605A609A60DA601A6179
:100B70005A619A611F4B204A1A601E4B00225A602C
:100B80001C4B00229A601B4B0422DA60194B102286
:100B90001A61184B40225A61164B4FF4C0729A6189
:100BA000144B0022DA61134B4FF400621A62114BAE
:100BB0004FF480525A620F4B00229A6202237B60EC
:100BC0000723BB600423FB6007233B6103237B6196
:100BD0000223BB610223FB613B1D1946054807F058
:100BE00049FB0346002B01D000F0DCFA00BF2037A0
:100BF000BD4680BD38060020400100A080B590B001
:100C000000AF07F12C0300221A605A609A60DA6084
:100C10001A61AF4B1B6BAE4A43F010031363AC4B2E
:100C20001B6B03F01003BB62BB6AA94B1B6BA84A8A
:100C300043F040031363A64B1B6B03F040037B623E
:100C40007B6AA34B1B6BA24A43F002031363A04BC6
:100C50001B6B03F002033B623B6A9D4B1B6B9C4A80
:100C600043F0080313639A4B1B6B03F00803FB610B
:100C7000FB69974B1B6B964A43F004031363944B39
:100C80001B6B03F00403BB61BB69914B1B6B904A68
:100C900043F0010313638E4B1B6B03F001037B6175
:100CA0007B698B4B1B6B8A4A43F400731363884B3D
:100CB0001B6B03F400733B613B69854B1B6B844AE0
:100CC00043F480731363824B1B6B03F48073FB60EC
:100CD000FB687F4B1B6B7E4A43F4806313637C4B42
:100CE0001B6B03F48063BB60BB68794B1B6B784A5A
:100CF00043F020031363764B1B6B03F020037B60F0
:100D00007B68734B1B6B724A43F080031363704B19
:100D10001B6B03F080033B603B68012220216D4880
:100D200006F07CFA00220C216B4806F077FA0122CB
:100D300008216A4806F072FA01224FF48051664891
:100D400006F06CFA00224FF40051654806F066FA8E
:100D50000022C821634806F061FA0823FB620023E1
:100D60003B6300237B6307F12C0319465E4806F0C2
:100D700091F84FF4D043FB6202233B6300237B6373
:100D80000323BB630B23FB6307F12C031946554870
:100D900006F080F81023FB6202233B6300237B6391
:100DA0000023BB630223FB6307F12C0319464F4862
:100DB00006F070F88023FB6202233B6300237B6311
:100DC0000023BB630823FB6307F12C03194641484A
:100DD00006F060F84FF40043FB6202233B630023FC
:100DE0007B630023BB630123FB6307F12C031946DC
:100DF0003F4806F04FF86023FB6202233B63002369
:100E00007B630023BB630D23FB6307F12C031946AF
:100E1000354806F03FF84FF48053FB6200233B63F4
:100E200000237B6307F12C031946324806F032F8A1
:100E30004023FB624FF490133B6300237B6307F175
:100E40002C031946234806F025F84FF4E053FB62C3
:100E500002233B6300237B630323BB630A23FB63FF
:100E600007F12C031946224806F014F8F023FB6220
:100E700002233B6300237B630023BB630A23FB63E2
:100E800007F12C031946144806F004F84FF4806368
:100E9000FB6202233B6300237B630023BB630A23C3
:100EA000FB6307F12C0319460E4805F0F3FF2023DE
:100EB000FB6201233B6300237B630023BB6307F1D9
:100EC0002C031946034805F0E5FF082314E000BF92
:100ED00000380240000C024000200240002802407E
:100EE000001C0240001802400010024000040240B2
:100EF0000000024000240240FB6202233B63002307
:100F00007B630023BB630D23FB6307F12C031946AE
:100F10008E4805F0BFFF41F20C03FB6201233B63E7
:100F200000237B630023BB6307F12C031946884829
:100F300005F0B0FF4FF40053FB6200233B63002336
:100F40007B6307F12C031946824805F0A3FF0823B1
:100F5000FB6201233B6300237B630023BB6307F138
:100F60002C0319467C4805F095FF4FF40073FB6293
:100F700002233B6300237B630023BB630D23FB63DE
:100F800007F12C031946754805F084FF1023FB6216
:100F900000233B6300237B6307F12C0319466B4856
:100FA00005F078FF48F20403FB6200233B63002353
:100FB0007B6307F12C031946694805F06BFF4FF47A
:100FC0000053FB6201233B6300237B630023BB636D
:100FD00007F12C031946624805F05CFF4FF4BC434F
:100FE000FB6202233B6300237B630023BB630D236F
:100FF000FB6307F12C031946594805F04BFF012309
:10100000FB6202233B6300237B630023BB63022359
:10101000FB6307F12C0319464D4805F03BFF4FF4E5
:101020008073FB6202233B6300237B630023BB636B
:101030000123FB6307F12C0319464A4805F02AFFF8
:101040004FF40053FB624FF490133B6300237B6328
:1010500007F12C0319463E4805F01CFFC823FB622C
:1010600001233B6300237B630023BB6307F12C0355
:1010700019463A4805F00EFF4FF4F863FB6203236C
:101080003B6300237B6307F12C031946364805F0C8
:1010900001FF3223FB6202233B6300237B630323B4
:1010A000BB630B23FB6307F12C031946294805F0AA
:1010B000F1FE0423FB6200233B6300237B6307F103
:1010C0002C031946254805F0E5FE8623FB62022322
:1010D0003B6300237B630323BB630B23FB6307F1A9
:1010E0002C0319461F4805F0D5FE0123FB6203239C
:1010F0003B6300237B6307F12C031946194805F075
:10110000C9FE5023FB6202233B6300237B63002361
:10111000BB630D23FB6307F12C031946114805F04F
:10112000B9FE4023FB6202233B6300237B63002361
:10113000BB630923FB6307F12C031946084805F03C
:10114000A9FE00BF4037BD4680BD00BF000C024075
:10115000002002400008024000280240001802401F
:10116000001C0240000002400014024080B582B022
:1011700000AF786001F0C4F801200CF086FFFBE7B7
:1011800080B582B000AF78607B681B68044A9342E8
:1011900001D106F053FD00BF0837BD4680BD00BF3A
:1011A0000010004080B400AF72B600BFFEE780B40C
:1011B00000AF00BFBD465DF8047B704780B483B0CC
:1011C00000AF7860396000BF0C37BD465DF8047B26
:1011D000704780B400AF00BFBD465DF8047B704728
:1011E00080B485B000AFF860B9607A60FB68074AE8
:1011F0001A60BB68064A1A607B6880221A6000BFCA
:101200001437BD465DF8047B704700BF70060020B0
:10121000F00A002080B400AFFEE780B400AFFEE724
:1012200080B400AFFEE780B400AFFEE780B400AF4B
:10123000FEE780B400AF00BFBD465DF8047B704799
:1012400080B500AF024808F0CFFF00BF80BD00BFEF
:101250008003002080B500AF02480AF0F5F900BF16
:1012600080BD00BFF40C002080B500AF024806F03E
:101270001FF900BF80BD00BF0404002080B500AF8F
:10128000024806F015F900BF80BD00BF64040020CD
:1012900080B500AF024801F065FF00BF80BD00BF10
:1012A0002812002080B500AF024807F0E7F800BF21
:1012B00080BD00BF8C02002080B582B000AF114B12
:1012C0001B6C104A43F0805313640E4B1B6C03F0ED
:1012D00080537B607B680B4B5B6C0A4A43F4804312
:1012E0005364084B5B6C03F480433B603B68002213
:1012F0000F216FF0010006F069FC00BF0837BD4602
:1013000080BD00BF0038024080B485B000AF786077
:101310007B681B680A4A93420BD10A4B1B6B094A34
:1013200043F480531363074B1B6B03F48053FB6040
:10133000FB6800BF1437BD465DF8047B704700BFF3
:10134000003002400038024080B5ACB000AF786099
:1013500007F19C0300221A605A609A60DA601A61F1
:1013600007F1180384220021184610F0C5FE7B689F
:101370001B68444A93423DD14FF48043BB61002334
:10138000FB6707F11803184605F094F90346002B94
:1013900001D0FFF707FF3C4B1B6B3B4A43F00203B6
:1013A0001363394B1B6B03F002037B617B694FF4C2
:1013B0004073C7F89C301223C7F8A0300123C7F848
:1013C000A4300023C7F8A8300423C7F8AC3007F1D5
:1013D0009C0319462D4805F05DFD2B4B1B6C2A4ADA
:1013E00043F400131364284B1B6C03F400133B619C
:1013F0003B6942E07B681B68254A93423DD14FF42C
:101400008033BB610023C7F8843007F11803184606
:1014100005F050F90346002B01D0FFF7C3FE1A4B2D
:101420001B6B194A43F080031363174B1B6B03F0CC
:101430008003FB60FB684FF4C073C7F89C30122335
:10144000C7F8A0300123C7F8A4300323C7F8A83099
:101450000423C7F8AC3007F19C0319460D4805F08A
:1014600019FD094B1B6C084A43F400031364064B37
:101470001B6C03F40003BB60BB6800BFB037BD4604
:1014800080BD00BF0054004000380240000402400C
:10149000005C0040001C024080B58EB000AF786058
:1014A00007F1240300221A605A609A60DA601A6118
:1014B0007B681B68554A934240F0A380544B5B6C99
:1014C000534A43F080635364514B5B6C03F0806379
:1014D0003B623B6A4E4B1B6B4D4A43F01003136358
:1014E0004B4B1B6B03F01003FB61FB69484B1B6B01
:1014F000474A43F400731363454B1B6B03F40073BB
:10150000BB61BB69424B1B6B414A43F4806313636D
:101510003F4B1B6B03F480637B617B693C4B1B6B14
:101520003B4A43F040031363394B1B6B03F040030A
:101530003B613B69364B1B6B354A43F48073136345
:10154000334B1B6B03F48073FB60FB6810237B62DF
:101550000223BB620023FB6200233B630E237B63F9
:1015600007F1240319462B4805F094FC4EF6FF734F
:101570007B620223BB620023FB6200233B630E23DA
:101580007B6307F124031946234805F083FCF72306
:101590007B620223BB620023FB6200233B630E23BA
:1015A0007B6307F1240319461C4805F073FC4FF4D4
:1015B00080537B620223BB620023FB6200233B63F8
:1015C00009237B6307F124031946154805F062FCE3
:1015D0004FF446437B620223BB620023FB6200237D
:1015E0003B630E237B6307F1240319460D4805F086
:1015F00051FC00220521582006F0E8FA582006F098
:1016000001FB00BF3837BD4680BD00BF0068014008
:10161000003802400010024000240240002802402E
:10162000001802400020024080B58CB000AF786006
:1016300007F11C0300221A605A609A60DA601A618E
:101640007B681B683B4A934270D13B4B9B6B3A4A89
:1016500043F002039363384B9B6B03F00203BB61BF
:10166000BB69354B1B6B344A43F010031363324B99
:101670001B6B03F010037B617B692F4B1B6B2E4AA6
:1016800043F0020313632C4B1B6B03F002033B611B
:101690003B69294B1B6B284A43F008031363264B15
:1016A0001B6B03F00803FB60FB680423FB61022350
:1016B0003B6200237B620323BB620923FB6207F1C9
:1016C0001C0319461D4805F0E5FB4023FB6102237E
:1016D0003B6200237B620323BB620A23FB6207F1A8
:1016E0001C031946164805F0D5FB0423FB610223B1
:1016F0003B6200237B620323BB620923FB6207F189
:101700001C0319460E4805F0C5FB4FF46053FB61FE
:1017100002233B6200237B620323BB620923FB623B
:1017200007F11C031946074805F0B4FB00BF30372A
:10173000BD4680BD001000A00038024000100240ED
:1017400000040240000C024080B58AB000AF78600F
:1017500007F1140300221A605A609A60DA601A6175
:101760007B681B68654A934240F0C380644B5B6CA6
:10177000634A43F400635364614B5B6C03F400639E
:101780003B613B695E4B1B6B5D4A43F00403136393
:101790005B4B1B6B03F00403FB60FB68584B1B6B3C
:1017A000574A43F008031363554B1B6B03F00803C0
:1017B000BB60BB684FF4F8537B610223BB6100231D
:1017C000FB6103233B620C237B6207F11403194680
:1017D0004C4805F05FFB04237B610223BB610023BF
:1017E000FB6103233B620C237B6207F11403194660
:1017F000454805F04FFB454B454A1A60434B4FF0B7
:1018000000625A60414B00229A60404B0022DA602D
:101810003E4B4FF480621A613C4B4FF480525A6148
:101820003A4B4FF480429A61384B2022DA61374BB1
:1018300000221A62354B04225A62344B03229A6208
:10184000324B4FF40002DA62304B4FF400121A634D
:101850002E4805F0FDFC0346002B01D0FFF7A2FC4B
:101860007B682A4A1A64294A7B689363294B2A4A6F
:101870001A60284B4FF000625A60264B40229A6053
:10188000244B0022DA60234B4FF480621A61214B13
:101890004FF480525A611F4B4FF480429A611D4BA6
:1018A0002022DA611B4B00221A621A4B04225A6270
:1018B000184B03229A62174B4FF40002DA62154B61
:1018C0004FF400121A63134805F0C2FC0346002BC4
:1018D00001D0FFF767FC7B680E4ADA630D4A7B682C
:1018E000936300220521312006F070F9312006F0C3
:1018F00089F900BF2837BD4680BD00BF002C0140DC
:101900000038024000080240000C0240040400209D
:101910005864024064040020A064024080B58AB08C
:1019200000AF786007F1140300221A605A609A60D1
:10193000DA601A617B681B68254A934244D1254BC3
:101940001B6C244A43F480431364224B1B6C03F446
:1019500080433B613B691F4B1B6B1E4A43F4807302
:1019600013631C4B1B6B03F48073FB60FB68194B08
:101970001B6B184A43F002031363164B1B6B03F0F7
:101980000203BB60BB6802237B610223BB610023AF
:10199000FB6100233B6205237B6207F114031946B8
:1019A0000D4805F077FA4FF440437B610223BB6199
:1019B0000023FB6100233B6205237B6207F11403D4
:1019C0001946064805F066FA00BF2837BD4680BDB7
:1019D000003800400038024000200240000402406D
:1019E00080B5AEB000AF786007F1A40300221A60A2
:1019F0005A609A60DA601A6107F12003842200219C
:101A0000184610F079FB7B681B68534A93425DD1FE
:101A100040233B6200237B6607F12003184604F055
:101A200049FE0346002B01D0FFF7BCFB4B4B5B6C20
:101A30004A4A43F010035364484B5B6C03F01003B5
:101A4000FB61FB69454B1B6B444A43F00203136384
:101A5000424B1B6B03F00203BB61BB693F4B1B6B2B
:101A60003E4A43F0010313633C4B1B6B03F001033D
:101A70007B617B698023C7F8A4300223C7F8A830B4
:101A80000023C7F8AC300023C7F8B0300723C7F8ED
:101A9000B43007F1A4031946314805F0FBF94FF4BF
:101AA0000073C7F8A4300223C7F8A8300023C7F892
:101AB000AC300023C7F8B0300723C7F8B43007F1C3
:101AC000A4031946274805F0E5F940E07B681B6848
:101AD000254A93423BD14FF400633B620023BB672E
:101AE00007F12003184604F0E5FD0346002B01D062
:101AF000FFF758FB194B5B6C184A43F02003536403
:101B0000164B5B6C03F020033B613B69134B1B6B73
:101B1000124A43F004031363104B1B6B03F00403DE
:101B2000FB60FB68C023C7F8A4300223C7F8A830C5
:101B30000023C7F8AC300323C7F8B0300823C7F838
:101B4000B43007F1A4031946084805F0A3F900BF13
:101B5000B837BD4680BD00BF0010014000380240CC
:101B6000000402400000024000140140000802404E
:101B700080B586B000AF3B1D00221A605A609A60A3
:101B8000DA601A613A4B1B68002B6DD1384B012289
:101B90001A60384B9B6B374A43F001039363354B14
:101BA0009B6B03F001033B603B684FF683737B60E4
:101BB0000223BB600023FB6003233B610C237B619A
:101BC0003B1D19462C4805F065F948F233137B603C
:101BD0000223BB600023FB6003233B610C237B617A
:101BE0003B1D1946254805F055F94CF203737B60FF
:101BF0000223BB600023FB6003233B610C237B615A
:101C00003B1D19461E4805F045F94FF63F037B6022
:101C10000223BB600023FB6003233B610C237B6139
:101C20003B1D1946174805F035F928237B60022330
:101C3000BB600023FB6003233B610C237B613B1DE6
:101C40001946114805F026F908237B600223BB6082
:101C50000023FB6003233B610C237B613B1D194682
:101C60000A4805F017F900E000BF1837BD4680BDEF
:101C7000F00C002000380240001002400018024022
:101C8000000C024000140240001C02400008024008
:101C900080B582B000AF7860FFF76AFF00BF0837F9
:101CA000BD4680BD80B58EB000AF78600023FB627A
:101CB0000023BB62334B1B6C324A43F010031364A6
:101CC000304B1B6C03F01003FB60FB6807F1100244
:101CD00007F114031146184604F0BAFC3B6AFB6294
:101CE000FB6A002B03D104F08BFC786304E004F062
:101CF00087FC03465B007B637B6B234AA2FB0323C9
:101D00009B0C013BBB62214B214A1A601F4B40F2E6
:101D1000E732DA601D4ABB6A53601C4B00221A612D
:101D20001A4B00229A60194B00229A61174809F059
:101D3000B1FB034687F8333097F83330002B1BD1C3
:101D4000124809F009FC034687F8333097F833301E
:101D5000002B11D1362005F055FF7B680F2B08D8DA
:101D600000227968362005F031FF0A4A7B6813604B
:101D700002E0012387F8333097F8333018463837BC
:101D8000BD4680BD0038024083DE1B43F40C0020BA
:101D9000001000408400002080B582B000AF002316
:101DA000FB7100F0D2F80346012B01D0022312E0B0
:101DB0000B4807F035FC0346FB71FB79002B09D17A
:101DC0004FF40061064808F05FFD0346002B01D088
:101DD0000123FB71FB7918460837BD4680BD00BF63
:101DE0008003002080B588B002AFF860B9607A60E7
:101DF0003B600023FB753B6800937B68BA68F96819
:101E0000064807F0C5FC0346002B01D00123FB75F3
:101E1000FB7D18461837BD4680BD00BF80030020FB
:101E200080B588B002AFF860B9607A603B6000238B
:101E3000FB753B6800937B68BA68F968064807F051
:101E400085FE0346002B01D00123FB75FB7D184660
:101E50001837BD4680BD00BF8003002080B586B026
:101E600000AFF860B9607A600023FB757B68BA68E0
:101E7000F968064807F0F0FF0346002B01D0012364
:101E8000FB75FB7D18461837BD4680BD80030020DA
:101E900080B586B000AFF860B9607A600023FB754A
:101EA0007B68BA68F968064808F0B8F80346002B62
:101EB00001D00123FB75FB7D18461837BD4680BD58
:101EC0008003002080B500AF054808F077FD034689
:101ED000042B14BF01230023DBB2184680BD00BFD2
:101EE0008003002080B582B000AF78607968034835
:101EF00008F09EFC00BF0837BD4680BD800300206F
:101F000080B582B000AF786000F018F800BF0837E5
:101F1000BD4680BD80B582B000AF786000F0ACF9FE
:101F200000BF0837BD4680BD80B582B000AF786085
:101F300000F0B0F900BF0837BD4680BD80B400AFE7
:101F400000BFBD465DF8047B704780B582B000AF2E
:101F50000123FB7100F0ACF90346002B01D10023F3
:101F6000FB71FB79DBB218460837BD4680BD80B5F2
:101F700084B000AF78600CF02CF8F86006E0FFF752
:101F8000A1FF0346002B01D1002309E00CF021F84A
:101F90000246FB68D31A7A689A42F0D84FF0FF33B2
:101FA00018461037BD4680BD80B582B000AF0346ED
:101FB000FB710B4B01221A70FFF784FF0346002BC5
:101FC00007D1074B1B78DBB223F00103DAB2044BD5
:101FD0001A70034B1B78DBB218460837BD4680BD2C
:101FE0000000002090B587B000AF0346FB71204B86
:101FF00001221A700BF0E1FF0346002B30D0FFF7EF
:10200000CBFE0346002B07D1FB791846FFF7CCFF28
:1020100003461A46164B1A70154B1B78DBB2012B80
:102020001ED0144B1B68002B0ED1134B07F1080474
:102030000FCB84E80F0007F10803002118460CF0CD
:1020400038F803460B4A13600A4B1B68002B07D174
:10205000074B1B78DBB243F00103DAB2044B1A7072
:10206000034B1B78DBB218461C37BD4690BD00BF42
:1020700000000020400D00205C24010880B582B0E3
:1020800000AF0346FB71FB791846FFF78DFF03464F
:1020900018460837BD4680BD80B58AB000AFB9602C
:1020A0007A603B600346FB73012387F8273047F2D1
:1020B0003050FFF75CFF0346002B02DA97F8273019
:1020C00032E03A687968B868FFF7C8FE034687F8D7
:1020D000263097F82630002B24D1154B196807F1CC
:1020E000140347F2305218460CF04CF87B69102B61
:1020F00018D1BB69012B15D10BF06BFF386208E0DA
:10210000FFF7E0FE0346002B03D1002387F82730BA
:1021100008E00BF05EFF02463B6AD31A47F22F52EB
:102120009342EDD997F8273018462837BD4680BD31
:10213000400D002080B58AB000AFB9607A603B6086
:102140000346FB73012387F8273047F23050FFF72F
:102150000EFF0346002B02DA97F827302EE03A688C
:102160007968B868FFF794FE0346002B24D1154B1D
:10217000196807F1140347F2305218460CF002F8C0
:102180007B69102B18D1BB69022B15D10BF021FFF5
:10219000386208E0FFF796FE0346002B03D10023C8
:1021A00087F8273008E00BF014FF02463B6AD31A89
:1021B00047F22F529342EDD997F827301846283727
:1021C000BD4680BD400D002080B58CB000AF0346F9
:1021D0003A60FB710B46BB71012387F82F30254B0A
:1021E0001B78DBB203F00103002B01D003233CE09A
:1021F000BB79032B34D801A252F823F00D2200083A
:10220000152200082D22000847220008002387F825
:102210002F3028E007F10C031846FFF763FE7A6AB7
:102220003B681A60002387F82F301CE007F10C038D
:102230001846FFF757FEBB6A9AB23B681A80002324
:1022400087F82F300FE007F10C031846FFF74AFE1E
:10225000BB6A5A0A3B681A60002387F82F3002E0F5
:10226000042387F82F3097F82F3018463037BD46B3
:1022700080BD00BF0000002080B500AF044B1B688C
:102280000022022118460BF03DFF00BF80BD00BFB9
:10229000400D002080B500AF044B1B6800220121D7
:1022A00018460BF02FFF00BF80BD00BF400D00207F
:1022B00080B582B000AF0123FB714FF40051064896
:1022C00004F094FF0346002B01D00023FB71FB793F
:1022D00018460837BD4680BD0008024080B500AFF3
:1022E000044905480AF066F803461A46034B1A707B
:1022F00000BF80BDBC010020B8240108440D0020AF
:1023000080B500AF0122124912480CF0D3FB0346FE
:10231000002B01D0FEF746FF0F490E480CF0FAFBE8
:102320000346002B01D0FEF73DFF0C4909480EF093
:1023300059F90346002B01D0FEF734FF05480CF095
:102340001FFC0346002B01D0FEF72CFF00BF80BD11
:1023500004000020480D00209400002064000020AC
:1023600080B483B000AF03463960FB713B68122232
:102370001A80034B18460C37BD465DF8047B704746
:102380002400002080B483B000AF03463960FB71A5
:102390003B6804221A80034B18460C37BD465DF893
:1023A000047B70474400002080B582B000AF034634
:1023B0003960FB71FB79002B05D13A680749084861
:1023C0000DF0B4FD04E03A68044905480DF0AEFD97
:1023D000024B18460837BD4680BD00BF24100020C0
:1023E0006C24010880B582B000AF03463960FB71F0
:1023F0003A68044904480DF099FD024B1846083725
:10240000BD4680BD241000208024010880B582B024
:1024100000AF03463960FB713B681A221A8000F056
:1024200055F8024B18460837BD4680BD48000020CD
:1024300080B582B000AF03463960FB71FB79002B99
:1024400005D13A68074908480DF070FD04E03A6884
:10245000044905480DF06AFD024B18460837BD4691
:1024600080BD00BF241000209424010880B582B0F4
:1024700000AF03463960FB71FB79002B05D13A6848
:10248000074908480DF052FD04E03A680449054840
:102490000DF04CFD024B18460837BD4680BD00BF0D
:1024A00024100020A024010880B483B000AF0346AC
:1024B0003960FB713B680C221A80034B18460C37BD
:1024C000BD465DF8047B70473800002080B584B0BD
:1024D00000AF0F4B1B68FB600E4B1B68BB600E4BC5
:1024E0001B687B60FA687B681344FB60FB68002B09
:1024F00009D008220949F86800F014F804220849B4
:10250000B86800F00FF800BF1037BD4680BD00BFAF
:1025100020F4F01F24F4F01F28F4F01F4A000020DC
:102520005A00002080B487B000AFF860B96013464D
:10253000FB710023FB750023FB7527E0FB681B0F75
:10254000092B0BD8FB681B0FDAB2FB7D5B00194629
:10255000BB680B443032D2B21A700AE0FB681B0F22
:10256000DAB2FB7D5B001946BB680B443732D2B24E
:102570001A70FB681B01FB60FB7D5B000133BA68CE
:10258000134400221A70FB7D0133FB75FA7DFB7941
:102590009A42D3D300BF00BF1C37BD465DF8047B11
:1025A000704780B584B000AF0346FB710323FB7313
:1025B000FFF7F2FB0346FB7397F90F30184610370D
:1025C000BD4680BD80B58EB000AF0346B9607A606D
:1025D000FB73FF2387F83730FFF7B7FC0346002B68
:1025E0000FD007F114031846FFF77CFCFB6A5A1E54
:1025F000BB681A603B6B9AB27B681A80002387F82D
:10260000373097F9373018463837BD4680BD00005F
:1026100080B584B000AF0346FB710323FB73FFF763
:1026200094FC0346002B11D00F4B93F90030002B84
:1026300004DAFFF7B1FB0C4B00221A70FFF742FCE3
:102640000346002B0AD10023FB7307E0064B93F9E6
:102650000030002B02D1044BFF221A7097F90F3083
:1026600018461037BD4680BD2412002080B483B0C8
:1026700000AF0346FB71002318460C37BD465DF8DA
:10268000047B704780B586B000AFB9607A601A46A7
:102690000346FB731346BB810323FB75FFF755FC11
:1026A0000346002B0ED0BA8942F210737968B868DD
:1026B000FFF798FB01E00023FB75FFF703FC0346DF
:1026C000002BF8D197F9173018461837BD4680BD52
:1026D00080B586B000AFB9607A601A460346FB73D6
:1026E0001346BB810323FB75FFF72FFC0346002B2A
:1026F0000ED0BA8942F210737968B868FFF790FB80
:1027000001E00023FB75FFF7DDFB0346002BF8D14A
:1027100097F9173018461837BD4680BD80B400AF12
:1027200000231846BD465DF8047B704780B58EB027
:1027300000AF786007F1240300221A605A609A60A3
:10274000DA601A617B681B684C4A934240F09180C2
:102750004B4B1B6B4A4A43F002031363484B1B6B02
:1027600003F002033B623B6A454B1B6B444A43F058
:1027700080031363424B1B6B03F08003FB61FB6917
:102780003F4B1B6B3E4A43F0040313633C4B1B6BF4
:1027900003F00403BB61BB69394B1B6B384A43F040
:1027A00001031363364B1B6B03F001037B617B69F1
:1027B00043F623437B620223BB620023FB620323B5
:1027C0003B630A237B6307F1240319462D4804F079
:1027D00061FB10237B620223BB620023FB620323A5
:1027E0003B630A237B6307F124031946264804F060
:1027F00051FB05237B620223BB620023FB620323A0
:102800003B630A237B6307F1240319461F4804F046
:1028100041FB28237B620223BB620023FB6203236C
:102820003B630A237B6307F124031946184804F02D
:1028300031FB134B1B6B124A43F000531363104BD5
:102840001B6B03F000533B613B690D4B1B6B0C4A48
:1028500043F0804313630A4B1B6B03F08043FB6020
:10286000FB68002205214D2005F0B0F94D2005F050
:10287000C9F900BF3837BD4680BD00BF0000044025
:102880000038024000040240001C024000080240E0
:102890000000024080B582B000AF78607B68D3F85A
:1028A00004257B6803F2C443194610460CF0B5F9C1
:1028B00000BF0837BD4680BD80B582B000AF7860EC
:1028C0000B46FB707B68D3F80405FA7879681346E9
:1028D000DB0013449B000B4403F523731A68FB7859
:1028E00019460CF0EFF900BF0837BD4680BD80B532
:1028F00082B000AF78600B46FB707B68D3F80405AC
:10290000FA7879681346DB0013449B000B444C3380
:102910001A68FB7819460CF088FA00BF0837BD46E4
:1029200080BD80B582B000AF78607B68D3F8043595
:1029300018460CF0BCFB00BF0837BD4680BD80B513
:1029400084B000AF78600123FB737B68DB68002BE9
:1029500002D10023FB7308E07B68DB68022B02D105
:102960000123FB7301E0FEF71DFC7B68D3F80435FF
:10297000FA7B114618460CF05CFB7B68D3F80435F3
:1029800018460CF004FB00BF1037BD4680BD0000A8
:1029900080B582B000AF78607B68D3F80435184604
:1029A0000CF057FB7B681B6803F560631B687A6853
:1029B000126802F5606243F0010313607B681B6AD2
:1029C000002B05D0044B1B69034A43F00603136137
:1029D00000BF0837BD4680BD00ED00E080B582B085
:1029E00000AF78607B68D3F8043518460CF047FBDD
:1029F00000BF0837BD4680BD80B582B000AF7860AB
:102A00000B46FB707B68D3F80435FA7811461846FC
:102A10000CF09FFB00BF0837BD4680BD80B582B07B
:102A200000AF78600B46FB707B68D3F80435FA780A
:102A3000114618460CF05BFB00BF0837BD4680BD51
:102A400080B582B000AF78607B68D3F80435184653
:102A50000CF0B1FB00BF0837BD4680BD80B582B029
:102A600000AF78607B68D3F8043518460CF0AEFBF5
:102A700000BF0837BD4680BD80B582B000AF78602A
:102A80007B681B78012B40D1224A7B68C2F8043551
:102A90007B68204AC3F8C8221E4B1F4A1A601D4B90
:102AA00008225A601B4B0022DA601A4B00221A617E
:102AB000184B01229A61174B0022DA61154B002254
:102AC0001A62144B00225A62124B0022DA62114B36
:102AD00000221A630F4B00225A630E4800F0FCF9E3
:102AE0000346002B01D0FEF75DFB4FF4007109484F
:102AF00001F0A3FC80220021064801F057FC4FF4AE
:102B0000BA720121034801F051FC0023184608372E
:102B1000BD4680BD281200200000044080B584B06E
:102B200000AF78600023FB730023BB737B68D3F88E
:102B3000C832184600F0F4FA0346FB73FB7B1846D4
:102B400000F09EF90346BB73BB7B18461037BD46A9
:102B500080BD80B584B000AF7860084611461A4643
:102B60000346FB700B46BB7013463B800023FB7390
:102B70000023BB737B68D3F8C802BB783A88F97826
:102B800000F0E1FF0346FB73FB7B184600F078F989
:102B90000346BB73BB7B18461037BD4680BD80B56E
:102BA00084B000AF78600B46FB700023FB730023FA
:102BB000BB737B68D3F8C832FA781146184601F027
:102BC0002AF80346FB73FB7B184600F059F90346CD
:102BD000BB73BB7B18461037BD4680BD80B584B043
:102BE00000AF78600B46FB700023FB730023BB73C0
:102BF0007B68D3F8C832FA781146184601F0EDF92F
:102C00000346FB73FB7B184600F03AF90346BB739F
:102C1000BB7B18461037BD4680BD80B584B000AF81
:102C200078600B46FB700023FB730023BB737B684B
:102C3000D3F8C832FA781146184601F0E3F8034693
:102C4000FB73FB7B184600F01BF90346BB73BB7B91
:102C500018461037BD4680BD80B584B000AF78609F
:102C60000B46FB700023FB730023BB737B68D3F818
:102C7000C832FA781146184601F028F90346FB736A
:102C8000FB7B184600F0FCF80346BB73BB7B184681
:102C90001037BD4680BD80B485B000AF78600B466C
:102CA000FB707B68D3F8C832FB6097F90330002BC8
:102CB0000BDAFB7803F07F02F9681346DB0013445C
:102CC0009B000B443E331B780BE0FB7803F07F0244
:102CD000F9681346DB0013449B000B4403F27E2388
:102CE0001B7818461437BD465DF8047B704780B5E5
:102CF00084B000AF78600B46FB700023FB730023A9
:102D0000BB737B68D3F8C832FA781146184600F0D6
:102D1000F5FE0346FB73FB7B184600F0B1F8034653
:102D2000BB73BB7B18461037BD4680BD80B586B0EF
:102D300000AFF8607A603B600B46FB720023FB75C6
:102D40000023BB75FB68D3F8C802F97A3B687A6840
:102D500001F00EF80346FB75FB7D184600F090F875
:102D60000346BB75BB7D18461837BD4680BD80B590
:102D700086B000AFF8607A603B600B46FB720023C0
:102D8000FB750023BB75FB68D3F8C802F97A3B6872
:102D90007A6800F08AFF0346FB75FB7D184600F059
:102DA0006FF80346BB75BB7D18461837BD4680BD1E
:102DB00080B582B000AF78600B46FB707B68D3F8BB
:102DC000C832FA781146184600F0BAFF0346184692
:102DD0000837BD4680BD000080B582B000AF786086
:102DE0000B46FB70FB78002B02D0012B1FD03BE081
:102DF0007B681B6A002B07D000F03CF81C4B1B695A
:102E00001B4A23F0060313617B681B6803F56063AC
:102E10001B687A68126802F5606223F00103136090
:102E20007B68D3F8043518460CF029F91CE07B6860
:102E30001B6803F560631B687A68126802F56062BC
:102E400043F0010313607B68D3F8043518460CF097
:102E500000F97B681B6A002B05D0054B1B69044AEF
:102E600043F00603136100BF00BF0837BD4680BDB5
:102E700000ED00E080B500AFFDF79CFB00BF80BD1A
:102E800080B485B000AF0346FB710023FB73FB7970
:102E9000032B17D801A252F823F000BFAD2E000873
:102EA000B32E0008B92E0008BF2E00080023FB73C4
:102EB0000BE00323FB7308E00123FB7305E003230E
:102EC000FB7302E00323FB7300BFFB7B1846143740
:102ED000BD465DF8047B7047F0B58FB00AAF7860EF
:102EE0007B68002B01D1012316E17B681B68BB6066
:102EF0007B6893F8BD34DBB2002B06D17B680022DF
:102F000083F8BC247868FFF711FC7B68032283F800
:102F1000BD24BB68DB6B03F48073002B02D17B689C
:102F200000221A617B681B68184601F0C6FB7B68AB
:102F30001B683B607E686D4606F110040FCC0FC520
:102F40000FCC0FC594E8030085E80300331D0ECBBA
:102F5000386801F0A7FA0346002B05D07B680222EF
:102F600083F8BD240123D7E07B681B680021184645
:102F700001F0B4FB0023FB734AE0FA7B7968134647
:102F8000DB0013449B000B443D3301221A70FA7B93
:102F900079681346DB0013449B000B443C33FA7BF7
:102FA0001A70FA7BFB7B98B279681346DB001344F6
:102FB0009B000B44443302461A80FA7B796813461F
:102FC000DB0013449B000B44403300221A70FA7B51
:102FD00079681346DB0013449B000B4448330022FE
:102FE0001A60FA7B79681346DB0013449B000B449C
:102FF0004C3300221A60FA7B79681346DB001344D5
:103000009B000B44543300221A60FB7B0133FB739B
:10301000FA7B7B685B689A42AFD30023FB7344E082
:10302000FA7B79681346DB0013449B000B4403F2E0
:103030007D2300221A70FA7B79681346DB00134463
:103040009B000B4403F51F73FA7B1A70FA7B7968B7
:103050001346DB0013449B000B4403F5207300224E
:103060001A70FA7B79681346DB0013449B000B440B
:1030700003F5227300221A60FA7B79681346DB009D
:1030800013449B000B4403F5237300221A60FA7B60
:1030900079681346DB0013449B000B4403F525734A
:1030A00000221A60FB7B0133FB73FA7B7B685B6851
:1030B0009A42B5D37B681B683B607E686D4606F11B
:1030C00010040FCC0FC50FCC0FC594E8030085E8A2
:1030D0000300331D0ECB386801F04CFB0346002B78
:1030E00005D07B68022283F8BD24012314E07B68AD
:1030F000002283F838207B68012283F8BD247B6896
:103100005B6A012B02D1786801F0A8F97B681B6823
:10311000184602F09AFC002318461437BD46F0BD4D
:1031200080B582B000AF78607B6893F8BC34012B27
:1031300001D1022312E07B68012283F8BC247B6862
:103140001B68184601F0A8FA7B681B68184602F055
:103150005BFC7B68002283F8BC24002318460837F8
:10316000BD4680BD90B58DB000AF78607B681B68B0
:103170003B623B6AFB617B681B68184602F019FDE5
:103180000346002B40F0B7847B681B68184602F0AA
:103190007DFC0346002B00F0AD84FB6903F5006362
:1031A0009B681B0AC3F30D027B68C3F8FC247B6891
:1031B0001B68184602F06AFC034603F00203022B68
:1031C00007D17B681B685A697B681B6802F00202A2
:1031D0005A617B681B68184602F058FC034603F0EE
:1031E0001003102B61D17B681B689A697B681B6890
:1031F00022F010029A613B6A1B6ABB61BB6903F053
:103200000F021346DB0013449B0003F51E737A681C
:10321000134404337B61BB695B0C03F00F03022B87
:1032200024D1BA6947F6F0731340002B35D07B697F
:103230001969BB691B099BB2C3F30A039BB21A4607
:10324000386A02F08FFA7B691A69BB691B09C3F3FC
:103250000A031A447B691A617B691A6ABB691B09F4
:10326000C3F30A031A447B691A6216E0BB695B0C5C
:1032700003F00F03062B10D17B6803F2C44308222E
:103280001946386A02F06EFA7B691A6ABB691B0933
:10329000C3F30A031A447B691A627B681B689A6944
:1032A0007B681B6842F010029A617B681B681846B5
:1032B00002F0ECFB034603F40023B3F5002F40F0CB
:1032C000A78000237B627B681B68184602F0F1FB35
:1032D000B86299E0BB6A03F00103002B00F08E8016
:1032E0007B681B687A6AD2B21146184602F015FC58
:1032F00038613B6903F00103002B0CD07B6A5A0153
:10330000FB69134403F530631A4601239360796A1D
:10331000786800F01DFF3B6903F00803002B0CD018
:103320007B6A5A01FB69134403F530631A4608238C
:103330009360796A786800F0F3FF3B6903F010034B
:10334000002B08D07B6A5A01FB69134403F53063F4
:103350001A46102393603B6903F00203002B30D020
:103360003B6A5B6903F08003802B09D1FB6903F59D
:1033700000635B68FA6902F5006243F4806353609E
:103380007A6A1346DB0013449B0003F51E737A68C8
:10339000134404337B617B69DB78012B08D17B69A3
:1033A0000022DA707B6ADBB219467868FFF724FBEB
:1033B0007B6A5A01FB69134403F530631A46022302
:1033C00093603B6903F02003002B08D07B6A5A010D
:1033D000FB69134403F530631A46202393603B696D
:1033E00003F40053002B09D07B6A5A01FB69134494
:1033F00003F530631A464FF4005393607B6A013340
:103400007B62BB6A5B08BB62BB6A002B7FF462AF66
:103410007B681B68184602F039FB034603F48023DF
:10342000B3F5802F40F0DB807B681B68184602F004
:103430005AFBB86200237B62CDE0BB6A03F0010354
:10344000002B00F0C2807B681B687A6AD2B21146FA
:10345000184602F080FB38613B6903F00103002B42
:1034600057D07B6A03F00F03012202FA03F3FB60DB
:10347000FB6903F500635A6BFB68DB43F96901F5EF
:10348000006113404B637B6A5A01FB69134403F5E7
:1034900010631A46012393607B681B69012B32D1AC
:1034A00079687A6A1346DB0013449B000B444C3363
:1034B000196878687A6A1346DB0013449B0003445A
:1034C00048331B68194478687A6A1346DB00134452
:1034D0009B0003444C3319607B6A002B13D179683D
:1034E0007A6A1346DB0013449B000B4454331B6879
:1034F000002B08D17B6818687B6803F2C4431A4626
:10350000012102F089FB7B6ADBB219467868FFF77C
:10351000EEF93B6903F00803002B08D07B6A5A01DF
:10352000FB69134403F510631A46082393603B6953
:1035300003F01003002B08D07B6A5A01FB69134487
:1035400003F510631A46102393603B6903F04003B0
:10355000002B08D07B6A5A01FB69134403F5106302
:103560001A46402393603B6903F00203002B23D0EB
:10357000796A386A01F05CFA7A6A1346DB00134410
:103580009B0038337A68134404337B617B69DB78B2
:10359000012B08D17B690022DA707B6ADBB2194605
:1035A0007868FFF73BFA7B6A5A01FB69134403F51D
:1035B00010631A46022393603B6903F08003002BDB
:1035C00003D0796A786800F035FD7B6A01337B624D
:1035D000BB6A5B08BB62BB6A002B7FF42EAF7B68C3
:1035E0001B68184602F052FA034603F00043B3F199
:1035F000004F22D1FB6903F500635B68FA6902F5AD
:10360000006223F0010353607B6893F8F434012BCC
:1036100008D17B68002283F8F42400217868FFF742
:10362000DBFB02E07868FFF7D9F97B681B685A6911
:103630007B681B6802F000425A617B681B68184671
:1036400002F024FA034603F40063B3F5006F12D1CD
:10365000FB6903F500639B6803F00103012B02D1B2
:103660007868FFF795F97B681B685A697B681B6867
:1036700002F400625A617B681B68184602F006FA81
:10368000034603F00063B3F1006F21D17B681B6830
:103690005A697B681B6802F000625A617B6893F884
:1036A000F434002B11D17B68012283F8F4247B6869
:1036B0001B685B6D9B0803F00F027B68C3F8F8245E
:1036C00001217868FFF788FB02E07868FFF760F96E
:1036D0007B681B68184602F0D9F9034603F480534F
:1036E000B3F5805F40F0B780FB6903F500635B686A
:1036F000FA6902F5006223F0010353607B681B68DE
:103700001021184601F094F90023FB6246E0FB6AA1
:103710005A01FB69134403F510631A464FF67F33D1
:103720009360FB6A5A01FB69134403F510631B683D
:10373000FA6A5101FA690A4402F5106223F400138F
:103740001360FB6A5A01FB69134403F530631A46A0
:103750004FF67F339360FB6A5A01FB69134403F50C
:1037600030631B68FA6A5101FA690A4402F5306253
:1037700023F400131360FB6A5A01FB69134403F539
:1037800030631B68FA6A5101FA690A4402F5306233
:1037900043F000631360FB6A0133FB627B685B6884
:1037A000FA6A9A42B3D3FB6903F50063DB69FA69ED
:1037B00002F5006243F00113D3617B681B6B002BA1
:1037C00016D0FB6903F50063D3F88430FA6902F57B
:1037D000006243F00B03C2F88430FB6903F5006319
:1037E0005B6CFA6902F5006243F00B03536415E069
:1037F000FB6903F500635A69FB6903F50063194629
:1038000042F22B0313434B61FB6903F500631B6911
:10381000FA6902F5006243F00B031361FB6903F5DB
:1038200000631B68FA6902F5006223F4FE6313600B
:103830007B6818687B681B69D9B27B6803F2C44354
:103840001A4602F0E9F97B681B685A697B681B68B5
:1038500002F480525A617B681B68184602F016F920
:10386000034603F40053B3F5005F24D17B681B6863
:10387000184602F0ADF97B681B68184601F055F94F
:1038800003461A467B68DA607B681C6802F0ACFE6F
:1038900001467B68DB68DBB21A46204600F05AFE20
:1038A0007868FFF74CF87B681B685A697B681B686F
:1038B00002F400525A617B681B68184602F0E6F871
:1038C000034603F00803082B0AD17868FFF729F8AC
:1038D0007B681B685A697B681B6802F008025A61A2
:1038E0007B681B68184602F0D1F8034603F080039A
:1038F000802B22D13B6A9B6923F080023B6A9A614C
:1039000001237B6214E079687A6A1346DB00134472
:103910009B000B4403F27F231B78012B05D17B6AAC
:10392000DBB21946786800F027FB7B6A01337B62C3
:103930007B685B687A6A9A42E5D37B681B681846A5
:1039400002F0A4F8034603F48013B3F5801F3BD1C3
:1039500001237B622BE07B6A5A01FB69134403F568
:1039600010631B68BB6179687A6A1346DB001344F5
:103970009B000B4440331B78012B15D1BB69002BF6
:1039800012DA79687A6A1346DB0013449B000B4411
:103990003F3301221A707B6ADBB263F07F03DBB234
:1039A0001946786800F0E8FA7B6A01337B627B682D
:1039B0005B687A6A9A42CED37B681B685A697B68D7
:1039C0001B6802F480125A617B681B68184602F07B
:1039D0005DF8034603F40013B3F5001F55D101232E
:1039E0007B6245E07B6A5A01FB69134403F530634F
:1039F0001B68BB6179687A6A1346DB0013449B003D
:103A00000B4403F520731B78012B2ED1BB69002BCF
:103A10002BDABB6903F480327B68D3F8FC3403F003
:103A200001039A4221D179687A6A1346DB00134474
:103A30009B000B4403F27F2301221A703B6A9B69AF
:103A400043F080023B6A9A613B6A5B6903F0800342
:103A5000002B0AD1FB6903F500635B68FA6902F584
:103A6000006243F40073536007E07B6A01337B62BA
:103A70007B685B687A6A9A42B4D37B681B685A6930
:103A80007B681B6802F400125A617B681B68184649
:103A900001F0FCFF034603F08043B3F1804F0AD1ED
:103AA0007868FEF7CDFF7B681B685A697B681B68E6
:103AB00002F080425A617B681B68184601F0E6FFFD
:103AC000034603F00403042B15D17B681B685B6875
:103AD000BB61BB6903F00403002B02D07868FEF7DA
:103AE000BDFF7B681B6859687B681B68BA690A431D
:103AF0005A6000E000BF3437BD4690BD80B582B04B
:103B000000AF78600B46FB707B6893F8BC34012BE8
:103B100001D1022313E07B68012283F8BC247B6877
:103B2000FA7883F838207B681B68FA7811461846C3
:103B300001F044FF7B68002283F8BC240023184670
:103B40000837BD4680BD80B584B000AF78600846B8
:103B500011461A460346FB700B463B801346BB706A
:103B60000023FB7297F90330002B0FDAFB7803F088
:103B70000F021346DB0013449B0038337A6813446A
:103B80000433FB60FB6801225A700FE0FB7803F0FE
:103B90000F021346DB0013449B0003F51E737A6883
:103BA00013440433FB60FB6800225A70FB7803F077
:103BB0000F03DAB2FB681A703A88FB68DA60FB68B8
:103BC000BA781A71FB685B78002B04D0FB681B780D
:103BD0009AB2FB681A81BB78022B02D1FB680022E3
:103BE0005A717B6893F8BC34012B01D102230EE09B
:103BF0007B68012283F8BC247B681B68F96818463F
:103C000000F0B8FF7B68002283F8BC24FB7A1846DA
:103C10001037BD4680BD80B584B000AF78600B46DC
:103C2000FB7097F90330002B0FDAFB7803F00F02DB
:103C30001346DB0013449B0038337A681344043383
:103C4000FB60FB6801225A700FE0FB7803F00F0263
:103C50001346DB0013449B0003F51E737A6813447C
:103C60000433FB60FB6800225A70FB7803F00F03FB
:103C7000DAB2FB681A707B6893F8BC34012B01D16F
:103C800002230EE07B68012283F8BC247B681B685A
:103C9000F968184600F0F6FF7B68002283F8BC2420
:103CA000002318461037BD4680BD80B586B000AFF2
:103CB000F8607A603B600B46FB72FB7A03F00F0200
:103CC0001346DB0013449B0003F51E73FA6813448C
:103CD00004337B617B697A681A617B693A689A610F
:103CE0007B6900221A627B6900225A70FB7A03F01A
:103CF0000F03DAB27B691A70FB681B69012B02D1D2
:103D00007A687B695A61FB7A03F00F03002B09D1B3
:103D1000FB681868FB681B69DBB21A46796901F019
:103D2000DDFA08E0FB681868FB681B69DBB21A461D
:103D3000796901F083F8002318461837BD4680BD25
:103D400080B483B000AF78600B46FB70FB7803F063
:103D50000F0279681346DB0013449B000B4403F504
:103D600027731B6818460C37BD465DF8047B704707
:103D700080B586B000AFF8607A603B600B46FB729E
:103D8000FB7A03F00F021346DB0013449B00383329
:103D9000FA68134404337B617B697A681A617B6932
:103DA0003A689A617B6900221A627B6901225A7023
:103DB000FB7A03F00F03DAB27B691A70FB681B69A8
:103DC000012B02D17A687B695A61FB7A03F00F03F9
:103DD000002B09D1FB681868FB681B69DBB21A4627
:103DE000796901F07BFA08E0FB681868FB681B69D9
:103DF000DBB21A46796901F021F80023184618371A
:103E0000BD4680BD80B584B000AF78600B46FB70C6
:103E1000FB7803F00F027B685B689A4201D90123AB
:103E200050E097F90330002B0FDAFB7803F00F0214
:103E30001346DB0013449B0038337A681344043381
:103E4000FB60FB6801225A700DE0FA781346DB0034
:103E500013449B0003F51E737A6813440433FB601C
:103E6000FB6800225A70FB6801229A70FB7803F00D
:103E70000F03DAB2FB681A707B6893F8BC34012B2D
:103E800001D102231EE07B68012283F8BC247B68F9
:103E90001B68F968184601F0BDFCFB7803F00F03BE
:103EA000002B0AD17B6818687B681B69D9B27B68D4
:103EB00003F2C4431A4601F0AFFE7B68002283F888
:103EC000BC24002318461037BD4680BD80B584B0A1
:103ED00000AF78600B46FB70FB7803F00F027B6845
:103EE0005B689A4201D9012342E097F90330002B25
:103EF0000FDAFB7803F00F021346DB0013449B003C
:103F000038337A6813440433FB60FB6801225A702B
:103F10000FE0FB7803F00F021346DB0013449B0015
:103F200003F51E737A6813440433FB60FB680022B8
:103F30005A70FB6800229A70FB7803F00F03DAB224
:103F4000FB681A707B6893F8BC34012B01D1022303
:103F50000EE07B68012283F8BC247B681B68F9684B
:103F6000184601F0C5FC7B68002283F8BC240023BE
:103F700018461037BD4680BD80B584B000AF78606C
:103F80000B46FB7097F90330002B0CDAFB7803F03B
:103F90000F021346DB0013449B0038337A68134446
:103FA0000433FB600CE0FB7803F00F021346DB00E8
:103FB00013449B0003F51E737A6813440433FB60BB
:103FC0007B681B68F968184601F0E4FA0346FB7247
:103FD000FB7A18461037BD4680BD80B582B000AF71
:103FE00078600B46FB707B6893F8BC34012B01D1E1
:103FF00002231BE07B68012283F8BC2497F903307D
:10400000002B09DA7B681A68FB7803F00F03194666
:10401000104600F00DFD04E07B681B68184600F0B8
:104020003BFD7B68002283F8BC2400231846083738
:10403000BD4680BD80B58AB002AF786039607B68CC
:104040001B687B617B693B613A681346DB00134464
:104050009B0038337A6813440433FB60FB681A6AA8
:10406000FB689B699A4201D901236CE0FB689A695D
:10407000FB681B6AD31AFB61FB68DB68FA699A422A
:1040800002D9FB68DB68FB61FB6903339B08BB61FA
:104090002BE0FB689A69FB681B6AD31AFB61FB681B
:1040A000DB68FA699A4202D9FB68DB68FB61FB694D
:1040B00003339B08BB61FB6819693B68DAB2FB6993
:1040C00098B27B681B69DBB200930346786901F004
:1040D0000BFBFB681A69FB691A44FB681A61FB68F1
:1040E0001A6AFB691A44FB681A623B685A013B6909
:1040F000134403F510639B699BB2BA699A4209D8CD
:10410000FB681A6AFB689B699A4203D2FB689B6949
:10411000002BBED1FB689A69FB681B6A9A4211D8D2
:104120003B6803F00F03012202FA03F3BB603B6913
:1041300003F500635A6BBB68DB43396901F5006125
:1041400013404B63002318462037BD4680BD000056
:1041500080B588B000AF786039607B681B68FB6110
:10416000FB69BB61FB693C3304331B687B613B68C3
:104170005A01BB69134403F530639B683B617B685C
:104180001B69012B7BD13B6903F00803002B15D081
:104190007B69614A934240F2B9803B6903F4004372
:1041A000002B00F0B3803B685A01BB69134403F550
:1041B00030631A464FF400439360A7E03B6903F075
:1041C0002003002B09D03B685A01BB69134403F557
:1041D00030631A462023936098E03B6903F028037C
:1041E000002B40F093807B694B4A93420FD93B6987
:1041F00003F40043002B0AD03B685A01BB69134407
:1042000003F530631A464FF4004393607EE03A684A
:104210001346DB0013449B0003F51E737A681344B6
:104220000433FB60FB68DA693B685901BB690B44E6
:1042300003F530631B69C3F31203D21AFB681A62D9
:104240003B68002B14D1FB689B69002B09D17B686C
:1042500018687B6803F2C4431A46012101F0DCFCB4
:1042600006E0FB681A69FB681B6A1A44FB681A615E
:104270003B68DBB219467868FEF71EFB46E07B69B7
:10428000264A934224D13B6903F40043002B0AD011
:104290003B685A01BB69134403F530631A464FF477
:1042A0000043936032E03B6903F02003002B08D009
:1042B0003B685A01BB69134403F530631A46202357
:1042C00093603B68DBB219467868FEF7F5FA1DE0AB
:1042D0003B68002B14D179683A681346DB0013441D
:1042E0009B000B4403F525731B68002B08D17B68EA
:1042F00018687B6803F2C4431A46002101F08CFC65
:104300003B68DBB219467868FEF7D6FA00231846F8
:104310002037BD4680BD00BF0A30544F0A31544F8C
:1043200080B586B000AF786039607B681B687B61C0
:104330007B693B617B693C3304331B68FB603B68F2
:104340005A013B69134403F530639B68BB60FB680B
:10435000154A93420ED9BB6803F40043002B09D0E1
:104360003B685A013B69134403F530631A464FF426
:10437000004393607868FEF78DFAFB680A4A93421F
:104380000CD97B681B69012B08D17B6818687B6896
:1043900003F2C4431A46012101F03EFC00231846F3
:1043A0001837BD4680BD00BF0A30544F80B485B079
:1043B00000AF78600B46FB7013463B807B681B6840
:1043C0005B6ABB60FB78002B07D13B8819047B68D4
:1043D0001B68BA680A439A6228E07B681B689B6A7C
:1043E0001B0CBA681344BB600023FB730DE07B68B1
:1043F0001A68FB7B40339B0013445B681B0CBA6854
:104400001344BB60FB7B0133FB73FA7BFB78013BFE
:104410009A42ECD33B8818047B681968FB78013B0F
:10442000BA68024340339B000B445A60002318468D
:104430001437BD465DF8047B704780B483B000AF8D
:1044400078600B467B807B681B687A885A62002301
:1044500018460C37BD465DF8047B704780B485B0C4
:1044600000AF78607B681B68FB607B680122C3F843
:1044700000257B68002283F8F424FB689B6943F0E5
:104480000062FB689A61FB685A6D054B1343FA683A
:104490005365002318461437BD465DF8047B70470A
:1044A0000300001084B080B584B000AF786007F1DD
:1044B0001C0080E80E003B6B012B20D17B689B6BBE
:1044C00023F480327B689A637B68DA68204B134060
:1044D0007A68D3607B68DB6823F440127B68DA601B
:1044E000FB6C012B05D17B68DB6843F480127B6891
:1044F000DA60786801F0EEFB0346FB7310E07B683E
:10450000DB6843F040027B68DA60786801F0E2FB28
:104510000346FB737B689B6B43F480327B689A6332
:10452000BB6A012B0BD17B689B6843F006027B685A
:104530009A607B689B6843F020027B689A60FB7BF3
:1045400018461037BD46BDE8804004B0704700BF34
:10455000BFFFBDFF80B487B000AFF860B9601346FD
:10456000FB71FB79022B65D1BB68414A934206D9A6
:10457000BB68404A934202D20F237B6162E0BB6872
:104580003C4A934206D3BB683B4A934202D20E2375
:104590007B6157E0BB68384A934206D3BB68374A11
:1045A000934202D20D237B614CE0BB68334A9342B5
:1045B00006D3BB68324A934202D80C237B6141E0A8
:1045C000BB682F4A934206D9BB682E4A934202D851
:1045D0000B237B6136E0BB682A4A934206D9BB684D
:1045E000294A934202D80A237B612BE0BB68264A02
:1045F000934206D9BB68254A934202D209237B61C4
:1046000020E0BB68214A934206D3BB68204A93420C
:1046100002D808237B6115E0BB681D4A934206D986
:10462000BB681C4A934202D207237B610AE006233F
:104630007B6107E0FB79002B02D109237B6101E05C
:1046400009237B61FB68DB6823F47052FB68DA6046
:10465000FB68DA687B699B0203F470531A43FB68BA
:10466000DA60002318461C37BD465DF8047B7047AE
:10467000BFACD800C0E1E4000024F4008073060160
:104680009F491A01FF2C31013FA44C0100366E01F5
:104690001FABA6010048E80180B483B000AF78608A
:1046A0007B689B6843F001027B689A600023184690
:1046B0000C37BD465DF8047B704780B483B000AF13
:1046C00078607B689B6823F001027B689A60002316
:1046D00018460C37BD465DF8047B704780B584B042
:1046E00000AF78600B46FB700023FB607B68DB68E3
:1046F00023F0C0427B68DA60FB78012B15D17B6820
:10470000DB6843F000527B68DA60012003F0B6FA00
:10471000FB680133FB60786801F04BFA0346012B1C
:104720001ED0FB68312BF0D91AE0FB78002B15D195
:104730007B68DB6843F080427B68DA60012003F02D
:104740009DFAFB680133FB60786801F032FA03469A
:10475000002B05D0FB68312BF0D901E0012305E0E7
:10476000FB68322B01D1012300E0002318461037EB
:10477000BD4680BD84B080B586B000AF786007F1DB
:10478000240080E80E000023FB757B68FB6000239B
:104790003B6109E07A683B6940339B001344002287
:1047A0005A603B6901333B613B690E2BF2D9FB6CCC
:1047B000002B1CD1FB6803F500635B68FA6802F507
:1047C000006243F0020353607B689B6B23F400128A
:1047D0007B689A637B681B6843F040027B681A60C1
:1047E0007B681B6843F080027B681A6005E07B6889
:1047F0009B6B43F400127B689A63FB6803F560636C
:104800001A4600231360FB6803F500631946FB6832
:1048100003F500631A460B681360BB6B012B0CD1C8
:10482000FB6A002B04D10021786800F065F908E0EC
:104830000121786800F060F903E00321786800F056
:104840005BF91021786800F0F3F80346002B01D0E3
:104850000123FB75786800F01FF90346002B01D097
:104860000123FB75FB6803F500631A4600231361FF
:10487000FB6803F500631A4600235361FB6803F5E8
:1048800000631A460023D36100233B6143E03B6988
:104890005A01FB68134403F510631B6803F00043DF
:1048A000B3F1004F18D13B69002B0AD13B695A0183
:1048B000FB68134403F510631A464FF0006313605E
:1048C00013E03B695A01FB68134403F510631A4671
:1048D0004FF09043136008E03B695A01FB681344B2
:1048E00003F510631A46002313603B695A01FB6805
:1048F000134403F510631A46002313613B695A0100
:10490000FB68134403F510631A464FF67F33936038
:104910003B6901333B617B6A3A699A42B7D3002312
:104920003B6143E03B695A01FB68134403F5306384
:104930001B6803F00043B3F1004F18D13B69002B13
:104940000AD13B695A01FB68134403F530631A46E8
:104950004FF00063136013E03B695A01FB68134496
:1049600003F530631A464FF09043136008E03B694B
:104970005A01FB68134403F530631A4600231360A1
:104980003B695A01FB68134403F530631A46002360
:1049900013613B695A01FB68134403F530631A46FF
:1049A0004FF67F3393603B6901333B617B6A3A6921
:1049B0009A42B7D3FB6803F500631B69FA6802F5F6
:1049C000006223F4807313617B6800229A617B6824
:1049D0006FF080425A613B6B002B05D17B689B696D
:1049E00043F010027B689A617B689A690E4B13430F
:1049F0007A689361FB6B002B05D07B689B6943F061
:104A000008027B689A61FB6C012B05D17B689A696F
:104A1000064B13437A689361FB7D18461837BD46F1
:104A2000BDE8804004B0704700383C80040000407E
:104A300080B485B000AF786039600023FB60FB680C
:104A40000133FB60FB68134A934201D903231BE047
:104A50007B681B69002BF2DA0023FB603B689B013B
:104A600043F020027B681A61FB680133FB60FB683E
:104A7000084A934201D9032306E07B681B6903F0CF
:104A80002003202BF0D0002318461437BD465DF8D4
:104A9000047B7047400D030080B485B000AF7860A0
:104AA0000023FB60FB680133FB60FB68114A934203
:104AB00001D9032318E07B681B69002BF2DA00237D
:104AC000FB607B6810221A61FB680133FB60FB68A6
:104AD000084A934201D9032306E07B681B6903F06F
:104AE0001003102BF0D0002318461437BD465DF894
:104AF000047B7047400D030080B485B000AF786040
:104B00000B46FB707B68FB60FB6803F500631A686B
:104B1000FB78F96801F5006113430B600023184628
:104B20001437BD465DF8047B704780B487B000AF92
:104B300078607B683B613B6903F500639B6803F029
:104B40000603FB60FB68002B02D10023FB750AE023
:104B5000FB68022B02D0FB68062B02D10223FB75F7
:104B600001E00F23FB75FB7D18461C37BD465DF841
:104B7000047B704780B485B000AF786039607B6893
:104B8000FB603B681B78BB603B685B78012B39D1CD
:104B9000FB6803F50063DA693B681B7803F00F03D9
:104BA000012101FA03F39BB2F96801F50061134397
:104BB000CB61BB685A01FB68134403F510631B68A3
:104BC00003F40043002B53D1BB685A01FB68134424
:104BD00003F510631A683B68DB68C3F30A013B689E
:104BE0001B799B041943BB689B050B431A43BB68A5
:104BF0005901FB680B4403F510631946204B13431E
:104C00000B6035E0FB6803F50063DA693B681B78ED
:104C100003F00F03012101FA03F31B04F96801F506
:104C200000611343CB61BB685A01FB68134403F571
:104C300030631B6803F40043002B19D1BB685A0191
:104C4000FB68134403F530631A683B68DB68C3F301
:104C50000A013B681B799B040B431A43BB6859014B
:104C6000FB680B4403F530631946054B13430B6097
:104C7000002318461437BD465DF8047B704700BF1B
:104C80000080001080B485B000AF786039607B6828
:104C9000FB603B681B78BB603B685B78012B61D194
:104CA000BB685A01FB68134403F510631B6803F0EB
:104CB0000043B3F1004F1FD1BB685A01FB68134496
:104CC00003F510631B68BA685101FA680A4402F5DB
:104CD000106243F000631360BB685A01FB68134421
:104CE00003F510631B68BA685101FA680A4402F5BB
:104CF000106243F080431360FB6803F50063DA6BD6
:104D00003B681B7803F00F03012101FA03F39BB208
:104D1000DB43F96801F500611340CB63FB6803F5E1
:104D20000063DA693B681B7803F00F03012101FA85
:104D300003F39BB2DB43F96801F500611340CB61DB
:104D4000BB685A01FB68134403F510631A68BB681B
:104D50005901FB680B4403F510631946354B1340AA
:104D60000B6060E0BB685A01FB68134403F53063D5
:104D70001B6803F00043B3F1004F1FD1BB685A0119
:104D8000FB68134403F530631B68BA685101FA6885
:104D90000A4402F5306243F000631360BB685A01B5
:104DA000FB68134403F530631B68BA685101FA6865
:104DB0000A4402F5306243F080431360FB6803F558
:104DC0000063DA6B3B681B7803F00F03012101FAE3
:104DD00003F31B04DB43F96801F500611340CB6367
:104DE000FB6803F50063DA693B681B7803F00F0387
:104DF000012101FA03F31B04DB43F96801F50061AB
:104E00001340CB61BB685A01FB68134403F5306360
:104E10001A68BB685901FB680B4403F530631946F7
:104E2000054B13400B60002318461437BD465DF850
:104E3000047B7047007833EC0078F3EF80B58AB0DC
:104E400002AFF860B9601346FB71FB68FB61BB6899
:104E50001B78BB61BB685B78012B40F06381BB684A
:104E60009B69002B32D1BB695A01FB69134403F5DE
:104E700010631A69BB695901FB690B4403F51063A0
:104E80001946A54B13400B61BB695A01FB691344DA
:104E900003F510631B69BA695101FA690A4402F506
:104EA000106243F400231361BB695A01FB69134488
:104EB00003F510631A69BB695901FB690B4403F5DB
:104EC00010631946954B13400B6174E0BB695A019E
:104ED000FB69134403F510631A69BB695901FB6947
:104EE0000B4403F5106319468C4B13400B61BB69EF
:104EF0005A01FB69134403F510631A69BB69590130
:104F0000FB690B4403F510631946834B13400B6197
:104F1000BB695A01FB69134403F510631A69BB6846
:104F20009969BB68DB680B44591EBB68DB68B1FB41
:104F3000F3F3D9047A4B0B40B9694801F96901448C
:104F400001F5106113430B61BB695A01FB691344FE
:104F500003F510631A69BB689B69C3F31203B9694F
:104F60004801F969014401F5106113430B61BB6805
:104F70001B79012B1FD1BB695A01FB69134403F54F
:104F800010631B69BA695101FA690A4402F510629B
:104F900023F0C0431361BB695A01FB69134403F555
:104FA00010631B69BA695101FA690A4402F510627B
:104FB00043F000531361FB79012B4BD1BB685B6954
:104FC000002B09D0BB695A01FB69134403F5106338
:104FD0001A46BB685B695361BB681B79012B28D1FA
:104FE000FB6903F500639B6803F48073002B10D109
:104FF000BB695A01FB69134403F510631B68BA6966
:105000005101FA690A4402F5106243F0005313603B
:105010000FE0BB695A01FB69134403F510631B6879
:10502000BA695101FA690A4402F5106243F08053EB
:105030001360BB695A01FB69134403F510631B68D5
:10504000BA695101FA690A4402F5106243F0044357
:10505000136037E1BB695A01FB69134403F5106320
:105060001B68BA695101FA690A4402F5106243F0FB
:1050700004431360BB681B79012B15D0BB689B6987
:10508000002B00F01F81FB6903F500635A6BBB68BE
:105090001B7803F00F03012101FA03F3F96901F50D
:1050A000006113434B630DE1FB6903F500639B68EB
:1050B00003F48073002B10D1BB695A01FB691344C0
:1050C00003F510631B68BA695101FA690A4402F5D5
:1050D000106243F0005313600FE0BB695A01FB6993
:1050E000134403F510631B68BA695101FA690A4455
:1050F00002F5106243F080531360BB681969BB6806
:105100001A78BB689B6998B2FB7900930346F868EC
:1051100000F0EAFAD6E000BFFFFF07E00000F8FF6A
:105120000000F81FBB695A01FB69134403F53063A3
:105130001A69BB695901FB690B4403F530631946D1
:10514000634B13400B61BB695A01FB69134403F5C0
:1051500030631A69BB695901FB690B4403F530637D
:1051600019465C4B13400B61BB689B69002B23D134
:10517000BB695A01FB69134403F530631A69BB68C4
:10518000DB68C3F31203B9694801F969014401F509
:10519000306113430B61BB695A01FB69134403F58A
:1051A00030631B69BA695101FA690A4402F5306239
:1051B00043F40023136137E0BB689A69BB68DB687E
:1051C00013445A1EBB68DB68B2FBF3F3FB82BB6877
:1051D000DB68FA8A03FB02F2BB68DA61BB695A0139
:1051E000FB69134403F530631A69FB8AD9043A4B0F
:1051F0000B40B9694801F969014401F53061134375
:105200000B61BB695A01FB69134403F530631A69EA
:10521000BB68DB69C3F31203B9694801F96901444A
:1052200001F5306113430B61FB79012B0DD1BB6894
:105230001B69002B09D0BB681969BB695A01FB695E
:10524000134403F530630A465A61BB681B79012B8E
:1052500028D1FB6903F500639B6803F48073002B7E
:1052600010D1BB695A01FB69134403F530631B6815
:10527000BA695101FA690A4402F5306243F00053F9
:1052800013600FE0BB695A01FB69134403F53063F7
:105290001B68BA695101FA690A4402F5306243F0A9
:1052A00080531360BB695A01FB69134403F53063F3
:1052B0001B68BA695101FA690A4402F5306243F089
:1052C00004431360002318462037BD4680BD00BF4D
:1052D0000000F8FFFFFF07E00000F81F80B487B070
:1052E00000AFF860B9601346FB71FB687B61BB6877
:1052F0001B783B61BB685B78012B40F0CE80BB68BC
:105300009B69002B32D13B695A017B69134403F539
:1053100010631A693B6959017B690B4403F51063FB
:1053200019469A4B13400B613B695A017B69134440
:1053300003F510631B693A6951017A690A4402F561
:10534000106243F4002313613B695A017B691344E3
:1053500003F510631A693B6959017B690B4403F536
:10536000106319468A4B13400B614EE03B695A01AA
:105370007B69134403F510631A693B6959017B6922
:105380000B4403F510631946814B13400B613B69D5
:105390005A017B69134403F510631A693B6959018B
:1053A0007B690B4403F510631946784B13400B617E
:1053B000BB689A69BB68DB689A4203D9BB68DA6844
:1053C000BB689A613B695A017B69134403F510631A
:1053D0001B693A6951017A690A4402F5106243F483
:1053E000002313613B695A017B69134403F5106381
:1053F0001A69BB689B69C3F312033969480179696B
:10540000014401F5106113430B61FB79012B1ED19F
:10541000BB685B69002B09D03B695A017B69134467
:1054200003F510631A46BB685B6953613B695A0117
:105430007B69134403F510631B683A6951017A696B
:105440000A4402F5106243F00443136097E03B699D
:105450005A017B69134403F510631B683A695101D3
:105460007A690A4402F5106243F004431360BB6892
:105470009B69002B00F083807B6903F500635A6B06
:10548000BB681B7803F00F03012101FA03F379696C
:1054900001F5006113434B6371E03B695A017B697D
:1054A000134403F530631A693B6959017B690B4466
:1054B00003F530631946364B13400B613B695A01C3
:1054C0007B69134403F530631A693B6959017B69B1
:1054D0000B4403F5306319462C4B13400B61BB683A
:1054E0009B69002B03D0BB68DA68BB689A61BB6814
:1054F000DA68BB68DA613B695A017B69134403F5DA
:1055000030631B693A6951017A690A4402F53062D5
:1055100043F4002313613B695A017B69134403F58B
:1055200030631A69BB68DB69C3F312033969480148
:105530007969014401F5306113430B61FB79012B5B
:105540000DD1BB681B69002B09D0BB6819693B6989
:105550005A017B69134403F530630A465A613B697B
:105560005A017B69134403F530631B683A695101A2
:105570007A690A4402F5306243F004431360002361
:1055800018461C37BD465DF8047B7047FFFF07E0F7
:105590000000F8FF80B487B000AF78603960002366
:1055A000FB600023FB757B683B613B685B78012BEC
:1055B0004AD13B681B785A013B69134403F51063D9
:1055C0001B6803F00043B3F1004F40F086803B6856
:1055D0001B785A013B69134403F510631B683A6852
:1055E000127851013A690A4402F5106243F00063EF
:1055F00013603B681B785A013B69134403F5106341
:105600001B683A68127851013A690A4402F510623F
:1056100043F080431360FB680133FB60FB6842F298
:105620001072934202D90123FB7556E03B681B7848
:105630005A013B69134403F510631B6803F00043F0
:10564000B3F1004FE7D048E03B681B785A013B6953
:10565000134403F530631B6803F00043B3F1004FBC
:105660003BD13B681B785A013B69134403F5306317
:105670001B683A68127851013A690A4402F53062AF
:1056800043F0006313603B681B785A013B69134485
:1056900003F530631B683A68127851013A690A448D
:1056A00002F5306243F080431360FB680133FB6016
:1056B000FB6842F21072934202D90123FB750CE0A1
:1056C0003B681B785A013B69134403F530631B6840
:1056D00003F00043B3F1004FE7D0FB7D18461C37C1
:1056E000BD465DF8047B704780B489B000AFF860B8
:1056F000B96011461A460B46FB711346BB80FB6826
:105700007B61BB68FB6197F82830002B23D1BB88F5
:1057100003339B083B610023BB6118E0FB791A034C
:105720007B69134403F580531A46FB691B681360B9
:10573000FB690133FB61FB690133FB61FB690133E9
:10574000FB61FB690133FB61BB690133BB61BA6972
:105750003B699A42E2D3002318462437BD465DF8E0
:10576000047B704780B48BB000AFF860B96013461B
:10577000FB80FB68BB61BB687B62FB889B089BB2BC
:105780007B61FB8803F00303FB8300233B6214E08F
:10579000BB6903F580531A687B6A1A607B6A013320
:1057A0007B627B6A01337B627B6A01337B627B6A4B
:1057B00001337B623B6A01333B623A6A7B699A42FE
:1057C000E6D3FB8B002B1ED000233B62BB6903F5A5
:1057D00080531A4607F1100312681A603A693B6A4F
:1057E000DBB2DB0022FA03F3DAB27B6A1A703B6A9F
:1057F00001333B627B6A01337B62FB8B013BFB83A2
:10580000FB8B002BEAD17B6A18462C37BD465DF82E
:10581000047B704780B485B000AF786039607B68E6
:10582000FB603B681B78BB603B685B78012B2CD12D
:10583000BB685A01FB68134403F510631B68002B17
:1058400012DBBB68002B0FD0BB685A01FB68134406
:1058500003F510631B68BA685101FA680A4402F53F
:10586000106223F080431360BB685A01FB68134445
:1058700003F510631B68BA685101FA680A4402F51F
:10588000106243F4001313602BE0BB685A01FB68FD
:10589000134403F530631B68002B12DBBB68002B3D
:1058A0000FD0BB685A01FB68134403F530631B68D3
:1058B000BA685101FA680A4402F5306223F0804365
:1058C0001360BB685A01FB68134403F530631B681F
:1058D000BA685101FA680A4402F5306243F40013D1
:1058E0001360002318461437BD465DF8047B7047EB
:1058F00080B485B000AF786039607B68FB603B683E
:105900001B78BB603B685B78012B28D1BB685A01D0
:10591000FB68134403F510631B68BA685101FA6809
:105920000A4402F5106223F4001313603B681B79EC
:10593000032B03D03B681B79022B38D1BB685A017B
:10594000FB68134403F510631B68BA685101FA68D9
:105950000A4402F5106243F08053136027E0BB68ED
:105960005A01FB68134403F530631B68BA685101A0
:10597000FA680A4402F5306223F4001313603B68AE
:105980001B79032B03D03B681B79022B0FD1BB681B
:105990005A01FB68134403F530631B68BA68510170
:1059A000FA680A4402F5306243F080531360002322
:1059B00018461437BD465DF8047B704780B485B047
:1059C00000AF78600B46FB707B68FB60FB6803F5FB
:1059D00000631B68FA6802F5006223F4FE6313603B
:1059E000FB6803F500631A68FB781B0103F4FE6390
:1059F000F96801F5006113430B6000231846143762
:105A0000BD465DF8047B704780B485B000AF786018
:105A10007B68FB60FB6803F560631B68FA6802F54E
:105A2000606223F003031360FB6803F500635B68A7
:105A3000FA6802F5006223F002035360002318465F
:105A40001437BD465DF8047B704780B485B000AF65
:105A500078607B68FB60FB6803F560631B68FA682D
:105A600002F5606223F003031360FB6803F5006333
:105A70005B68FA6802F5006243F00203536000239A
:105A800018461437BD465DF8047B704780B485B076
:105A900000AF78607B685B69FB607B689B69FA6834
:105AA0001340FB60FB6818461437BD465DF8047B65
:105AB000704780B485B000AF78607B68FB60FB689E
:105AC00003F500639B69BB60FB6803F50063DB695A
:105AD000BA681340BB60BB681B0C18461437BD4640
