:020000040800F2
:100000000000052039890108691800086F180008E8
:10001000751800087B18000881180008000000000F
:10002000000000000000000000000000F14801088E
:100030008718000800000000014B0108694B010807
:100040008989010889890108898901088989010844
:100050008989010889890108898901088989010834
:100060008989010889890108898901088989010824
:100070008989010889890108898901088989010814
:100080008989010889890108898901088989010804
:1000900089890108898901088989010889890108F4
:1000A00089890108898901088989010889890108E4
:1000B00089890108898901088989010889890108D4
:1000C00089890108898901088989010889890108C4
:1000D00089890108898901088989010889890108B4
:1000E00089890108898901088989010889890108A4
:1000F0008989010889890108898901088989010894
:1001000089890108951800088989010889890108E9
:100110008989010889890108A918000889890108C5
:10012000211900088989010889890108BD1800087A
:100130008989010889890108898901088989010853
:100140008989010889890108898901088989010843
:1001500089890108D118000889890108898901085D
:100160008989010889890108898901088989010823
:1001700089890108E5180008898901080000000044
:100180008989010889890108898901088989010803
:1001900089890108898901088989010889890108F3
:1001A000F9180008898901080D19000889890108D2
:1001B00089890108898901088989010889890108D3
:0801C000898901088989010801
:1001D00010B5054C237833B9044B13B10448AFF381
:1001E00000800123237010BDD0010020000000001A
:1001F000D093010808B5034B1BB103490348AFF383
:10020000008008BD00000000D4010020D093010848
:1002100001F0FF01102A2BDB10F0070F08D010F8B7
:10022000013B013A8B422DD010F0070F42B3F6D1BB
:10023000F0B441EA012141EA014122F007047FF0D4
:1002400000070023F0E80256083C85EA010586EA2B
:10025000010685FA47F5A3FA87F586FA47F6A5FA67
:1002600087F68EB9EED1F0BC01F0FF0102F0070273
:1002700032B110F8013B013A83EA010313B1F8D11E
:100280000020704701387047002D06BF35460338FF
:10029000073815F0010F07D1013015F4807F02BF38
:1002A000013015F4C03F0130F0BC0138704700BF89
:1002B00053B94AB9002908BF00281CBF4FF0FF31CD
:1002C0004FF0FF3000F074B9ADF1080C6DE904CEC9
:1002D00000F006F8DDF804E0DDE9022304B0704721
:1002E0002DE9F047089D04468E46002B4DD18A42E9
:1002F000944669D9B2FA82F252B101FA02F3C2F11C
:10030000200120FA01F10CFA02FC41EA030E9440AC
:100310004FEA1C48210CBEFBF8F61FFA8CF708FBCD
:1003200016E341EA034306FB07F199420AD91CEBA5
:10033000030306F1FF3080F01F81994240F21C81D7
:10034000023E63445B1AA4B2B3FBF8F008FB10331F
:1003500044EA034400FB07F7A7420AD91CEB040454
:1003600000F1FF3380F00A81A74240F20781644424
:10037000023840EA0640E41B00261DB1D4400023A9
:10038000C5E900433146BDE8F0878B4209D9002D0D
:1003900000F0EF800026C5E9000130463146BDE897
:1003A000F087B3FA83F6002E4AD18B4202D3824201
:1003B00000F2F980841A61EB030301209E46002DB0
:1003C000E0D0C5E9004EDDE702B9FFDEB2FA82F205
:1003D000002A40F09280A1EB0C014FEA1C471FFA63
:1003E0008CFE0126200CB1FBF7F307FB131140EA4A
:1003F00001410EFB03F0884208D91CEB010103F117
:10040000FF3802D2884200F2CB804346091AA4B2D8
:10041000B1FBF7F007FB101144EA01440EFB00FEAC
:10042000A64508D91CEB040400F1FF3102D2A64511
:1004300000F2BB800846A4EB0E0440EA03409CE7B0
:10044000C6F12007B34022FA07FC4CEA030C20FA5D
:1004500007F401FA06F31C43F9404FEA1C4900FA7D
:1004600006F3B1FBF9F8200C1FFA8CFE09FB1811FA
:1004700040EA014108FB0EF0884202FA06F20BD96D
:100480001CEB010108F1FF3A80F08880884240F2BD
:100490008580A8F102086144091AA4B2B1FBF9F001
:1004A00009FB101144EA014100FB0EFE8E4508D9FC
:1004B0001CEB010100F1FF346CD28E456AD9023881
:1004C000614440EA0840A0FB0294A1EB0E01A14266
:1004D000C846A64656D353D05DB1B3EB080261EBD4
:1004E0000E0101FA07F722FA06F3F1401F43C5E9AE
:1004F000007100263146BDE8F087C2F12003D840E4
:100500000CFA02FC21FA03F3914001434FEA1C4725
:100510001FFA8CFEB3FBF7F007FB10360B0C43EA17
:10052000064300FB0EF69E4204FA02F408D91CEBC7
:10053000030300F1FF382FD29E422DD902386344C5
:100540009B1B89B2B3FBF7F607FB163341EA034165
:1005500006FB0EF38B4208D91CEB010106F1FF38B4
:1005600016D28B4214D9023E6144C91A46EA0046AB
:1005700038E72E46284605E70646E3E61846F8E63D
:100580004B45A9D2B9EB020864EB0C0E0138A3E786
:100590004646EAE7204694E74046D1E7D0467BE767
:1005A000023B614432E7304609E76444023842E7DF
:1005B000704700BF80B582B000AF0346FB80C82003
:1005C00003F096FB00F07AFA00BF0837BD4680BD05
:1005D00080B483B000AF0346FB8000BF0C37BD463C
:1005E0005DF8047B704780B584B000AF0346FB80A4
:1005F00000237B730023FB730023BB7300F05EFAC0
:100600000023FB7310E0FB88DBB2A821184603F03F
:1006100051FB03467B737B7BDBB2512B01D1012362
:10062000BB73FB7B0133FB73FB7B022B02D8BB7BD1
:10063000002BE8D07B7BDBB29BB218461037BD465F
:1006400080BD80B582B000AF0346FB80FB881846B2
:1006500000F044FAFB88184600F032F900BF083772
:10066000BD4680BD80B584B000AF0346FB8000234B
:10067000FB73FB88DBB20221184603F01BFB034629
:10068000FB73FB7BDBB203F00F03DBB2FB73FB7B83
:10069000DBB2052B01D90023FB73FB7BDAB2054BE0
:1006A0005A70044B00229A70FB7BDBB2184610375D
:1006B000BD4680BDEC01002080B586B000AF03468A
:1006C000B9607A60FB810023FB740023FB75002373
:1006D000BB7500237B7500233B756D4B9A786C4B83
:1006E0005B789A4280F0CF80694B9B78092B71D858
:1006F00001A252F823F000BF2107000833070008C9
:100700004507000857070008690700087B0700082D
:100710008D0700089F070008B1070008C3070008FD
:100720000423FB750323BB7506237B7505233B75EB
:1007300051E00A23FB750923BB750C237B750B2342
:100740003B7548E01023FB750F23BB7512237B75A7
:1007500011233B753FE01623FB751523BB7518234A
:100760007B7517233B7536E01C23FB751B23BB757C
:100770001E237B751D233B752DE02223FB75212352
:10078000BB7524237B7523233B7524E02823FB754D
:100790002723BB752A237B7529233B751BE02E235A
:1007A000FB752D23BB7530237B752F233B7512E022
:1007B0003423FB753323BB7536237B7535233B759B
:1007C00009E03A23FB753923BB753C237B753B233A
:1007D0003B7500E000BFFB89DBB2FA7D114618468D
:1007E00003F068FA0346FB74FB7CDBB29AB2294B38
:1007F0001A80FB89DBB2BA7D1146184603F05AFA1B
:100800000346FB74FB7CDBB21B0203F470631AB279
:10081000204B1B881BB213431BB29AB21D4B1A808C
:100820001C4B1A88BB681A80FB89DBB27A7D1146A3
:10083000184603F03FFA0346FB74FB7CDBB29AB226
:10084000144B1A80FB89DBB23A7D1146184603F03F
:1008500031FA0346FB74FB7CDBB21B0203F47063CA
:100860001AB20C4B1B881BB213431BB29AB2094B32
:100870001A80084B1A887B681A80054B9B780133D5
:10088000DAB2034B9A7000BF1837BD4680BD00BF77
:10089000EC010020F001002080B584B000AF0346D9
:1008A000FB800023FB730123FB73FB88DBB2FA7B25
:1008B000A421184603F0E4F900BF1037BD4680BDFF
:1008C00080B584B000AF0346FB800023FB73002398
:1008D000FB73FB88DBB2FA7BA421184603F0D0F946
:1008E00000BF1037BD4680BD80B483B000AF034663
:1008F000FB80002318460C37BD465DF8047B70472B
:1009000080B483B000AF0346FB8000BF0C37BD4608
:100910005DF8047B704780B584B000AF0346396052
:10092000FB800023FB73FB88DBB20121184603F038
:10093000C1F90346FB73FB7BDBB21A463B681A60C6
:1009400000BF1037BD4680BD80B586B000AFB9602E
:100950007A603B600346FB8100233B750023FB75F7
:100960000023BB7500237B754D4B5B781A46BB6833
:10097000934280F09080BB68092B5DD801A252F8A9
:1009800023F000BFAD090008BB090008C909000831
:10099000D7090008E5090008F3090008010A000862
:1009A0000F0A00081D0A00082B0A00080323FB7524
:1009B0000723BB7508237B753FE00923FB750D23D7
:1009C000BB750E237B7538E00F23FB751323BB75B6
:1009D00014237B7531E01523FB751923BB751A238E
:1009E0007B752AE01B23FB751F23BB7520237B75BA
:1009F00023E02123FB752523BB7526237B751CE093
:100A00002723FB752B23BB752C237B7515E02D232A
:100A1000FB753123BB7532237B750EE03323FB75E9
:100A20003723BB7538237B7507E03923FB753D23DE
:100A3000BB753E237B7500E000BFFB89DBB2FA7D0E
:100A40001146184603F036F903463B753B7DDBB291
:100A50009B1103F003023B6A1A60FB89DBB2BA7D8B
:100A60001146184603F026F903463B753B7DDBB281
:100A70001A467B681A60FB89DBB27A7D11461846FC
:100A800003F018F903463B753B7DDBB21B1103F005
:100A900004023B681A6000BF1837BD4680BD00BF26
:100AA000EC01002080B400AF034B1B781846BD4614
:100AB0005DF8047B704700BFEC01002080B500AFFB
:100AC000FFF7F0FF0346002B04D103F0CFF8024BF1
:100AD00001221A7000BF80BDEC01002080B485B0F7
:100AE00000AF0346FB800023FB60FB681846143709
:100AF000BD465DF8047B7047B0B588B000AF09F023
:100B000083F900F037F800F0A5F800F089FB00F059
:100B1000D1F800F035FB00F021F900F05FF900F0AA
:100B20009DF900F01DFA00F047FA00F065FA00F0B8
:100B3000A1FA00F0CFFA03F0BBFB00F0FBFA00F0E3
:100B4000DBF80A4B3C1D1D460FCD0FC495E807008E
:100B500084E807003B1D0021184613F064FA0346A1
:100B6000034A136013F03CFAFEE700BFF493010858
:100B7000E006002080B594B000AF07F120033022DA
:100B80000021184617F044FF07F10C0300221A60F9
:100B90005A609A60DA601A6108F0F4FF2B4B1B6C04
:100BA0002A4A43F080531364284B1B6C03F0805394
:100BB000BB60BB68264B1B68254A43F44043136067
:100BC000234B1B6803F440437B607B6801233B623B
:100BD0004FF480337B620223BB634FF48003FB63DB
:100BE00019233B644FF4C8737B640223BB6409235D
:100BF000FB6407F12003184607F088F80346002B32
:100C000001D000F0F9FD08F0CDFF0346002B01D024
:100C100000F0F2FD0F23FB6002233B6100237B61A8
:100C20004FF4A053BB614FF48053FB6107F10C03F9
:100C30000621184607F00EFB0346002B01D000F0FA
:100C4000DBFD00BF5037BD4680BD00BF003802400D
:100C50000070004080B5A2B000AF3B1D842200218F
:100C6000184617F0D5FE124B7B604FF4C073BB6182
:100C700005233B620223FB6103237B620123FB62AA
:100C80004FF400333B634FF00063C7F8803000231C
:100C9000C7F884303B1D184607F0F4FC0346002BD0
:100CA00001D000F0A9FD00BF8837BD4680BD00BF60
:100CB0000800A00080B500AF0D4B0E4A1A600C4B27
:100CC00000221A710A4B00225A71094B00225A6104
:100CD000074B00229A61064B01221A62044809F070
:100CE00013FF0346002B01D000F086FD00BF80BD3E
:100CF000F40100200030024080B500AF154B164AC9
:100D00001A60144B00225A60124B00229A60114B59
:100D10000022DA600F4B00229A620E4B0022DA6248
:100D20000C4B00221A630B4B00225A63094817F040
:100D300067FA0346002B01D000F05EFD0121054853
:100D400017F0CCFC0346002B01D000F055FD00BF8E
:100D500080BD00BF1802002000B0024080B500AF87
:100D60001B4B1C4A1A601A4B1B4A5A60184B002234
:100D70009A60174B0122DA60154B00221A61144B5E
:100D800000225A61124B00229A61114B0022DA6153
:100D90000F4B00221A620E4809F088F80346002B18
:100DA00001D000F029FD0021094809F015FE034695
:100DB000002B01D000F020FD0021054809F057FE6E
:100DC0000346002B01D000F017FD00BF80BD00BF1F
:100DD0005802002000540040FFEAC00080B500AF78
:100DE0001B4B1C4A1A601A4B1B4A5A60184B0022B4
:100DF0009A60174B0122DA60154B00221A61144BDE
:100E000000225A61124B00229A61114B0022DA61D2
:100E10000F4B00221A620E4809F048F80346002BD7
:100E200001D000F0E9FC0021094809F0D5FD034696
:100E3000002B01D000F0E0FC0021054809F017FE6E
:100E40000346002B01D000F0D7FC00BF80BD00BFDF
:100E5000AC020020005C0040FFEAC00080B58EB00C
:100E600000AF3B1D34220021184617F0D1FD3A4B4C
:100E70003A4A1A60384B00225A60374B00229A6077
:100E8000354B0022DA60344B00221A61324B2822A3
:100E90005A61314B09229A612F4B3522DA612E4B70
:100EA0000B221A622C4B40F215225A622A4B40F256
:100EB0001B129A62284B40F23522DA62264B40F22E
:100EC0001D121A63244B002283F83420224B002287
:100ED00083F83520204B002283F836201E480AF084
:100EE00091F80346002B01D000F086FC00237B60C4
:100EF0004FF4F073BB600023FB604FF488733B61D9
:100F000000237B61FF23BB610023FB614FF4C063BF
:100F10003B6207237B624FF04043BB624FF4F073A8
:100F2000FB624FF488733B63002387F8343000235F
:100F300087F83530002387F836303B1D00221946EC
:100F400005480AF0F1F90346002B01D000F054FCEB
:100F500000BF3837BD4680BD000300200068014057
:100F600080B500AF124B134A1A60114B01225A6030
:100F70000F4B04229A600E4B1022DA600C4B1822A1
:100F80001A610B4B4FF4A0625A61094B00229A611F
:100F9000074B0022DA61064B00221A6204480AF06D
:100FA000D1FB0346002B01D000F026FC00BF80BD22
:100FB000A8030020001000A080B400AF0C4B0D4A25
:100FC0001A600B4B00225A60094B00229A60084BB2
:100FD0000022DA60064B00221A61054B00225A619A
:100FE000034B00229A6100BFBD465DF8047B704749
:100FF000F4030020002C014080B500AF1B4B1C4ABD
:101000001A601A4B4FF482725A60184B00229A6091
:10101000164B4FF44072DA60144B00221A61134BE6
:1010200000225A61114B4FF400729A610F4B00225B
:10103000DA610E4B00221A620C4B00225A620B4BF3
:1010400000229A62094B0722DA62084B00221A63D7
:10105000064B08225A6305480CF0D9FC0346002BC6
:1010600001D000F0C9FB00BF80BD00BF38050020E3
:101070000038004080B500AF144B154A1A60134B7E
:101080004FF4E1325A60114B00229A600F4B00225C
:10109000DA600E4B00221A610C4B0C225A610B4B8A
:1010A00000229A61094B0022DA61084B00221A6281
:1010B000064B00225A6205480DF034F80346002B17
:1010C00001D000F099FB00BF80BD00BF9C0500204F
:1010D0000010014080B500AF144B154A1A60134B45
:1010E0004FF4E1325A60114B00229A600F4B0022FC
:1010F000DA600E4B00221A610C4B0C225A610B4B2A
:1011000000229A61094B0022DA61084B00221A6220
:10111000064B00225A6205480DF004F80346002BE6
:1011200001D000F069FB00BF80BD00BF2406002095
:101130000014014080B582B000AF104B1B6B0F4A0A
:1011400043F4800313630D4B1B6B03F480037B603C
:101150007B68002205213B2008F02CFE3B2008F094
:1011600045FE00220521452008F024FE452008F018
:101170003DFE00BF0837BD4680BD00BF00380240BD
:1011800080B588B000AF3B1D00221A605A609A609B
:10119000DA601A615A619A611F4B204A1A601E4B2D
:1011A00000225A601C4B00229A601B4B0422DA601A
:1011B000194B10221A61184B40225A61164B4FF4FA
:1011C00080729A61144B0022DA61134B4FF4006273
:1011D0001A62114B4FF480525A620F4B00229A62EE
:1011E00002237B600723BB600423FB6007233B6172
:1011F00003237B610223BB610223FB613B1D194674
:10120000054809F06DFE0346002B01D000F0F4FA0A
:1012100000BF2037BD4680BDAC060020400100A0C5
:1012200080B590B000AF07F12C0300221A605A601D
:101230009A60DA601A61AF4B1B6BAE4A43F0100341
:101240001363AC4B1B6B03F01003BB62BB6AA94B6F
:101250001B6BA84A43F040031363A64B1B6B03F0C0
:1012600040037B627B6AA34B1B6BA24A43F00203E1
:101270001363A04B1B6B03F002033B623B6A9D4B65
:101280001B6B9C4A43F0080313639A4B1B6B03F0E0
:101290000803FB61FB69974B1B6B964A43F0040301
:1012A0001363944B1B6B03F00403BB61BB69914B4D
:1012B0001B6B904A43F0010313638E4B1B6B03F0CF
:1012C00001037B617B698B4B1B6B8A4A43F4007380
:1012D0001363884B1B6B03F400733B613B69854BC5
:1012E0001B6B844A43F480731363824B1B6B03F4C0
:1012F0008073FB60FB687F4B1B6B7E4A43F480630B
:1013000013637C4B1B6B03F48063BB60BB68794B3E
:101310001B6B784A43F020031363764B1B6B03F07F
:1013200020037B607B68734B1B6B724A43F0800326
:101330001363704B1B6B03F080033B603B6801221F
:1013400020216D4808F05EF800220C216B4808F05F
:1013500059F8012208216A4808F054F801224FF494
:101360008051664808F04EF800224FF4005165485D
:1013700008F048F80022C821634808F043F8082321
:10138000FB6200233B6300237B6307F12C031946B8
:101390005E4807F067FD4FF4D043FB6202233B63D6
:1013A00000237B630323BB630B23FB6307F12C0345
:1013B0001946554807F056FD1023FB6202233B6394
:1013C00000237B630023BB630223FB6307F12C0331
:1013D00019464F4807F046FD8023FB6202233B631A
:1013E00000237B630023BB630823FB6307F12C030B
:1013F0001946414807F036FD4FF40043FB620223D3
:101400003B6300237B630023BB630123FB6307F182
:101410002C0319463F4807F025FD6023FB62022399
:101420003B6300237B630023BB630D23FB6307F156
:101430002C031946354807F015FD4FF48053FB6225
:1014400000233B6300237B6307F12C0319463248DA
:1014500007F008FD4023FB624FF490133B63002329
:101460007B6307F12C031946234807F0FBFC4FF47C
:10147000E053FB6202233B6300237B630323BB63D4
:101480000A23FB6307F12C031946224807F0EAFC04
:10149000F023FB6202233B6300237B630023BB63D7
:1014A0000A23FB6307F12C031946144807F0DAFC02
:1014B0004FF48063FB6202233B6300237B630023C2
:1014C000BB630A23FB6307F12C0319460E4807F0A0
:1014D000C9FC2023FB6201233B6300237B630023C1
:1014E000BB6307F12C031946034807F0BBFC082334
:1014F00014E000BF00380240000C0240002002400F
:1015000000280240001C0240001802400010024067
:10151000000402400000024000240240FB6202235B
:101520003B6300237B630023BB630D23FB6307F155
:101530002C0319468E4807F095FC41F20C03FB6220
:1015400001233B6300237B630023BB6307F12C0370
:101550001946884807F086FC4FF40053FB620023CD
:101560003B6300237B6307F12C031946824807F095
:1015700079FC0823FB6201233B6300237B63002388
:10158000BB6307F12C0319467C4807F06BFC4FF452
:101590000073FB6202233B6300237B630023BB6376
:1015A0000D23FB6307F12C031946754807F05AFC1D
:1015B0001023FB6200233B6300237B6307F12C03B2
:1015C00019466B4807F04EFC48F20403FB62002307
:1015D0003B6300237B6307F12C031946694807F03E
:1015E00041FC4FF40053FB6201233B6300237B6308
:1015F0000023BB6307F12C031946624807F032FC55
:101600004FF4BC43FB6202233B6300237B63002354
:10161000BB630D23FB6307F12C031946594807F000
:1016200021FC0123FB6202233B6300237B63002335
:10163000BB630223FB6307F12C0319464D4807F0F7
:1016400011FC4FF48073FB6202233B6300237B6336
:101650000023BB630123FB6307F12C0319464A48AF
:1016600007F000FC4FF40053FB624FF490133B6310
:1016700000237B6307F12C0319463E4807F0F2FB79
:10168000C823FB6201233B6300237B630023BB630E
:1016900007F12C0319463A4807F0E4FB4FF4F863CE
:1016A000FB6203233B6300237B6307F12C03194692
:1016B000364807F0D7FB3223FB6202233B6300234B
:1016C0007B630323BB630B23FB6307F12C031946E6
:1016D000294807F0C7FB0423FB6200233B63002378
:1016E0007B6307F12C031946254807F0BBFB8623D3
:1016F000FB6202233B6300237B630323BB630B2357
:10170000FB6307F12C0319461F4807F0ABFB0123CD
:10171000FB6203233B6300237B6307F12C03194621
:10172000194807F09FFB5023FB6202233B63002311
:101730007B630023BB630D23FB6307F12C03194676
:10174000114807F08FFB4023FB6202233B63002319
:101750007B630023BB630923FB6307F12C0319465A
:10176000084807F07FFB00BF4037BD4680BD00BF83
:10177000000C024000200240000802400028024005
:1017800000180240001C0240000002400014024009
:1017900090B583B000AF786002F0B6FA02F09AFD1F
:1017A00001F06EFC00F0D2FF00F0EAFF03469CB2AD
:1017B00000F0FAFF03469BB21946204601F084FE72
:1017C00000F0D0FE02F0AEFA01F0C4FC642012F08A
:1017D00076FCF9E780B582B000AF78607B681B6863
:1017E000044A934201D108F01DFB00BF0837BD46F3
:1017F00080BD00BF0010004080B400AF72B600BFD3
:10180000FEE780B400AF00BFBD465DF8047B7047C3
:1018100080B483B000AF7860396000BF0C37BD463C
:101820005DF8047B704780B400AF00BFBD465DF833
:10183000047B704780B485B000AFF860B9607A600F
:10184000FB68074A1A60BB68064A1A607B688022F8
:101850001A6000BF1437BD465DF8047B704700BFB7
:10186000E8060020680B002080B400AFFEE780B4DB
:1018700000AFFEE780B400AFFEE780B400AFFEE744
:1018800080B400AFFEE780B400AF00BFBD465DF896
:10189000047B704780B500AF02480BF00DF800BF25
:1018A00080BD00BFF403002080B500AF02480CF0FB
:1018B00033FA00BF80BD00BFCC0D002080B500AF63
:1018C000024807F0E9FE00BF80BD00BF7804002099
:1018D00080B500AF024807F0DFFE00BF80BD00BF4B
:1018E000D804002080B500AF024803F023FC00BFFD
:1018F00080BD00BF9817002080B500AF024809F0F6
:1019000051FC00BF80BD00BF0003002080B500AFC8
:10191000024816F0D3FD00BF80BD00BF18020020B2
:1019200080B500AF034B1B6B184607F0B5FE00BF38
:1019300080BD00BFAC06002080B582B000AF114B67
:101940001B6C104A43F0805313640E4B1B6C03F066
:1019500080537B607B680B4B5B6C0A4A43F480438B
:101960005364084B5B6C03F480433B603B6800228C
:101970000F216FF0010008F01DFA00BF0837BD46C7
:1019800080BD00BF0038024080B485B000AF7860F1
:101990007B681B680A4A93420BD10A4B1B6B094AAE
:1019A00043F480531363074B1B6B03F48053FB60BA
:1019B000FB6800BF1437BD465DF8047B704700BF6D
:1019C000003002400038024080B584B000AF78603B
:1019D0007B681B680D4A934213D10D4B1B6B0C4A5D
:1019E00043F4000313630A4B1B6B03F40003FB6017
:1019F000FB68002205215A2008F0DCF95A2008F083
:101A0000F5F900BF1037BD4680BD00BF00B00240F1
:101A10000038024080B5ACB000AF786007F19C039D
:101A200000221A605A609A60DA601A6107F118039E
:101A300084220021184616F0EBFF7B681B68444A9D
:101A400093423DD14FF48043BB610023FB6707F114
:101A50001803184606F016FE0346002B01D0FFF7C8
:101A6000CBFE3C4B1B6B3B4A43F002031363394BE9
:101A70001B6B03F002037B617B694FF44073C7F873
:101A80009C301223C7F8A0300123C7F8A4300023EC
:101A9000C7F8A8300423C7F8AC3007F19C031946F7
:101AA0002D4807F0DFF92B4B1B6C2A4A43F4001337
:101AB0001364284B1B6C03F400133B613B6942E049
:101AC0007B681B68254A93423DD14FF48033BB614C
:101AD0000023C7F8843007F11803184606F0D2FD3A
:101AE0000346002B01D0FFF787FE1A4B1B6B194AE8
:101AF00043F080031363174B1B6B03F08003FB6001
:101B0000FB684FF4C073C7F89C301223C7F8A030AD
:101B10000123C7F8A4300323C7F8A8300423C7F86B
:101B2000AC3007F19C0319460D4807F09BF9094BAF
:101B30001B6C084A43F400031364064B1B6C03F44C
:101B40000003BB60BB6800BFB037BD4680BD00BFAF
:101B5000005400400038024000040240005C004095
:101B6000001C024080B582B000AF78607B681B68C3
:101B7000154A934210D1154B1B6C144A23F40013E1
:101B800013644FF48071124807F018FB4FF4007192
:101B90000F4807F013FB13E07B681B680D4A934264
:101BA0000ED10A4B1B6C094A23F4000313648021F5
:101BB000094807F003FB4FF48071074807F0FEFA6D
:101BC00000BF0837BD4680BD0054004000380240C9
:101BD00000040240005C0040001C024080B58EB052
:101BE00000AF786007F1240300221A605A609A60FF
:101BF000DA601A617B681B68554A934240F0A38003
:101C0000544B5B6C534A43F080635364514B5B6CA1
:101C100003F080633B623B6A4E4B1B6B4D4A43F0C3
:101C2000100313634B4B1B6B03F01003FB61FB6949
:101C3000484B1B6B474A43F400731363454B1B6BC4
:101C400003F40073BB61BB69424B1B6B414A43F415
:101C5000806313633F4B1B6B03F480637B617B6981
:101C60003C4B1B6B3B4A43F040031363394B1B6BEC
:101C700003F040033B613B69364B1B6B354A43F431
:101C800080731363334B1B6B03F48073FB60FB683F
:101C900010237B620223BB620023FB6203233B63AE
:101CA0000E237B6307F1240319462B4807F0DAF86B
:101CB0004EF6FF737B620223BB620023FB620323A9
:101CC0003B630E237B6307F124031946234807F087
:101CD000C9F8F7237B620223BB620023FB62032364
:101CE0003B630E237B6307F1240319461C4807F06E
:101CF000B9F84FF480537B620223BB620023FB627E
:101D000003233B6309237B6307F12403194615482A
:101D100007F0A8F84FF446437B620223BB6200231E
:101D2000FB6203233B630E237B6307F12403194605
:101D30000D4807F097F800220521582008F03AF8DE
:101D4000582008F053F800BF3837BD4680BD00BFAB
:101D500000680140003802400010024000240240A8
:101D600000280240001802400020024080B58CB0DC
:101D700000AF786007F11C0300221A605A609A6075
:101D8000DA601A617B681B683B4A934270D13B4B17
:101D90009B6B3A4A43F002039363384B9B6B03F00F
:101DA0000203BB61BB69354B1B6B344A43F0100324
:101DB0001363324B1B6B03F010037B617B692F4B6A
:101DC0001B6B2E4A43F0020313632C4B1B6B03F077
:101DD00002033B613B69294B1B6B284A43F0080314
:101DE0001363264B1B6B03F00803FB60FB680423A3
:101DF000FB6102233B6200237B620323BB62092356
:101E0000FB6207F11C0319461D4807F02BF840231D
:101E1000FB6102233B6200237B620323BB620A2334
:101E2000FB6207F11C031946164807F01BF8042350
:101E3000FB6102233B6200237B620323BB62092315
:101E4000FB6207F11C0319460E4807F00BF84FF42C
:101E50006053FB6102233B6200237B620323BB626E
:101E60000923FB6207F11C031946074806F0FAFF35
:101E700000BF3037BD4680BD001000A000380240D2
:101E80000010024000040240000C024080B58AB0FD
:101E900000AF786007F1140300221A605A609A605C
:101EA000DA601A617B681B68664A934240F0C5801D
:101EB000654B5B6C644A43F400635364624B5B6C38
:101EC00003F400633B613B695F4B1B6B5E4A43F06D
:101ED000040313635C4B1B6B03F00403FB60FB68A0
:101EE000594B1B6B584A43F008031363564B1B6B4B
:101EF00003F00803BB60BB684FF4F8537B61022317
:101F0000BB610023FB6103233B620C237B6207F16F
:101F1000140319464D4806F0A5FF04237B610223F4
:101F2000BB610023FB6103233B620C237B6207F14F
:101F300014031946464806F095FF464B464A1A6078
:101F4000444B4FF000625A60424B00229A60414B72
:101F50000022DA603F4B4FF480621A613D4B4FF430
:101F600080525A613B4B4FF480429A61394B202298
:101F7000DA61384B4FF440321A62364B04225A620F
:101F8000344B03229A62334B4FF40002DA62314B36
:101F90004FF400121A632F4807F04EFA0346002B45
:101FA00001D0FFF729FC7B682A4A1A64294A7B681A
:101FB00093632A4B2A4A1A60284B4FF000625A60FA
:101FC000264B40229A60254B0022DA60234B4FF4C7
:101FD00080621A61214B4FF480525A611F4B4FF4BB
:101FE00080429A611D4B2022DA611C4B4FF4403233
:101FF0001A621A4B04225A62184B03229A62174B38
:102000004FF40002DA62154B4FF400121A631348C2
:1020100007F012FA0346002B01D0FFF7EDFB7B68B7
:102020000E4ADA630D4A7B68936300220521312052
:1020300007F0C0FE312007F0D9FE00BF2837BD46AB
:1020400080BD00BF002C0140003802400008024063
:10205000000C02407804002058640240D80400209C
:10206000A064024080B58AB000AF786007F1140325
:1020700000221A605A609A60DA601A617B681B68F5
:10208000254A934244D1254B1B6C244A43F4804398
:102090001364224B1B6C03F480433B613B691F4B71
:1020A0001B6B1E4A43F4807313631C4B1B6B03F4BE
:1020B0008073FB60FB68194B1B6B184A43F00203EB
:1020C0001363164B1B6B03F00203BB60BB68022358
:1020D0007B610223BB610023FB6100233B6205237C
:1020E0007B6207F1140319460D4806F0BBFE4FF45E
:1020F00040437B610223BB610023FB6100233B6201
:1021000005237B6207F114031946064806F0AAFE70
:1021100000BF2837BD4680BD00380040003802406F
:10212000002002400004024080B5AEB000AF7860ED
:1021300007F1A40300221A605A609A60DA601A61FB
:1021400007F1200384220021184616F061FC7B6809
:102150001B68534A93425DD140233B6200237B6658
:1021600007F12003184606F08DFA0346002B01D034
:10217000FFF742FB4B4B5B6C4A4A43F0100353643E
:10218000484B5B6C03F01003FB61FB69454B1B6B19
:10219000444A43F002031363424B1B6B03F00203F8
:1021A000BB61BB693F4B1B6B3E4A43F001031363AA
:1021B0003C4B1B6B03F001037B617B698023C7F8F9
:1021C000A4300223C7F8A8300023C7F8AC3000239E
:1021D000C7F8B0300723C7F8B43007F1A403194695
:1021E000314806F03FFE4FF40073C7F8A4300223D5
:1021F000C7F8A8300023C7F8AC300023C7F8B030C8
:102200000723C7F8B43007F1A4031946274806F09E
:1022100029FE40E07B681B68254A93423BD14FF47E
:1022200000633B620023BB6707F12003184606F0FA
:1022300029FA0346002B01D0FFF7DEFA194B5B6C3D
:10224000184A43F020035364164B5B6C03F02003E1
:102250003B613B69134B1B6B124A43F0040313634E
:10226000104B1B6B03F00403FB60FB68C023C7F833
:10227000A4300223C7F8A8300023C7F8AC300323EA
:10228000C7F8B0300823C7F8B43007F1A4031946E3
:10229000084806F0E7FD00BFB837BD4680BD00BF67
:1022A00000100140003802400004024000000240DB
:1022B000001401400008024080B586B000AF3B1D0D
:1022C00000221A605A609A60DA601A61584B1B68E3
:1022D000002B40F0A880564B01221A60554B9B6B97
:1022E000544A43F001039363524B9B6B03F0010389
:1022F0003B603B684FF683737B600223BB60002327
:10230000FB6003233B610C237B613B1D19464A485C
:1023100006F0A8FD48F233137B600223BB60002364
:10232000FB6003233B610C237B613B1D1946434843
:1023300006F098FD4CF203737B600223BB60002320
:10234000FB6003233B610C237B613B1D19463C482A
:1023500006F088FD4FF63F037B600223BB6000233D
:10236000FB6003233B610C237B613B1D1946354811
:1023700006F078FD28237B600223BB600023FB600E
:1023800003233B610C237B613B1D19462E4806F05D
:1023900069FD08237B600223BB600023FB600323ED
:1023A0003B610C237B613B1D1946284806F05AFD12
:1023B000274B284A1A60264B00225A60244B802261
:1023C0009A60234B4FF40072DA60214B4FF4806225
:1023D0001A611F4B4FF480525A611D4B4FF48042DB
:1023E0009A611B4B0022DA61194B4FF400321A62DA
:1023F000174B00225A62164B03229A62144B00229A
:10240000DA62134B00221A63114807F015F80346ED
:10241000002B01D0FFF7F0F90F4B0D4A1A630C4B5C
:102420000D4A9A6300E000BF1837BD4680BD00BF6B
:10243000680D0020003802400010024000180240E1
:10244000000C024000140240001C02400008024040
:102450006C0D002010640240AC06002080B582B0F4
:1024600000AF7860FFF728FF00BF0837BD4680BD8A
:1024700080B58EB000AF78600023FB620023BB62A2
:10248000334B1B6C324A43F010031364304B1B6C0C
:1024900003F01003FB60FB6807F1100207F114035F
:1024A0001146184606F0BCF83B6AFB62FB6A002B3B
:1024B00003D106F08DF8786304E006F089F803464E
:1024C0005B007B637B6B234AA2FB03239B0C013BDA
:1024D000BB62214B214A1A601F4B40F2E732DA609F
:1024E0001D4ABB6A53601C4B00221A611A4B002222
:1024F0009A60194B00229A6117480BF033FB034690
:1025000087F8333097F83330002B1BD112480BF08B
:102510008BFB034687F8333097F83330002B11D10B
:10252000362007F063FC7B680F2B08D800227968FF
:10253000362007F03FFC0A4A7B68136002E0012363
:1025400087F8333097F8333018463837BD4680BDAA
:102550000038024083DE1B43CC0D002000100040F9
:10256000B400002080B500AF4FF04041002000F0E3
:102570002FF9002000F05EF9664800F0ADF96648DA
:1025800000F0C4F9644800F08DF94FF0FF3000F01E
:1025900071F90123614A0521002000F023FA00F0BF
:1025A000EFF803469BB21A461E21002000F0E2FA23
:1025B00000F0E6F803469BB21A463C21002000F0EA
:1025C000D9FA00F0DDF803469BB21A465A210020E2
:1025D00000F0D0FA00F0D4F803469BB21A467821F6
:1025E000002000F0C7FA00F0CBF803469BB21A4671
:1025F0009621002000F0BEFA00F0C2F803469BB21C
:102600001A46B421002000F0B5FA00F0B9F80346EC
:102610009BB21A46D221002000F0ACFA00F0C4F8B8
:1026200003469BB21A461E21002000F001FB00F079
:10263000BBF803469BB21A461E211E2000F0F8FA92
:1026400000F0B2F803469BB21A461E2140F2DF109A
:1026500000F0EEFA0323324A2421072000F0C2F9E9
:102660000323304A4221072000F0BCF903232E4AFD
:102670006021072000F0B6F903232C4A7E210720B1
:1026800000F0B0F903232A4A9C21072000F0AAF9A0
:102690000323284ABA21072000F0A4F9264800F0B5
:1026A00001F9254800F0E6F83D23A022D3210020BF
:1026B00000F068FB6FF07F0000F0DCF803231F4A96
:1026C000E821322000F08EF91D4800F0EBF81C489C
:1026D00000F0D0F83D23A022D321A02000F052FB2F
:1026E0006FF07F0000F0C6F80323164AE821D220DD
:1026F00000F078F9144800F0D5F8134800F0BAF863
:102700003D23A022D3214FF4A07000F03BFB00BF7B
:1027100080BD00BF28000020404040FF1094010809
:102720002094010824940108289401082C9401089D
:102730003094010834940108FF8080FF3894010828
:10274000D3D3D3FF409401082A2AA5FF80B500AF58
:1027500001224FF48051074806F054FE012208215F
:10276000054806F04FFE054800F0B6F8002318466D
:1027700080BD00BF00200240002802402800002049
:1027800080B400AF064B1B68064A342101FB03F3FB
:10279000134460331B681846BD465DF8047B7047E0
:1027A000180E00200003002080B400AF064B1B6809
:1027B000064A342101FB03F3134464331B681846B3
:1027C000BD465DF8047B7047180E00200003002012
:1027D00080B582B000AF03463960FB80FB88396862
:1027E000184600F037F8FA88104913465B00134486
:1027F0009B000B4404334FF0FF321A60FA880B49F8
:1028000013465B0013449B000B440833084A1A60CC
:10281000FA88064913465B0013449B000B444FF0B3
:102820007F421A6000BF0837BD4680BD1C0E0020E5
:102830002800002080B483B000AF7860044A7B6831
:10284000136000BF0C37BD465DF8047B704700BFC6
:10285000180E002080B582B000AF786039607A68C9
:102860003968034808F09EFD00BF0837BD4680BDAB
:102870000003002080B483B000AF7860074B1A6873
:10288000074913465B0013449B000B447A681A60A7
:1028900000BF0C37BD465DF8047B7047180E002062
:1028A0001C0E002080B483B000AF7860084B1A681B
:1028B000084913465B0013449B000B4404337A68B9
:1028C0001A6000BF0C37BD465DF8047B704700BF3F
:1028D000180E00201C0E002080B483B000AF78607A
:1028E000084B1A68084913465B0013449B000B44CD
:1028F00008337A681A6000BF0C37BD465DF8047B68
:10290000704700BF180E00201C0E0020F0B585B0E7
:1029100002AF78600F4B1C680E4B1B680E4A3421C7
:1029200001FB03F313445C331B681E46FFF728FFCB
:102930000546FFF739FF02467B68019300230093A9
:1029400013462A463146204600F04EFB00BF0C37A6
:10295000BD46F0BD180E00200003002090B583B0E6
:1029600000AF0346FB800B46BB801346FB701B4B3E
:102970001A681B4913465B0013449B000B44083341
:102980001B681968FB78A3F12000144B1A68144CDB
:1029900013465B0013449B00234408331B68DB8809
:1029A00003FB00F00D4B1A680D4C13465B001344FB
:1029B0009B00234408331B689B880733002B00DAF5
:1029C0000733DB1000FB03F3CA18B988FB881846ED
:1029D00000F052FA00BF0C37BD4690BD180E002023
:1029E0001C0E0020B0B588B000AFBA601A4603468E
:1029F000FB810B46BB811346FB710123FB83002344
:102A0000BB830023BB6100233B61BB687B6102E0A9
:102A1000BB690133BB617B695A1C7A611B78002B4F
:102A2000F6D1FFF7ADFE0146504B1A6850481346E9
:102A30005B0013449B00034408331B689B88B1FB75
:102A4000F3F33B61FB79032B1CD0032B33DC012B0D
:102A500002D0022B19D02EE03A69BB69D11A434B40
:102A60001A68434813465B0013449B000344083331
:102A70001B689B8801FB03F35B089AB2FB89134434
:102A8000FB831BE0FB89FB8318E03A69BB69D31A1F
:102A900099B2364B1A68364813465B0013449B00C4
:102AA000034408331B689B8811FB03F39AB2FB892C
:102AB000D31AFB8302E0FB89FB8300BFFB8B002B57
:102AC00003D0B7F91E30002B1DDA0123FB831AE077
:102AD000BB681A78B989FB8B1846FFF73FFF234B79
:102AE0001A68234913465B0013449B000B440833C8
:102AF0001B689A88FB8B1344FB83BB680133BB6064
:102B0000BB8B0133BB83BB681B78002B14BF012335
:102B10000023DCB2FFF734FEB98B144B1A68144D56
:102B200013465B0013449B002B4408331B689B88AF
:102B300001FB03F3C31A99B20C4B1A680C481346F5
:102B40005B0013449B00034408331B689B88994235
:102B50002CBF01230023DBB22340DBB2002BB7D113
:102B600000BF00BF2037BD46B0BD00BF180E00201B
:102B70001C0E0020B0B586B002AF0346FB800B46AA
:102B8000BB8013467B800023FB60264B1B68264AD4
:102B9000342101FB03F3134448331B68022B14D187
:102BA000204B1B68204A342101FB03F313445C33A0
:102BB0001C68FFF7E5FD0246BB8803FB02F2FB88B9
:102BC00013445B002344FB6013E0164B1B68164A5A
:102BD000342101FB03F313445C331C68FFF7D0FD81
:102BE0000246BB8803FB02F2FB8813449B0023448C
:102BF000FB600C4B1868F9687C880A4B1A680B4D0F
:102C000013465B0013449B002B441B680193002375
:102C100000930123224600F0E7F900BF1037BD46BC
:102C2000B0BD00BF180E0020000300201C0E0020C5
:102C3000F0B587B002AF0346FB800B46BB8013465E
:102C40007B800023FB60284B1B68284A342101FB52
:102C500003F3134448331B68022B14D1224B1B6827
:102C6000224A342101FB03F313445C331C68FFF751
:102C700087FD0246BB8803FB02F2FB8813445B001E
:102C80002344FB6013E0184B1B68184A342101FBF6
:102C900003F313445C331C68FFF772FD0246BB88E4
:102CA00003FB02F2FB8813449B002344FB600E4BA2
:102CB0001C68FD687E88FFF763FD0346591E0A4BBA
:102CC0001A680B4813465B0013449B0003441B68BF
:102CD00001930091334601222946204600F084F9F1
:102CE00000BF1437BD46F0BD180E002000030020C1
:102CF0001C0E0020B0B582B000AF03463A60FB80E6
:102D00000B46BB801D4B1B681D4A342101FB03F39E
:102D1000134448331B68022B16D1184B1B68184A02
:102D2000342101FB03F313445C331C68BD88FFF7B7
:102D300027FD034603FB05F2FB8813445B00234495
:102D40003A6892B21A8015E00C4B1B680C4A342189
:102D500001FB03F313445C331C68BD88FFF710FDCF
:102D6000034603FB05F2FB8813449B0023441A46E9
:102D70003B68136000BF0837BD46B0BD180E002089
:102D8000000300202DE9F04186B002AF044608465A
:102D900011461A462346FB800346BB800B467B80C8
:102DA00013463B800023FB60304B1A6830491346C2
:102DB0005B0013449B000B441B681846FFF75AFD49
:102DC0002A4B1B682B4A342101FB03F3134448337D
:102DD0001B68022B14D1254B1B68264A342101FBAA
:102DE00003F313445C331C68FFF7CAFC0246BB883C
:102DF00003FB02F2FB8813445B002344FB6013E0F7
:102E00001A4B1B681B4A342101FB03F313445C3348
:102E10001C68FFF7B5FC0246BB8803FB02F2FB8887
:102E200013449B002344FB60104B1C68FD687E88A4
:102E3000B7F80080FFF7A4FC02467B88D11A0B4B41
:102E40001A680B4813465B0013449B0003441B683D
:102E500001930091434632462946204600F0C4F8CB
:102E600000BF1037BD46BDE8F08100BF180E00203E
:102E70001C0E00200003002080B588B000AF034680
:102E80003A60FB800B46BB800023FB610023BB61E3
:102E9000534B1A68534913465B0013449B000B4481
:102EA00008331B68DB887B824D4B1A684D491346FB
:102EB0005B0013449B000B4408331B689B883B82D8
:102EC0003B8A0733002B00DA0733DB10DBB2DB0071
:102ED000DAB23B8ADBB2D31AFB730023FB6176E0E4
:102EE0003B8A0733002B00DA0733DB101A46FB69F5
:102EF00002FB03F33A681344BB603B8A0733002BA1
:102F000000DA0733DB10012B02D0022B04D00CE0D7
:102F1000BB681B787B6116E0BB681B781B02BA6834
:102F20000132127813437B610DE0BB681B781A04F1
:102F3000BB6801331B781B021343BA680232127854
:102F400013437B6100BF0023BB6136E03A8ABB6953
:102F5000D21AFB7B1344013B012202FA03F31A4607
:102F60007B691340002B12D0BB699AB2FB881344D3
:102F700098B21B4B1A681B4913465B0013449B0015
:102F80000B441A68BB881946FFF7B4FE12E0BB6910
:102F90009AB2FB88134498B2114B1A681149134630
:102FA0005B0013449B000B4404331A68BB8819462A
:102FB000FFF7A0FEBB690133BB613B8ABA699A4245
:102FC000C4D3BB880133BB80FB690133FB617B8ABF
:102FD000FA699A4284D300BF00BF2037BD4680BD46
:102FE000180E00201C0E002080B586B002AFF860DD
:102FF000B9607A603B601E4B4FF440325A601D4B03
:103000001B681D4A342101FB03F3134448331B683A
:10301000022B03D1164B02229A6002E0144B0022CD
:103020009A60134ABB69D360114B144A1A60104866
:1030300015F0E6F80346002B15D1F9680C4815F099
:103040004DFB0346002B0ED1BA683B6800937B68AA
:10305000F969074815F01EF90346002B03D10A2130
:10306000034815F042F900BF1037BD4680BD00BFD0
:1030700018020020180E00200003002000B00240BB
:1030800080B500AF40F2036000F004F8002318465A
:1030900080BD000080B584B000AF78600023FB6085
:1030A0002A4B01221A60294B10225A60274B012219
:1030B0009A60264B0022DA604FF6FF7223492448BB
:1030C00007F042FF012006F0CDFE204B02221A60DD
:1030D0001E4B10225A601D4B01229A601B4B00228E
:1030E000DA604FF6FF721949194807F02DFF174BA8
:1030F00003221A60154B10225A60144B08229A6062
:10310000124B0022DA604FF6FF721049104807F0A8
:103110001BFF4FF40873FB600C4B04221A600B4B2F
:1031200010225A60094B01229A60FB68074AD3605B
:103130004FF6FF720549064807F006FF7968044814
:1031400007F037FF00BF1037BD4680BD340E0020AA
:10315000AC06002080B58AB000AF00237B6007F189
:10316000080300221A605A609A60DA601A615A6194
:103170001A83264800F0E8F9244B1B78002B40D036
:10318000224B5B8801339AB2204B5A801F4B9B899C
:1031900001339AB21D4B9A811C4B5B88FB841B4BFD
:1031A0009B89BB84FB8CDBB2BA8CD1B2184A18461F
:1031B00000F034F8174B1A78154B1B789A4209D057
:1031C0004FF0FF31134800F089F86FF07F0110488D
:1031D00000F084F80E4B1A780E4B1A706FF07F00D7
:1031E000FFF748FB0A4B1B781A463B1D0A49184655
:1031F00015F070FD3A1D0323E82140F24510FFF75A
:10320000F1FB00BF2837BD4680BD00BF500E002037
:10321000300000207C0E00204894010880B483B068
:1032200000AF03463A60FB710B46BB71BB791E2BA6
:1032300006D9BB793B2B03D83B6801221A7047E0C3
:10324000BB793C2B06D9BB79592B03D83B680222AA
:103250001A703DE0BB795A2B06D9BB79772B03D87E
:103260003B6803221A7033E0BB79782B06D9BB790F
:10327000952B03D83B6804221A7029E0BB79962B62
:1032800006D9BB79B32B03D83B6805221A701FE01F
:10329000BB79B42B06D9BB79D12B03D83B68062266
:1032A0001A7015E0BB79D22B09D9FB79002B06D017
:1032B000FB799F2B03D83B6807221A7008E0BB7983
:1032C000D22B05D9FB79A02B02D93B6808221A70B2
:1032D00000BF0C37BD465DF8047B704780B582B0F7
:1032E00000AF786039603868FFF7C4FA7B681B78F4
:1032F000012B22D1FFF744FA03469BB21A461E2146
:103300000020FFF737FCFFF73BFA03469BB21A4653
:103310003C210020FFF72EFC1E221E210020FFF77B
:1033200087FC1E221E211E20FFF782FC1E221E216A
:103330004FF4F070FFF77CFCC1E07B681B78022B38
:1033400022D1FFF71DFA03469BB21A463C2100200A
:10335000FFF710FCFFF714FA03469BB21A465A21F6
:103360000020FFF707FC1E223C210020FFF760FC35
:103370001E223C211E20FFF75BFC1E223C214FF445
:10338000F070FFF755FC9AE07B681B78032B22D185
:10339000FFF7F6F903469BB21A465A210020FFF7C1
:1033A000E9FBFFF7EDF903469BB21A4678210020AE
:1033B000FFF7E0FB1E225A210020FFF739FC1E22F6
:1033C0005A211E20FFF734FC1E225A214FF4F070C0
:1033D000FFF72EFC73E07B681B78042B22D1FFF7EC
:1033E000CFF903469BB21A4678210020FFF7C2FBB3
:1033F000FFF7C6F903469BB21A4696210020FFF755
:10340000B9FB1E2278210020FFF712FC1E22782132
:103410001E20FFF70DFC1E2278214FF4F070FFF7FD
:1034200007FC4CE07B681B78052B22D1FFF7A8F93D
:1034300003469BB21A4696210020FFF79BFBFFF73D
:103440009FF903469BB21A46B4210020FFF792FB76
:103450001E2296210020FFF7EBFB1E2296211E2044
:10346000FFF7E6FB1E2296214FF4F070FFF7E0FB1A
:1034700025E07B681B78062B21D1FFF781F90346F5
:103480009BB21A46B4210020FFF774FBFFF778F9CE
:1034900003469BB21A46D2210020FFF76BFB1E2287
:1034A000B4210020FFF7C4FB1E22B4211E20FFF729
:1034B000BFFB1E22B4214FF4F070FFF7B9FB00BF31
:1034C0000837BD4680BD000080B584B000AF03461C
:1034D0000A46FB801346BB800023FB73144AFB881B
:1034E0001380144ABB881380134B1B6870209847C5
:1034F000114B5B68702098470346512B11D10F4B3D
:103500000D4A1A600E4B70221A700E4B08221A7068
:103510000A4B1B68DB680A4A127892B21046984739
:1035200001E00323FB73FB7B18461037BD4680BDCB
:10353000480E00204A0E002000000020440E00200B
:103540004D0E00204C0E002090B597B002AF786071
:10355000002387F84F3000233B610023FB600023EA
:10356000BB60B44B1B681B69B34A127892B2104619
:10357000984703461A467B681A707B681B78002BB5
:1035800000F096810023BB6485E1AA4B1B685B6950
:10359000A94A127890B207F12001BA6C52008C1837
:1035A00007F11401BA6C52000A4421469847A34B14
:1035B0001B78012B17D1BB6C5B0050333B4433F8B5
:1035C000302CBB6C5B0050333B4423F8182CBB6C95
:1035D0005B0050333B4433F83C2CBB6C5B005033F6
:1035E0003B4423F8242C954B1B7803F00203002B5B
:1035F0000ED0BB6C5B0050333B4433F8303CC3F51A
:1036000080539AB2BB6C5B0050333B4423F8182CB8
:103610008A4B1B7803F00403002B0ED0BB6C5B00BD
:1036200050333B4433F83C3CC3F580539AB2BB6CF7
:103630005B0050333B4423F8242C804B1B7803F071
:103640000803002B17D0BB6C5B0050333B4433F8AE
:10365000302CBB6C5B0050333B4423F8242CBB6CF8
:103660005B0050333B4433F83C2CBB6C5B00503365
:103670003B4423F8182CBB6C5B0050333B4433F8BD
:10368000183C19466E4ABB6C52F8233099420DD94A
:10369000BB6C5B0050333B4433F8182C6849BB6C5F
:1036A00051F823309BB2D31A9BB20CE0644ABB6C36
:1036B00052F823309AB2BB6C5B0050333B4433F872
:1036C000183CD31A9BB2A7F84630BB6C5B00503352
:1036D0003B4433F8243C19465A4ABB6C52F8233019
:1036E00099420DD9BB6C5B0050333B4433F8242C1A
:1036F0005449BB6C51F823309BB2D31A9BB20CE0F7
:10370000504ABB6C52F823309AB2BB6C5B0050330A
:103710003B4433F8243CD31A9BB2A7F84430B7F8A3
:103720004620B7F844301344052B15DDBB6C5B0015
:1037300050333B4433F8183C1946414ABB6C42F8BD
:103740002310BB6C5B0050333B4433F8243C1946D8
:103750003C4ABB6C42F82310374B1B78702B19D1B5
:10376000BB6C5B0050333B4433F8181C7A68BB6C6D
:103770005B0013440A465A80BB6C5B0050333B44E9
:1037800033F8241C7A68BB6C04335B0013440A468C
:103790009A8022E02C4B1B881946294ABB6C52F8B0
:1037A000233001FB03F31B0B99B27A68BB6C5B00FF
:1037B00013440A465A80254B1B881946214ABB6C84
:1037C00052F8233001FB03F31B0B99B27A68BB6CF0
:1037D00004335B0013440A469A80174B1B7898B257
:1037E00007F10C0107F1100207F1080300930B46E3
:1037F000B96CFDF7A9F83B69D9B27A68BB6C134480
:1038000016330A461A70FB68D9B27A68BB6C134447
:1038100020330A461A70BB68032B35D801A252F830
:1038200023F000BF513800085F3800086D380008E9
:103830007B380008440E00204D0E00204C0E002066
:10384000800E0020940E0020480E00204A0E00201A
:103850007A68BB6C13441B3301221A7018E07A6833
:10386000BB6C13441B3302221A7011E07A68BB6CE4
:1038700013441B3303221A700AE07A68BB6C1344AA
:103880001B3300221A7003E0012387F84F3000BF7A
:10389000BB6C0133BB647B681B781A46BB6C9342DC
:1038A000FFF473AE786800F009F8034687F84F30EC
:1038B00097F84F3018465437BD4690BD80B584B058
:1038C00000AF78600023BB600023FB733B4B1B7889
:1038D0009BB207F1080211461846FDF71CF8BB68B9
:1038E000492B5ED0492B60D81C2B3FD81C2B5CD8B1
:1038F00001A252F823F000BF73390008AB39000869
:10390000AB390008AB390008AB390008AB39000807
:10391000AB390008AB390008AB390008AB390008F7
:10392000AB390008AB390008AB390008AB390008E7
:10393000AB390008AB3900087B390008AB39000807
:10394000AB390008AB39000883390008AB390008EF
:10395000AB390008AB3900088B390008AB390008D7
:10396000AB390008AB39000893390008402B14D05C
:103970001BE07B6800229A621AE07B6801229A624F
:1039800016E07B6802229A6212E07B6803229A6248
:103990000EE07B6804229A620AE07B6805229A6244
:1039A00006E07B6806229A6202E00123FB7300BFF7
:1039B000FB7B18461037BD4680BD00BF4D0E002072
:1039C00080B58CB000AF78607B68514A93424DD18E
:1039D000504B1B6B4F4A43F0800313634D4B1B6BE3
:1039E00003F08003BB61BB698023FB6112233B6250
:1039F00000237B620223BB620423FB6207F11C03EA
:103A00001946454805F02EFA4FF48073FB6107F123
:103A10001C031946404805F025FA3E4B1B6C3D4AF5
:103A200043F4000313643B4B1B6C03F400037B6102
:103A30007B69384B1B6A374A43F400031362354BEA
:103A40001B6A344A23F40003136200220F2148202A
:103A500006F0B0F9482006F0C9F900220F214920EC
:103A600006F0A8F9492006F0C1F94DE0294B1B6B7F
:103A7000284A43F002031363264B1B6B03F0020337
:103A80003B613B694FF48073FB6112233B6200236F
:103A90007B620223BB620423FB6207F11C0319460D
:103AA0001E4805F0DFF94FF40073FB6107F11C03BA
:103AB00019461A4805F0D6F9164B1B6C154A43F403
:103AC00000131364134B1B6C03F40013FB60FB68BF
:103AD000104B1B6A0F4A43F4001313620D4B1B6A11
:103AE0000C4A23F40013136200220F211F2006F05A
:103AF00061F91F2006F07AF900220F21202006F03C
:103B000059F9202006F072F900BF3037BD4680BD5C
:103B1000A80E002000380240001C024000040240B1
:103B200080B582B000AF7860786806F0ADFC0346DF
:103B3000002B25D17B68144A934203D17B68134A3A
:103B40001A6002E07B68124A1A607B68114A5A6068
:103B50007B6800229A607B680122DA607B68002221
:103B60001A617B6800225A617B680022DA617B68F7
:103B700000221A627868FFF723FF786806F096F94A
:103B800000BF0837BD4680BDA80E0020005C004085
:103B9000005400403227914080B58AB004AFF860ED
:103BA000084611461A460346FB720B463B811346F4
:103BB000FB800023FB75FB7A99B2F8883A894FF4B1
:103BC0007A730293BB8C01933B6A00930346F868B7
:103BD00006F040FB0346FB75FB7D002B04D0FB7A0F
:103BE0001946F86800F032F8FB7D18461837BD46D4
:103BF00080BD80B58AB004AFF860084611461A4609
:103C00000346FB720B463B811346FB800023FB758A
:103C1000FB7A99B2F8883A894FF47A730293BB8C95
:103C200001933B6A00930346F86806F0FFF90346E8
:103C3000FB75FB7D002B04D0FB7A1946F86800F079
:103C400005F8FB7D18461837BD4680BD80B582B0AB
:103C500000AF78600B46FB70786806F0B7F97868BB
:103C6000FFF75EFF00BF0837BD4680BD80B500AFDF
:103C70000248FFF755FF00BF80BD00BFA80E00201F
:103C800080B584B002AF0346FB710B46BB7113468F
:103C90007B71BB799AB2F979012301937B1D009363
:103CA00001230348FFF7A5FF00BF0837BD4680BDCD
:103CB000A80E002080B586B002AF03460A46FB710D
:103CC0001346BB710023FB73BB799AB2F9790123C8
:103CD000019307F10F03009301230448FFF75CFFF2
:103CE000FB7B18461037BD4680BD00BFA80E0020E4
:103CF00080B582B000AF7860786806F0B3F800BF96
:103D00000837BD4680BD000080B500AF00220349E2
:103D100003480DF035FC00BF80BD00BFA812002095
:103D2000FC0E002080B58EB000AF2748FEF7BAFD2C
:103D30004FF0FF30FEF79EFD244925480DF084FC2E
:103D400000237B6007F108032E220021184614F09F
:103D50005FFE20491E480DF0B3FD1E4B9B7E002BDD
:103D600005D01D4B1B8801339AB21B4B1A801A4B8E
:103D70001B88012B17D9184B1B88072B13D83B1D09
:103D8000164A1749184614F0A5FF134B1B881A460C
:103D90001201D31A5B009BB2183B99B23A1D032360
:103DA0002520FEF71FFE0B4B9B7E002BC8D1084839
:103DB0000DF05BFD084B1B88013B9AB2064B1A8045
:103DC00000BF3837BD4680BD404040FF4C940108DD
:103DD0003811002088110020AC120020A211002010
:103DE0005094010880B582B000AF0023FB7100F051
:103DF00096F80346012B01D0022312E00B4808F08D
:103E0000DBFA0346FB71FB79002B09D14FF400610B
:103E1000064809F0A1F80346002B01D00123FB71ED
:103E2000FB7918460837BD4680BD00BFF40300206B
:103E300080B586B000AFF860B9607A600023FB758A
:103E40007B68BA68F968064808F06EFB0346002BE9
:103E500001D00123FB75FB7D18461837BD4680BD98
:103E6000F403002080B586B000AFF860B9607A60D6
:103E70000023FB757B68BA68F968064808F036FCD1
:103E80000346002B01D00123FB75FB7D1846183734
:103E9000BD4680BDF403002080B500AF054809F0A1
:103EA000F5F80346042B14BF01230023DBB21846A8
:103EB00080BD00BFF403002080B582B000AF786001
:103EC0007968034809F01CF800BF0837BD4680BD7B
:103ED000F403002080B582B000AF786000F018F8DD
:103EE00000BF0837BD4680BD80B582B000AF7860A6
:103EF00000F0ACF900BF0837BD4680BD80B582B088
:103F000000AF786000F0B0F900BF0837BD4680BD53
:103F100080B400AF00BFBD465DF8047B704780B53C
:103F200082B000AF0123FB7100F0ACF90346002B17
:103F300001D10023FB71FB79DBB218460837BD467F
:103F400080BD80B584B000AF786010F05CF8F86098
:103F500006E0FFF7A1FF0346002B01D1002309E093
:103F600010F051F80246FB68D31A7A689A42F0D8EA
:103F70004FF0FF3318461037BD4680BD80B582B084
:103F800000AF0346FB710B4B01221A70FFF784FF51
:103F90000346002B07D1074B1B78DBB223F001034C
:103FA000DAB2044B1A70034B1B78DBB218460837A1
:103FB000BD4680BD3100002090B587B000AF0346FC
:103FC000FB71204B01221A7010F011F80346002BF0
:103FD00030D0FFF707FF0346002B07D1FB791846C7
:103FE000FFF7CCFF03461A46164B1A70154B1B7889
:103FF000DBB2012B1ED0144B1B68002B0ED1134BD0
:1040000007F108040FCB84E80F0007F10803002133
:10401000184610F03EF903460B4A13600A4B1B6822
:10402000002B07D1074B1B78DBB243F00103DAB258
:10403000044B1A70034B1B78DBB218461C37BD4685
:1040400090BD00BF31000020B01200205494010840
:1040500080B582B000AF0346FB71FB791846FFF7CD
:104060008DFF034618460837BD4680BD80B58AB02F
:1040700000AFB9607A603B600346FB73012387F8A9
:10408000273047F23050FFF75CFF0346002B02DA7F
:1040900097F8273032E03A687968B868FFF7C8FEC9
:1040A000034687F8263097F82630002B24D1154B8D
:1040B000196807F1140347F23052184610F052F90C
:1040C0007B69102B18D1BB69012B15D10FF09BFF19
:1040D000386208E0FFF7E0FE0346002B03D100231F
:1040E00087F8273008E00FF08EFF02463B6AD31AAC
:1040F00047F22F529342EDD997F8273018462837C8
:10410000BD4680BDB012002080B58AB000AFB96056
:104110007A603B600346FB73012387F8273047F240
:104120003050FFF70EFF0346002B02DA97F82730D6
:104130002EE03A687968B868FFF794FE0346002BD2
:1041400024D1154B196807F1140347F23052184671
:1041500010F008F97B69102B18D1BB69022B15D11F
:104160000FF051FF386208E0FFF796FE0346002B80
:1041700003D1002387F8273008E00FF044FF024600
:104180003B6AD31A47F22F529342EDD997F8273062
:1041900018462837BD4680BDB012002080B58CB0CF
:1041A00000AF03463A60FB710B46BB71012387F8F1
:1041B0002F30254B1B78DBB203F00103002B01D01D
:1041C00003233CE0BB79032B34D801A252F823F03F
:1041D000E1410008E9410008014200081B420008D3
:1041E000002387F82F3028E007F10C031846FFF76B
:1041F00063FE7A6A3B681A60002387F82F301CE060
:1042000007F10C031846FFF757FEBB6A9AB23B68EA
:104210001A80002387F82F300FE007F10C031846AF
:10422000FFF74AFEBB6A5A0A3B681A60002387F808
:104230002F3002E0042387F82F3097F82F301846EC
:104240003037BD4680BD00BF3100002080B500AFD3
:10425000044B1B6800220221184610F043F800BFEF
:1042600080BD00BFB012002080B500AF044B1B68BA
:1042700000220121184610F035F800BF80BD00BFB4
:10428000B012002080B582B000AF0123FB714FF463
:104290000051064805F09EF80346002B01D000238C
:1042A000FB71FB7918460837BD4680BD0008024007
:1042B00080B500AF044905480DF0CEFB03461A4611
:1042C000034B1A7000BF80BDA8120020BCAF0108CC
:1042D000B412002080B500AF01221249124810F03C
:1042E000D9FC0346002B01D0FDF786FA0F490E4892
:1042F00010F000FD0346002B01D0FDF77DFA0C49BC
:10430000094812F05FFA0346002B01D0FDF774FA5A
:10431000054810F025FD0346002B01D0FDF76CFA8F
:1043200000BF80BD34000020B8120020C40000206F
:104330009400002080B483B000AF03463960FB7165
:104340003B6812221A80034B18460C37BD465DF8B5
:10435000047B70475400002080B483B000AF034654
:104360003960FB713B6804221A80034B18460C37F6
:10437000BD465DF8047B70477400002080B582B0B4
:1043800000AF03463960FB71FB79002B05D13A6819
:104390000749084811F0BAFE04E03A6804490548A4
:1043A00011F0B4FE024B18460837BD4680BD00BF71
:1043B000941500206494010880B582B000AF0346D4
:1043C0003960FB713A680449044811F09FFE024BC2
:1043D00018460837BD4680BD941500207894010822
:1043E00080B582B000AF03463960FB713B681A228A
:1043F0001A8000F055F8024B18460837BD4680BDBC
:104400007800002080B582B000AF03463960FB71B0
:10441000FB79002B05D13A680749084811F076FE70
:1044200004E03A680449054811F070FE024B184652
:104430000837BD4680BD00BF941500208C9401084C
:1044400080B582B000AF03463960FB71FB79002B69
:1044500005D13A680749084811F058FE04E03A6867
:104460000449054811F052FE024B18460837BD4674
:1044700080BD00BF941500209894010880B483B0DB
:1044800000AF03463960FB713B680C221A80034B76
:1044900018460C37BD465DF8047B70476800002065
:1044A00080B584B000AF0F4B1B68FB600E4B1B68E0
:1044B000BB600E4B1B687B60FA687B681344FB6033
:1044C000FB68002B09D008220949F86800F014F8AD
:1044D00004220849B86800F00FF800BF1037BD4645
:1044E00080BD00BF20F4F01F24F4F01F28F4F01F5B
:1044F0007A0000208A00002080B487B000AFF86006
:10450000B9601346FB710023FB750023FB7527E0A0
:10451000FB681B0F092B0BD8FB681B0FDAB2FB7D66
:104520005B001946BB680B443032D2B21A700AE005
:10453000FB681B0FDAB2FB7D5B001946BB680B44BE
:104540003732D2B21A70FB681B01FB60FB7D5B0047
:104550000133BA68134400221A70FB7D0133FB75E6
:10456000FA7DFB799A42D3D300BF00BF1C37BD460A
:104570005DF8047B704780B584B000AF0346FB71E3
:104580000323FB73FFF72EFC0346FB7397F90F30F1
:1045900018461037BD4680BD80B58EB000AF0346CB
:1045A000B9607A60FB73FF2387F83730FFF7B7FCF9
:1045B0000346002B0FD007F114031846FFF77CFCCD
:1045C000FB6A5A1EBB681A603B6B9AB27B681A8002
:1045D000002387F8373097F9373018463837BD460B
:1045E00080BD000080B584B000AF0346FB7103239B
:1045F000FB73FFF794FC0346002B11D00F4B93F98C
:104600000030002B04DAFFF7EDFB0C4B00221A7090
:10461000FFF742FC0346002B0AD10023FB7307E09F
:10462000064B93F90030002B02D1044BFF221A7085
:1046300097F90F3018461037BD4680BD94170020FB
:1046400080B483B000AF0346FB71002318460C37DB
:10465000BD465DF8047B704780B586B000AFB96099
:104660007A601A460346FB731346BB810323FB752E
:10467000FFF755FC0346002B0DD0BB891A4679681D
:10468000B868FFF7D5FB01E00023FB75FFF704FCDA
:104690000346002BF8D197F9173018461837BD4656
:1046A00080BD80B586B000AFB9607A601A46034617
:1046B000FB731346BB810323FB75FFF730FC0346F6
:1046C000002B0DD0BB891A467968B868FFF7CAFB82
:1046D00001E00023FB75FFF7DFFB0346002BF8D159
:1046E00097F9173018461837BD4680BD80B400AF23
:1046F00000231846BD465DF8047B704780B58EB038
:1047000000AF786007F1240300221A605A609A60B3
:10471000DA601A617B681B684C4A934240F09180D2
:104720004B4B1B6B4A4A43F002031363484B1B6B12
:1047300003F002033B623B6A454B1B6B444A43F068
:1047400080031363424B1B6B03F08003FB61FB6927
:104750003F4B1B6B3E4A43F0040313633C4B1B6B04
:1047600003F00403BB61BB69394B1B6B384A43F050
:1047700001031363364B1B6B03F001037B617B6901
:1047800043F623437B620223BB620023FB620323C5
:104790003B630A237B6307F1240319462D4804F089
:1047A00061FB10237B620223BB620023FB620323B5
:1047B0003B630A237B6307F124031946264804F070
:1047C00051FB05237B620223BB620023FB620323B0
:1047D0003B630A237B6307F1240319461F4804F057
:1047E00041FB28237B620223BB620023FB6203237D
:1047F0003B630A237B6307F124031946184804F03E
:1048000031FB134B1B6B124A43F000531363104BE5
:104810001B6B03F000533B613B690D4B1B6B0C4A58
:1048200043F0804313630A4B1B6B03F08043FB6030
:10483000FB68002205214D2005F0BCFA4D2005F053
:10484000D5FA00BF3837BD4680BD00BF0000044028
:104850000038024000040240001C024000080240F0
:104860000000024080B582B000AF78607B68D3F86A
:1048700004257B6803F2C4431946104610F0BDFAC4
:1048800000BF0837BD4680BD80B582B000AF7860FC
:104890000B46FB707B68D3F80405FA7879681346F9
:1048A000DB0013449B000B4403F523731A68FB7869
:1048B000194610F0F7FA00BF0837BD4680BD80B535
:1048C00082B000AF78600B46FB707B68D3F80405BC
:1048D000FA7879681346DB0013449B000B444C3391
:1048E0001A68FB78194610F090FB00BF0837BD46E8
:1048F00080BD80B582B000AF78607B68D3F80435A6
:10490000184610F0C4FC00BF0837BD4680BD80B516
:1049100084B000AF78600123FB737B68DB68002BF9
:1049200002D10023FB7308E07B68DB68022B02D115
:104930000123FB7301E0FCF75FFF7B68D3F80435CC
:10494000FA7B1146184610F064FC7B68D3F80435F6
:10495000184610F00CFC00BF1037BD4680BD0000AB
:1049600080B582B000AF78607B68D3F80435184614
:1049700010F05FFC7B681B6803F560631B687A6856
:10498000126802F5606243F0010313607B681B6AE2
:10499000002B05D0044B1B69034A43F00603136147
:1049A00000BF0837BD4680BD00ED00E080B582B095
:1049B00000AF78607B68D3F80435184610F04FFCE0
:1049C00000BF0837BD4680BD80B582B000AF7860BB
:1049D0000B46FB707B68D3F80435FA78114618460D
:1049E00010F0A7FC00BF0837BD4680BD80B582B07F
:1049F00000AF78600B46FB707B68D3F80435FA781B
:104A00001146184610F063FC00BF0837BD4680BD54
:104A100080B582B000AF78607B68D3F80435184663
:104A200010F0B9FC00BF0837BD4680BD80B582B02C
:104A300000AF78607B68D3F80435184610F0B6FCF8
:104A400000BF0837BD4680BD80B582B000AF78603A
:104A50007B681B78012B40D1224A7B68C2F8043561
:104A60007B68204AC3F8C8221E4B1F4A1A601D4BA0
:104A700008225A601B4B0022DA601A4B00221A618E
:104A8000184B01229A61174B0022DA61154B002264
:104A90001A62144B00225A62124B0022DA62114B46
:104AA00000221A630F4B00225A630E4800F0FCF9F3
:104AB0000346002B01D0FCF79FFE4FF4007109481C
:104AC00001F0A3FC80220021064801F057FC4FF4BE
:104AD000BA720121034801F051FC0023184608373F
:104AE000BD4680BD981700200000044080B584B00A
:104AF00000AF78600023FB730023BB737B68D3F89F
:104B0000C832184600F0F4FA0346FB73FB7B1846E4
:104B100000F09EF90346BB73BB7B18461037BD46B9
:104B200080BD80B584B000AF7860084611461A4653
:104B30000346FB700B46BB7013463B800023FB73A0
:104B40000023BB737B68D3F8C802BB783A88F97836
:104B500000F0E1FF0346FB73FB7B184600F078F999
:104B60000346BB73BB7B18461037BD4680BD80B57E
:104B700084B000AF78600B46FB700023FB7300230A
:104B8000BB737B68D3F8C832FA781146184601F037
:104B90002AF80346FB73FB7B184600F059F90346DD
:104BA000BB73BB7B18461037BD4680BD80B584B053
:104BB00000AF78600B46FB700023FB730023BB73D0
:104BC0007B68D3F8C832FA781146184601F0EDF93F
:104BD0000346FB73FB7B184600F03AF90346BB73B0
:104BE000BB7B18461037BD4680BD80B584B000AF92
:104BF00078600B46FB700023FB730023BB737B685C
:104C0000D3F8C832FA781146184601F0E3F80346A3
:104C1000FB73FB7B184600F01BF90346BB73BB7BA1
:104C200018461037BD4680BD80B584B000AF7860AF
:104C30000B46FB700023FB730023BB737B68D3F828
:104C4000C832FA781146184601F028F90346FB737A
:104C5000FB7B184600F0FCF80346BB73BB7B184691
:104C60001037BD4680BD80B485B000AF78600B467C
:104C7000FB707B68D3F8C832FB6097F90330002BD8
:104C80000BDAFB7803F07F02F9681346DB0013446C
:104C90009B000B443E331B780BE0FB7803F07F0254
:104CA000F9681346DB0013449B000B4403F27E2398
:104CB0001B7818461437BD465DF8047B704780B5F5
:104CC00084B000AF78600B46FB700023FB730023B9
:104CD000BB737B68D3F8C832FA781146184600F0E7
:104CE000F5FE0346FB73FB7B184600F0B1F8034664
:104CF000BB73BB7B18461037BD4680BD80B586B000
:104D000000AFF8607A603B600B46FB720023FB75D6
:104D10000023BB75FB68D3F8C802F97A3B687A6850
:104D200001F00EF80346FB75FB7D184600F090F885
:104D30000346BB75BB7D18461837BD4680BD80B5A0
:104D400086B000AFF8607A603B600B46FB720023D0
:104D5000FB750023BB75FB68D3F8C802F97A3B6882
:104D60007A6800F08AFF0346FB75FB7D184600F069
:104D70006FF80346BB75BB7D18461837BD4680BD2E
:104D800080B582B000AF78600B46FB707B68D3F8CB
:104D9000C832FA781146184600F0BAFF03461846A2
:104DA0000837BD4680BD000080B582B000AF786096
:104DB0000B46FB70FB78002B02D0012B1FD03BE091
:104DC0007B681B6A002B07D000F03CF81C4B1B696A
:104DD0001B4A23F0060313617B681B6803F56063BD
:104DE0001B687A68126802F5606223F001031360A1
:104DF0007B68D3F80435184610F031FA1CE07B6864
:104E00001B6803F560631B687A68126802F56062CC
:104E100043F0010313607B68D3F80435184610F0A3
:104E200008FA7B681B6A002B05D0054B1B69044AF6
:104E300043F00603136100BF00BF0837BD4680BDC5
:104E400000ED00E080B500AFFBF794FE00BF80BD31
:104E500080B485B000AF0346FB710023FB73FB7980
:104E6000032B17D801A252F823F000BF7D4E000893
:104E7000834E0008894E00088F4E00080023FB7304
:104E80000BE00323FB7308E00123FB7305E003231E
:104E9000FB7302E00323FB7300BFFB7B1846143750
:104EA000BD465DF8047B7047F0B58FB00AAF7860FF
:104EB0007B68002B01D1012316E17B681B68BB6076
:104EC0007B6893F8BD34DBB2002B06D17B680022EF
:104ED00083F8BC247868FFF711FC7B68032283F811
:104EE000BD24BB68DB6B03F48073002B02D17B68AD
:104EF00000221A617B681B68184601F0C6FB7B68BC
:104F00001B683B607E686D4606F110040FCC0FC530
:104F10000FCC0FC594E8030085E80300331D0ECBCA
:104F2000386801F0A7FA0346002B05D07B680222FF
:104F300083F8BD240123D7E07B681B680021184655
:104F400001F0B4FB0023FB734AE0FA7B7968134657
:104F5000DB0013449B000B443D3301221A70FA7BA3
:104F600079681346DB0013449B000B443C33FA7B07
:104F70001A70FA7BFB7B98B279681346DB00134406
:104F80009B000B44443302461A80FA7B796813462F
:104F9000DB0013449B000B44403300221A70FA7B61
:104FA00079681346DB0013449B000B44483300220E
:104FB0001A60FA7B79681346DB0013449B000B44AC
:104FC0004C3300221A60FA7B79681346DB001344E5
:104FD0009B000B44543300221A60FB7B0133FB73AC
:104FE000FA7B7B685B689A42AFD30023FB7344E093
:104FF000FA7B79681346DB0013449B000B4403F2F1
:105000007D2300221A70FA7B79681346DB00134473
:105010009B000B4403F51F73FA7B1A70FA7B7968C7
:105020001346DB0013449B000B4403F5207300225E
:105030001A70FA7B79681346DB0013449B000B441B
:1050400003F5227300221A60FA7B79681346DB00AD
:1050500013449B000B4403F5237300221A60FA7B70
:1050600079681346DB0013449B000B4403F525735A
:1050700000221A60FB7B0133FB73FA7B7B685B6861
:105080009A42B5D37B681B683B607E686D4606F12B
:1050900010040FCC0FC50FCC0FC594E8030085E8B2
:1050A0000300331D0ECB386801F04CFB0346002B88
:1050B00005D07B68022283F8BD24012314E07B68BD
:1050C000002283F838207B68012283F8BD247B68A6
:1050D0005B6A012B02D1786801F0A8F97B681B6834
:1050E000184602F09AFC002318461437BD46F0BD5E
:1050F00080B582B000AF78607B6893F8BC34012B38
:1051000001D1022312E07B68012283F8BC247B6872
:105110001B68184601F0A8FA7B681B68184602F065
:105120005BFC7B68002283F8BC2400231846083708
:10513000BD4680BD90B58DB000AF78607B681B68C0
:105140003B623B6AFB617B681B68184602F019FDF5
:105150000346002B40F0B7847B681B68184602F0BA
:105160007DFC0346002B00F0AD84FB6903F5006372
:105170009B681B0AC3F30D027B68C3F8FC247B68A1
:105180001B68184602F06AFC034603F00203022B78
:1051900007D17B681B685A697B681B6802F00202B2
:1051A0005A617B681B68184602F058FC034603F0FE
:1051B0001003102B61D17B681B689A697B681B68A0
:1051C00022F010029A613B6A1B6ABB61BB6903F063
:1051D0000F021346DB0013449B0003F51E737A682D
:1051E000134404337B61BB695B0C03F00F03022B98
:1051F00024D1BA6947F6F0731340002B35D07B6990
:105200001969BB691B099BB2C3F30A039BB21A4617
:10521000386A02F08FFA7B691A69BB691B09C3F30C
:105220000A031A447B691A617B691A6ABB691B0904
:10523000C3F30A031A447B691A6216E0BB695B0C6C
:1052400003F00F03062B10D17B6803F2C44308223E
:105250001946386A02F06EFA7B691A6ABB691B0943
:10526000C3F30A031A447B691A627B681B689A6954
:105270007B681B6842F010029A617B681B681846C5
:1052800002F0ECFB034603F40023B3F5002F40F0DB
:10529000A78000237B627B681B68184602F0F1FB45
:1052A000B86299E0BB6A03F00103002B00F08E8026
:1052B0007B681B687A6AD2B21146184602F015FC68
:1052C00038613B6903F00103002B0CD07B6A5A0163
:1052D000FB69134403F530631A4601239360796A2E
:1052E000786800F01DFF3B6903F00803002B0CD029
:1052F0007B6A5A01FB69134403F530631A4608239D
:105300009360796A786800F0F3FF3B6903F010035B
:10531000002B08D07B6A5A01FB69134403F5306304
:105320001A46102393603B6903F00203002B30D030
:105330003B6A5B6903F08003802B09D1FB6903F5AD
:1053400000635B68FA6902F5006243F480635360AE
:105350007A6A1346DB0013449B0003F51E737A68D8
:10536000134404337B617B69DB78012B08D17B69B3
:105370000022DA707B6ADBB219467868FFF724FBFB
:105380007B6A5A01FB69134403F530631A46022312
:1053900093603B6903F02003002B08D07B6A5A011D
:1053A000FB69134403F530631A46202393603B697D
:1053B00003F40053002B09D07B6A5A01FB691344A4
:1053C00003F530631A464FF4005393607B6A013350
:1053D0007B62BB6A5B08BB62BB6A002B7FF462AF77
:1053E0007B681B68184602F039FB034603F48023F0
:1053F000B3F5802F40F0DB807B681B68184602F015
:105400005AFBB86200237B62CDE0BB6A03F0010364
:10541000002B00F0C2807B681B687A6AD2B211460A
:10542000184602F080FB38613B6903F00103002B52
:1054300057D07B6A03F00F03012202FA03F3FB60EB
:10544000FB6903F500635A6BFB68DB43F96901F5FF
:10545000006113404B637B6A5A01FB69134403F5F7
:1054600010631A46012393607B681B69012B32D1BC
:1054700079687A6A1346DB0013449B000B444C3373
:10548000196878687A6A1346DB0013449B0003446A
:1054900048331B68194478687A6A1346DB00134462
:1054A0009B0003444C3319607B6A002B13D179684D
:1054B0007A6A1346DB0013449B000B4454331B6889
:1054C000002B08D17B6818687B6803F2C4431A4636
:1054D000012102F089FB7B6ADBB219467868FFF78D
:1054E000EEF93B6903F00803002B08D07B6A5A01F0
:1054F000FB69134403F510631A46082393603B6964
:1055000003F01003002B08D07B6A5A01FB69134497
:1055100003F510631A46102393603B6903F04003C0
:10552000002B08D07B6A5A01FB69134403F5106312
:105530001A46402393603B6903F00203002B23D0FB
:10554000796A386A01F05CFA7A6A1346DB00134420
:105550009B0038337A68134404337B617B69DB78C2
:10556000012B08D17B690022DA707B6ADBB2194615
:105570007868FFF73BFA7B6A5A01FB69134403F52D
:1055800010631A46022393603B6903F08003002BEB
:1055900003D0796A786800F035FD7B6A01337B625D
:1055A000BB6A5B08BB62BB6A002B7FF42EAF7B68D3
:1055B0001B68184602F052FA034603F00043B3F1A9
:1055C000004F22D1FB6903F500635B68FA6902F5BD
:1055D000006223F0010353607B6893F8F434012BDD
:1055E00008D17B68002283F8F42400217868FFF753
:1055F000DBFB02E07868FFF7D9F97B681B685A6922
:105600007B681B6802F000425A617B681B68184681
:1056100002F024FA034603F40063B3F5006F12D1DD
:10562000FB6903F500639B6803F00103012B02D1C2
:105630007868FFF795F97B681B685A697B681B6877
:1056400002F400625A617B681B68184602F006FA91
:10565000034603F00063B3F1006F21D17B681B6840
:105660005A697B681B6802F000625A617B6893F894
:10567000F434002B11D17B68012283F8F4247B6879
:105680001B685B6D9B0803F00F027B68C3F8F8246E
:1056900001217868FFF788FB02E07868FFF760F97E
:1056A0007B681B68184602F0D9F9034603F480535F
:1056B000B3F5805F40F0B780FB6903F500635B687A
:1056C000FA6902F5006223F0010353607B681B68EE
:1056D0001021184601F094F90023FB6246E0FB6AB2
:1056E0005A01FB69134403F510631A464FF67F33E2
:1056F0009360FB6A5A01FB69134403F510631B684E
:10570000FA6A5101FA690A4402F5106223F400139F
:105710001360FB6A5A01FB69134403F530631A46B0
:105720004FF67F339360FB6A5A01FB69134403F51C
:1057300030631B68FA6A5101FA690A4402F5306263
:1057400023F400131360FB6A5A01FB69134403F549
:1057500030631B68FA6A5101FA690A4402F5306243
:1057600043F000631360FB6A0133FB627B685B6894
:10577000FA6A9A42B3D3FB6903F50063DB69FA69FD
:1057800002F5006243F00113D3617B681B6B002BB1
:1057900016D0FB6903F50063D3F88430FA6902F58B
:1057A000006243F00B03C2F88430FB6903F5006329
:1057B0005B6CFA6902F5006243F00B03536415E079
:1057C000FB6903F500635A69FB6903F50063194639
:1057D00042F22B0313434B61FB6903F500631B6922
:1057E000FA6902F5006243F00B031361FB6903F5EC
:1057F00000631B68FA6902F5006223F4FE6313601C
:105800007B6818687B681B69D9B27B6803F2C44364
:105810001A4602F0E9F97B681B685A697B681B68C5
:1058200002F480525A617B681B68184602F016F930
:10583000034603F40053B3F5005F24D17B681B6873
:10584000184602F0ADF97B681B68184601F055F95F
:1058500003461A467B68DA607B681C6802F0ACFE7F
:1058600001467B68DB68DBB21A46204600F05AFE30
:105870007868FFF74CF87B681B685A697B681B687F
:1058800002F400525A617B681B68184602F0E6F881
:10589000034603F00803082B0AD17868FFF729F8BC
:1058A0007B681B685A697B681B6802F008025A61B2
:1058B0007B681B68184602F0D1F8034603F08003AA
:1058C000802B22D13B6A9B6923F080023B6A9A615C
:1058D00001237B6214E079687A6A1346DB00134483
:1058E0009B000B4403F27F231B78012B05D17B6ABD
:1058F000DBB21946786800F027FB7B6A01337B62D4
:105900007B685B687A6A9A42E5D37B681B681846B5
:1059100002F0A4F8034603F48013B3F5801F3BD1D3
:1059200001237B622BE07B6A5A01FB69134403F578
:1059300010631B68BB6179687A6A1346DB00134405
:105940009B000B4440331B78012B15D1BB69002B06
:1059500012DA79687A6A1346DB0013449B000B4421
:105960003F3301221A707B6ADBB263F07F03DBB244
:105970001946786800F0E8FA7B6A01337B627B683D
:105980005B687A6A9A42CED37B681B685A697B68E7
:105990001B6802F480125A617B681B68184602F08B
:1059A0005DF8034603F40013B3F5001F55D101233E
:1059B0007B6245E07B6A5A01FB69134403F530635F
:1059C0001B68BB6179687A6A1346DB0013449B004D
:1059D0000B4403F520731B78012B2ED1BB69002BE0
:1059E0002BDABB6903F480327B68D3F8FC3403F014
:1059F00001039A4221D179687A6A1346DB00134485
:105A00009B000B4403F27F2301221A703B6A9B69BF
:105A100043F080023B6A9A613B6A5B6903F0800352
:105A2000002B0AD1FB6903F500635B68FA6902F594
:105A3000006243F40073536007E07B6A01337B62CA
:105A40007B685B687A6A9A42B4D37B681B685A6940
:105A50007B681B6802F400125A617B681B68184659
:105A600001F0FCFF034603F08043B3F1804F0AD1FD
:105A70007868FEF7CDFF7B681B685A697B681B68F6
:105A800002F080425A617B681B68184601F0E6FF0D
:105A9000034603F00403042B15D17B681B685B6885
:105AA000BB61BB6903F00403002B02D07868FEF7EA
:105AB000BDFF7B681B6859687B681B68BA690A432D
:105AC0005A6000E000BF3437BD4690BD80B582B05B
:105AD00000AF78600B46FB707B6893F8BC34012BF9
