:020000040800F2
:10000000000005208DE20008110F0008130F000802
:10001000150F0008170F0008190F00080000000056
:1000200000000000000000000000000061BF0008A8
:100030001B0F00080000000001C0000865C0000898
:10004000DDE20008DDE20008DDE20008DDE2000894
:10005000DDE20008DDE20008DDE20008DDE2000884
:10006000DDE20008DDE20008DDE20008DDE2000874
:10007000DDE20008DDE20008DDE20008DDE2000864
:10008000DDE20008DDE20008DDE20008DDE2000854
:10009000DDE20008DDE20008DDE20008DDE2000844
:1000A000DDE20008DDE20008DDE20008DDE2000834
:1000B000DDE20008DDE20008DDE20008DDE2000824
:1000C000DDE20008DDE20008DDE20008DDE2000814
:1000D000DDE20008DDE20008DDE20008DDE2000804
:1000E000DDE20008DDE20008DDE20008DDE20008F4
:1000F000DDE20008DDE20008DDE20008DDE20008E4
:10010000DDE200081D0F0008DDE20008DDE2000866
:10011000DDE20008DDE200082D0F0008DDE2000846
:10012000DDE20008DDE20008DDE200083D0F000826
:10013000DDE20008DDE20008DDE20008DDE20008A3
:10014000DDE20008DDE20008DDE20008DDE2000893
:10015000DDE200084D0F0008DDE20008DDE20008E6
:10016000DDE20008DDE20008DDE20008DDE2000873
:10017000DDE200085D0F0008DDE20008000000007D
:10018000DDE20008DDE20008DDE20008DDE2000853
:10019000DDE20008DDE20008DDE20008DDE2000843
:1001A0006D0F0008DDE200087D0F0008DDE20008A9
:1001B000DDE20008DDE20008DDE20008DDE2000823
:0801C000DDE20008DDE20008A9
:1001D00010B5054C237833B9044B13B10448AFF381
:1001E00000800123237010BDA80100200000000042
:1001F00060E6000808B5034B1BB103490348AFF3A1
:10020000008008BD00000000AC01002060E600088E
:10021000034613F8012B002AFBD1181A0138704746
:1002200053B94AB9002908BF00281CBF4FF0FF315D
:100230004FF0FF3000F074B9ADF1080C6DE904CE59
:1002400000F006F8DDF804E0DDE9022304B07047B1
:100250002DE9F047089D04468E46002B4DD18A4279
:10026000944669D9B2FA82F252B101FA02F3C2F1AC
:10027000200120FA01F10CFA02FC41EA030E94403D
:100280004FEA1C48210CBEFBF8F61FFA8CF708FB5E
:1002900016E341EA034306FB07F199420AD91CEB36
:1002A000030306F1FF3080F01F81994240F21C8168
:1002B000023E63445B1AA4B2B3FBF8F008FB1033B0
:1002C00044EA034400FB07F7A7420AD91CEB0404E5
:1002D00000F1FF3380F00A81A74240F207816444B5
:1002E000023840EA0640E41B00261DB1D44000233A
:1002F000C5E900433146BDE8F0878B4209D9002D9E
:1003000000F0EF800026C5E9000130463146BDE827
:10031000F087B3FA83F6002E4AD18B4202D3824291
:1003200000F2F980841A61EB030301209E46002D40
:10033000E0D0C5E9004EDDE702B9FFDEB2FA82F295
:10034000002A40F09280A1EB0C014FEA1C471FFAF3
:100350008CFE0126200CB1FBF7F307FB131140EADA
:1003600001410EFB03F0884208D91CEB010103F1A7
:10037000FF3802D2884200F2CB804346091AA4B269
:10038000B1FBF7F007FB101144EA01440EFB00FE3D
:10039000A64508D91CEB040400F1FF3102D2A645A2
:1003A00000F2BB800846A4EB0E0440EA03409CE741
:1003B000C6F12007B34022FA07FC4CEA030C20FAEE
:1003C00007F401FA06F31C43F9404FEA1C4900FA0E
:1003D00006F3B1FBF9F8200C1FFA8CFE09FB18118B
:1003E00040EA014108FB0EF0884202FA06F20BD9FE
:1003F0001CEB010108F1FF3A80F08880884240F24E
:100400008580A8F102086144091AA4B2B1FBF9F091
:1004100009FB101144EA014100FB0EFE8E4508D98C
:100420001CEB010100F1FF346CD28E456AD9023811
:10043000614440EA0840A0FB0294A1EB0E01A142F6
:10044000C846A64656D353D05DB1B3EB080261EB64
:100450000E0101FA07F722FA06F3F1401F43C5E93E
:10046000007100263146BDE8F087C2F12003D84074
:100470000CFA02FC21FA03F3914001434FEA1C47B6
:100480001FFA8CFEB3FBF7F007FB10360B0C43EAA8
:10049000064300FB0EF69E4204FA02F408D91CEB58
:1004A000030300F1FF382FD29E422DD90238634456
:1004B0009B1B89B2B3FBF7F607FB163341EA0341F6
:1004C00006FB0EF38B4208D91CEB010106F1FF3845
:1004D00016D28B4214D9023E6144C91A46EA00463C
:1004E00038E72E46284605E70646E3E61846F8E6CE
:1004F0004B45A9D2B9EB020864EB0C0E0138A3E717
:100500004646EAE7204694E74046D1E7D0467BE7F7
:10051000023B614432E7304609E76444023842E76F
:10052000704700BF054B064A1A6000225A609A6065
:10053000DA601A615A619A61704700BF240900208D
:10054000002C01402DE9F04F91B000240B940C9445
:100550000D940E940F94AD4B1A6B42F010021A6377
:100560001A6B02F010020092009A1A6B42F04002DD
:100570001A631A6B02F040020192019A1A6B42F060
:1005800002021A631A6B02F002020292029A1A6BBA
:1005900042F008021A631A6B02F008020392039AEF
:1005A0001A6B42F004021A631A6B02F004020492FE
:1005B000049A1A6B42F001021A631A6B02F00102EC
:1005C0000592059A1A6B42F400721A631A6B02F4D0
:1005D00000720692069A1A6B42F480721A631A6BC2
:1005E00002F480720792079A1A6B42F480621A63CF
:1005F0001A6B02F480620892089A1A6B42F0200289
:100600001A631A6B02F020020992099A1A6B42F0DF
:1006100080021A631B6B03F080030A930A9BDFF8C6
:10062000089201222021484604F0BBF9DFF8FC8142
:1006300022460C21404604F0B4F9012208217448F6
:1006400004F0AFF901224FF48051404604F0A9F9BB
:1006500022464FF400516F4804F0A3F9DFF8D0B1FF
:100660002246C821584604F09CF908230B930C94A9
:100670000D94DFF8C0A10BA9504604F08FF84FF499
:10068000D0430B9302250C950D9403270E970B2353
:100690000F930BA9584604F081F810230B930C9587
:1006A0000D940E940F950BA95B4804F077F8802306
:1006B0000B930C950D940E9408230F930BA94846A9
:1006C00004F06CF84FF400430B930C950D940E94CA
:1006D00001260F960BA9514804F060F860230B9394
:1006E0000C950D940E940D230F930BA9504604F016
:1006F00055F84FF480530B930C940D940BA9484874
:1007000004F04CF840230B934FF490130C930D948A
:100710000BA9484604F042F84FF4E0530B930C95B4
:100720000D940E974FF00A0ACDF83CA00BA93B4858
:1007300004F034F8F0230B930C950D940E94CDF83F
:100740003CA00BA9404604F029F84FF480630B93BA
:100750000C950D940E94CDF83CA00BA9584604F0CE
:100760001DF820230B930C960D940E940BA948466C
:1007700004F014F808230B930C950D940E940D239C
:100780000F930BA9484604F009F841F20C030B93B0
:100790000C960D940E940BA9404603F0FFFF4FF406
:1007A000005ACDF82CA00C940D940BA91D4803F011
:1007B000F5FF08230B930C960D940E940BA9144887
:1007C00003F0ECFF4FF400730B930C950D940E9413
:1007D0000D230F930BA9584603F0E0FF10230B9352
:1007E0000C940D940BA9484603F0D8FF48F204037B
:1007F0000B930C940D940BA9064803F0CFFFCDF892
:100800002CA00C960D940E9416E000BF0038024008
:1008100000280240001C0240000402400000024088
:100820000024024000080240000C02400020024068
:1008300000180240001002400BA93E4803F0AEFF32
:100840004FF4BC430B930C950D940E940D230F9312
:100850000BA9384803F0A2FF0B960C950D940E944B
:100860000F950BA9404603F099FF4FF480730B934B
:100870000C950D940E940F960BA92F4803F08EFF44
:10088000CDF82CA04FF490130C930D940BA9404677
:1008900003F084FFC8230B930C960D940E940BA9C0
:1008A000584603F07BFF4FF4F8630B930C970D94BD
:1008B0000BA9224803F072FF32230B930C950D9481
:1008C0000E970B230F930BA91D4803F067FF04231A
:1008D0000B930C940D940BA9584603F05FFF8623ED
:1008E0000B930C950D940E970B230F930BA91248A5
:1008F00003F054FF0B960C970D940BA90E4803F0D0
:100900004DFF50230B930C950D940E940D230F93D4
:100910000BA9094803F042FF40230B930C950D945B
:100920000E9409230F930BA9024803F037FF11B06F
:10093000BDE8F08F001C024000000240001402409D
:100940000008024000B583B00E4B1A6B42F48002DF
:100950001A631B6B03F480030193019B00220521A2
:100960003B2004F09FFA3B2004F0D2FA002205213C
:10097000452004F097FA452004F0CAFA03B05DF868
:1009800004FB00BF0038024000B5A5B000240B9462
:10099000602221460CA80DF0E5FCEC461E4D0FCD63
:1009A000ACE80F000FCDACE80F0095E803004CF861
:1009B000040B2CF8021B090C8CF800102246174976
:1009C000174808F0A1FE174C0A221749204608F0E4
:1009D000DFFE0AAB27226946204609F0B2F820461E
:1009E00009F0B2FA01F08CF8104B0DF12C0C0FCB82
:1009F000ACE807002CF8023B1B0C8CF800300BA86D
:100A0000FFF706FC642382B20BA9094806F0E5FD56
:100A100064200AF0CDFFE7E7CCE600085C06002082
:100A200020040020C8010020B0E60008BCE6000851
:100A3000400A002008B50268034B9A4200D008BD66
:100A400004F080FAFBE700BF0010004072B6FEE73A
:100A500008B50848084B03600023037143714361E4
:100A600083610123036204F04BFB00B908BDFFF76B
:100A7000EDFF00BF640600200030024000B589B0E1
:100A80000023019302930393049305930693079322
:100A90001448154A0260436083600421C16010223B
:100AA0000261402242614FF4C0728261C3614FF41F
:100AB000006202624FF48052426283620223019319
:100AC0000722029203910492032205920693079350
:100AD000694404F01BFC10B909B05DF804FBFFF792
:100AE000B5FF00BFA8090020400100A008B51148CB
:100AF000114B0360114B4360002383600122C260ED
:100B0000036143618361C361036204F041FA50B938
:100B10000021084804F09AFA38B90021054804F089
:100B2000C3FA20B908BDFFF791FFFFF78FFFFFF76A
:100B30008DFF00BF8807002000540040FFEAC0007E
:100B400008B51148114B0360114B436000238360CB
:100B50000122C260036143618361C361036204F0E7
:100B600017FA50B90021084804F070FA38B900218A
:100B7000054804F099FA20B908BDFFF767FFFFF7B1
:100B800065FFFFF763FF00BFDC070020005C00404B
:100B9000FFEAC00000B58FB03422002101A80DF09B
:100BA000E1FB2748274B0360002343608360C36059
:100BB000036128224261092282613522C2610B222F
:100BC000026240F21522426240F21B12826240F23F
:100BD0003522C26240F21D12026380F8343080F880
:100BE000353080F8363004F08DFC28BB00220192AD
:100BF0004FF4F071029103924FF488730493022032
:100C00000590FF20069007924FF4C06008900720DF
:100C100009904FF040400A900B910C938DF83420CE
:100C20008DF835208DF8362001A9054804F054FDD3
:100C300020B90FB05DF804FBFFF708FFFFF706FFD0
:100C4000300800200068014008B50C480C4B0360D8
:100C500001234360042383601023C36018230361CE
:100C60004FF4A063436100238361C361036204F016
:100C700093FD00B908BDFFF7E9FE00BFD8080020CA
:100C8000001000A008B50F480F4B03604FF48273AB
:100C90004360002383604FF44072C260036143618C
:100CA0004FF400728261C361036243628362072270
:100CB000C26203630823436305F0DAFF00B908BD8D
:100CC000FFF7C4FEDC0900200038004008B50B48DF
:100CD0000B4B03604FF4E133436000238360C36038
:100CE00003610C2242618361C3610362436206F0C7
:100CF000F8FC00B908BDFFF7A9FE00BF400A0020BC
:100D00000010014008B50B480B4B03604FF4E13372
:100D1000436000238360C36003610C2242618361EE
:100D2000C3610362436206F0DCFC00B908BDFFF753
:100D30008DFE00BFC80A00200014014008B50C4811
:100D40000C4B0360002343608360C3608362C36213
:100D5000036343630DF06AF928B9012104480DF0DB
:100D600033FA10B908BDFFF771FEFFF76FFE00BF41
:100D70008806002000B0024000B595B03022002166
:100D800008A80DF0EFFA002303930493059306934C
:100D9000079304F02FF8234B1A6C42F080521A6428
:100DA0001B6C03F080530193019B1F4B1A6842F4A4
:100DB00040421A601B6803F440430293029B0123E4
:100DC00008934FF48033099302230E934FF480026B
:100DD0000F92192210924FF4C872119212930923A4
:100DE000139308A802F09EFEB0B904F00BF8A8B95E
:100DF0000F23039302230493002305934FF4A0537E
:100E000006934FF480530793062103A803F0F6F8E6
:100E100030B915B05DF804FBFFF718FEFFF716FEBA
:100E2000FFF714FE003802400070004000B5A3B088
:100E30008422002101A80DF095FA0E4B01934FF486
:100E4000C073069305230893022307930323099392
:100E500001230B934FF400330C934FF00063209366
:100E600001A803F0C5F910B923B05DF804FBFFF742
:100E7000EDFD00BF0800A00000B589B004F056F8F1
:100E8000FFF77AFFFFF7D2FFFFF75CFBFFF7E0FD0C
:100E9000FFF7F4FDFFF72AFEFFF752FEFFF77AFE99
:100EA000FFF7D2FEFFF73EFBFFF7ECFEFFF70EFF6A
:100EB000FFF728FF00F014FEFFF744FDFFF73EFFA9
:100EC0000DF1040C084C0FCCACE80F0094E80700BF
:100ED0008CE80700002101A80AF034FD034B1860DC
:100EE0000AF018FDFEE700BF78E600086006002063
:100EF0007047704770470000034B0360034B0B6063
:100F000080231360704700BF500D0020500B00205D
:100F1000FEE7FEE7FEE7FEE7FEE7704708B502489A
:100F200005F0C2FD08BD00BF2409002008B5024835
:100F300005F060FF08BD00BFD411002008B50248CD
:100F400003F068FE08BD00BFC806002008B50248CF
:100F500003F060FE08BD00BF2807002008B5024866
:100F600001F042FC08BD00BF0817002008B5024888
:100F700004F045FB08BD00BF3008002008B502485A
:100F80000DF084F808BD00BF88060020F0B587B0DA
:100F90000023019302930393049305932A4B1B6848
:100FA0000BB107B0F0BD284B01221A60274B9A6B9A
:100FB00042F001029A639B6B03F001030093009BD4
:100FC0004FF68373019302260296032504950C24A1
:100FD000059401A91E4803F0E1FB48F23313019385
:100FE0000296002703970495059401A9194803F078
:100FF000D5FB4CF203730193029603970495059475
:1010000001A9154803F0CAFB4FF63F03019302966E
:1010100003970495059401A9104803F0BFFB28230A
:101020000193029603970495059401A90C4803F0D7
:10103000B5FB08230193029603970495059401A933
:10104000084803F0ABFBACE7D011002000380240A9
:101050000010024000180240000C02400014024040
:10106000001C02400008024000B583B00D4B1A6C12
:1010700042F080521A641A6C02F080520092009A78
:101080005A6C42F480425A645B6C03F480430193CF
:10109000019B00220F216FF0010003F003FF03B05A
:1010A0005DF804FB003802400268094B9A4200D008
:1010B000704782B003F500631A6B42F480521A63E2
:1010C0001B6B03F480530193019B02B0704700BF78
:1010D0000030024002680E4B9A4200D0704700B5C3
:1010E00083B0A3F5F0431A6B42F400021A631B6B42
:1010F00003F400030193019B002205215A2003F011
:10110000D1FE5A2003F004FF03B05DF804FB00BFDA
:1011100000B0024010B5AAB00446002125912691E6
:10112000279128912991842204A80DF01BF92368A6
:10113000304A934204D0304A93422ED02AB010BD98
:101140004FF48043049304A803F052F810BB2B4CD7
:10115000236B43F002032363236B03F0020300932A
:10116000009B4FF44073259312232693012327936A
:10117000002328930423299325A9214803F00EFB7B
:10118000236C43F400132364236C03F400130193D2
:10119000019BD3E7FFF75AFCD9E74FF48033049360
:1011A00004A803F025F810BB144C236B43F0800314
:1011B0002363236B03F080030293029B4FF4C073FD
:1011C0002593122326930123279303232893042393
:1011D000299325A90B4803F0E1FA236C43F400039B
:1011E0002364236C03F400030393039BA6E7FFF738
:1011F0002DFCD9E700540040005C0040003802405C
:1012000000040240001C024070B58CB0002307931C
:10121000089309930A930B9302683E4B9A4201D0BC
:101220000CB070BD03F550435A6C42F080625A64B2
:101230005A6C02F080620192019A1A6B42F010021D
:101240001A631A6B02F010020292029A1A6B42F4AD
:1012500000721A631A6B02F400720392039A1A6BFB
:1012600042F480621A631A6B02F480620492049A58
:101270001A6B42F040021A631A6B02F040020592A8
:10128000059A1A6B42F480721A631B6B03F4807325
:101290000693069B10230793022508950E260B96AE
:1012A00007A91D4803F07AFA4EF6FF7307930895D5
:1012B000002409940A940B9607A9184803F06EFAC3
:1012C000F7230793089509940A940B9607A91448E5
:1012D00003F064FA4FF480530793089509940A9435
:1012E00009230B9307A90F4803F058FA4FF446431C
:1012F0000793089509940A940B9607A90A4803F0E6
:101300004DFA22460521582003F0CCFD582003F069
:10131000FFFD85E700680140001002400024024004
:101320000028024000180240002002402DE9F0434E
:101330008BB00023059306930793089309930268E3
:101340002E4B9A4202D00BB0BDE8F0832C4B9A6B27
:1013500042F002029A639A6B02F002020192019A31
:101360001A6B42F010021A631A6B02F0100202921A
:10137000029A1A6B42F002021A631A6B02F002021E
:101380000392039A1A6B42F008021A631B6B03F074
:1013900008030493049B4FF00409CDF81490022530
:1013A0000695032408940926099605A9154803F013
:1013B000F5F94023059306950027079708940A231B
:1013C0000993DFF8488005A9404603F0E7F9CDF816
:1013D0001490069507970894099605A9404603F0CE
:1013E000DDF94FF460530593069507970894099625
:1013F00005A9054803F0D2F9A5E700BF001000A039
:101400000038024000100240000C0240000402407C
:101410002DE9F04188B000230393049305930693CC
:10142000079302684E4B9A4202D008B0BDE8F081A3
:10143000044603F586335A6C42F400625A645A6CCF
:1014400002F400620092009A1A6B42F004021A63DE
:101450001A6B02F004020192019A1A6B42F0080220
:101460001A631B6B03F008030293029B4FF4F853BB
:10147000039302260496032506954FF00C08CDF839
:101480001C800DEB0801374803F088F90427039707
:101490000496002605960695CDF81C800DEB0801F4
:1014A000314803F07BF93148314B03604FF0006362
:1014B00043608660C6604FF4806303614FF48053DD
:1014C00043614FF4804383612023C3614FF4403371
:1014D0000362476285624FF40003C3624FF4001356
:1014E000036303F0E3FA002833D1204B23649C63A9
:1014F0002048214B03604FF000634360402383602A
:101500000023C3604FF4806303614FF48053436151
:101510004FF4804383612023C3614FF4403303625F
:1015200004234362032383624FF40003C3624FF436
:101530000013036303F0BAFA70B90E4BE3639C63C4
:1015400000220521312003F0ADFC312003F0E0FC46
:101550006BE7FFF77BFAC8E7FFF778FAEDE700BF24
:10156000002C014000080240000C0240C806002088
:101570005864024028070020A064024030B589B0BA
:1015800000230393049305930693079302681C4B6F
:101590009A4201D009B030BD03F500331A6C42F411
:1015A00080421A641A6C02F480420092009A1A6B0C
:1015B00042F480721A631A6B02F480720192019AEB
:1015C0001A6B42F002021A631B6B03F002030293D0
:1015D000029B0224039404940525079503A9094856
:1015E00003F0DCF84FF44043039304940023059385
:1015F0000693079503A9044803F0D0F8CAE700BF93
:1016000000380040002002400004024070B5ACB039
:10161000044600212791289129912A912B91842217
:1016200006A80CF09FFE2368394A934204D0394A39
:10163000934240D02CB070BD4023069306A802F020
:10164000D7FD002834D1344B5A6C42F010025A6452
:101650005A6C02F010020192019A1A6B42F00202D7
:101660001A631A6B02F002020292029A1A6B42F09B
:1016700001021A631B6B03F001030393039B802396
:10168000279302262896002429942A9407252B952F
:1016900027A9224803F082F84FF400732793289675
:1016A00029942A942B9527A91D4803F077F8C1E7C0
:1016B000FFF7CCF9C7E74FF40063069306A802F0E2
:1016C00097FD08BB144B5A6C42F020025A645A6CC6
:1016D00002F020020492049A1A6B42F004021A6388
:1016E0001B6B03F004030593059BC0232793022380
:1016F00028930023299303232A9308232B9327A9B4
:10170000084803F04BF895E7FFF7A0F9DAE700BFC8
:101710000010014000140140003802400004024063
:10172000000002400008024008B5FFF72FFC08BD8A
:1017300030B589B00446214B1A6C42F010021A648D
:101740001B6C03F010030193019B02A903A802F094
:1017500031FD069BCBB902F00DFD03461848A0FBF6
:1017600003239B0C013B1748174A026040F2E73203
:10177000C2604360002303618360836105F090FCD5
:10178000054630B1284609B030BD02F0F3FC4300F5
:10179000E4E70C4805F0E2FA05460028F2D13620CD
:1017A00003F0B6FB0F2C01D90125EBE700222146FF
:1017B000362003F077FB054B1C60E3E7003802405E
:1017C00083DE1B43D411002000100040880000205D
:1017D00008B513460A460146024804F045FD00B12B
:1017E000012008BD2409002008B513460A46014619
:1017F000024804F0D3FD00B1012008BD24090020F7
:1018000008B5034805F0C6F8043818BF012008BD24
:101810002409002008B50146014805F048F808BD34
:1018200024090020704708B5FFF7FCFF08BD08B584
:1018300000F034F908BD08B500F03AF908BD00B56C
:1018400083B001238DF8073000F03CF910B9002374
:101850008DF807309DF8070003B05DF804FB000029
:1018600038B5FFF7ECFF012802D00225284638BD25
:101870000446074805F000F805460028F6D14FF465
:101880000061034805F026F80028EFD02546EDE773
:101890002409002008B5074B01221A70FFF7B0FF9A
:1018A00020B9044A137803F0FE031370014B187833
:1018B00008BD00BF0000002010B584B00446184BDE
:1018C00001221A700AF02BF818B9154B187804B0D9
:1018D00010BDFFF7C5FF88B1114B1B78DBB2012BA0
:1018E000F3D0104B1B687BB10E4B1B68002BECD167
:1018F0000B4A137843F001031370E6E72046FFF725
:10190000C9FF074B1870E7E7074B6C460FCB84E81D
:101910000F00002120460AF0FDF8024B1860E3E7B3
:10192000000000202012002094E6000808B5FFF710
:10193000B1FF08BD38B5054609F0FAFF044609F0C5
:10194000F7FF001BA84205D2FFF75AFF0028F6D187
:10195000002001E04FF0FF3038BD000070B584B0CA
:101960000C4615461E4647F23050FFF7E3FF0028AD
:1019700029DB324629462046FFF72AFF08B101201D
:1019800022E047F23052114B196801A80AF012F90F
:10199000019B102B01D0012016E0029B012B01D0EE
:1019A000012011E009F0C4FF044609F0C1FF001B4B
:1019B00047F22F53984204D8FFF722FF0028F4D1B2
:1019C00002E0012000E0012004B070BD20120020E0
:1019D00070B584B00C4615461E4647F23050FFF7EE
:1019E000A9FF002829DB324629462046FFF7FCFEE6
:1019F00008B1012022E047F23052114B196801A8CA
:101A00000AF0D8F8019B102B01D0012016E0029BB0
:101A1000022B01D0012011E009F08AFF044609F0F1
:101A200087FF001B47F22F53984204D8FFF7E8FEC8
:101A30000028F4D102E0012000E0012004B070BDD4
:101A40002012002030B589B0134B187810F0010433
:101A50001BD1154603291CD8DFE801F002040A1047
:101A60000C4613E06846FFF7D5FE069B2B600DE0A1
:101A70006846FFF7CFFE079B2B8007E06846FFF71D
:101A8000C9FE079B5B0A2B6000E00324204609B0D7
:101A900030BD0424FAE700BF0000002008B5002292
:101AA0000221024B18680AF04BF808BD20120020F2
:101AB00008B500220121024B18680AF041F808BD60
:101AC0002012002008B54FF40051044802F062FFD4
:101AD00008B9012008BD0020FCE700BF0008024053
:101AE00008B50349034808F077FA034B187008BD9E
:101AF0005C060020F4E60008241200200020704755
:101B000008B501220F4910480AF074FB70B90F495B
:101B10000D480AF086FB60B90D490B480BF0ECFA52
:101B200050B909480AF097FB48B908BDFEF78EFF87
:101B3000EDE7FEF78BFFEFE7FEF788FFF1E7FEF733
:101B400085FFF2E704000020281200209800002002
:101B50006400002012230B800048704730000020F2
:101B600004230B8000487047440000200C230B80A6
:101B70000048704724000020002393421ED200B585
:101B800010E00CF1370C01F813C000014FEA430CD0
:101B90000CF1010C4FF0000E01F80CE00133DBB248
:101BA000934209D24FEA107CB0F1204FE9D20CF1F8
:101BB000300C01F813C0E8E75DF804FB7047000043
:101BC00038B50B4BD3F82004D3F82444D3F8283489
:101BD000C01800D138BD074D0822A91CFFF7CCFF63
:101BE000042205F112012046FFF7C6FFF2E700BF0D
:101BF00000F0F01F4800002008B51A230B80FFF703
:101C0000DFFF014808BD00BF4800002008B50A46B4
:101C100028B9054905480BF07BF8034808BD02497F
:101C200002480BF075F8F8E70415002008E70008F3
:101C300010B50A46034C214603480BF069F82046CC
:101C400010BD00BF041500201CE7000808B50A46B7
:101C500028B9054905480BF05BF8034808BD02495F
:101C600002480BF055F8F8E70415002030E70008AB
:101C700008B50A4628B9054905480BF049F8034854
:101C800008BD024902480BF043F8F8E704150020AC
:101C90003CE70008002070470020704770B50C46F4
:101CA00015461E46FFF7CBFD10B90324204670BD34
:101CB000324629462046FFF797FD032400E0002422
:101CC000FFF79EFD0028FAD1F0E770B50C461546E7
:101CD0001E46FFF7B4FD10B90324204670BD3246FE
:101CE00029462046FFF774FD032400E00024FFF797
:101CF00087FD0028FAD1F0E708B5FFF7A0FD88B10D
:101D00000E4B93F90030002B04DBFFF779FD38B957
:101D1000002008BDFFF7A4FD084B00221A70F4E76D
:101D20000320F6E7054B93F9003023B9034BFF225C
:101D30001A700320EDE70320EBE700BF0417002033
:101D400008B5FFF78DFD40B208BD30B589B00D462E
:101D50001446FFF774FD50B16846FFF75BFD069B24
:101D6000013B2B60079B2380002009B030BD4FF062
:101D7000FF30FAE708B5FEF7FFFF08BD2DE9F04395
:101D80008DB000230793089309930A930B9302687D
:101D90003C4B9A4202D00DB0BDE8F0833A4C236B25
:101DA00043F002032363236B03F002030193019BBF
:101DB000236B43F080032363236B03F080030293C0
:101DC000029B236B43F004032363236B03F00403A0
:101DD0000393039B236B43F001032363236B03F003
:101DE00001030493049B43F6234307934FF0020837
:101DF000CDF8208003270A970A260B9607A92348C7
:101E000002F0CCFC10230793CDF820800025099523
:101E10000A970B9607A91E4802F0C0FC4FF005096F
:101E2000CDF81C90CDF8208009950A970B9607A94C
:101E3000184802F0B3FC28230793CDF820800995B9
:101E40000A970B9607A9144802F0A8FC236B43F0ED
:101E500000532363236B03F000530593059B236B0F
:101E600043F080432363236B03F080430693069B78
:101E70002A4649464D2003F015F84D2003F048F856
:101E800089E700BF0000044000380240000402401F
:101E9000001C0240000802400000024008B500F2A9
:101EA000C441D0F804050AF0ECF908BD08B501EB0F
:101EB000C10300EB8303D3F88C22D0F804050AF0A9
:101EC000ADFA08BD08B501EBC10300EB8303DA6C82
:101ED000D0F804050AF005FB08BD08B5D0F80405E4
:101EE0000AF047FA08BD10B50446C3683BB1022B9F
:101EF00001D1012104E0FEF7A9FD012100E000214C
:101F0000D4F804050AF01BFAD4F804050AF0E5F940
:101F100010BD000010B50446D0F804050AF012FA0E
:101F20002268D2F8003E43F00103C2F8003E236A63
:101F300023B1034A136943F00603136110BD00BFC8
:101F400000ED00E008B5D0F804050AF005FA08BD78
:101F500008B5D0F804050AF034FA08BD08B5D0F881
:101F600004050AF017FA08BD08B5D0F804050AF010
:101F70003FFA08BD08B5D0F804050AF03BFA08BDE1
:101F80000378012B01D00020704710B5164BC3F821
:101F90000405C0F8C832154A1A6008225A600022A7
:101FA000DA601A6101219961DA611A625A62DA62B1
:101FB0001A635A63184600F028F990B90A4C4FF496
:101FC0000071204600F054FF80220021204600F0DE
:101FD00029FF4FF4BA720121204600F023FF0020B0
:101FE00010BDFEF733FDE9E70817002000000440AC
:101FF000D0F8C83211F0800F08D101F07F0101EB59
:10200000C10103EB810191F87E02704701F07F016D
:1020100001EBC10103EB810191F83E00704708B567
:10202000D0F8C80200F00FFB08BD000010B5044650
:1020300011B1012916D010BD036A5BB92268D2F82C
:10204000003E23F00103C2F8003ED4F804050AF074
:1020500083F9F0E7FFF78EFE0C4A136923F00603BD
:102060001361EBE70268D2F8003E43F00103C2F8C7
:10207000003ED0F804050AF065F9236A002BDAD097
:10208000024A136943F006031361D4E700ED00E050
:10209000032805D8DFE800F0050402050120704799
:1020A0000320704708B5D0F8C80200F04CF9FFF7DC
:1020B000EFFF08BD08B594461A466346D0F8C8023B
:1020C00000F014FAFFF7E4FF08BD08B5D0F8C80225
:1020D00000F051FAFFF7DCFF08BD08B5D0F8C802E0
:1020E00000F085FEFFF7D4FF08BD08B5D0F8C802A0
:1020F00000F0E1FAFFF7CCFF08BD08B5D0F8C80240
:1021000000F01DFBFFF7C4FF08BD08B5D0F8C802FA
:1021100000F0D8F9FFF7BCFF08BD08B5D0F8C80239
:1021200000F09AFAFFF7B4FF08BD08B5D0F8C8026E
:1021300000F05AFAFFF7ACFF08BD2DE9F04383B079
:10214000D0F8008001EBC10300EB8303DA6D5B6D17
:102150009A4254D807460C469B1A01EBC10200EB89
:102160008202926C9A4200D31A4602F103094FEAA6
:10217000990915E006F103094FEA990904EBC40532
:1021800007EB8505E96C3B7C0093B3B2E2B24046B5
:1021900001F041FAEB6C3344EB64EB6D3344EB65D7
:1021A00008EB441303F510639B699BB24B4512D3B4
:1021B00004EBC40207EB8202D16D536D99420AD23F
:1021C0004BB15B1A04EBC40207EB8202966C9E4291
:1021D000D0D31E46CEE704EBC40007EB80077A6D30
:1021E000FB6D9A420FD804F00F040123A340D8F8E6
:1021F000344824EA0304C8F83448002000E00120F1
:1022000003B0BDE8F0830020FAE770B58AB000287B
:1022100000F097800546046890F8BD343BB3032373
:1022200085F8BD34E36B13F4807F01D100232B616B
:10223000286800F013FF2C4654F8106BEC460FCCC6
:10224000ACE80F000FCCACE80F0094E803008CE87A
:1022500003002B1D0ECB304600F04AFE044658B159
:10226000022385F8BD34012420460AB070BD80F8F1
:10227000BC34FFF783FDD2E70021286801F0E0FBC2
:10228000234616E003EBC30205EB8202012182F82C
:102290003D1082F83C30A2F84430002182F8401012
:1022A0009164D16403EBC30205EB820251650133F3
:1022B000DBB269688B42E5D316E004EBC40305EB9F
:1022C0008303002283F87D2283F87C4283F88022F6
:1022D000C3F88822C3F88C2204EBC40305EB830304
:1022E000C3F894220134E4B2A142E6D82C4654F853
:1022F000106BEC460FCCACE80F000FCCACE80F0035
:1023000094E803008CE803002B1D0ECB304600F050
:1023100001FF044660B9002385F83830012385F8B1
:10232000BD346B6A012B08D0286801F046FB9BE79F
:10233000022385F8BD34012496E7284600F09CFD71
:10234000F2E7012490E790F8BC34012B0ED010B5D1
:102350000446012380F8BC34006800F079FE206850
:1023600001F01DFB002084F8BC0410BD0220704762
:1023700070B504460D460068066C00EB411303F58A
:1023800030639A682169012911D038498E4256D0AC
:102390003DB905EBC50304EB8303D3F89432002B5E
:1023A0005ED0E9B22046FFF781FD002070BD12F03B
:1023B000080F09D02E498E42F7D912F4004FF4D0FD
:1023C0004FF400429A60F0E712F0200F02D0202272
:1023D0009A60EAE712F0280FE7D125498E4206D924
:1023E00012F4004F03D04FF400429A60DDE705EB92
:1023F000C50204EB8202D2F898121B69C3F31203E0
:10240000CB1AC2F89C327DB905EBC50204EB8202FF
:10241000D2F894226AB105EBC50204EB8202D2F82D
:102420008C120B44C2F88C32E9B22046FFF73EFD15
:10243000BBE704F2C442012101F044FBF4E712F4CB
:10244000004F03D04FF400429A60AEE712F0200F25
:1024500001D020229A60E9B22046FFF727FDA4E7C9
:1024600004F2C442002101F02DFB9AE70A31544FD7
:102470000A30544F38B5044603681D6C03EB411312
:10248000D3F8081B0E4A954207D903F5306311F4BF
:10249000004F02D04FF400429A602046FFF7FEFC46
:1024A000074B9D4202D92369012B01D0002038BD82
:1024B00004F2C4420121206801F004FBF6E700BFEA
:1024C0000A30544F90F8BC34012B0DD010B504469F
:1024D000012380F8BC3480F83810006801F04FFA0E
:1024E000002084F8BC0410BD0220704738B50546B2
:1024F0008C4611F0800F29D101F00F0E0EEBCE04A7
:10250000A40004F51E740444211D0EEBCE0E00EB56
:102510008E0E00208EF87D020CF00F0C81F800C0AA
:10252000CA600B714A780AB1A1F808C0022B1DD00D
:1025300095F8BC34012B1CD0012385F8BC342868E5
:1025400000F0BCFE002085F8BC0438BD01F00F008F
:1025500000EBC001890038312944043100EBC00090
:1025600005EB8000012480F83D40D5E700234B7146
:10257000DEE70220E9E710B504460A4611F0800FB5
:1025800020D101F00F0000EBC0039B0003F51E7388
:102590002344191D00EBC00004EB8000002380F8E9
:1025A0007D3202F00F020A7094F8BC34012B19D06E
:1025B000012384F8BC34206800F0CEFE002084F8AB
:1025C000BC0410BD01F00F0000EBC0039B003833CA
:1025D0002344191D00EBC00004EB8000012380F8A8
:1025E0003D30DEE70220ECE710B501F00F0404EB0C
:1025F000C401890001F51E710144043104EBC40CCF
:1026000000EB8C0CCCF88C22CCF894320023CCF864
:102610009C328CF87D328CF87C420369012B06D009
:1026200064B9DAB2006800F007FF002010BD04EBC7
:10263000C40C00EB8C0CCCF89022F1E7DAB2006805
:1026400001F000F8F1E701F00F0101EBC10100EB2F
:102650008101D1F89C02704710B501F00F0404EB22
:10266000C401890038310144043104EBC40C00EB8F
:102670008C0CCCF84C20CCF854300023CCF85C30D7
:1026800001238CF83D308CF83C400369012B06D0C7
:1026900064B9DAB2006800F0CFFE002010BD04EB90
:1026A000C40C00EB8C0CCCF85020F1E7DAB20068D7
:1026B00000F0C8FFF1E738B501F00F054268954218
:1026C00039D804460B4611F0800F1FD101EBC10130
:1026D000890001F51E710144043103EBC30300EBD3
:1026E0008303002283F87D2201238B700D7094F800
:1026F000BC34012B21D0012384F8BC34206801F0C4
:10270000E3F88DB1002084F8BC0438BD05EBC501A9
:10271000890038310144043105EBC50300EB830324
:10272000012283F83D20DFE704F2C442217C2068C7
:1027300001F0C8F9E6E70120E7E70220E5E701F04C
:102740000F034268934231D810B5044611F0800F50
:102750001ED103EBC301890001F51E710144043150
:1027600003EBC30200EB8202002082F87D0200220C
:102770008A700B7094F8BC34012B19D0012384F8B3
:10278000BC34206801F0CDF8002084F8BC0410BDF2
:1027900003EBC301890038310144043103EBC30268
:1027A00000EB8202012082F83D00E0E70120704743
:1027B0000220ECE708B511F0800F0CD101F00F01F9
:1027C00001EBC101890001F51E710144043100686B
:1027D00000F0C2FE08BD01F00F0101EBC10189004C
:1027E000383101440431F2E72DE9F04F83B004465B
:1027F0000568284601F020F910B103B0BDE8F08F5C
:102800000646206801F0E7F80028F6D005F50067D5
:10281000BB68C3F30D23C4F8FC34206801F0DBF877
:1028200010F0020F04D02268536903F002035361D1
:10283000206801F0D0F810F0100F14D022689369CE
:1028400023F010039361D5F8208008F00F09C8F336
:102850004343022B69D0062B00F08D8022689369D8
:1028600043F010039361206801F0B5F810F4002FD5
:1028700040F09380206801F0AEF810F4802F40F013
:10288000FC80206801F0A7F80028C0F27F81206852
:1028900001F0A1F810F4006F09D0BB6813F0010F2C
:1028A00040F08C812268536903F40063536120680F
:1028B00001F091F810F0006F15D02268536903F011
:1028C0000063536194F8F434002B40F07B810121C4
:1028D00084F8F41423685B6DC3F38303C4F8F834FD
:1028E0002046FFF7A3FB206801F075F810F4805F25
:1028F00040F06C81206801F06EF810F4005F40F049
:10290000B881206801F067F810F0080F40F0C98125
:10291000206801F060F810F0800F00F0DC81AB69F6
:1029200023F08003AB610126C5E147F6F07318EA96
:10293000030F93D04FEA181B4FEAC903019309EB29
:10294000C90A04EB8A0AC8F30A12DAF88C1228467C
:1029500000F090FFCBF30A0BDAF88C325B44CAF834
:102960008C32019B4B4404EB8303D3F89C325B44D1
:10297000CAF89C3272E7082204F2C441284600F0EB
:1029800079FFC8F30A1809EBC90204EB8202D2F8F6
:102990009C324344C2F89C3260E7206801F01FF883
:1029A0008046B14635E005EB49130122C3F8082BF8
:1029B00049462046FFF7DCFC3CE005EB49130822C2
:1029C000C3F8082B49462046FFF754FD35E009EBD4
:1029D000C90304EB830393F87F32012B41D005EB4D
:1029E00049130222C3F8082B1AF0200F04D005EB7C
:1029F00049132022C3F8082B1AF4005F05D005EB19
:102A000049134FF40052C3F8082B09F101094FEAAA
:102A10005808B8F1000F3FF42DAF18F0010FF4D0B3
:102A20005FFA89FB5946206800F0E9FF824610F002
:102A3000010FB8D11AF0080FBFD11AF0100F04D04F
:102A400005EB49131022C3F8082B1AF0020FCBD064
:102A50006B6913F0800FBAD07B6843F480637B60AE
:102A6000B5E709EBC90304EB8303002283F87F2257
:102A700059462046FFF76CFAB1E7206800F0B7FF2F
:102A80008046B14625E059462046FFF71BFA1AF06A
:102A9000080F04D005EB49130822C3F808291AF0DF
:102AA000100F04D005EB49131022C3F808291AF0BF
:102AB000400F04D005EB49134022C3F808291AF04F
:102AC000020F40D11AF0800F5BD109F101094FEAE2
:102AD0005808B8F1000F3FF4D4AE18F0010FF4D04D
:102AE0005FFA89FB5946206800F092FF824610F099
:102AF000010FCCD009F00F03012101FA03F27B6B27
:102B000023EA02037B6305EB4913C3F80819236921
:102B10008B42B8D109EBC90304EB8303996CDA6CDF
:102B20000A44DA64B9F1000FADD109EBC90304EB33
:102B300083035B6D002BA6D104F2C44201212068FF
:102B400000F0C0FF9FE74946284600F08DFA09EBE8
:102B5000C90304EB830393F83F30012B05D005EB49
:102B600049130222C3F80829ACE709EBC90304EBB7
:102B70008303002283F83F2059462046FFF7EEF9F1
:102B8000EDE749462046FFF7D8FA9EE77B6823F039
:102B900001037B6094F8F434012B08D02046FFF742
:102BA000D1F92268536903F0004353616FE60021B5
:102BB00084F8F4142046FFF739FAF2E72046FFF7CD
:102BC000A9F96FE62046FFF7A5F98CE67B6823F0AC
:102BD00001037B601021206800F046FA1AE005EB43
:102BE00046134FF67F31C3F80819D3F8002922F4B1
:102BF0000012C3F80029C3F8081BD3F8002B22F4F5
:102C00000012C3F8002BD3F8002B42F00062C3F887
:102C1000002B01366368B342E1D8FB6943F001132E
:102C2000FB61236BDBB1D7F8843043F00B03C7F8AB
:102C300084307B6C43F00B037B64D5F8003823F4BD
:102C4000FE63C5F8003804F2C442217C206800F01D
:102C500039FF2268536903F4805353614AE67A6965
:102C600042F22B0313437B613B6943F00B033B614F
:102C7000E3E7206800F016FF206800F00FFBE0603B
:102C8000266801F071FA0146227B304600F06EF9A9
:102C90002046FFF728F92268536903F40053536173
:102CA0002FE62046FFF719F92268536903F008035D
:102CB00053612DE601366368B3420CD906EBC603B7
:102CC00004EB830393F87F32012BF3D1F1B220465A
:102CD000FFF770FDEEE7206800F07DFE10F4801F26
:102CE00027D1206800F077FE10F4001F5BD001238D
:102CF00028E001366368B3421DD905EB4613D3F8CB
:102D0000002906EBC60304EB830393F84030012B44
:102D1000EFD1002AEDDA06EBC60304EB83030122B0
:102D200083F83F2066F07F01C9B22046FFF742FDDD
:102D3000DFE70126DEE72268536903F4801353615D
:102D4000CFE7013362689A4228D905EB4312D2F8E3
:102D5000001B03EBC30204EB820292F88022012ADB
:102D6000EFD10029EDDA01F48031D4F8FC2402F02F
:102D700001029142E5D103EBC30204EB820201217F
:102D800082F87F12AA6942F08002AA616A6912F091
:102D9000800FD6D17B6843F400737B60226853694F
:102DA00003F400135361206800F015FE10F0804F0B
:102DB00010D1206800F00FFE10F0040F3FF41DAD9D
:102DC00023685D6815F0040F0DD1226853682B430A
:102DD000536012E52046FFF7C7F82268536903F0F5
:102DE00080435361E5E72046FFF7C4F8EDE790F82C
:102DF000BC34012B14D010B50446012380F8BC3438
:102E000011F0800F06D1006800F056F9002084F818
:102E1000BC0410BD01F00F01006800F025F9F5E7D2
:102E20000220704710B40468606A31B940EA024079
:102E3000A06200205DF8044B70478C46A36A00EB4B
:102E40001340002308E003F1400104EB81014968CD
:102E500000EB11400133DBB20CF1FF318B42F2D3B6
:102E600040EA02400CF13F0104EB81014860E0E7D9
:102E70000368596200207047034602680121C0F8C8
:102E80000015002083F8F404936943F00063936114
:102E9000516D024B0B435365704700BF0300001098
:102EA00082B000230193019B01330193019A0F4BE0
:102EB0009A4215D80369002BF5DA002301930369C0
:102EC00043F001030361019B01330193019A074B16
:102ED0009A4208D8036913F0010FF4D1002000E0F2
:102EE000032002B070470320FBE700BF400D030042
:102EF00084B010B5044603A880E80E00089B012B9F
:102F00001DD1A36B23F48033A363E268164B1340F7
:102F1000E360E36823F44013E3600F9B012B09D0C7
:102F20002046FFF7BDFF069B012B14D0BDE81040E3
:102F300004B07047E36843F48013E360F0E7E368AC
:102F400043F04003E3602046FFF7AAFFA36B43F47E
:102F50008033A363E7E7A36843F00603A360A36895
:102F600043F02003A360E1E7BFFFBDFF022A0AD0C0
:102F70000921C26822F47052C260C36843EA812307
:102F8000C36000207047204B0B44204A934229D94C
:102F90001F4B0B441F4A934226D91F4B0B441F4A19
:102FA000934223D91E4B0B441E4A934220D31E4BFF
:102FB0000B441E4A93421DD91D4B0B441D4A93429C
:102FC0001AD31D4B0B441D4A934217D31C4B0B4481
:102FD0001C4A934214D31C4B0B441C4A934211D2FB
:102FE0000721C6E70F21C4E70E21C2E70D21C0E784
:102FF0000C21BEE70B21BCE70A21BAE70921B8E79B
:103000000821B6E70621B4E7405327FFFF340C0040
:10301000401E1BFF3F420F0000DC0BFF7F4F1200E2
:10302000808CF9FE20D6130060B6E5FE5FE3160043
:1030300000D3CEFE40771B00C05BB3FEC0912100E1
:1030400000CA91FE20753800E05459FEE09C410012
:10305000836843F00103836000207047836823F096
:10306000010383600020704782B000230193019B1D
:1030700001330193019A0F4B9A4215D80369002B33
:10308000F5DA00230193890141F020010161019BE0
:1030900001330193019A074B9A4208D8036913F050
:1030A000200FF4D1002000E0032002B0704703207D
:1030B000FBE700BF400D030082B000230193019B9A
:1030C00001330193019A0E4B9A4213D80369002BE6
:1030D000F5DA0023019310230361019B013301936F
:1030E000019A074B9A4208D8036913F0100FF4D1E4
:1030F000002000E0032002B070470320FBE700BF80
:10310000400D0300D0F800381943C0F80018002023
:103110007047000084B02DE9F041044607A880E81C
:103120000E00002306E003F1400204EB82020021BE
:10313000516001330E2BF6D9119F27BBD4F8043808
:1031400043F00203C4F80438A36B23F40013A36311
:10315000236843F040032360236843F08003236027
:103160000023C4F8003E04F50065D4F80038C4F824
:1031700000380C9B012B10D1099B4BB90021204634
:10318000FFF7C0FF0DE0A36B43F40013A363E7E771
:1031900001212046FFF7B6FF03E003212046FFF799
:1031A000B1FF10212046FFF75FFF804608B14FF0C6
:1031B00001082046FFF780FF08B14FF00108002307
:1031C0002B616B61EB610AE0C3B94FF00060C2F89C
:1031D000000900220A614FF67F328A6001330799A5
:1031E000994210D904EB431202F51061D2F800099C
:1031F0000028E9DB0020C2F80009EAE74FF0904020
:10320000C2F80009E5E700230AE0C3B14FF0904C93
:10321000C2F800CB002202614FF67F328260013398
:10322000994211D904EB431202F53060D2F8006BD9
:10323000002EEADB4FF0000CC2F800CBEAE74FF0BB
:10324000006CC2F800CBE5E72B6923F480732B6197
:103250000023A3616FF0804363610A9B1BB9A369DC
:1032600043F01003A361A2690A4B1343A3610D9BB2
:103270001BB1A36943F00803A361012F04D04046AA
:10328000BDE8F04104B07047A269034B1343A3614A
:10329000F5E700BF00383C8004000040D0F8083853
:1032A00013F0060305D0062B18BF022B03D1022012
:1032B0007047002070470F207047000010B591F84C
:1032C00000C04B78012B21D000F5006ED0F81C38DF
:1032D0000CF00F040122A24043EA0243C0F81C385C
:1032E00000EB4C10D0F8003B13F4004F0CD1D0F899
:1032F000002BCB68C3F30A03097943EA81431343E4
:10330000144A1A43C0F8002B002010BDD0F81C2826
:103310000CF00F0E03FA0EF39BB21343C0F81C38E7
:1033200000EB4C10D0F8003913F4004FECD1D0F87A
:103330000029CB68C3F30A03097943EA814343EACE
:103340008C5C42EA0C0C034B4CEA0303C0F80039D6
:10335000DAE700BF0080001030B40B784A78012A09
:1033600026D000EB4313D3F8002B002A52DBD0F811
:103370003C480A7802F00F024FF0010C0CFA02F2FE
:1033800024EA0242C0F83C28D0F81C28097801F051
:103390000F010CFA01FC22EA0C42C0F81C28D3F8F9
:1033A000001B234A0A40C3F8002B002030BC7047A2
:1033B00000EB4313D3F80029002A1EDBD0F83C5859
:1033C0000A7802F00F02012404FA02F292B225EA0E
:1033D0000202C0F83C28D0F81C28097801F00F013F
:1033E0008C40A4B222EA0404C0F81C48D3F80019A7
:1033F000104A0A40C3F80029D7E7D3F8002942F061
:103400000062C3F80029D3F8002942F08042C3F8D3
:103410000029D3E7D3F8002B42F00062C3F8002B59
:10342000D3F8002B42F08042C3F8002B9FE700BF87
:103430000078F3EF007833EC70B40B784C78012C03
:1034400027D000EB431000F530631D69404C2C4041
:103450001C611D693F4C2C401C618C690CB1CC680F
:103460008C61CC68CC611C6944F400241C611C692B
:10347000CD69C5F3120C44EA0C041C61012A62D028
:10348000D0F8003B43F00443C0F8003B002070BC80
:1034900070478C695CBB00EB4314D4F810692D4D68
:1034A0003540C4F81059D4F8105945F40025C4F833
:1034B0001059D4F81069264D3540C4F81059012A26
:1034C00032D000EB4313D3F8002942F00442C3F892
:1034D00000298B69002BD9D0D0F834380A7802F053
:1034E0000F0101228A401343C0F83438CEE700EBC5
:1034F000431404F510642669154D3540256126698D
:10350000144D35402561CD688E69AE4200D98D617C
:10351000256945F40025256125698E69C6F3120CDD
:1035200045EA0C052561CAE74A691AB100EB431167
:10353000C1F8142900EB4310D0F8002942F00442EE
:10354000C0F80029A2E70A69002A99D05A6197E7D2
:103550000000F8FFFFFF07E010B483B0024600232D
:103560000193487801280BD00B7802EB4313D3F872
:10357000000B00282DDB002003B05DF8044B7047E2
:103580000B7802EB4313D3F80049002C01DB002039
:10359000F2E7D3F8004944F00064C3F800490B781F
:1035A00002EB4313D3F8004944F08044C3F80049C8
:1035B000019B01330193019C42F210739C42DBD8C2
:1035C0000B7802EB4313D3F80039002BF0DB00201B
:1035D000D2E7D3F8000B40F00060C3F8000B0B7883
:1035E00002EB4313D3F8000B40F08040C3F8000B0C
:1035F000019B01330193019842F21073984208D85D
:103600000B7802EB4313D3F8003B002BF0DB0020D8
:10361000B2E70120B0E710B59DF8084084B9033344
:103620004FEA930E4FF0000C08E000EB023303F575
:10363000805351F8044B1C600CF1010CF445F4D399
:10364000002010BDF0B583B00B784C78012C31D040
:1036500000EB431303F5306CDCF81050824C2C4027
:10366000CCF81040DCF81050804C2C40CCF81040C6
:103670008C69002C40F0C380DCF81040CD68C5F3A5
:1036800012052C43CCF81040DCF8104044F4002420
:10369000CCF81040012A00F0CC800A79012A00F011
:1036A000CF80D3F8002B42F00442C3F8002B002057
:1036B00003B0F0BD8C6974BB00EB4314D4F81069FF
:1036C0006A4D3540C4F81059D4F8105945F4002516
:1036D000C4F81059D4F81069634D3540C4F8105936
:1036E000012A4AD000EB4313D3F8004944F00444C4
:1036F000C3F800490C79012C68D08B69002BD6D017
:10370000D0F834380A7802F00F0101228A401343BE
:10371000C0F83438CBE700EB4314D4F81069524DAD
:103720003540C4F81059D4F81069504D3540C4F8EC
:103730001059D4F810698D69CF683D44013DB5FB3F
:10374000F7F54B4F07EAC5453543C4F81059D4F88F
:1037500010598E69C6F312063543C4F8105904F5A2
:1037600010640D79012DBBD1256925F0C045256177
:10377000256945F000552561B2E74A691AB100EBA9
:103780004314C4F814290A79012A08D000EB431322
:10379000D3F8002942F00442C3F8002987E7D0F8A3
:1037A000082812F4807F08D100EB4311D1F80029DA
:1037B00042F00052C1F80029E8E700EB4311D1F8CC
:1037C000002942F08052C1F80029DFE7D0F808480C
:1037D00014F4807F0CD1D3F8004944F00054C3F8AE
:1037E000004900920B8B0A780969FFF714FF5EE726
:1037F000D3F8004944F08054C3F80049F1E7CD689C
:103800002C44013CB4FBF5F4A4B204FB05F5CD61F6
:10381000DCF81050164E06EAC4442C43CCF8104095
:10382000DCF81040CD69C5F312052C43CCF81040EC
:1038300030E70A69002A3FF430AFCCF814202CE7B7
:10384000D0F8082812F4807F06D1D3F8002B42F07C
:103850000052C3F8002B24E7D3F8002B42F080522B
:10386000C3F8002B1DE700BF0000F8FFFFFF07E0D3
:103870000000F81F00B583B0844608464FEA920E58
:1038800002F00302002305E00CF58051096840F8BE
:10389000041B01337345F7D39AB10CF5805CDCF857
:1038A000003001934FF0000C5FFA8CF3D900019BBC
:1038B000CB4000F8013B0CF1010C013A92B2002A16
:1038C000F2D103B05DF804FB0B784A78012A14D0DA
:1038D00000EB4310D0F8002B002A06DB2BB1D0F808
:1038E000003B23F08043C0F8003BD0F8003B43F49A
:1038F0000013C0F8003B0020704700EB4310D0F8E5
:103900000029002A06DB2BB1D0F8003923F08043D0
:10391000C0F80039D0F8003943F40013C0F800397A
:10392000E9E70B784A78012A0ED000EB4310D0F873
:10393000003B23F40013C0F8003B0B79023BDBB2E1
:10394000012B15D90020704700EB4310D0F8003947
:1039500023F40013C0F800390B79023BDBB2012BD2
:10396000F0D8D0F8003943F08053C0F80039E9E7C7
:10397000D0F8003B43F08053C0F8003BE2E7D0F8BA
:10398000003823F4FE63C0F80038D0F8003809018D
:1039900001F4FE611943C0F8001800207047D0F808
:1039A000003E23F00303C0F8003ED0F8043823F0B3
:1039B0000203C0F8043800207047D0F8003E23F01E
:1039C0000303C0F8003ED0F8043843F00203C0F807
:1039D0000438002070474269806910407047D0F871
:1039E000183800F50060C0691840000C7047D0F826
:1039F000183800F50060C069184080B2704700EBCD
:103A00004111D1F8082B00F5006040691040704763
:103A100010B4D0F81048D0F8343801F00F02D34079
:103A2000DB01DBB2234300EB411000F5106080683E
:103A300018405DF8044B7047406900F00100704782
:103A400038B50546C36823F0C043C360012913D0CD
:103A500019BBC36843F08043C3600024012001F018
:103A600083FA01342846FFF7E7FF08B1312CF5D976
:103A7000322C14D0002038BDC36843F00053C3601B
:103A80000024012001F070FA01342846FFF7D4FF2A
:103A90000128EDD0312CF4D9EAE70120EBE7012031
:103AA000E9E70000D0F80029054B1340C0F80039C1
:103AB000D0F8043843F48073C0F80438002070470D
:103AC00000F8FFFF10B4046C154B9C4203D9D0F8EA
:103AD000003B002B16DB0024C0F8104BD0F8104B35
:103AE00044F40024C0F8104BD0F8104B44F01804F4
:103AF000C0F8104BD0F8104B44F0C044C0F8104B45
:103B0000012903D000205DF8044B7047C0F8142B46
:103B1000D0F8003B43F08023C0F8003BF2E700BF41
:103B20000A30544F002800F0FF8170B582B004467F
:103B3000036813F0010F29D0954B9B6803F00C0329
:103B4000042B1AD0924B9B6803F00C03082B0FD068
:103B50006368B3F5803F40D0002B54D18C4B1A687A
:103B600022F480321A601A6822F480221A6039E046
:103B7000874B5B6813F4800FEAD0854B1B6813F406
:103B8000003F03D06368002B00F0D081236813F05E
:103B9000020F74D07E4B9B6813F00C0F5ED07C4BF1
:103BA0009B6803F00C03082B53D0E368002B00F054
:103BB0008980774A136843F00103136001F0CEF95E
:103BC0000546734B1B6813F0020F72D101F0C6F962
:103BD000401B0228F5D90320ADE16D4A136843F478
:103BE0008033136063682BB301F0B8F90546684B66
:103BF0001B6813F4003FC9D101F0B0F9401B6428E1
:103C0000F5D9032097E1B3F5A02F09D0604B1A68CE
:103C100022F480321A601A6822F480221A60E1E7E6
:103C20005B4B1A6842F480221A601A6842F48032B0
:103C30001A60D7E701F092F90546554B1B6813F45B
:103C4000003FA3D001F08AF9401B6428F5D9032076
:103C500071E14F4B5B6813F4800FA6D14C4B1B688E
:103C600013F0020F03D0E368012B40F06181484A52
:103C7000136823F0F803216943EAC1031360236842
:103C800013F0080F46D0636983B3414A536F43F082
:103C90000103536701F062F905463D4B5B6F13F07A
:103CA000020F37D101F05AF9401B0228F5D9032041
:103CB00041E1374A136823F0F803216943EAC1035D
:103CC0001360DCE7324A136823F00103136001F04C
:103CD00045F905462E4B1B6813F0020FCFD001F0BB
:103CE0003DF9401B0228F5D9032024E1284A536FEF
:103CF00023F00103536701F031F90546244B5B6F54
:103D000013F0020F06D001F029F9401B0228F5D963
:103D1000032010E1236813F0040F7DD01C4B1B6CB3
:103D200013F0805F1ED11A4B1A6C42F080521A6455
:103D30001B6C03F080530193019B0125154B1B68FD
:103D400013F4807F10D0A368012B25D0002B3BD12A
:103D50000F4B1A6F22F001021A671A6F22F0040249
:103D60001A671EE00025E9E70A4A136843F48073E6
:103D7000136001F0F3F80646064B1B6813F4807FCE
:103D8000E1D101F0EBF8801B6428F5D90320D2E0E3
:103D900000380240007000406E4A136F43F0010388
:103DA0001367A36833B301F0D9F80646694B1B6F5C
:103DB00013F0020F2FD101F0D1F8801B41F28833AC
:103DC0009842F3D90320B6E0052B09D0614B1A6F56
:103DD00022F001021A671A6F22F004021A67E0E764
:103DE0005C4B1A6F42F004021A671A6F42F001022C
:103DF0001A67D6E701F0B2F80646564B1B6F13F070
:103E0000020F08D001F0AAF8801B41F288339842D3
:103E1000F3D903208FE0FDB9A369002B00F08A805D
:103E20004C4A926802F00C02082A58D0022B19D092
:103E3000484A136823F08073136001F08FF804463A
:103E4000444B1B6813F0007F47D001F087F8001B3C
:103E50000228F5D903206EE03E4A136C23F080530C
:103E60001364D9E73B4A136823F08073136001F0B1
:103E700075F80546374B1B6813F0007F06D001F03C
:103E80006DF8401B0228F5D9032054E0E369226A4B
:103E90001343626A43EA8213A26A5208013A43EA70
:103EA0000243E26A43EA026343F00053294A536043
:103EB000136843F08073136001F050F80446254BFB
:103EC0001B6813F0007F06D101F048F8001B0228A0
:103ED000F5D903202FE000202DE000202BE01D4A23
:103EE0005268012B29D002F48003E1698B4226D16C
:103EF00002F03F03216A8B4223D1616A47F6C07307
:103F00001340B3EB811F1ED102F44031A36A5B085A
:103F1000013BB1EB034F18D102F07062E36AB2EBE0
:103F2000036F14D1002006E001207047012002E059
:103F3000012000E0002002B070BD0120FBE701205D
:103F4000F9E70120F7E70120F5E70120F3E7012079
:103F5000F1E700BF0038024008B5254B9B6803F02D
:103F60000C03042B3FD0082B3FD1214B5A6802F0A1
:103F70003F025B6813F4800F12D01D4B5968C1F3E8
:103F800088111C480023A1FB0001FCF749F9184BDC
:103F90005B68C3F3014301335B00B0FBF3F025E042
:103FA000134B5968C1F3881C4FEA4C11B1EB0C005C
:103FB0006EEB0E0E4FEA8E1343EA90638101091AED
:103FC00063EB0E03DB0043EA5173C90011EB0C0CE9
:103FD00043F10003990200234FEA8C2041EA9C51EF
:103FE000FCF71EF9D3E7034800E0034808BD00BF13
:103FF0000038024040787D010024F400002800F0E1
:10400000A08070B50D460446524B1B6803F00F03A9
:104010008B420BD24F4A136823F00F030B431360FC
:10402000136803F00F038B4240F08D80236813F078
:10403000020F17D013F0040F04D0474A936843F4DB
:10404000E0539360236813F0080F04D0424A93684A
:1040500043F460439360404A936823F0F003A168FF
:104060000B439360236813F0010F31D06368012B79
:1040700020D0022B25D0384A126812F0020F64D0EB
:1040800035498A6822F0030213438B6000F066FF13
:104090000646314B9B6803F00C036268B3EB820F5A
:1040A00016D000F05BFF801B41F288339842F0D9B4
:1040B000032045E0284A126812F4003FE0D10120B5
:1040C0003EE0254A126812F0007FD9D1012037E086
:1040D000204B1B6803F00F03AB420AD91D4A13683B
:1040E00023F00F032B431360136803F00F03AB425D
:1040F0002DD1236813F0040F06D0174A936823F4D8
:10410000E053E1680B439360236813F0080F07D076
:10411000114A936823F46043216943EAC103936021
:10412000FFF71AFF0C4B9B68C3F303130B4AD35CD6
:10413000D8400B4B18600B4B1868FDF7F9FA0020BC
:1041400070BD012070470120FAE70120F8E7012047
:10415000F6E700BF003C02400038024078E7000864
:104160008C00002088000020014B1868704700BFB9
:104170008C00002008B5FFF7F7FF044B9B68C3F3E2
:104180008223034AD35CD84008BD00BF00380240F8
:1041900088E7000808B5FFF7E7FF044B9B68C3F307
:1041A0004233034AD35CD84008BD00BF0038024008
:1041B00088E700080F2303600B4B9A6802F00302A4
:1041C00042609A6802F0F00282609A6802F4E0525B
:1041D000C2609B68DB0803F4E0530361034B1B6878
:1041E00003F00F030B60704700380240003C0240B0
:1041F000F0B583B00446066816F001060DD0A74B53
:104200009A6822F400029A609A68416B0A439A60A5
:10421000436B002B00F039810026256815F400253A
:1042200011D09E4AD2F88C3023F44013E16B0B433B
:10423000C2F88C30E36BB3F5801F00F02881002BAF
:1042400000F027810025236813F4801F0FD0934AC4
:10425000D2F88C3023F44003216C0B43C2F88C302D
:10426000236CB3F5800F00F0168103B90125236894
:1042700013F0807F00D0012613F0200F40F0108152
:10428000236813F0100F0CD0844BD3F88C2022F04D
:104290008072C3F88C20D3F88C20A16B0A43C3F83A
:1042A0008C20236813F4804F08D07C4AD2F89030D9
:1042B00023F44033616E0B43C2F89030236813F44B
:1042C000004F08D0754AD2F8903023F44023A16EF5
:1042D0000B43C2F89030236813F4803F08D06F4A34
:1042E000D2F8903023F44013E16E0B43C2F89030C3
:1042F000236813F4003F08D0684AD2F8903023F4C2
:104300004003216F0B43C2F89030236813F0400F35
:1043100008D0624AD2F8903023F00303616C0B435B
:10432000C2F89030236813F0800F08D05B4AD2F8AF
:10433000903023F00C03A16C0B43C2F8903023683B
:1043400013F4807F08D0554AD2F8903023F0300320
:10435000E16C0B43C2F89030236813F4007F08D05F
:104360004E4AD2F8903023F0C003216D0B43C2F8BF
:104370009030236813F4806F08D0484AD2F8903008
:1043800023F44073616D0B43C2F89030236813F43B
:10439000006F08D0414AD2F8903023F44063A16DF9
:1043A0000B43C2F89030236813F4805F08D03B4A77
:1043B000D2F8903023F44053E16D0B43C2F89030B3
:1043C000236813F4005F08D0344AD2F8903023F405
:1043D0004043216E0B43C2F89030236813F4800FE2
:1043E00008D02E4AD2F8903023F08063A16F0B439F
:1043F000C2F89030236813F4001F0DD0274AD2F87A
:10440000903023F00063E16F0B43C2F89030E36F0C
:10441000B3F1006F00F0AA80236813F0080F00D0FA
:10442000012513F4802F08D01C4AD2F8903023F0D5
:104430004073616F0B43C2F89030236813F4000F90
:1044400009D0164AD2F8903023F08053D4F8801067
:104450000B43C2F8903026B9236813F0007F00F0B8
:1044600005810E4A136823F08063136000F076FD27
:1044700006460A4B1B6813F0006F79D000F06EFD02
:10448000801B6428F5D90320F3E00126C5E6012648
:10449000D5E60125D7E60126E7E600BF0038024051
:1044A0007F4B1A6C42F080521A641B6C03F08053ED
:1044B0000193019B7B4A136843F48073136000F0FF
:1044C0004DFD0746774B1B6813F4807F06D100F043
:1044D00045FDC01B6428F5D90320CAE0704B1B6F53
:1044E00013F4407315D0226B02F440729A4210D03C
:1044F0006B4B1A6F22F44072196F41F480311967C7
:10450000196F21F4803119671A671B6F13F0010FBF
:1045100012D1236B03F44072B2F5407F1DD0604A84
:10452000936823F4F81393605D490B6F226BC2F319
:104530000B0213430B67A3E600F010FD0746584B30
:104540001B6F13F0020FE4D100F008FDC01B41F215
:1045500088339842F3D903208BE05148826822F4D3
:10456000F812514919400A438260DDE7012553E7FB
:10457000236813F0010F13D0636B8BB9484AD2F84C
:104580008430D2F88410606803F4403343EA801327
:1045900001F070610B43A16843EA0173C2F88430F3
:1045A000236813F4002F03D0E26BB2F5801F06D00E
:1045B00013F4801F1ED0236CB3F5800F1AD1384A34
:1045C000D2F88430D2F88410606803F4403343EAB0
:1045D0008013E06843EA006301F0E0410B43C2F856
:1045E0008430D2F88C3023F01F03616A01390B4309
:1045F000C2F88C30236813F0807F11D0284AD2F89B
:104600008400D2F88410666823691B0443EA861389
:1046100000F07060034301F0E0410B43C2F88430C6
:10462000236813F0007F0DD0626823691B0443EAFE
:104630008213E26843EA0263A26843EA0273184AFB
:10464000C2F88430164A136843F08063136000F0A8
:1046500085FC0646124B1B6813F0006F06D100F074
:104660007DFC801B6428F5D9032002E0012D02D0D7
:10467000002003B0F0BD0A4A136823F08053136092
:1046800000F06CFC0546064B1B6813F0005F0DD074
:1046900000F064FC401B6428F5D90320E9E700BF63
:1046A0000038024000700040FFFCFF0F236813F445
:1046B000002F01D0E26B22B113F4801F1DD0236CB8
:1046C000DBB9354AD2F88830D2F88810606903F433
:1046D000403343EA8013A06943EA006301F0E041FC
:1046E0000B43C2F88830D2F88C3023F4F853A16A17
:1046F000013943EA0123C2F88C30236813F4001F08
:1047000003D0E36FB3F1006F31D0236813F0080FCB
:1047100019D0214AD2F88810D2F88830606903F4A1
:10472000403343EA801301F070610B43E16943EACF
:104730000173C2F88830D2F88C3023F44033E16A38
:104740000B43C2F88C30144A136843F08053136053
:1047500000F004FC0446104B1B6813F0005F19D1F5
:1047600000F0FCFB001B6428F5D9032081E70A4A0E
:10477000D2F88800D2F888106569236A1B0443EADE
:10478000851300F07060034301F0E0410B43C2F871
:104790008830BAE700206CE70038024000230F2B76
:1047A00000F2EF8070B582B061E085685E0003249E
:1047B000B44025EA0405CC68B4402C4384604568C5
:1047C00025EA02054C68C4F300129A402A4342606D
:1047D0005BE0DC08083450F8246003F00702950021
:1047E0000F22AA4026EA020E0A69AA4042EA0E02F5
:1047F00040F824205DE0092200E0002202FA0EF2D7
:104800002A4302345F4D45F824205F4A94686FEADA
:104810000C0224EA0C054E6816F4801F01D04CEA05
:104820000405594CA560E46802EA04054E6816F4D4
:10483000001F01D04CEA0405534CE560646802EAAD
:1048400004054E6816F4003F01D04CEA04054E4CB6
:104850006560246822404D6815F4803F01D04CEA21
:104860000402494C226001330F2B00F288800122A0
:104870009A400C6804EA020C32EA0404F3D14C6852
:1048800004F00304013C012C8FD94A6802F00302B2
:10489000032A09D0C4685D000322AA4024EA020466
:1048A0008A68AA402243C2604A6802F00302022AD0
:1048B0008FD004684FEA430E032202FA0EF224EA74
:1048C00002044A6802F0030202FA0EF22243026076
:1048D0004A6812F4403FC6D02C4A546C44F48044D9
:1048E0005464526C02F480420192019A9C08A51C07
:1048F000244A52F8255003F003024FEA820E0F2299
:1049000002FA0EF225EA0205214A90423FF475AF01
:1049100002F58062904222D002F58062904220D05F
:1049200002F5806290421ED002F5806290421CD057
:1049300002F5806290421AD002F58062904218D04F
:1049400002F58062904216D002F58062904214D047
:1049500002F5806290423FF44EAF0A224EE70122F8
:104960004CE702224AE7032248E7042246E70522F1
:1049700044E7062242E7072240E708223EE702B06A
:1049800070BD704700380140003C014000380240D3
:10499000000002400369194201D001207047002045
:1049A00070470AB18161704709048161704730B472
:1049B00005682C6824F480242C6004686360836894
:1049C000402B05D0036899600368DA6030BC7047FB
:1049D00003689A600368D960F8E7000010B40168C2
:1049E000CAB2103A0A4BA3FB02431B09094CE35C11
:1049F000C3655F2A07D9084B0B4004338365806D7C
:104A00005DF8044B7047044B0B408365F7E700BF2C
:104A1000ABAAAAAA70E7000800FCFFFF836A8269BC
:104A200092B9012B0AD0022B02D00BB100207047A3
:104A3000C36A13F0807F28D100207047C36AB3F1A6
:104A4000C07F24D000207047B2F5005F09D0022B50
:104A500025D9032B25D1C36A13F0807F23D10020F1
:104A60007047032B03D8DFE803F01404140A002076
:104A70007047C36A13F0807F0DD100207047C36A6E
:104A8000B3F1C07F09D0002070470120704701209A
:104A900070470120704701207047012070470120B6
:104AA00070470020704701207047000070B5044631
:104AB00000F054FA002C5BD00546022384F8353010
:104AC000002384F834302268136823F00103136054
:104AD00023681A6812F0010F0AD000F03FFA431B56
:104AE000052BF5D920236365032084F8350070BDBC
:104AF0001A68204810406168A2680A43E1680A43C6
:104B000021690A4361690A43A1690A43E1690A43C9
:104B1000216A0A430243616A04291ED01A6026688A
:104B2000756925F00705636A1D43042B07D1A36A45
:104B30001D43E36A1BB12046FFF770FF90B9756112
:104B40002046FFF74BFFE26D3F2393408360002038
:104B50006065012384F83530C9E7E16A206B0143C1
:104B60000A43DBE740236365012084F83500BEE794
:104B70000120BCE73F8010F038B50446856D90F801
:104B80003400012830D0012084F8340094F8350036
:104B9000C0B2012804D0002384F83430022038BD8C
:104BA000022084F83500002060652046FFF7FFFEF4
:104BB000E26D3F239340AB602268136843F0160315
:104BC00013602268536943F080035361236C23B15F
:104BD0002268136843F0080313602268136843F0E7
:104BE000010313600020DAE70220D8E790F835309F
:104BF000DBB2022B03D080234365012070470523DD
:104C000080F835300268136823F001031360002038
:104C100070470000F0B583B0044600230193724B47
:104C20001D68724BA3FB0535AD0A876D3E68C26DEA
:104C300008239340334210D003681A6812F0040F1F
:104C40000BD01A6822F004021A60C26D0823934048
:104C5000BB60436D43F001034365E26D0123934064
:104C6000334209D02268526912F0800F04D0BB6031
:104C7000636D43F002036365E26D042393403342A6
:104C800009D02268126812F0020F04D0BB60636D75
:104C900043F004036365E26D10239340334224D054
:104CA0002268126812F0080F1FD0BB6023681A68D0
:104CB00012F4802F0DD01B6813F4002F04D1236C45
:104CC0009BB12046984710E0A36C73B120469847EB
:104CD0000BE01A6812F4807F03D11A6822F00802F0
:104CE0001A60236C0BB120469847E26D2023934055
:104CF000334255D02268126812F0100F50D0BB60BA
:104D000094F83530DBB2052B0ED023681A6812F404
:104D1000802F33D01B6813F4002F2AD1636C002B33
:104D20003ED0204698473BE02268136823F01603E4
:104D300013602268536923F080035361236CA3B18D
:104D40002268136823F008031360E26D3F23934049
:104D5000BB60012384F83530002384F83430236DA0
:104D6000002B3FD0204698473CE0A36C002BE7D1B6
:104D7000EBE7E36BA3B12046984711E01A6812F401
:104D8000807F09D11A6822F010021A60012384F88A
:104D90003530002384F83430E36B0BB1204698475C
:104DA000636DFBB1636D13F0010F17D0052384F819
:104DB00035302268136823F001031360019B01332F
:104DC0000193AB4204D823681B6813F0010FF5D19F
:104DD000012384F83530002384F83430E36C0BB1C0
:104DE0002046984703B0F0BD8C000020B5814E1BD3
:104DF000406D7047024A136843F480731360704734
:104E00000070004010B582B01B4B1A6C42F080520B
:104E10001A641B6C03F080530193019B174A1368BB
:104E200043F48033136000F099F80446134B5B6839
:104E300013F4803F08D100F091F8001BB0F57A7FA1
:104E4000F4D9032002B010BD0C4A136843F40033B8
:104E5000136000F083F80446084B5B6813F4003FCE
:104E600007D100F07BF8001BB0F57A7FF4D903205E
:104E7000E8E70020E6E700BF00380240007000408D
:104E80000649CB6823F4E0631B041B0C000200F40A
:104E9000E0600343024A1A43CA60704700ED00E035
:104EA0000000FA0500B5174BDB68C3F30223C3F11A
:104EB000070CBCF1040F28BF4FF0040C03F1040EE3
:104EC000BEF1060F14D9033B4FF0FF3E0EFA0CFC67
:104ED00021EA0C0199400EFA03F322EA0303194375
:104EE000002807DB0901C9B2074B19545DF804FB20
:104EF0000023E9E700F00F000901C9B2034B195480
:104F0000F4E700BF00ED00E000E400E014ED00E095
:104F1000002807DB00F01F02400901239340024AEA
:104F200042F82030704700BF00E100E008B50320E0
:104F3000FFF7A6FF0120FCF7FBFBFCF795F800202C
:104F400008BD0000034A1168034B1B780B44136033
:104F5000704700BF101C002084000020014B18681F
:104F6000704700BF101C002038B50446FFF7F6FF5D
:104F70000546B4F1FF3F02D0044B1B781C44FFF7F9
:104F8000EDFF401BA042FAD338BD00BF84000020D3
:104F9000002857D010B5044690F84130002B41D07E
:104FA000242384F841302268136823F0010313603E
:104FB0006368226823F0706313612268936823F4A6
:104FC00000439360E368012B31D0A368226843F467
:104FD00004439360E368022B2FD0226851681A4B78
:104FE0000B4353602268D36823F40043D3602369E2
:104FF00062691343A169226843EA0123D360E3692C
:10500000216A22680B4313602268136843F001038E
:10501000136000206064202384F84130206384F80A
:10502000420010BD80F84030FCF774F8B8E7A36880
:10503000226843F400439360CCE723684FF4006296
:105040005A60CAE7012070470080000290F84130A2
:10505000DBB2202B24D190F84030012B22D0012349
:1050600080F84030242380F841300268136823F030
:10507000010313600268136823F48053136002680D
:105080001368194311600268136843F00103136049
:10509000202380F84130002380F8403018467047C4
:1050A000022070470220704790F84130DBB2202B7D
:1050B00022D190F84030012B20D0012380F84030DD
:1050C000242380F841300268136823F00103136041
:1050D0000268136823F4706343EA012111600268D7
:1050E000136843F001031360202380F8413000234C
:1050F00080F8403018467047022070470220704701
:10510000002838D010B50446437F1BB302236377D1
:1051100023791BBB2368194A5A612268936823F0DC
:1051200018039360637913BB23684FF0FF321A6151
:105130002268936823F0600361690B4393602268DF
:10514000936823F08003A1690B4393600123637785
:10515000002010BD0377FBF7A7FFD7E7E268A1683F
:10516000204600F00DF80028DCD00120F1E723688C
:1051700022691A61DCE70120704700BFB71DC10436
:1051800010B41F231C46013B34B103F01F0C21FA5D
:105190000CFC1CF0010FF5D0182A22D8DFE802F031
:1051A0000F212121212121211D2121212121212105
:1051B00019212121212121210D00062B15D8036859
:1051C000596101688B6823F018031A438A60002034
:1051D00008E0072BF3D9012004E00F2BEFD90120C1
:1051E00000E001205DF8044B70470120FAE7000061
:1051F00010B40B68CBB90368194A1A404B688C6825
:105200002343CC6823430C6923434C6923438C69B3
:105210002343CC6923430C6A2343496A0B4313435A
:10522000036000205DF8044B7047036823F4F843E3
:10523000CA690C6A22434C6A2243134303604368E1
:10524000074A1A404B688C682343CC6823430C6997
:1052500023434C69234389690B4313434360E0E7CD
:105260000080FFFF10B43ABB826802F070420B6806
:10527000013B4C6804F1FF3C43EA0C138C6804F1D9
:10528000FF3C43EA0C23CC6804F1FF3C43EA0C33B7
:105290000C6904F1FF3C43EA0C434C6904F1FF3C08
:1052A00043EA0C538969013943EA0163134383607C
:1052B00000205DF8044B70478368134A1A40CB689E
:1052C00003F1FF3C4B69013B1B0543EA0C331343DD
:1052D0008360C26802F070420B68013B4C6804F1C5
:1052E000FF3C43EA0C138C6804F1FF3C43EA0C23B7
:1052F0000C6904F1FF3C43EA0C438969013943EA34
:1053000001631343C360D3E7FF0F0FFFE0B138B56C
:105310000D46044690F82C308BB1022384F82C30D3
:10532000214651F8040BFFF763FF626829462068A5
:10533000FFF798FF012384F82C30002038BD80F857
:105340002D30FCF7F1F9E8E701207047F0B54D6822
:105350000468E368C3F30B431D444FEAC21C04EB2B
:10536000C214D4F8883003F47043C4F888300B6852
:105370000468E668C6F30B463344013304EBC214F9
:1053800043EA0543C4F88830CD680468E368C3F392
:105390000A031D4404EBC21EDEF88C3003F4704394
:1053A000CEF88C308B680468E668C6F30A0E734446
:1053B000013304EBC21443EA0543C4F88C3003689C
:1053C00003EBC213D3F8944024F00704C3F89440CD
:1053D000036803EBC2130C69C3F8944091F8317071
:1053E00091F832608D69046804EBC21404F1840EF4
:1053F000D4F89C300024CEF8184091F8303043EABD
:10540000072343EA0643066806EBC21E43EA056328
:10541000CEF89C300EF1840E036803EBC213D3F870
:10542000985025F0FF05C3F89850036803EBC213AA
:105430004D69C3F89850036803EBC213D3F8A0601A
:105440002E4D3540C3F8A0500D6A036803EBC2131C
:10545000CE693543C3F8A050036803EBC213D3F8F9
:10546000AC50C3F8AC40036803EBC2124B6AC2F8FD
:10547000AC300B696BB1012B39D0022B18BF042B58
:1054800037D0032B37D0072B01D0012502E00225AE
:1054900000E0042502686244D2F8B04004F0E02441
:1054A000C2F8B0408A6A05FB02F44B680A689B1A8E
:1054B00005FB03F303330268624443EA0443C2F882
:1054C000B03003686344D3F8B4400D4A2240C3F8B7
:1054D000B42003686344CA6AC3F8B42003689C44D8
:1054E000DCF8843043F00103CCF88430F0BD0325B0
:1054F000D0E70225CEE70225CCE700BFF8F8FFFF92
:1055000000F8FFFF002872D038B5044690F8A130AB
:10551000002B67D0022384F8A1302268936923F01E
:105520007043936121688A696368A0680343E068F7
:1055300003432069034313438B6121688A682D4B21
:105540001A408A6020688268A169656941EA05415C
:105550000A4382602168CA681A40CA602068C2682B
:10556000216AE56941EA05410A43C26021680A6986
:105570001A400A6120680269A16A656A41EA054128
:105580000A43026121684A6913404B61E06A21685D
:105590004B69226B42EA004213434B6194F8350099
:1055A00094F836301B042168CA6A02F07F42CA624E
:1055B0002168CA6A43EA002394F834000343134382
:1055C000CB622268536B43F00603536322689369EE
:1055D00043F0010393610020C4F8A400012384F880
:1055E000A13038BD80F8A030FBF70EFE92E7012015
:1055F000704700BF00F800F070477047704770B503
:10560000044603689D6B5E6B15F0040F02D016F024
:10561000040F12D115F0020F02D016F0020F21D1A3
:1056200015F0010F02D016F0010F32D115F0080F5E
:1056300002D016F0080F3DD170BD5A6B22F0040263
:105640005A6303680422DA63D0F8A43043F00103FC
:10565000C0F8A43080F8A120002380F8A030FFF724
:10566000CBFFD7E72268536B23F002035363236811
:105670000222DA63D4F8A4301343C4F8A43004231C
:1056800084F8A130002384F8A0302046FFF7B4FF4F
:10569000C6E72268536B23F001035363226801239A
:1056A000D36384F8A130002384F8A0302046FFF7AC
:1056B000A4FFBBE72268536B23F0080353632368FE
:1056C0000822DA63012384F8A130002384F8A03093
:1056D0002046FFF793FFAFE7F8B590F8A030012B15
:1056E0002CD004460D461646012780F8A0700223F0
:1056F00080F8A1304FF0340C0CFB020C0CF1380C8C
:105700008E46BEE80F00ACE80F00BEE80F00ACE824
:105710000F00BEE80F00ACE80F00DEF80030CCF858
:105720000030324629462046FFF710FE23685F62AC
:1057300084F8A170002084F8A000F8BD0220FCE7E6
:105740002DE9F84305460F4616469946DDF82080B8
:105750002C68A4683C4214BF4FF0010C4FF0000CC1
:10576000B44514D0B8F1FF3FF2D0FFF7F7FBA0EB40
:105770000900404502D8B8F1000FE9D1042385F8AB
:1057800041306B6C43F001036B64012000E00020AA
:10579000BDE8F8838164704770B582B00446FFF7B6
:1057A000DDFB002C4AD0064694F84130002B3AD05D
:1057B00025682A6822F4F852A168013942EA0122D8
:1057C0002A60A36C00933346002220212046FFF775
:1057D000B7FF18BB21680B68194A1A406568E3686F
:1057E00043EA0563E5692B43256A2B4313430B60AA
:1057F00021684A68134B13402569626942EA0542F1
:10580000A5692A4313434B602268136843F00103E0
:10581000136000236364012384F84130002384F87B
:10582000403002B070BD84F840302046FBF77EFD6A
:1058300041F288312046FFF7ADFFB9E70120F0E7DC
:105840002FFFFF00FEF8E0FF0B4B1B680B4AA2FB8B
:1058500003235B0A41F2883202FB03F31A46013B41
:105860003AB1426B12F0800FF8D0C5238363002059
:1058700070474FF0004070478C000020D34D6210FD
:1058800084B00DF1040C8CE80E000B461343039A10
:105890001343049A1343059A1343069A134341682A
:1058A000034A0A4013434360002004B0704700BF1E
:1058B0000081FFFFD0F8800070470B68C0F880308F
:1058C000002070470323036000207047006800F049
:1058D000030070470B6883604B688A681343CA688B
:1058E00013430A691343C168024A0A401343C36061
:1058F0000020704700F0FFFF0069C0B2704714300D
:10590000405870470B6843624B6883628B68CA6873
:1059100013430A6913434A691343C26A22F0F70228
:105920001343C3620020704710B586B004460023BD
:1059300001930293039304934FF48063059301A9A9
:10594000FFF7C8FF2046FFF77FFF06B010BD00003D
:1059500038B504460D46504B1B685049A1FB031354
:105960005B0A03FB02F21346013A002B5DD0636B26
:1059700013F0450FF7D013F4006FF4D1636B13F0FD
:10598000040F06D1636B13F0010F05D00120A06353
:105990004DE00420A0634AE0C523A3632046FFF73F
:1059A000ABFFA84201D0012041E000212046FFF7D3
:1059B000A6FF03463A481840C8B3002B38DB13F063
:1059C000804F38D113F0005F37D113F0805F36D1AC
:1059D00013F0006F36D113F0806F36D113F0807F53
:1059E00036D113F4000F36D113F4800F36D113F4EF
:1059F000001F36D113F4801F36D113F4802F36D117
:105A000013F4003F36D113F4803F36D113F4004F26
:105A100036D113F4804F36D113F4005F36D113F032
:105A2000080F36D04FF4000001E04FF0004038BDC1
:105A30004FF00070FBE74020F9E78020F7E74FF4D4
:105A40008070F4E74FF40070F1E74FF48060EEE708
:105A50004FF40060EBE74FF48050E8E74FF400505C
:105A6000E5E74FF48040E2E74FF40040DFE74FF412
:105A70000030DCE74FF48020D9E74FF40020D6E770
:105A80004FF48010D3E74FF40010D0E74FF48000BC
:105A9000CDE74FF48030CAE78C000020D34D621070
:105AA00008E0FFFD30B587B004460191102502954E
:105AB00040230393002304934FF48063059301A9CB
:105AC000FFF708FF41F2883229462046FFF740FFE2
:105AD00007B030BD30B587B004460191112502955D
