:020000040800F2
:1000000000000520B9810108D5120008DB120008A4
:10001000E1120008E7120008ED12000800000000DD
:100020000000000000000000000000007141010815
:10003000F31200080000000081430108E9430108B1
:100040000982010809820108098201080982010860
:100050000982010809820108098201080982010850
:100060000982010809820108098201080982010840
:100070000982010809820108098201080982010830
:100080000982010809820108098201080982010820
:100090000982010809820108098201080982010810
:1000A0000982010809820108098201080982010800
:1000B00009820108098201080982010809820108F0
:1000C00009820108098201080982010809820108E0
:1000D00009820108098201080982010809820108D0
:1000E00009820108098201080982010809820108C0
:1000F00009820108098201080982010809820108B0
:100100000982010801130008098201080982010817
:1001100009820108098201081513000809820108F3
:100120008D130008098201080982010829130008BB
:10013000098201080982010809820108098201086F
:10014000098201080982010809820108098201085F
:10015000098201083D13000809820108098201088B
:10016000098201080982010809820108098201083F
:1001700009820108511300080982010800000000EB
:10018000098201080982010809820108098201081F
:10019000098201080982010809820108098201080F
:1001A0006513000809820108791300080982010813
:1001B00009820108098201080982010809820108EF
:0801C00009820108098201080F
:1001D00010B5054C237833B9044B13B10448AFF381
:1001E00000800123237010BDA80100200000000042
:1001F0008C85010808B5034B1BB103490348AFF3D5
:10020000008008BD00000000AC0100208C850108C2
:1002100053B94AB9002908BF00281CBF4FF0FF316D
:100220004FF0FF3000F074B9ADF1080C6DE904CE69
:1002300000F006F8DDF804E0DDE9022304B07047C1
:100240002DE9F047089D04468E46002B4DD18A4289
:10025000944669D9B2FA82F252B101FA02F3C2F1BC
:10026000200120FA01F10CFA02FC41EA030E94404D
:100270004FEA1C48210CBEFBF8F61FFA8CF708FB6E
:1002800016E341EA034306FB07F199420AD91CEB46
:10029000030306F1FF3080F01F81994240F21C8178
:1002A000023E63445B1AA4B2B3FBF8F008FB1033C0
:1002B00044EA034400FB07F7A7420AD91CEB0404F5
:1002C00000F1FF3380F00A81A74240F207816444C5
:1002D000023840EA0640E41B00261DB1D44000234A
:1002E000C5E900433146BDE8F0878B4209D9002DAE
:1002F00000F0EF800026C5E9000130463146BDE838
:10030000F087B3FA83F6002E4AD18B4202D38242A1
:1003100000F2F980841A61EB030301209E46002D50
:10032000E0D0C5E9004EDDE702B9FFDEB2FA82F2A5
:10033000002A40F09280A1EB0C014FEA1C471FFA03
:100340008CFE0126200CB1FBF7F307FB131140EAEA
:1003500001410EFB03F0884208D91CEB010103F1B7
:10036000FF3802D2884200F2CB804346091AA4B279
:10037000B1FBF7F007FB101144EA01440EFB00FE4D
:10038000A64508D91CEB040400F1FF3102D2A645B2
:1003900000F2BB800846A4EB0E0440EA03409CE751
:1003A000C6F12007B34022FA07FC4CEA030C20FAFE
:1003B00007F401FA06F31C43F9404FEA1C4900FA1E
:1003C00006F3B1FBF9F8200C1FFA8CFE09FB18119B
:1003D00040EA014108FB0EF0884202FA06F20BD90E
:1003E0001CEB010108F1FF3A80F08880884240F25E
:1003F0008580A8F102086144091AA4B2B1FBF9F0A2
:1004000009FB101144EA014100FB0EFE8E4508D99C
:100410001CEB010100F1FF346CD28E456AD9023821
:10042000614440EA0840A0FB0294A1EB0E01A14206
:10043000C846A64656D353D05DB1B3EB080261EB74
:100440000E0101FA07F722FA06F3F1401F43C5E94E
:10045000007100263146BDE8F087C2F12003D84084
:100460000CFA02FC21FA03F3914001434FEA1C47C6
:100470001FFA8CFEB3FBF7F007FB10360B0C43EAB8
:10048000064300FB0EF69E4204FA02F408D91CEB68
:10049000030300F1FF382FD29E422DD90238634466
:1004A0009B1B89B2B3FBF7F607FB163341EA034106
:1004B00006FB0EF38B4208D91CEB010106F1FF3855
:1004C00016D28B4214D9023E6144C91A46EA00464C
:1004D00038E72E46284605E70646E3E61846F8E6DE
:1004E0004B45A9D2B9EB020864EB0C0E0138A3E727
:1004F0004646EAE7204694E74046D1E7D0467BE708
:10050000023B614432E7304609E76444023842E77F
:10051000704700BFB0B588B000AF08F029FA00F00E
:1005200037F800F0A5F800F089FB00F0D1F800F0F2
:1005300035FB00F021F900F05FF900F09DF900F0C3
:100540001DFA00F047FA00F065FA00F0A1FA00F099
:10055000CFFA02F065FD00F0FBFA00F0DBF80A4B81
:100560003C1D1D460FCD0FC495E8070084E8070029
:100570003B1D0021184613F07AF90346034A136025
:1005800013F052F9FEE700BFB0850108480B0020C8
:1005900080B594B000AF07F1200330220021184647
:1005A00017F076FE07F10C0300221A605A609A6079
:1005B000DA601A6108F09AF82B4B1B6C2A4A43F058
:1005C00080531364284B1B6C03F08053BB60BB68E3
:1005D000264B1B68254A43F440431360234B1B689A
:1005E00003F440437B607B6801233B624FF480331C
:1005F0007B620223BB634FF48003FB6319233B64DC
:100600004FF4C8737B640223BB640923FB6407F1C6
:100610002003184606F03AFA0346002B01D000F0FA
:1006200021FE08F073F80346002B01D000F01AFEFB
:100630000F23FB6002233B6100237B614FF4A05337
:10064000BB614FF48053FB6107F10C030621184690
:1006500006F0C0FC0346002B01D000F003FE00BFF3
:100660005037BD4680BD00BF0038024000700040DA
:1006700080B5A2B000AF3B1D84220021184617F0C0
:1006800007FE124B7B604FF4C073BB6105233B62D6
:100690000223FB6103237B620123FB624FF40033DF
:1006A0003B634FF00063C7F880300023C7F8843005
:1006B0003B1D184606F0A6FE0346002B01D000F0B5
:1006C000D1FD00BF8837BD4680BD00BF0800A00037
:1006D00080B500AF0D4B0E4A1A600C4B00221A7108
:1006E0000A4B00225A71094B00225A61074B002223
:1006F0009A61064B01221A62044808F0B3FA0346D5
:10070000002B01D000F0AEFD00BF80BD5C060020D4
:100710000030024080B500AF154B164A1A60144BEA
:1007200000225A60124B00229A60114B0022DA60BC
:100730000F4B00229A620E4B0022DA620C4B002211
:100740001A630B4B00225A63094817F099F90346C4
:10075000002B01D000F086FD0121054817F0FEFBBB
:100760000346002B01D000F07DFD00BF80BD00BF1F
:100770008006002000B0024080B500AF1B4B1C4A31
:100780001A601A4B1B4A5A60184B00229A60174B8A
:100790000122DA60154B00221A61144B00225A61C3
:1007A000124B00229A61114B0022DA610F4B00229A
:1007B0001A620E4808F02EF90346002B01D000F013
:1007C00051FD0021094808F0B5F90346002B01D07E
:1007D00000F048FD0021054808F0F7F90346002B1A
:1007E00001D000F03FFD00BF80BD00BFC00600206B
:1007F00000540040FFEAC00080B500AF1B4B1C4A0C
:100800001A601A4B1B4A5A60184B00229A60174B09
:100810000122DA60154B00221A61144B00225A6142
:10082000124B00229A61114B0022DA610F4B002219
:100830001A620E4808F0EEF80346002B01D000F0D3
:1008400011FD0021094808F075F90346002B01D07D
:1008500000F008FD0021054808F0B7F90346002B19
:1008600001D000F0FFFC00BF80BD00BF14070020D6
:10087000005C0040FFEAC00080B58EB000AF3B1DB9
:1008800034220021184617F003FD3A4B3A4A1A6009
:10089000384B00225A60374B00229A60354B0022B9
:1008A000DA60344B00221A61324B28225A61314BF4
:1008B00009229A612F4B3522DA612E4B0B221A62E4
:1008C0002C4B40F215225A622A4B40F21B129A62BC
:1008D000284B40F23522DA62264B40F21D121A6391
:1008E000244B002283F83420224B002283F8352049
:1008F000204B002283F836201E4808F031FC0346C6
:10090000002B01D000F0AEFC00237B604FF4F073AD
:10091000BB600023FB604FF488733B6100237B6165
:10092000FF23BB610023FB614FF4C0633B620723DD
:100930007B624FF04043BB624FF4F073FB624FF4B5
:1009400088733B63002387F83430002387F8353001
:10095000002387F836303B1D00221946054808F071
:1009600091FD0346002B01D000F07CFC00BF38371E
:10097000BD4680BD680700200068014080B500AF1B
:10098000124B134A1A60114B01225A600F4B04227A
:100990009A600E4B1022DA600C4B18221A610B4B36
:1009A0004FF4A0625A61094B00229A61074B002262
:1009B000DA61064B00221A62044808F071FF034610
:1009C000002B01D000F04EFC00BF80BD10080020BD
:1009D000001000A080B400AF0C4B0D4A1A600B4B06
:1009E00000225A60094B00229A60084B0022DA600C
:1009F000064B00221A61054B00225A61034B00226C
:100A00009A6100BFBD465DF8047B70475C0800201A
:100A1000002C014080B500AF1B4B1C4A1A601A4BDA
:100A20004FF482725A60184B00229A60164B4FF4B2
:100A30004072DA60144B00221A61134B00225A6193
:100A4000114B4FF400729A610F4B0022DA610E4B8A
:100A500000221A620C4B00225A620B4B00229A624F
:100A6000094B0722DA62084B00221A63064B082260
:100A70005A6305480BF079F80346002B01D000F0CB
:100A8000F1FB00BF80BD00BFA0090020003800407E
:100A900080B500AF144B154A1A60134B4FF4E13286
:100AA0005A60114B00229A600F4B0022DA600E4B05
:100AB00000221A610C4B0C225A610B4B00229A61E6
:100AC000094B0022DA61084B00221A62064B002211
:100AD0005A6205480BF0D4FB0346002B01D000F00E
:100AE000C1FB00BF80BD00BF040A00200010014010
:100AF00080B500AF144B154A1A60134B4FF4E13226
:100B00005A60114B00229A600F4B0022DA600E4BA4
:100B100000221A610C4B0C225A610B4B00229A6185
:100B2000094B0022DA61084B00221A62064B0022B0
:100B30005A6205480BF0A4FB0346002B01D000F0DD
:100B400091FB00BF80BD00BF8C0A00200014014053
:100B500080B582B000AF104B1B6B0F4A43F480038B
:100B600013630D4B1B6B03F480037B607B680022D7
:100B700005213B2007F0D2FE3B2007F0EBFE0022D0
:100B80000521452007F0CAFE452007F0E3FE00BF1F
:100B90000837BD4680BD00BF0038024080B588B030
:100BA00000AF3B1D00221A605A609A60DA601A6139
:100BB0005A619A611F4B204A1A601E4B00225A60EC
:100BC0001C4B00229A601B4B0422DA60194B102246
:100BD0001A61184B40225A61164B4FF480729A6189
:100BE000144B0022DA61134B4FF400621A62114B6E
:100BF0004FF480525A620F4B00229A6202237B60AC
:100C00000723BB600423FB6007233B6103237B6155
:100C10000223BB610223FB613B1D1946054808F016
:100C20000DFA0346002B01D000F01CFB00BF20375B
:100C3000BD4680BD140B0020400100A080B590B0DF
:100C400000AF07F12C0300221A605A609A60DA6044
:100C50001A61AF4B1B6BAE4A43F010031363AC4BEE
:100C60001B6B03F01003BB62BB6AA94B1B6BA84A4A
:100C700043F040031363A64B1B6B03F040037B62FE
:100C80007B6AA34B1B6BA24A43F002031363A04B86
:100C90001B6B03F002033B623B6A9D4B1B6B9C4A40
:100CA00043F0080313639A4B1B6B03F00803FB61CB
:100CB000FB69974B1B6B964A43F004031363944BF9
:100CC0001B6B03F00403BB61BB69914B1B6B904A28
:100CD00043F0010313638E4B1B6B03F001037B6135
:100CE0007B698B4B1B6B8A4A43F400731363884BFD
:100CF0001B6B03F400733B613B69854B1B6B844AA0
:100D000043F480731363824B1B6B03F48073FB60AB
:100D1000FB687F4B1B6B7E4A43F4806313637C4B01
:100D20001B6B03F48063BB60BB68794B1B6B784A19
:100D300043F020031363764B1B6B03F020037B60AF
:100D40007B68734B1B6B724A43F080031363704BD9
:100D50001B6B03F080033B603B68012220216D4840
:100D600007F004F900220C216B4807F0FFF801227C
:100D700008216A4807F0FAF801224FF480516648CA
:100D800007F0F4F800224FF40051654807F0EEF840
:100D90000022C821634807F0E9F80823FB6200231A
:100DA0003B6300237B6307F12C0319465E4806F082
:100DB00019FF4FF4D043FB6202233B6300237B63A4
:100DC0000323BB630B23FB6307F12C031946554830
:100DD00006F008FF1023FB6202233B6300237B63C2
:100DE0000023BB630223FB6307F12C0319464F4822
:100DF00006F0F8FE8023FB6202233B6300237B6343
:100E00000023BB630823FB6307F12C031946414809
:100E100006F0E8FE4FF40043FB6202233B6300232D
:100E20007B630023BB630123FB6307F12C0319469B
:100E30003F4806F0D7FE6023FB6202233B6300239A
:100E40007B630023BB630D23FB6307F12C0319466F
:100E5000354806F0C7FE4FF48053FB6200233B6326
:100E600000237B6307F12C031946324806F0BAFED3
:100E70004023FB624FF490133B6300237B6307F135
:100E80002C031946234806F0ADFE4FF4E053FB62F5
:100E900002233B6300237B630323BB630A23FB63BF
:100EA00007F12C031946224806F09CFEF023FB6252
:100EB00002233B6300237B630023BB630A23FB63A2
:100EC00007F12C031946144806F08CFE4FF480639A
:100ED000FB6202233B6300237B630023BB630A2383
:100EE000FB6307F12C0319460E4806F07BFE202316
:100EF000FB6201233B6300237B630023BB6307F199
:100F00002C031946034806F06DFE082314E000BFC9
:100F100000380240000C024000200240002802403D
:100F2000001C024000180240001002400004024071
:100F30000000024000240240FB6202233B630023C6
:100F40007B630023BB630D23FB6307F12C0319466E
:100F50008E4806F047FE41F20C03FB6201233B631F
:100F600000237B630023BB6307F12C0319468848E9
:100F700006F038FE4FF40053FB6200233B6300236E
:100F80007B6307F12C031946824806F02BFE0823E9
:100F9000FB6201233B6300237B630023BB6307F1F8
:100FA0002C0319467C4806F01DFE4FF40073FB62CB
:100FB00002233B6300237B630023BB630D23FB639E
:100FC00007F12C031946754806F00CFE1023FB624E
:100FD00000233B6300237B6307F12C0319466B4816
:100FE00006F000FE48F20403FB6200233B6300238B
:100FF0007B6307F12C031946694806F0F3FD4FF4B3
:101000000053FB6201233B6300237B630023BB632C
:1010100007F12C031946624806F0E4FD4FF4BC4387
:10102000FB6202233B6300237B630023BB630D232E
:10103000FB6307F12C031946594806F0D3FD012341
:10104000FB6202233B6300237B630023BB63022319
:10105000FB6307F12C0319464D4806F0C3FD4FF41E
:101060008073FB6202233B6300237B630023BB632B
:101070000123FB6307F12C0319464A4806F0B2FD31
:101080004FF40053FB624FF490133B6300237B63E8
:1010900007F12C0319463E4806F0A4FDC823FB6265
:1010A00001233B6300237B630023BB6307F12C0315
:1010B00019463A4806F096FD4FF4F863FB620323A5
:1010C0003B6300237B6307F12C031946364806F087
:1010D00089FD3223FB6202233B6300237B630323EE
:1010E000BB630B23FB6307F12C031946294806F069
:1010F00079FD0423FB6200233B6300237B6307F13C
:101100002C031946254806F06DFD8623FB62022359
:101110003B6300237B630323BB630B23FB6307F168
:101120002C0319461F4806F05DFD0123FB620323D3
:101130003B6300237B6307F12C031946194806F033
:1011400051FD5023FB6202233B6300237B6300239A
:10115000BB630D23FB6307F12C031946114806F00E
:1011600041FD4023FB6202233B6300237B6300239A
:10117000BB630923FB6307F12C031946084806F0FB
:1011800031FD00BF4037BD4680BD00BF000C0240AE
:1011900000200240000802400028024000180240DF
:1011A000001C02400000024000140240B0B5B4B080
:1011B00000AF78600023BB6307F13C03602200218D
:1011C000184617F065F8194B07F10C041D460FCDB2
:1011D0000FC40FCD0FC495E80300206004342180B4
:1011E00002340B0C23700022114912480EF0D4FF78
:1011F0000A22114911480FF033F807F1340307F1BF
:101200000C0127220D480FF036FC0C480FF0CCFFE4
:1012100001F020FF01F034FC00F098FF00F09CFE8C
:101220004FF47A7012F070FBFAE700BFD88501081E
:1012300058060020C4010020CC85010800040020CD
:1012400080B582B000AF78607B681B68044A934227
:1012500001D107F09BFB00BF0837BD4680BD00BF32
:101260000010004080B400AF72B600BFFEE780B44B
:1012700000AF00BFBD465DF8047B704780B483B00B
:1012800000AF7860396000BF0C37BD465DF8047B65
:10129000704780B400AF00BFBD465DF8047B704767
:1012A00080B485B000AFF860B9607A60FB68074A27
:1012B0001A60BB68064A1A607B6880221A6000BF09
:1012C0001437BD465DF8047B704700BF500B00200B
:1012D000D00F002080B400AFFEE780B400AFFEE77F
:1012E00080B400AFFEE780B400AFFEE780B400AF8B
:1012F000FEE780B400AF00BFBD465DF8047B7047D9
:1013000080B500AF024809F085FB00BF80BD00BF7B
:101310005C08002080B500AF02480AF0ABFD00BFBA
:1013200080BD00BF3412002080B500AF024806F037
:1013300067FF00BF80BD00BFE008002080B500AFA0
:10134000024806F05DFF00BF80BD00BF40090020DD
:1013500080B500AF024802F0ADFD00BF80BD00BF08
:101360009417002080B500AF024807F0C9FF00BF06
:1013700080BD00BF6807002080B500AF024816F0AE
:10138000DDFC00BF80BD00BF8006002080B500AF3F
:10139000034B1B6B184606F033FF00BF80BD00BF38
:1013A000140B002080B582B000AF114B1B6C104AAB
:1013B00043F0805313640E4B1B6C03F080537B602F
:1013C0007B680B4B5B6C0A4A43F480435364084BC5
:1013D0005B6C03F480433B603B6800220F216FF09D
:1013E000010007F09BFA00BF0837BD4680BD00BF73
:1013F0000038024080B485B000AF78607B681B681D
:101400000A4A93420BD10A4B1B6B094A43F480539F
:101410001363074B1B6B03F48053FB60FB6800BF37
:101420001437BD465DF8047B704700BF00300240B2
:101430000038024080B584B000AF78607B681B68DC
:101440000D4A934213D10D4B1B6B0C4A43F400031E
:1014500013630A4B1B6B03F40003FB60FB68002261
:1014600005215A2007F05AFA5A2007F073FA00BFF4
:101470001037BD4680BD00BF00B0024000380240BA
:1014800080B5ACB000AF786007F19C0300221A6011
:101490005A609A60DA601A6107F118038422002109
:1014A000184616F0F5FE7B681B68444A93423DD10E
:1014B0004FF48043BB610023FB6707F11803184614
:1014C00005F0A0FF0346002B01D0FFF7CBFE3C4BFD
:1014D0001B6B3B4A43F002031363394B1B6B03F056
:1014E00002037B617B694FF44073C7F89C30122381
:1014F000C7F8A0300123C7F8A4300023C7F8A830EC
:101500000423C7F8AC3007F19C0319462D4806F0B8
:1015100069FB2B4B1B6C2A4A43F400131364284BC2
:101520001B6C03F400133B613B6942E07B681B6862
:10153000254A93423DD14FF48033BB610023C7F865
:10154000843007F11803184605F05CFF0346002BB2
:1015500001D0FFF787FE1A4B1B6B194A43F080033B
:101560001363174B1B6B03F08003FB60FB684FF4A6
:10157000C073C7F89C301223C7F8A0300123C7F806
:10158000A4300323C7F8A8300423C7F8AC3007F110
:101590009C0319460D4806F025FB094B1B6C084AB5
:1015A00043F400031364064B1B6C03F40003BB609D
:1015B000BB6800BFB037BD4680BD00BF00540040CF
:1015C0000038024000040240005C0040001C024061
:1015D00080B58EB000AF786007F1240300221A6056
:1015E0005A609A60DA601A617B681B68554A9342B8
:1015F00040F0A380544B5B6C534A43F080635364C8
:10160000514B5B6C03F080633B623B6A4E4B1B6B40
:101610004D4A43F0100313634B4B1B6B03F0100355
:10162000FB61FB69484B1B6B474A43F40073136330
:10163000454B1B6B03F40073BB61BB69424B1B6BD7
:10164000414A43F4806313633F4B1B6B03F4806395
:101650007B617B693C4B1B6B3B4A43F0400313634C
:10166000394B1B6B03F040033B613B69364B1B6BF3
:10167000354A43F480731363334B1B6B03F480735D
:10168000FB60FB6810237B620223BB620023FB62CA
:1016900003233B630E237B6307F1240319462B4886
:1016A00006F0A0FA4EF6FF737B620223BB620023B2
:1016B000FB6203233B630E237B6307F1240319467C
:1016C000234806F08FFAF7237B620223BB620023D4
:1016D000FB6203233B630E237B6307F1240319465C
:1016E0001C4806F07FFA4FF480537B620223BB62F2
:1016F0000023FB6203233B6309237B6307F124037D
:101700001946154806F06EFA4FF446437B620223F1
:10171000BB620023FB6203233B630E237B6307F161
:10172000240319460D4806F05DFA002205215820D1
:1017300007F0F4F8582007F00DF900BF3837BD4620
:1017400080BD00BF00680140003802400010024028
:1017500000240240002802400018024000200240FD
:1017600080B58CB000AF786007F11C0300221A60CE
:101770005A609A60DA601A617B681B683B4A934240
:1017800070D13B4B9B6B3A4A43F002039363384B57
:101790009B6B03F00203BB61BB69354B1B6B344A87
:1017A00043F010031363324B1B6B03F010037B6198
:1017B0007B692F4B1B6B2E4A43F0020313632C4BA8
:1017C0001B6B03F002033B613B69294B1B6B284AEF
:1017D00043F008031363264B1B6B03F00803FB6005
:1017E000FB680423FB6102233B6200237B6203232B
:1017F000BB620923FB6207F11C0319461D4806F072
:10180000F1F94023FB6102233B6200237B62032347
:10181000BB620A23FB6207F11C031946164806F057
:10182000E1F90423FB6102233B6200237B62032373
:10183000BB620923FB6207F11C0319460E4806F040
:10184000D1F94FF46053FB6102233B6200237B62BA
:101850000323BB620923FB6207F11C0319460748F7
:1018600006F0C0F900BF3037BD4680BD001000A0B3
:10187000003802400010024000040240000C024008
:1018800080B58AB000AF786007F1140300221A60B7
:101890005A609A60DA601A617B681B68664A9342F4
:1018A00040F0C580654B5B6C644A43F4006353644D
:1018B000624B5B6C03F400633B613B695F4B1B6BEA
:1018C0005E4A43F0040313635C4B1B6B03F0040399
:1018D000FB60FB68594B1B6B584A43F008031363CA
:1018E000564B1B6B03F00803BB60BB684FF4F85307
:1018F0007B610223BB610023FB6103233B620C235A
:101900007B6207F1140319464D4806F06BF9042376
:101910007B610223BB610023FB6103233B620C2339
:101920007B6207F114031946464806F05BF9464B03
:10193000464A1A60444B4FF000625A60424B002204
:101940009A60414B0022DA603F4B4FF480621A618B
:101950003D4B4FF480525A613B4B4FF480429A61A9
:10196000394B2022DA61384B4FF440321A62364B41
:1019700004225A62344B03229A62334B4FF4000222
:10198000DA62314B4FF400121A632F4806F008FB5D
:101990000346002B01D0FFF765FC7B682A4A1A64D6
:1019A000294A7B6893632A4B2A4A1A60284B4FF0D6
:1019B00000625A60264B40229A60254B0022DA6072
:1019C000234B4FF480621A61214B4FF480525A61CD
:1019D0001F4B4FF480429A611D4B2022DA611C4B51
:1019E0004FF440321A621A4B04225A62184B0322F7
:1019F0009A62174B4FF40002DA62154B4FF4001253
:101A00001A63134806F0CCFA0346002B01D0FFF707
:101A100029FC7B680E4ADA630D4A7B6893630022D7
:101A20000521312006F07AFF312006F093FF00BF38
:101A30002837BD4680BD00BF002C01400038024061
:101A400000080240000C0240E008002058640240F8
:101A500040090020A064024080B58AB000AF7860E1
:101A600007F1140300221A605A609A60DA601A6162
:101A70007B681B68254A934244D1254B1B6C244A42
:101A800043F480431364224B1B6C03F480433B619B
:101A90003B691F4B1B6B1E4A43F4807313631C4B43
:101AA0001B6B03F48073FB60FB68194B1B6B184ABC
:101AB00043F002031363164B1B6B03F00203BB607E
:101AC000BB6802237B610223BB610023FB6100230F
:101AD0003B6205237B6207F1140319460D4806F0AB
:101AE00081F84FF440437B610223BB610023FB611B
:101AF00000233B6205237B6207F114031946064865
:101B000006F070F800BF2837BD4680BD00380040A1
:101B100000380240002002400004024080B5AEB010
:101B200000AF786007F1A40300221A605A609A603F
:101B3000DA601A6107F1200384220021184616F0AA
:101B4000A7FB7B681B68534A93425DD140233B62ED
:101B500000237B6607F12003184605F053FC03467B
:101B6000002B01D0FFF77EFB4B4B5B6C4A4A43F0E6
:101B700010035364484B5B6C03F01003FB61FB697B
:101B8000454B1B6B444A43F002031363424B1B6BF0
:101B900003F00203BB61BB693F4B1B6B3E4A43F042
:101BA000010313633C4B1B6B03F001037B617B69F7
:101BB0008023C7F8A4300223C7F8A8300023C7F851
:101BC000AC300023C7F8B0300723C7F8B43007F1B2
:101BD000A4031946314806F005F84FF40073C7F81E
:101BE000A4300223C7F8A8300023C7F8AC30002384
:101BF000C7F8B0300723C7F8B43007F1A40319467B
:101C0000274805F0EFFF40E07B681B68254A9342B8
:101C10003BD14FF400633B620023BB6707F1200315
:101C2000184605F0EFFB0346002B01D0FFF71AFB27
:101C3000194B5B6C184A43F020035364164B5B6CE2
:101C400003F020033B613B69134B1B6B124A43F0CB
:101C500004031363104B1B6B03F00403FB60FB686E
:101C6000C023C7F8A4300223C7F8A8300023C7F860
:101C7000AC300323C7F8B0300823C7F8B43007F1FD
:101C8000A4031946084805F0ADFF00BFB837BD46AC
:101C900080BD00BF00100140003802400004024037
:101CA00000000240001401400008024080B586B0E8
:101CB00000AF3B1D00221A605A609A60DA601A6118
:101CC000584B1B68002B40F0A880564B01221A602D
:101CD000554B9B6B544A43F001039363524B9B6BF0
:101CE00003F001033B603B684FF683737B60022384
:101CF000BB600023FB6003233B610C237B613B1D26
:101D000019464A4805F06EFF48F233137B60022300
:101D1000BB600023FB6003233B610C237B613B1D05
:101D20001946434805F05EFF4CF203737B600223C3
:101D3000BB600023FB6003233B610C237B613B1DE5
:101D400019463C4805F04EFF4FF63F037B600223E7
:101D5000BB600023FB6003233B610C237B613B1DC5
:101D60001946354805F03EFF28237B600223BB60FF
:101D70000023FB6003233B610C237B613B1D194661
:101D80002E4805F02FFF08237B600223BB60002351
:101D9000FB6003233B610C237B613B1D19462848F4
:101DA00005F020FF274B284A1A60264B00225A6074
:101DB000244B80229A60234B4FF40072DA60214B4F
:101DC0004FF480621A611F4B4FF480525A611D4BD1
:101DD0004FF480429A611B4B0022DA61194B4FF499
:101DE00000321A62174B00225A62164B03229A6283
:101DF000144B0022DA62134B00221A63114806F0DA
:101E0000CFF80346002B01D0FFF72CFA0F4B0D4AF9
:101E10001A630C4B0D4A9A6300E000BF1837BD46A9
:101E200080BD00BFD01100200038024000100240E9
:101E300000180240000C024000140240001C024046
:101E400000080240D411002010640240140B00204E
:101E500080B582B000AF7860FFF728FF00BF083779
:101E6000BD4680BD80B58EB000AF78600023FB62B8
:101E70000023BB62334B1B6C324A43F010031364E4
:101E8000304B1B6C03F01003FB60FB6807F1100282
:101E900007F114031146184605F082FA3B6AFB620B
:101EA000FB6A002B03D105F053FA786304E005F0D8
:101EB0004FFA03465B007B637B6B234AA2FB032341
:101EC0009B0C013BBB62214B214A1A601F4B40F225
:101ED000E732DA601D4ABB6A53601C4B00221A616C
:101EE0001A4B00229A60194B00229A61174809F098
:101EF000E7FE034687F8333097F83330002B1BD1C9
:101F0000124809F03FFF034687F8333097F8333023
:101F1000002B11D1362006F01DFD7B680F2B08D851
:101F200000227968362006F0F9FC0A4A7B681360C3
:101F300002E0012387F8333097F8333018463837FA
:101F4000BD4680BD0038024083DE1B4334120020B2
:101F5000001000408C00002080B58EB000AF002340
:101F60007B6007F108032E220021184616F090F935
:101F70004FF04041002000F02BF9002000F05AF90A
:101F8000634800F0A9F9634800F0C0F9614800F027
:101F900089F94FF0FF3000F06DF901235E4A052109
:101FA000002000F01FFA00F0EBF803469BB21A463F
:101FB0001E21002000F0DEFA00F0E2F803469BB29A
:101FC0001A463C21002000F0D5FA00F0D9F803466B
:101FD0009BB21A465A21002000F0CCFA00F0D0F84B
:101FE00003469BB21A467821002000F0C3FA00F0A5
:101FF000C7F803469BB21A469621002000F0BAFAB1
:1020000000F0BEF803469BB21A46B421002000F04F
:10201000B1FA00F0B5F803469BB21A46D22100206F
:1020200000F0A8FA00F0C0F803469BB21A461E2141
:102030001E2000F0FDFA0323384A2421072000F077
:10204000D1F90323364A4221072000F0CBF90323BC
:10205000344A6021072000F0C5F90323324A7E216B
:10206000072000F0BFF90323304A9C21072000F02D
:10207000B9F903232E4ABA21072000F0B3F92D48FD
:1020800000F010F92B4800F0F5F83D23A022D321F1
:10209000002000F077FB6FF07F0000F0EBF80323E7
:1020A000254AE821322000F09DF9244800F0FAF892
:1020B000224800F0DFF83D23A022D321A02000F029
:1020C00061FB6FF07F0000F0D5F803231C4AE82184
:1020D000D22000F087F91B4800F0E4F8194800F01E
:1020E000C9F83D23A022D3214FF4A07000F04AFB91
:1020F0006FF07F0000F0BEF80323134AE8214FF48D
:10210000B97000F06FF900BF3837BD4680BD00BF21
:1021100000000020404040FF0086010810860108B2
:1021200014860108188601081C860108208601080B
:1021300024860108FF8080FF28860108D3D3D3FFBF
:10214000308601082A2AA5FF3886010880B500AF2D
:1021500001224FF48051074805F008FF01220821B1
:10216000054805F003FF054800F0B6F800231846BF
:1021700080BD00BF00200240002802400000002077
:1021800080B400AF064B1B68064A342101FB03F301
:10219000134460331B681846BD465DF8047B7047E6
:1021A000801200206807002080B400AF064B1B6837
:1021B000064A342101FB03F3134464331B681846B9
:1021C000BD465DF8047B7047801200206807002040
:1021D00080B582B000AF03463960FB80FB88396868
:1021E000184600F037F8FA88104913465B0013448C
:1021F0009B000B4404334FF0FF321A60FA880B49FE
:1022000013465B0013449B000B440833084A1A60D2
:10221000FA88064913465B0013449B000B444FF0B9
:102220007F421A6000BF0837BD4680BD841200207F
:102230000000002080B483B000AF7860044A7B685F
:10224000136000BF0C37BD465DF8047B704700BFCC
:102250008012002080B582B000AF786039607A6863
:102260003968034807F04CF900BF0837BD4680BD08
:102270006807002080B483B000AF7860074B1A680D
:10228000074913465B0013449B000B447A681A60AD
:1022900000BF0C37BD465DF8047B704780120020FC
:1022A0008412002080B483B000AF7860084B1A68B5
:1022B000084913465B0013449B000B4404337A68BF
:1022C0001A6000BF0C37BD465DF8047B704700BF45
:1022D000801200208412002080B483B000AF7860A8
:1022E000084B1A68084913465B0013449B000B44D3
:1022F00008337A681A6000BF0C37BD465DF8047B6E
:10230000704700BF8012002084120020F0B585B015
:1023100002AF78600F4B1C680E4B1B680E4A3421CD
:1023200001FB03F313445C331B681E46FFF728FFD1
:102330000546FFF739FF02467B68019300230093AF
:1023400013462A463146204600F04EFB00BF0C37AC
:10235000BD46F0BD801200206807002090B583B014
:1023600000AF0346FB800B46BB801346FB701B4B44
:102370001A681B4913465B0013449B000B44083347
:102380001B681968FB78A3F12000144B1A68144CE1
:1023900013465B0013449B00234408331B68DB880F
:1023A00003FB00F00D4B1A680D4C13465B00134401
:1023B0009B00234408331B689B880733002B00DAFB
:1023C0000733DB1000FB03F3CA18B988FB881846F3
:1023D00000F052FA00BF0C37BD4690BD80120020BD
:1023E00084120020B0B588B000AFBA601A46034628
:1023F000FB810B46BB811346FB710123FB8300234A
:10240000BB830023BB6100233B61BB687B6102E0AF
:10241000BB690133BB617B695A1C7A611B78002B55
:10242000F6D1FFF7ADFE0146504B1A6850481346EF
:102430005B0013449B00034408331B689B88B1FB7B
:10244000F3F33B61FB79032B1CD0032B33DC012B13
:1024500002D0022B19D02EE03A69BB69D11A434B46
:102460001A68434813465B0013449B000344083337
:102470001B689B8801FB03F35B089AB2FB8913443A
:10248000FB831BE0FB89FB8318E03A69BB69D31A25
:1024900099B2364B1A68364813465B0013449B00CA
:1024A000034408331B689B8811FB03F39AB2FB8932
:1024B000D31AFB8302E0FB89FB8300BFFB8B002B5D
:1024C00003D0B7F91E30002B1DDA0123FB831AE07D
:1024D000BB681A78B989FB8B1846FFF73FFF234B7F
:1024E0001A68234913465B0013449B000B440833CE
:1024F0001B689A88FB8B1344FB83BB680133BB606A
:10250000BB8B0133BB83BB681B78002B14BF01233B
:102510000023DCB2FFF734FEB98B144B1A68144D5C
:1025200013465B0013449B002B4408331B689B88B5
:1025300001FB03F3C31A99B20C4B1A680C481346FB
:102540005B0013449B00034408331B689B8899423B
:102550002CBF01230023DBB22340DBB2002BB7D119
:1025600000BF00BF2037BD46B0BD00BF80120020B5
:1025700084120020B0B586B002AF0346FB800B4644
:10258000BB8013467B800023FB60264B1B68264ADA
:10259000342101FB03F3134448331B68022B14D18D
:1025A000204B1B68204A342101FB03F313445C33A6
:1025B0001C68FFF7E5FD0246BB8803FB02F2FB88BF
:1025C00013445B002344FB6013E0164B1B68164A60
:1025D000342101FB03F313445C331C68FFF7D0FD87
:1025E0000246BB8803FB02F2FB8813449B00234492
:1025F000FB600C4B1868F9687C880A4B1A680B4D15
:1026000013465B0013449B002B441B68019300237B
:1026100000930123224600F0E7F900BF1037BD46C2
:10262000B0BD00BF80120020680700208412002087
:10263000F0B587B002AF0346FB800B46BB80134664
:102640007B800023FB60284B1B68284A342101FB58
:1026500003F3134448331B68022B14D1224B1B682D
:10266000224A342101FB03F313445C331C68FFF757
:1026700087FD0246BB8803FB02F2FB8813445B0024
:102680002344FB6013E0184B1B68184A342101FBFC
:1026900003F313445C331C68FFF772FD0246BB88EA
:1026A00003FB02F2FB8813449B002344FB600E4BA8
:1026B0001C68FD687E88FFF763FD0346591E0A4BC0
:1026C0001A680B4813465B0013449B0003441B68C5
:1026D00001930091334601222946204600F084F9F7
:1026E00000BF1437BD46F0BD8012002068070020EF
:1026F00084120020B0B582B000AF03463A60FB8080
:102700000B46BB801D4B1B681D4A342101FB03F3A4
:10271000134448331B68022B16D1184B1B68184A08
:10272000342101FB03F313445C331C68BD88FFF7BD
:1027300027FD034603FB05F2FB8813445B0023449B
:102740003A6892B21A8015E00C4B1B680C4A34218F
:1027500001FB03F313445C331C68BD88FFF710FDD5
:10276000034603FB05F2FB8813449B0023441A46EF
:102770003B68136000BF0837BD46B0BD8012002023
:10278000680700202DE9F04186B002AF04460846F4
:1027900011461A462346FB800346BB800B467B80CE
:1027A00013463B800023FB60304B1A6830491346C8
:1027B0005B0013449B000B441B681846FFF75AFD4F
:1027C0002A4B1B682B4A342101FB03F31344483383
:1027D0001B68022B14D1254B1B68264A342101FBB0
:1027E00003F313445C331C68FFF7CAFC0246BB8842
:1027F00003FB02F2FB8813445B002344FB6013E0FD
:102800001A4B1B681B4A342101FB03F313445C334E
:102810001C68FFF7B5FC0246BB8803FB02F2FB888D
:1028200013449B002344FB60104B1C68FD687E88AA
:10283000B7F80080FFF7A4FC02467B88D11A0B4B47
:102840001A680B4813465B0013449B0003441B6843
:1028500001930091434632462946204600F0C4F8D1
:1028600000BF1037BD46BDE8F08100BF80120020D8
:10287000841200206807002080B588B000AF0346AE
:102880003A60FB800B46BB800023FB610023BB61E9
:10289000534B1A68534913465B0013449B000B4487
:1028A00008331B68DB887B824D4B1A684D49134601
:1028B0005B0013449B000B4408331B689B883B82DE
:1028C0003B8A0733002B00DA0733DB10DBB2DB0077
:1028D000DAB23B8ADBB2D31AFB730023FB6176E0EA
:1028E0003B8A0733002B00DA0733DB101A46FB69FB
:1028F00002FB03F33A681344BB603B8A0733002BA7
:1029000000DA0733DB10012B02D0022B04D00CE0DD
:10291000BB681B787B6116E0BB681B781B02BA683A
:102920000132127813437B610DE0BB681B781A04F7
:10293000BB6801331B781B021343BA68023212785A
:1029400013437B6100BF0023BB6136E03A8ABB6959
:10295000D21AFB7B1344013B012202FA03F31A460D
:102960007B691340002B12D0BB699AB2FB881344D9
:1029700098B21B4B1A681B4913465B0013449B001B
:102980000B441A68BB881946FFF7B4FE12E0BB6916
:102990009AB2FB88134498B2114B1A681149134636
:1029A0005B0013449B000B4404331A68BB88194630
:1029B000FFF7A0FEBB690133BB613B8ABA699A424B
:1029C000C4D3BB880133BB80FB690133FB617B8AC5
:1029D000FA699A4284D300BF00BF2037BD4680BD4C
:1029E000801200208412002080B586B002AFF8600B
:1029F000B9607A603B601E4B4FF440325A601D4B09
:102A00001B681D4A342101FB03F3134448331B6840
:102A1000022B03D1164B02229A6002E0144B0022D3
:102A20009A60134ABB69D360114B144A1A6010486C
:102A300015F026F80346002B15D1F9680C4815F05F
:102A40008DFA0346002B0ED1BA683B6800937B6871
:102A5000F969074815F05EF80346002B03D10A21F7
:102A6000034815F082F800BF1037BD4680BD00BF97
:102A700080060020801200206807002000B002407D
:102A800080B500AF40F2036000F004F80023184660
:102A900080BD000080B584B000AF78600023FB608B
:102AA0002A4B01221A60294B10225A60274B01221F
:102AB0009A60264B0022DA604FF6FF7223492448C1
:102AC00006F0F0FA012005F081FF204B02221A6087
:102AD0001E4B10225A601D4B01229A601B4B002294
:102AE000DA604FF6FF721949194806F0DBFA174B06
:102AF00003221A60154B10225A60144B08229A6068
:102B0000124B0022DA604FF6FF721049104806F0AF
:102B1000C9FA4FF40873FB600C4B04221A600B4B8C
:102B200010225A60094B01229A60FB68074AD36061
:102B30004FF6FF720549064806F0B4FA7968044872
:102B400006F0E5FA00BF1037BD4680BD9C1200209C
:102B5000140B002080B582B000AF0023FB7100F0A1
:102B600096F80346012B01D0022312E00B4807F030
:102B7000D1FC0346FB71FB79002B09D14FF40061B6
:102B8000064808F097FA0346002B01D00123FB7199
:102B9000FB7918460837BD4680BD00BF5C080020A1
:102BA00080B586B000AFF860B9607A600023FB752D
:102BB0007B68BA68F968064807F064FD0346002B95
:102BC00001D00123FB75FB7D18461837BD4680BD3B
:102BD0005C08002080B586B000AFF860B9607A600C
:102BE0000023FB757B68BA68F968064807F02CFE7D
:102BF0000346002B01D00123FB75FB7D18461837D7
:102C0000BD4680BD5C08002080B500AF054808F0D7
:102C1000EBFA0346042B14BF01230023DBB2184652
:102C200080BD00BF5C08002080B582B000AF786036
:102C30007968034808F012FA00BF0837BD4680BD26
:102C40005C08002080B582B000AF786000F018F812
:102C500000BF0837BD4680BD80B582B000AF786048
:102C600000F0ACF900BF0837BD4680BD80B582B02A
:102C700000AF786000F0B0F900BF0837BD4680BDF6
:102C800080B400AF00BFBD465DF8047B704780B5DF
:102C900082B000AF0123FB7100F0ACF90346002BBA
:102CA00001D10023FB71FB79DBB218460837BD4622
:102CB00080BD80B584B000AF786010F0C8FDF860CA
:102CC00006E0FFF7A1FF0346002B01D1002309E036
:102CD00010F0BDFD0246FB68D31A7A689A42F0D81C
:102CE0004FF0FF3318461037BD4680BD80B582B027
:102CF00000AF0346FB710B4B01221A70FFF784FFF4
:102D00000346002B07D1074B1B78DBB223F00103EE
:102D1000DAB2044B1A70034B1B78DBB21846083743
:102D2000BD4680BD0800002090B587B000AF0346C7
:102D3000FB71204B01221A7010F07DFD0346002B21
:102D400030D0FFF707FF0346002B07D1FB79184669
:102D5000FFF7CCFF03461A46164B1A70154B1B782B
:102D6000DBB2012B1ED0144B1B68002B0ED1134B72
:102D700007F108040FCB84E80F0007F108030021D6
:102D8000184610F0B8FE03460B4A13600A4B1B6846
:102D9000002B07D1074B1B78DBB243F00103DAB2FB
:102DA000044B1A70034B1B78DBB218461C37BD4628
:102DB00090BD00BF08000020AC1200204086010832
:102DC00080B582B000AF0346FB71FB791846FFF770
:102DD0008DFF034618460837BD4680BD80B58AB0D2
:102DE00000AFB9607A603B600346FB73012387F84C
:102DF000273047F23050FFF75CFF0346002B02DA22
:102E000097F8273032E03A687968B868FFF7C8FE6B
:102E1000034687F8263097F82630002B24D1154B2F
:102E2000196807F1140347F23052184610F0D2FE29
:102E30007B69102B18D1BB69012B15D110F007FD50
:102E4000386208E0FFF7E0FE0346002B03D10023C1
:102E500087F8273008E010F0FAFC02463B6AD31AE4
:102E600047F22F529342EDD997F82730184628376A
:102E7000BD4680BDAC12002080B58AB000AFB960FD
:102E80007A603B600346FB73012387F8273047F2E3
:102E90003050FFF70EFF0346002B02DA97F8273079
:102EA0002EE03A687968B868FFF794FE0346002B75
:102EB00024D1154B196807F1140347F23052184614
:102EC00010F088FE7B69102B18D1BB69022B15D13D
:102ED00010F0BDFC386208E0FFF796FE0346002BB9
:102EE00003D1002387F8273008E010F0B0FC024639
:102EF0003B6AD31A47F22F529342EDD997F8273005
:102F000018462837BD4680BDAC12002080B58CB075
:102F100000AF03463A60FB710B46BB71012387F893
:102F20002F30254B1B78DBB203F00103002B01D0BF
:102F300003233CE0BB79032B34D801A252F823F0E1
:102F4000512F0008592F0008712F00088B2F0008FF
:102F5000002387F82F3028E007F10C031846FFF70D
:102F600063FE7A6A3B681A60002387F82F301CE002
:102F700007F10C031846FFF757FEBB6A9AB23B688D
:102F80001A80002387F82F300FE007F10C03184652
:102F9000FFF74AFEBB6A5A0A3B681A60002387F8AB
:102FA0002F3002E0042387F82F3097F82F3018468F
:102FB0003037BD4680BD00BF0800002080B500AF9F
:102FC000044B1B6800220221184610F0BDFD00BF13
:102FD00080BD00BFAC12002080B500AF044B1B6861
:102FE00000220121184610F0AFFD00BF80BD00BFD8
:102FF000AC12002080B582B000AF0123FB714FF40A
:103000000051064804F09AFF0346002B01D000232C
:10301000FB71FB7918460837BD4680BD00080240A9
:1030200080B500AF044905480EF03AF903461A4648
:10303000034B1A7000BF80BD58060020A8A10108EC
:10304000B012002080B400AF00231846BD465DF8E2
:10305000047B704780B500AF01221249124811F07D
:1030600059FA0346002B01D0FEF7FCF80F490E4831
:1030700011F080FA0346002B01D0FEF7F3F80C495B
:10308000094812F0DFFF0346002B01D0FEF7EAF8F3
:10309000054811F0A5FA0346002B01D0FEF7E2F82F
:1030A00000BF80BD0C000020B41200209C00002056
:1030B0006C00002080B483B000AF03463960FB7120
:1030C0003B6812221A80034B18460C37BD465DF848
:1030D000047B70472C00002080B483B000AF03460F
:1030E0003960FB713B6804221A80034B18460C3789
:1030F000BD465DF8047B70474C00002080B582B06F
:1031000000AF03463960FB71FB79002B05D13A68AB
:103110000749084812F03AFC04E03A6804490548B7
:1031200012F034FC024B18460837BD4680BD00BF84
:10313000901500205086010880B582B000AF03468C
:103140003960FB713A680449044812F01FFC024BD5
:1031500018460837BD4680BD9015002064860108DA
:1031600080B582B000AF03463960FB713B681A221C
:103170001A8000F055F8024B18460837BD4680BD4E
:103180005000002080B582B000AF03463960FB716B
:10319000FB79002B05D13A680749084812F0F6FB85
:1031A00004E03A680449054812F0F0FB024B184667
:1031B0000837BD4680BD00BF901500207886010805
:1031C00080B582B000AF03463960FB71FB79002BFC
:1031D00005D13A680749084812F0D8FB04E03A687C
:1031E0000449054812F0D2FB024B18460837BD4689
:1031F00080BD00BF901500208486010880B483B094
:1032000000AF03463960FB713B680C221A80034B08
:1032100018460C37BD465DF8047B7047400000201F
:1032200080B584B000AF0F4B1B68FB600E4B1B6872
:10323000BB600E4B1B687B60FA687B681344FB60C5
:10324000FB68002B09D008220949F86800F014F83F
:1032500004220849B86800F00FF800BF1037BD46D7
:1032600080BD00BF20F4F01F24F4F01F28F4F01FED
:10327000520000206200002080B487B000AFF860E8
:10328000B9601346FB710023FB750023FB7527E033
:10329000FB681B0F092B0BD8FB681B0FDAB2FB7DF9
:1032A0005B001946BB680B443032D2B21A700AE098
:1032B000FB681B0FDAB2FB7D5B001946BB680B4451
:1032C0003732D2B21A70FB681B01FB60FB7D5B00DA
:1032D0000133BA68134400221A70FB7D0133FB7579
:1032E000FA7DFB799A42D3D300BF00BF1C37BD469D
:1032F0005DF8047B704780B584B000AF0346FB7176
:103300000323FB73FFF726FC0346FB7397F90F308B
:1033100018461037BD4680BD80B58EB000AF03465D
:10332000B9607A60FB73FF2387F83730FFF7AFFC93
:103330000346002B0FD007F114031846FFF774FC67
:10334000FB6A5A1EBB681A603B6B9AB27B681A8094
:10335000002387F8373097F9373018463837BD469D
:1033600080BD000080B584B000AF0346FB7103232D
:10337000FB73FFF78CFC0346002B11D00F4B93F926
:103380000030002B04DAFFF7E5FB0C4B00221A702B
:10339000FFF73AFC0346002B0AD10023FB7307E03A
:1033A000064B93F90030002B02D1044BFF221A7018
:1033B00097F90F3018461037BD4680BD9017002092
:1033C00080B483B000AF0346FB71002318460C376E
:1033D000BD465DF8047B704780B586B000AFB9602C
:1033E0007A601A460346FB731346BB810323FB75C1
:1033F000FFF74DFC0346002B0DD0BB891A467968B8
:10340000B868FFF7CDFB01E00023FB75FFF7FCFB7D
:103410000346002BF8D197F9173018461837BD46E8
:1034200080BD80B586B000AFB9607A601A460346A9
:10343000FB731346BB810323FB75FFF728FC034690
:10344000002B0DD0BB891A467968B868FFF7C2FB1C
:1034500001E00023FB75FFF7D7FB0346002BF8D1F3
:1034600097F9173018461837BD4680BD80B400AFB5
:1034700000231846BD465DF8047B704780B58EB0CA
:1034800000AF786007F1240300221A605A609A6046
:10349000DA601A617B681B684C4A934240F0918065
:1034A0004B4B1B6B4A4A43F002031363484B1B6BA5
:1034B00003F002033B623B6A454B1B6B444A43F0FB
:1034C00080031363424B1B6B03F08003FB61FB69BA
:1034D0003F4B1B6B3E4A43F0040313633C4B1B6B97
:1034E00003F00403BB61BB69394B1B6B384A43F0E3
:1034F00001031363364B1B6B03F001037B617B6994
:1035000043F623437B620223BB620023FB62032357
:103510003B630A237B6307F1240319462D4804F01B
:1035200061FB10237B620223BB620023FB62032347
:103530003B630A237B6307F124031946264804F002
:1035400051FB05237B620223BB620023FB62032342
:103550003B630A237B6307F1240319461F4804F0E9
:1035600041FB28237B620223BB620023FB6203230F
:103570003B630A237B6307F124031946184804F0D0
:1035800031FB134B1B6B124A43F000531363104B78
:103590001B6B03F000533B613B690D4B1B6B0C4AEB
:1035A00043F0804313630A4B1B6B03F08043FB60C3
:1035B000FB68002205214D2005F0B0F94D2005F0F3
:1035C000C9F900BF3837BD4680BD00BF00000440C8
:1035D0000038024000040240001C02400008024083
:1035E0000000024080B582B000AF78607B68D3F8FD
:1035F00004257B6803F2C4431946104611F03DF8D8
:1036000000BF0837BD4680BD80B582B000AF78608E
:103610000B46FB707B68D3F80405FA78796813468B
:10362000DB0013449B000B4403F523731A68FB78FB
:10363000194611F077F800BF0837BD4680BD80B548
:1036400082B000AF78600B46FB707B68D3F804054E
:10365000FA7879681346DB0013449B000B444C3323
:103660001A68FB78194611F010F900BF0837BD46FB
:1036700080BD80B582B000AF78607B68D3F8043538
:10368000184611F044FA00BF0837BD4680BD80B52A
:1036900084B000AF78600123FB737B68DB68002B8C
:1036A00002D10023FB7308E07B68DB68022B02D1A8
:1036B0000123FB7301E0FDF7D5FD7B68D3F80435EA
:1036C000FA7B1146184611F0E4F97B68D3F804350B
:1036D000184611F08CF900BF1037BD4680BD0000C0
:1036E00080B582B000AF78607B68D3F804351846A7
:1036F00011F0DFF97B681B6803F560631B687A686B
:10370000126802F5606243F0010313607B681B6A74
:10371000002B05D0044B1B69034A43F006031361D9
:1037200000BF0837BD4680BD00ED00E080B582B027
:1037300000AF78607B68D3F80435184611F0CFF9F4
:1037400000BF0837BD4680BD80B582B000AF78604D
:103750000B46FB707B68D3F80435FA78114618469F
:1037600011F027FA00BF0837BD4680BD80B582B092
:1037700000AF78600B46FB707B68D3F80435FA78AD
:103780001146184611F0E3F900BF0837BD4680BD69
:1037900080B582B000AF78607B68D3F804351846F6
:1037A00011F039FA00BF0837BD4680BD80B582B040
:1037B00000AF78607B68D3F80435184611F036FA0C
:1037C00000BF0837BD4680BD80B582B000AF7860CD
:1037D0007B681B78012B40D1224A7B68C2F80435F4
:1037E0007B68204AC3F8C8221E4B1F4A1A601D4B33
:1037F00008225A601B4B0022DA601A4B00221A6121
:10380000184B01229A61174B0022DA61154B0022F6
:103810001A62144B00225A62124B0022DA62114BD8
:1038200000221A630F4B00225A630E4800F0FCF985
:103830000346002B01D0FDF715FD4FF40071094838
:1038400001F0A3FC80220021064801F057FC4FF450
:10385000BA720121034801F051FC002318460837D1
:10386000BD4680BD941700200000044080B584B0A0
:1038700000AF78600023FB730023BB737B68D3F831
:10388000C832184600F0F4FA0346FB73FB7B184677
:1038900000F09EF90346BB73BB7B18461037BD464C
:1038A00080BD80B584B000AF7860084611461A46E6
:1038B0000346FB700B46BB7013463B800023FB7333
:1038C0000023BB737B68D3F8C802BB783A88F978C9
:1038D00000F0E1FF0346FB73FB7B184600F078F92C
:1038E0000346BB73BB7B18461037BD4680BD80B511
:1038F00084B000AF78600B46FB700023FB7300239D
:10390000BB737B68D3F8C832FA781146184601F0C9
:103910002AF80346FB73FB7B184600F059F903466F
:10392000BB73BB7B18461037BD4680BD80B584B0E5
:1039300000AF78600B46FB700023FB730023BB7362
:103940007B68D3F8C832FA781146184601F0EDF9D1
:103950000346FB73FB7B184600F03AF90346BB7342
:10396000BB7B18461037BD4680BD80B584B000AF24
:1039700078600B46FB700023FB730023BB737B68EE
:10398000D3F8C832FA781146184601F0E3F8034636
:10399000FB73FB7B184600F01BF90346BB73BB7B34
:1039A00018461037BD4680BD80B584B000AF786042
:1039B0000B46FB700023FB730023BB737B68D3F8BB
:1039C000C832FA781146184601F028F90346FB730D
:1039D000FB7B184600F0FCF80346BB73BB7B184624
:1039E0001037BD4680BD80B485B000AF78600B460F
:1039F000FB707B68D3F8C832FB6097F90330002B6B
:103A00000BDAFB7803F07F02F9681346DB001344FE
:103A10009B000B443E331B780BE0FB7803F07F02E6
:103A2000F9681346DB0013449B000B4403F27E232A
:103A30001B7818461437BD465DF8047B704780B587
:103A400084B000AF78600B46FB700023FB7300234B
:103A5000BB737B68D3F8C832FA781146184600F079
:103A6000F5FE0346FB73FB7B184600F0B1F80346F6
:103A7000BB73BB7B18461037BD4680BD80B586B092
:103A800000AFF8607A603B600B46FB720023FB7569
:103A90000023BB75FB68D3F8C802F97A3B687A68E3
:103AA00001F00EF80346FB75FB7D184600F090F818
:103AB0000346BB75BB7D18461837BD4680BD80B533
:103AC00086B000AFF8607A603B600B46FB72002363
:103AD000FB750023BB75FB68D3F8C802F97A3B6815
:103AE0007A6800F08AFF0346FB75FB7D184600F0FC
:103AF0006FF80346BB75BB7D18461837BD4680BDC1
:103B000080B582B000AF78600B46FB707B68D3F85D
:103B1000C832FA781146184600F0BAFF0346184634
:103B20000837BD4680BD000080B582B000AF786028
:103B30000B46FB70FB78002B02D0012B1FD03BE023
:103B40007B681B6A002B07D000F03CF81C4B1B69FC
:103B50001B4A23F0060313617B681B6803F560634F
:103B60001B687A68126802F5606223F00103136033
:103B70007B68D3F80435184610F0B1FF1CE07B6871
:103B80001B6803F560631B687A68126802F560625F
:103B900043F0010313607B68D3F80435184610F036
:103BA00088FF7B681B6A002B05D0054B1B69044A04
:103BB00043F00603136100BF00BF0837BD4680BD58
:103BC00000ED00E080B500AFFCF7E2FC00BF80BD77
:103BD00080B485B000AF0346FB710023FB73FB7913
:103BE000032B17D801A252F823F000BFFD3B0008B9
:103BF000033C0008093C00080F3C00080023FB734D
:103C00000BE00323FB7308E00123FB7305E00323B0
:103C1000FB7302E00323FB7300BFFB7B18461437E2
:103C2000BD465DF8047B7047F0B58FB00AAF786091
:103C30007B68002B01D1012316E17B681B68BB6008
:103C40007B6893F8BD34DBB2002B06D17B68002281
:103C500083F8BC247868FFF711FC7B68032283F8A3
:103C6000BD24BB68DB6B03F48073002B02D17B683F
:103C700000221A617B681B68184601F0C6FB7B684E
:103C80001B683B607E686D4606F110040FCC0FC5C3
:103C90000FCC0FC594E8030085E80300331D0ECB5D
:103CA000386801F0A7FA0346002B05D07B68022292
:103CB00083F8BD240123D7E07B681B6800211846E8
:103CC00001F0B4FB0023FB734AE0FA7B79681346EA
:103CD000DB0013449B000B443D3301221A70FA7B36
:103CE00079681346DB0013449B000B443C33FA7B9A
:103CF0001A70FA7BFB7B98B279681346DB00134499
:103D00009B000B44443302461A80FA7B79681346C1
:103D1000DB0013449B000B44403300221A70FA7BF3
:103D200079681346DB0013449B000B4448330022A0
:103D30001A60FA7B79681346DB0013449B000B443E
:103D40004C3300221A60FA7B79681346DB00134477
:103D50009B000B44543300221A60FB7B0133FB733E
:103D6000FA7B7B685B689A42AFD30023FB7344E025
:103D7000FA7B79681346DB0013449B000B4403F283
:103D80007D2300221A70FA7B79681346DB00134406
:103D90009B000B4403F51F73FA7B1A70FA7B79685A
:103DA0001346DB0013449B000B4403F520730022F1
:103DB0001A70FA7B79681346DB0013449B000B44AE
:103DC00003F5227300221A60FA7B79681346DB0040
:103DD00013449B000B4403F5237300221A60FA7B03
:103DE00079681346DB0013449B000B4403F52573ED
:103DF00000221A60FB7B0133FB73FA7B7B685B68F4
:103E00009A42B5D37B681B683B607E686D4606F1BD
:103E100010040FCC0FC50FCC0FC594E8030085E844
:103E20000300331D0ECB386801F04CFB0346002B1A
:103E300005D07B68022283F8BD24012314E07B684F
:103E4000002283F838207B68012283F8BD247B6838
:103E50005B6A012B02D1786801F0A8F97B681B68C6
:103E6000184602F09AFC002318461437BD46F0BDF0
:103E700080B582B000AF78607B6893F8BC34012BCA
:103E800001D1022312E07B68012283F8BC247B6805
:103E90001B68184601F0A8FA7B681B68184602F0F8
:103EA0005BFC7B68002283F8BC240023184608379B
:103EB000BD4680BD90B58DB000AF78607B681B6853
:103EC0003B623B6AFB617B681B68184602F019FD88
:103ED0000346002B40F0B7847B681B68184602F04D
:103EE0007DFC0346002B00F0AD84FB6903F5006305
:103EF0009B681B0AC3F30D027B68C3F8FC247B6834
:103F00001B68184602F06AFC034603F00203022B0A
:103F100007D17B681B685A697B681B6802F0020244
:103F20005A617B681B68184602F058FC034603F090
:103F30001003102B61D17B681B689A697B681B6832
:103F400022F010029A613B6A1B6ABB61BB6903F0F5
:103F50000F021346DB0013449B0003F51E737A68BF
:103F6000134404337B61BB695B0C03F00F03022B2A
:103F700024D1BA6947F6F0731340002B35D07B6922
:103F80001969BB691B099BB2C3F30A039BB21A46AA
:103F9000386A02F08FFA7B691A69BB691B09C3F39F
:103FA0000A031A447B691A617B691A6ABB691B0997
:103FB000C3F30A031A447B691A6216E0BB695B0CFF
:103FC00003F00F03062B10D17B6803F2C4430822D1
:103FD0001946386A02F06EFA7B691A6ABB691B09D6
:103FE000C3F30A031A447B691A627B681B689A69E7
:103FF0007B681B6842F010029A617B681B68184658
:1040000002F0ECFB034603F40023B3F5002F40F06D
:10401000A78000237B627B681B68184602F0F1FBD7
:10402000B86299E0BB6A03F00103002B00F08E80B8
:104030007B681B687A6AD2B21146184602F015FCFA
:1040400038613B6903F00103002B0CD07B6A5A01F5
:10405000FB69134403F530631A4601239360796AC0
:10406000786800F01DFF3B6903F00803002B0CD0BB
:104070007B6A5A01FB69134403F530631A4608232F
:104080009360796A786800F0F3FF3B6903F01003EE
:10409000002B08D07B6A5A01FB69134403F5306397
:1040A0001A46102393603B6903F00203002B30D0C3
:1040B0003B6A5B6903F08003802B09D1FB6903F540
:1040C00000635B68FA6902F5006243F48063536041
:1040D0007A6A1346DB0013449B0003F51E737A686B
:1040E000134404337B617B69DB78012B08D17B6946
:1040F0000022DA707B6ADBB219467868FFF724FB8E
:104100007B6A5A01FB69134403F530631A460223A4
:1041100093603B6903F02003002B08D07B6A5A01AF
:10412000FB69134403F530631A46202393603B690F
:1041300003F40053002B09D07B6A5A01FB69134436
:1041400003F530631A464FF4005393607B6A0133E2
:104150007B62BB6A5B08BB62BB6A002B7FF462AF09
:104160007B681B68184602F039FB034603F4802382
:10417000B3F5802F40F0DB807B681B68184602F0A7
:104180005AFBB86200237B62CDE0BB6A03F00103F7
:10419000002B00F0C2807B681B687A6AD2B211469D
:1041A000184602F080FB38613B6903F00103002BE5
:1041B00057D07B6A03F00F03012202FA03F3FB607E
:1041C000FB6903F500635A6BFB68DB43F96901F592
:1041D000006113404B637B6A5A01FB69134403F58A
:1041E00010631A46012393607B681B69012B32D14F
:1041F00079687A6A1346DB0013449B000B444C3306
:10420000196878687A6A1346DB0013449B000344FC
:1042100048331B68194478687A6A1346DB001344F4
:104220009B0003444C3319607B6A002B13D17968DF
:104230007A6A1346DB0013449B000B4454331B681B
:10424000002B08D17B6818687B6803F2C4431A46C8
:10425000012102F089FB7B6ADBB219467868FFF71F
:10426000EEF93B6903F00803002B08D07B6A5A0182
:10427000FB69134403F510631A46082393603B69F6
:1042800003F01003002B08D07B6A5A01FB6913442A
:1042900003F510631A46102393603B6903F0400353
:1042A000002B08D07B6A5A01FB69134403F51063A5
:1042B0001A46402393603B6903F00203002B23D08E
:1042C000796A386A01F05CFA7A6A1346DB001344B3
:1042D0009B0038337A68134404337B617B69DB7855
:1042E000012B08D17B690022DA707B6ADBB21946A8
:1042F0007868FFF73BFA7B6A5A01FB69134403F5C0
:1043000010631A46022393603B6903F08003002B7D
:1043100003D0796A786800F035FD7B6A01337B62EF
:10432000BB6A5B08BB62BB6A002B7FF42EAF7B6865
:104330001B68184602F052FA034603F00043B3F13B
:10434000004F22D1FB6903F500635B68FA6902F54F
:10435000006223F0010353607B6893F8F434012B6F
:1043600008D17B68002283F8F42400217868FFF7E5
:10437000DBFB02E07868FFF7D9F97B681B685A69B4
:104380007B681B6802F000425A617B681B68184614
:1043900002F024FA034603F40063B3F5006F12D170
:1043A000FB6903F500639B6803F00103012B02D155
:1043B0007868FFF795F97B681B685A697B681B680A
:1043C00002F400625A617B681B68184602F006FA24
:1043D000034603F00063B3F1006F21D17B681B68D3
:1043E0005A697B681B6802F000625A617B6893F827
:1043F000F434002B11D17B68012283F8F4247B680C
:104400001B685B6D9B0803F00F027B68C3F8F82400
:1044100001217868FFF788FB02E07868FFF760F910
:104420007B681B68184602F0D9F9034603F48053F1
:10443000B3F5805F40F0B780FB6903F500635B680C
:10444000FA6902F5006223F0010353607B681B6880
:104450001021184601F094F90023FB6246E0FB6A44
:104460005A01FB69134403F510631A464FF67F3374
:104470009360FB6A5A01FB69134403F510631B68E0
:10448000FA6A5101FA690A4402F5106223F4001332
:104490001360FB6A5A01FB69134403F530631A4643
:1044A0004FF67F339360FB6A5A01FB69134403F5AF
:1044B00030631B68FA6A5101FA690A4402F53062F6
:1044C00023F400131360FB6A5A01FB69134403F5DC
:1044D00030631B68FA6A5101FA690A4402F53062D6
:1044E00043F000631360FB6A0133FB627B685B6827
:1044F000FA6A9A42B3D3FB6903F50063DB69FA6990
:1045000002F5006243F00113D3617B681B6B002B43
:1045100016D0FB6903F50063D3F88430FA6902F51D
:10452000006243F00B03C2F88430FB6903F50063BB
:104530005B6CFA6902F5006243F00B03536415E00B
:10454000FB6903F500635A69FB6903F500631946CB
:1045500042F22B0313434B61FB6903F500631B69B4
:10456000FA6902F5006243F00B031361FB6903F57E
:1045700000631B68FA6902F5006223F4FE631360AE
:104580007B6818687B681B69D9B27B6803F2C443F7
:104590001A4602F0E9F97B681B685A697B681B6858
:1045A00002F480525A617B681B68184602F016F9C3
:1045B000034603F40053B3F5005F24D17B681B6806
:1045C000184602F0ADF97B681B68184601F055F9F2
:1045D00003461A467B68DA607B681C6802F0ACFE12
:1045E00001467B68DB68DBB21A46204600F05AFEC3
:1045F0007868FFF74CF87B681B685A697B681B6812
:1046000002F400525A617B681B68184602F0E6F813
:10461000034603F00803082B0AD17868FFF729F84E
:104620007B681B685A697B681B6802F008025A6144
:104630007B681B68184602F0D1F8034603F080033C
:10464000802B22D13B6A9B6923F080023B6A9A61EE
:1046500001237B6214E079687A6A1346DB00134415
:104660009B000B4403F27F231B78012B05D17B6A4F
:10467000DBB21946786800F027FB7B6A01337B6266
:104680007B685B687A6A9A42E5D37B681B68184648
:1046900002F0A4F8034603F48013B3F5801F3BD166
:1046A00001237B622BE07B6A5A01FB69134403F50B
:1046B00010631B68BB6179687A6A1346DB00134498
:1046C0009B000B4440331B78012B15D1BB69002B99
:1046D00012DA79687A6A1346DB0013449B000B44B4
:1046E0003F3301221A707B6ADBB263F07F03DBB2D7
:1046F0001946786800F0E8FA7B6A01337B627B68D0
:104700005B687A6A9A42CED37B681B685A697B6879
:104710001B6802F480125A617B681B68184602F01D
:104720005DF8034603F40013B3F5001F55D10123D0
:104730007B6245E07B6A5A01FB69134403F53063F1
:104740001B68BB6179687A6A1346DB0013449B00DF
:104750000B4403F520731B78012B2ED1BB69002B72
:104760002BDABB6903F480327B68D3F8FC3403F0A6
:1047700001039A4221D179687A6A1346DB00134417
:104780009B000B4403F27F2301221A703B6A9B6952
:1047900043F080023B6A9A613B6A5B6903F08003E5
:1047A000002B0AD1FB6903F500635B68FA6902F527
:1047B000006243F40073536007E07B6A01337B625D
:1047C0007B685B687A6A9A42B4D37B681B685A69D3
:1047D0007B681B6802F400125A617B681B681846EC
:1047E00001F0FCFF034603F08043B3F1804F0AD190
:1047F0007868FEF7CDFF7B681B685A697B681B6889
:1048000002F080425A617B681B68184601F0E6FF9F
:10481000034603F00403042B15D17B681B685B6817
:10482000BB61BB6903F00403002B02D07868FEF77C
:10483000BDFF7B681B6859687B681B68BA690A43BF
:104840005A6000E000BF3437BD4690BD80B582B0ED
:1048500000AF78600B46FB707B6893F8BC34012B8B
:1048600001D1022313E07B68012283F8BC247B681A
:10487000FA7883F838207B681B68FA781146184666
:1048800001F044FF7B68002283F8BC240023184613
:104890000837BD4680BD80B584B000AF786008465B
:1048A00011461A460346FB700B463B801346BB700D
:1048B0000023FB7297F90330002B0FDAFB7803F02B
:1048C0000F021346DB0013449B0038337A6813440D
:1048D0000433FB60FB6801225A700FE0FB7803F0A1
:1048E0000F021346DB0013449B0003F51E737A6826
:1048F00013440433FB60FB6800225A70FB7803F01A
:104900000F03DAB2FB681A703A88FB68DA60FB685A
:10491000BA781A71FB685B78002B04D0FB681B78AF
:104920009AB2FB681A81BB78022B02D1FB68002285
:104930005A717B6893F8BC34012B01D102230EE03D
:104940007B68012283F8BC247B681B68F9681846E1
:1049500000F0B8FF7B68002283F8BC24FB7A18467D
:104960001037BD4680BD80B584B000AF78600B467F
:10497000FB7097F90330002B0FDAFB7803F00F027E
:104980001346DB0013449B0038337A681344043326
:10499000FB60FB6801225A700FE0FB7803F00F0206
:1049A0001346DB0013449B0003F51E737A6813441F
:1049B0000433FB60FB6800225A70FB7803F00F039E
:1049C000DAB2FB681A707B6893F8BC34012B01D112
:1049D00002230EE07B68012283F8BC247B681B68FD
:1049E000F968184600F0F6FF7B68002283F8BC24C3
:1049F000002318461037BD4680BD80B586B000AF95
:104A0000F8607A603B600B46FB72FB7A03F00F02A2
:104A10001346DB0013449B0003F51E73FA6813442E
:104A200004337B617B697A681A617B693A689A61B1
:104A30007B6900221A627B6900225A70FB7A03F0BC
:104A40000F03DAB27B691A70FB681B69012B02D174
:104A50007A687B695A61FB7A03F00F03002B09D156
:104A6000FB681868FB681B69DBB21A46796901F0BC
:104A7000DDFA08E0FB681868FB681B69DBB21A46C0
:104A8000796901F083F8002318461837BD4680BDC8
:104A900080B483B000AF78600B46FB70FB7803F006
:104AA0000F0279681346DB0013449B000B4403F5A7
:104AB00027731B6818460C37BD465DF8047B7047AA
:104AC00080B586B000AFF8607A603B600B46FB7241
:104AD000FB7A03F00F021346DB0013449B003833CC
:104AE000FA68134404337B617B697A681A617B69D5
:104AF0003A689A617B6900221A627B6901225A70C6
:104B0000FB7A03F00F03DAB27B691A70FB681B694A
:104B1000012B02D17A687B695A61FB7A03F00F039B
:104B2000002B09D1FB681868FB681B69DBB21A46C9
:104B3000796901F07BFA08E0FB681868FB681B697B
:104B4000DBB21A46796901F021F8002318461837BC
:104B5000BD4680BD80B584B000AF78600B46FB7069
:104B6000FB7803F00F027B685B689A4201D901234E
:104B700050E097F90330002B0FDAFB7803F00F02B7
:104B80001346DB0013449B0038337A681344043324
:104B9000FB60FB6801225A700DE0FA781346DB00D7
:104BA00013449B0003F51E737A6813440433FB60BF
:104BB000FB6800225A70FB6801229A70FB7803F0B0
:104BC0000F03DAB2FB681A707B6893F8BC34012BD0
:104BD00001D102231EE07B68012283F8BC247B689C
:104BE0001B68F968184601F0BDFCFB7803F00F0361
:104BF000002B0AD17B6818687B681B69D9B27B6877
:104C000003F2C4431A4601F0AFFE7B68002283F82A
:104C1000BC24002318461037BD4680BD80B584B043
:104C200000AF78600B46FB70FB7803F00F027B68E7
:104C30005B689A4201D9012342E097F90330002BC7
:104C40000FDAFB7803F00F021346DB0013449B00DE
:104C500038337A6813440433FB60FB6801225A70CE
:104C60000FE0FB7803F00F021346DB0013449B00B8
:104C700003F51E737A6813440433FB60FB6800225B
:104C80005A70FB6800229A70FB7803F00F03DAB2C7
:104C9000FB681A707B6893F8BC34012B01D10223A6
:104CA0000EE07B68012283F8BC247B681B68F968EE
:104CB000184601F0C5FC7B68002283F8BC24002361
:104CC00018461037BD4680BD80B584B000AF78600F
:104CD0000B46FB7097F90330002B0CDAFB7803F0DE
:104CE0000F021346DB0013449B0038337A681344E9
:104CF0000433FB600CE0FB7803F00F021346DB008B
:104D000013449B0003F51E737A6813440433FB605D
:104D10007B681B68F968184601F0E4FA0346FB72E9
:104D2000FB7A18461037BD4680BD80B582B000AF13
:104D300078600B46FB707B6893F8BC34012B01D183
:104D400002231BE07B68012283F8BC2497F903301F
:104D5000002B09DA7B681A68FB7803F00F03194609
:104D6000104600F00DFD04E07B681B68184600F05B
:104D70003BFD7B68002283F8BC24002318460837DB
:104D8000BD4680BD80B58AB002AF786039607B686F
:104D90001B687B617B693B613A681346DB00134407
:104DA0009B0038337A6813440433FB60FB681A6A4B
:104DB000FB689B699A4201D901236CE0FB689A6900
:104DC000FB681B6AD31AFB61FB68DB68FA699A42CD
:104DD00002D9FB68DB68FB61FB6903339B08BB619D
:104DE0002BE0FB689A69FB681B6AD31AFB61FB68BE
:104DF000DB68FA699A4202D9FB68DB68FB61FB69F0
:104E000003339B08BB61FB6819693B68DAB2FB6935
:104E100098B27B681B69DBB200930346786901F0A6
:104E20000BFBFB681A69FB691A44FB681A61FB6893
:104E30001A6AFB691A44FB681A623B685A013B69AB
:104E4000134403F510639B699BB2BA699A4209D86F
:104E5000FB681A6AFB689B699A4203D2FB689B69EC
:104E6000002BBED1FB689A69FB681B6A9A4211D875
:104E70003B6803F00F03012202FA03F3BB603B69B6
:104E800003F500635A6BBB68DB43396901F50061C8
:104E900013404B63002318462037BD4680BD0000F9
:104EA00080B588B000AF786039607B681B68FB61B3
:104EB000FB69BB61FB693C3304331B687B613B6866
:104EC0005A01BB69134403F530639B683B617B68FF
:104ED0001B69012B7BD13B6903F00803002B15D024
:104EE0007B69614A934240F2B9803B6903F4004315
:104EF000002B00F0B3803B685A01BB69134403F5F3
:104F000030631A464FF400439360A7E03B6903F017
:104F10002003002B09D03B685A01BB69134403F5F9
:104F200030631A462023936098E03B6903F028031E
:104F3000002B40F093807B694B4A93420FD93B6929
:104F400003F40043002B0AD03B685A01BB691344A9
:104F500003F530631A464FF4004393607EE03A68ED
:104F60001346DB0013449B0003F51E737A68134459
:104F70000433FB60FB68DA693B685901BB690B4489
:104F800003F530631B69C3F31203D21AFB681A627C
:104F90003B68002B14D1FB689B69002B09D17B680F
:104FA00018687B6803F2C4431A46012101F0DCFC57
:104FB00006E0FB681A69FB681B6A1A44FB681A6101
:104FC0003B68DBB219467868FEF71EFB46E07B695A
:104FD000264A934224D13B6903F40043002B0AD0B4
:104FE0003B685A01BB69134403F530631A464FF41A
:104FF0000043936032E03B6903F02003002B08D0AC
:105000003B685A01BB69134403F530631A462023F9
:1050100093603B68DBB219467868FEF7F5FA1DE04D
:105020003B68002B14D179683A681346DB001344BF
:105030009B000B4403F525731B68002B08D17B688C
:1050400018687B6803F2C4431A46002101F08CFC07
:105050003B68DBB219467868FEF7D6FA002318469B
:105060002037BD4680BD00BF0A30544F0A31544F2F
:1050700080B586B000AF786039607B681B687B6163
:105080007B693B617B693C3304331B68FB603B6895
:105090005A013B69134403F530639B68BB60FB68AE
:1050A000154A93420ED9BB6803F40043002B09D084
:1050B0003B685A013B69134403F530631A464FF4C9
:1050C000004393607868FEF78DFAFB680A4A9342C2
:1050D0000CD97B681B69012B08D17B6818687B6839
:1050E00003F2C4431A46012101F03EFC0023184696
:1050F0001837BD4680BD00BF0A30544F80B485B01C
:1051000000AF78600B46FB7013463B807B681B68E2
:105110005B6ABB60FB78002B07D13B8819047B6876
:105120001B68BA680A439A6228E07B681B689B6A1E
:105130001B0CBA681344BB600023FB730DE07B6853
:105140001A68FB7B40339B0013445B681B0CBA68F6
:105150001344BB60FB7B0133FB73FA7BFB78013BA1
:105160009A42ECD33B8818047B681968FB78013BB2
:10517000BA68024340339B000B445A600023184630
:105180001437BD465DF8047B704780B483B000AF30
:1051900078600B467B807B681B687A885A620023A4
:1051A00018460C37BD465DF8047B704780B485B067
:1051B00000AF78607B681B68FB607B680122C3F8E6
:1051C00000257B68002283F8F424FB689B6943F088
:1051D0000062FB689A61FB685A6D054B1343FA68DD
:1051E0005365002318461437BD465DF8047B7047AD
:1051F0000300001084B080B584B000AF786007F180
:105200001C0080E80E003B6B012B20D17B689B6B60
:1052100023F480327B689A637B68DA68204B134002
:105220007A68D3607B68DB6823F440127B68DA60BD
:10523000FB6C012B05D17B68DB6843F480127B6833
:10524000DA60786801F0EEFB0346FB7310E07B68E0
:10525000DB6843F040027B68DA60786801F0E2FBCB
:105260000346FB737B689B6B43F480327B689A63D5
:10527000BB6A012B0BD17B689B6843F006027B68FD
:105280009A607B689B6843F020027B689A60FB7B96
:1052900018461037BD46BDE8804004B0704700BFD7
:1052A000BFFFBDFF80B487B000AFF860B9601346A0
:1052B000FB71FB79022B65D1BB68414A934206D949
:1052C000BB68404A934202D20F237B6162E0BB6815
:1052D0003C4A934206D3BB683B4A934202D20E2318
:1052E0007B6157E0BB68384A934206D3BB68374AB4
:1052F000934202D20D237B614CE0BB68334A934258
:1053000006D3BB68324A934202D80C237B6141E04A
:10531000BB682F4A934206D9BB682E4A934202D8F3
:105320000B237B6136E0BB682A4A934206D9BB68EF
:10533000294A934202D80A237B612BE0BB68264AA4
:10534000934206D9BB68254A934202D209237B6166
:1053500020E0BB68214A934206D3BB68204A9342AF
:1053600002D808237B6115E0BB681D4A934206D929
:10537000BB681C4A934202D207237B610AE00623E2
:105380007B6107E0FB79002B02D109237B6101E0FF
:1053900009237B61FB68DB6823F47052FB68DA60E9
:1053A000FB68DA687B699B0203F470531A43FB685D
:1053B000DA60002318461C37BD465DF8047B704751
:1053C000BFACD800C0E1E4000024F4008073060103
:1053D0009F491A01FF2C31013FA44C0100366E0198
:1053E0001FABA6010048E80180B483B000AF78602D
:1053F0007B689B6843F001027B689A600023184633
:105400000C37BD465DF8047B704780B483B000AFB5
:1054100078607B689B6823F001027B689A600023B8
:1054200018460C37BD465DF8047B704780B584B0E4
:1054300000AF78600B46FB700023FB607B68DB6885
:1054400023F0C0427B68DA60FB78012B15D17B68C2
:10545000DB6843F000527B68DA60012003F0B6FAA3
:10546000FB680133FB60786801F04BFA0346012BBF
:105470001ED0FB68312BF0D91AE0FB78002B15D138
:105480007B68DB6843F080427B68DA60012003F0D0
:105490009DFAFB680133FB60786801F032FA03463D
:1054A000002B05D0FB68312BF0D901E0012305E08A
:1054B000FB68322B01D1012300E00023184610378E
:1054C000BD4680BD84B080B586B000AF786007F17E
:1054D000240080E80E000023FB757B68FB6000233E
:1054E0003B6109E07A683B6940339B00134400222A
:1054F0005A603B6901333B613B690E2BF2D9FB6C6F
:10550000002B1CD1FB6803F500635B68FA6802F5A9
:10551000006243F0020353607B689B6B23F400122C
:105520007B689A637B681B6843F040027B681A6063
:105530007B681B6843F080027B681A6005E07B682B
:105540009B6B43F400127B689A63FB6803F560630E
:105550001A4600231360FB6803F500631946FB68D5
:1055600003F500631A460B681360BB6B012B0CD16B
:10557000FB6A002B04D10021786800F065F908E08F
:105580000121786800F060F903E00321786800F0F9
:105590005BF91021786800F0F3F80346002B01D086
:1055A0000123FB75786800F01FF90346002B01D03A
:1055B0000123FB75FB6803F500631A4600231361A2
:1055C000FB6803F500631A4600235361FB6803F58B
:1055D00000631A460023D36100233B6143E03B692B
:1055E0005A01FB68134403F510631B6803F0004382
:1055F000B3F1004F18D13B69002B0AD13B695A0126
:10560000FB68134403F510631A464FF00063136000
:1056100013E03B695A01FB68134403F510631A4613
:105620004FF09043136008E03B695A01FB68134454
:1056300003F510631A46002313603B695A01FB68A7
:10564000134403F510631A46002313613B695A01A2
:10565000FB68134403F510631A464FF67F339360DB
:105660003B6901333B617B6A3A699A42B7D30023B5
:105670003B6143E03B695A01FB68134403F5306327
:105680001B6803F00043B3F1004F18D13B69002BB6
:105690000AD13B695A01FB68134403F530631A468B
:1056A0004FF00063136013E03B695A01FB68134439
:1056B00003F530631A464FF09043136008E03B69EE
:1056C0005A01FB68134403F530631A460023136044
:1056D0003B695A01FB68134403F530631A46002303
:1056E00013613B695A01FB68134403F530631A46A2
:1056F0004FF67F3393603B6901333B617B6A3A69C4
:105700009A42B7D3FB6803F500631B69FA6802F598
:10571000006223F4807313617B6800229A617B68C6
:105720006FF080425A613B6B002B05D17B689B690F
:1057300043F010027B689A617B689A690E4B1343B1
:105740007A689361FB6B002B05D07B689B6943F003
:1057500008027B689A61FB6C012B05D17B689A6912
:10576000064B13437A689361FB7D18461837BD4694
:10577000BDE8804004B0704700383C800400004021
:1057800080B485B000AF786039600023FB60FB68AF
:105790000133FB60FB68134A934201D903231BE0EA
:1057A0007B681B69002BF2DA0023FB603B689B01DE
:1057B00043F020027B681A61FB680133FB60FB68E1
:1057C000084A934201D9032306E07B681B6903F072
:1057D0002003202BF0D0002318461437BD465DF877
:1057E000047B7047400D030080B485B000AF786043
:1057F0000023FB60FB680133FB60FB68114A9342A6
:1058000001D9032318E07B681B69002BF2DA00231F
:10581000FB607B6810221A61FB680133FB60FB6848
:10582000084A934201D9032306E07B681B6903F011
:105830001003102BF0D0002318461437BD465DF836
:10584000047B7047400D030080B485B000AF7860E2
:105850000B46FB707B68FB60FB6803F500631A680E
:10586000FB78F96801F5006113430B6000231846CB
:105870001437BD465DF8047B704780B487B000AF35
:1058800078607B683B613B6903F500639B6803F0CC
:105890000603FB60FB68002B02D10023FB750AE0C6
:1058A000FB68022B02D0FB68062B02D10223FB759A
:1058B00001E00F23FB75FB7D18461C37BD465DF8E4
:1058C000047B704780B485B000AF786039607B6836
:1058D000FB603B681B78BB603B685B78012B39D170
:1058E000FB6803F50063DA693B681B7803F00F037C
:1058F000012101FA03F39BB2F96801F5006113433A
:10590000CB61BB685A01FB68134403F510631B6845
:1059100003F40043002B53D1BB685A01FB681344C6
:1059200003F510631A683B68DB68C3F30A013B6840
:105930001B799B041943BB689B050B431A43BB6847
:105940005901FB680B4403F510631946204B1343C0
:105950000B6035E0FB6803F50063DA693B681B7890
:1059600003F00F03012101FA03F31B04F96801F5A9
:1059700000611343CB61BB685A01FB68134403F514
:1059800030631B6803F40043002B19D1BB685A0134
:10599000FB68134403F530631A683B68DB68C3F3A4
:1059A0000A013B681B799B040B431A43BB685901EE
:1059B000FB680B4403F530631946054B13430B603A
:1059C000002318461437BD465DF8047B704700BFBE
:1059D0000080001080B485B000AF786039607B68CB
:1059E000FB603B681B78BB603B685B78012B61D137
:1059F000BB685A01FB68134403F510631B6803F08E
:105A00000043B3F1004F1FD1BB685A01FB68134438
:105A100003F510631B68BA685101FA680A4402F57D
:105A2000106243F000631360BB685A01FB681344C3
:105A300003F510631B68BA685101FA680A4402F55D
:105A4000106243F080431360FB6803F50063DA6B78
:105A50003B681B7803F00F03012101FA03F39BB2AB
:105A6000DB43F96801F500611340CB63FB6803F584
:105A70000063DA693B681B7803F00F03012101FA28
:105A800003F39BB2DB43F96801F500611340CB617E
:105A9000BB685A01FB68134403F510631A68BB68BE
:105AA0005901FB680B4403F510631946354B13404D
:105AB0000B6060E0BB685A01FB68134403F5306378
:105AC0001B6803F00043B3F1004F1FD1BB685A01BC
:105AD000FB68134403F530631B68BA685101FA6828
