:020000040800F2
:100000000000052091A80108991800089F18000811
:10001000A5180008AB180008B1180008000000007F
:10002000000000000000000000000000116801084E
:10003000B718000800000000216A0108896A010859
:10004000E1A80108E1A80108E1A80108E1A8010868
:10005000E1A80108E1A80108E1A80108E1A8010858
:10006000E1A80108E1A80108E1A80108E1A8010848
:10007000E1A80108E1A80108E1A80108E1A8010838
:10008000E1A80108E1A80108E1A80108E1A8010828
:10009000E1A80108E1A80108E1A80108E1A8010818
:1000A000E1A80108E1A80108E1A80108E1A8010808
:1000B000E1A80108E1A80108E1A80108E1A80108F8
:1000C000E1A80108E1A80108E1A80108E1A80108E8
:1000D000E1A80108E1A80108E1A80108E1A80108D8
:1000E000E1A80108E1A80108E1A80108E1A80108C8
:1000F000E1A80108E1A80108E1A80108E1A80108B8
:10010000E1A80108C5180008E1A80108E1A8010854
:10011000E1A80108E1A80108D9180008E1A8010830
:1001200051190008E1A80108E1A80108ED1800082C
:10013000E1A80108E1A80108E1A80108E1A8010877
:10014000E1A80108E1A80108E1A80108E1A8010867
:10015000E1A8010801190008E1A80108E1A80108C7
:10016000E1A80108E1A80108E1A80108E1A8010847
:10017000E1A8010815190008E1A801080000000025
:10018000E1A80108E1A80108E1A80108E1A8010827
:10019000E1A80108E1A80108E1A80108E1A8010817
:1001A00029190008E1A801083D190008E1A8010883
:1001B000E1A80108E1A80108E1A80108E1A80108F7
:0801C000E1A80108E1A8010813
:1001D00010B5054C237833B9044B13B10448AFF381
:1001E00000800123237010BDD0010020000000001A
:1001F00028B3010808B5034B1BB103490348AFF30B
:10020000008008BD00000000D401002028B30108D0
:1002100001F0FF01102A2BDB10F0070F08D010F8B7
:10022000013B013A8B422DD010F0070F42B3F6D1BB
:10023000F0B441EA012141EA014122F007047FF0D4
:1002400000070023F0E80256083C85EA010586EA2B
:10025000010685FA47F5A3FA87F586FA47F6A5FA67
:1002600087F68EB9EED1F0BC01F0FF0102F0070273
:1002700032B110F8013B013A83EA010313B1F8D11E
:100280000020704701387047002D06BF35460338FF
:10029000073815F0010F07D1013015F4807F02BF38
:1002A000013015F4C03F0130F0BC0138704700BF89
:1002B00053B94AB9002908BF00281CBF4FF0FF31CD
:1002C0004FF0FF3000F074B9ADF1080C6DE904CEC9
:1002D00000F006F8DDF804E0DDE9022304B0704721
:1002E0002DE9F047089D04468E46002B4DD18A42E9
:1002F000944669D9B2FA82F252B101FA02F3C2F11C
:10030000200120FA01F10CFA02FC41EA030E9440AC
:100310004FEA1C48210CBEFBF8F61FFA8CF708FBCD
:1003200016E341EA034306FB07F199420AD91CEBA5
:10033000030306F1FF3080F01F81994240F21C81D7
:10034000023E63445B1AA4B2B3FBF8F008FB10331F
:1003500044EA034400FB07F7A7420AD91CEB040454
:1003600000F1FF3380F00A81A74240F20781644424
:10037000023840EA0640E41B00261DB1D4400023A9
:10038000C5E900433146BDE8F0878B4209D9002D0D
:1003900000F0EF800026C5E9000130463146BDE897
:1003A000F087B3FA83F6002E4AD18B4202D3824201
:1003B00000F2F980841A61EB030301209E46002DB0
:1003C000E0D0C5E9004EDDE702B9FFDEB2FA82F205
:1003D000002A40F09280A1EB0C014FEA1C471FFA63
:1003E0008CFE0126200CB1FBF7F307FB131140EA4A
:1003F00001410EFB03F0884208D91CEB010103F117
:10040000FF3802D2884200F2CB804346091AA4B2D8
:10041000B1FBF7F007FB101144EA01440EFB00FEAC
:10042000A64508D91CEB040400F1FF3102D2A64511
:1004300000F2BB800846A4EB0E0440EA03409CE7B0
:10044000C6F12007B34022FA07FC4CEA030C20FA5D
:1004500007F401FA06F31C43F9404FEA1C4900FA7D
:1004600006F3B1FBF9F8200C1FFA8CFE09FB1811FA
:1004700040EA014108FB0EF0884202FA06F20BD96D
:100480001CEB010108F1FF3A80F08880884240F2BD
:100490008580A8F102086144091AA4B2B1FBF9F001
:1004A00009FB101144EA014100FB0EFE8E4508D9FC
:1004B0001CEB010100F1FF346CD28E456AD9023881
:1004C000614440EA0840A0FB0294A1EB0E01A14266
:1004D000C846A64656D353D05DB1B3EB080261EBD4
:1004E0000E0101FA07F722FA06F3F1401F43C5E9AE
:1004F000007100263146BDE8F087C2F12003D840E4
:100500000CFA02FC21FA03F3914001434FEA1C4725
:100510001FFA8CFEB3FBF7F007FB10360B0C43EA17
:10052000064300FB0EF69E4204FA02F408D91CEBC7
:10053000030300F1FF382FD29E422DD902386344C5
:100540009B1B89B2B3FBF7F607FB163341EA034165
:1005500006FB0EF38B4208D91CEB010106F1FF38B4
:1005600016D28B4214D9023E6144C91A46EA0046AB
:1005700038E72E46284605E70646E3E61846F8E63D
:100580004B45A9D2B9EB020864EB0C0E0138A3E786
:100590004646EAE7204694E74046D1E7D0467BE767
:1005A000023B614432E7304609E76444023842E7DF
:1005B000704700BF80B582B000AF0346FB80C82003
:1005C00003F0CCFB00F07AFA00BF0837BD4680BDCF
:1005D00080B483B000AF0346FB8000BF0C37BD463C
:1005E0005DF8047B704780B584B000AF0346FB80A4
:1005F00000237B730023FB730023BB7300F05EFAC0
:100600000023FB7310E0FB88DBB2A821184603F03F
:1006100087FB03467B737B7BDBB2512B01D101232C
:10062000BB73FB7B0133FB73FB7B022B02D8BB7BD1
:10063000002BE8D07B7BDBB29BB218461037BD465F
:1006400080BD80B582B000AF0346FB80FB881846B2
:1006500000F044FAFB88184600F032F900BF083772
:10066000BD4680BD80B584B000AF0346FB8000234B
:10067000FB73FB88DBB20221184603F051FB0346F3
:10068000FB73FB7BDBB203F00F03DBB2FB73FB7B83
:10069000DBB2052B01D90023FB73FB7BDAB2054BE0
:1006A0005A70044B00229A70FB7BDBB2184610375D
:1006B000BD4680BDEC01002080B586B000AF03468A
:1006C000B9607A60FB810023FB740023FB75002373
:1006D000BB7500237B7500233B756D4B9A786C4B83
:1006E0005B789A4280F0CF80694B9B78092B71D858
:1006F00001A252F823F000BF2107000833070008C9
:100700004507000857070008690700087B0700082D
:100710008D0700089F070008B1070008C3070008FD
:100720000423FB750323BB7506237B7505233B75EB
:1007300051E00A23FB750923BB750C237B750B2342
:100740003B7548E01023FB750F23BB7512237B75A7
:1007500011233B753FE01623FB751523BB7518234A
:100760007B7517233B7536E01C23FB751B23BB757C
:100770001E237B751D233B752DE02223FB75212352
:10078000BB7524237B7523233B7524E02823FB754D
:100790002723BB752A237B7529233B751BE02E235A
:1007A000FB752D23BB7530237B752F233B7512E022
:1007B0003423FB753323BB7536237B7535233B759B
:1007C00009E03A23FB753923BB753C237B753B233A
:1007D0003B7500E000BFFB89DBB2FA7D114618468D
:1007E00003F09EFA0346FB74FB7CDBB29AB2294B02
:1007F0001A80FB89DBB2BA7D1146184603F090FAE5
:100800000346FB74FB7CDBB21B0203F470631AB279
:10081000204B1B881BB213431BB29AB21D4B1A808C
:100820001C4B1A88BB681A80FB89DBB27A7D1146A3
:10083000184603F075FA0346FB74FB7CDBB29AB2F0
:10084000144B1A80FB89DBB23A7D1146184603F03F
:1008500067FA0346FB74FB7CDBB21B0203F4706394
:100860001AB20C4B1B881BB213431BB29AB2094B32
:100870001A80084B1A887B681A80054B9B780133D5
:10088000DAB2034B9A7000BF1837BD4680BD00BF77
:10089000EC010020F001002080B584B000AF0346D9
:1008A000FB800023FB730123FB73FB88DBB2FA7B25
:1008B000A421184603F01AFA00BF1037BD4680BDC8
:1008C00080B584B000AF0346FB800023FB73002398
:1008D000FB73FB88DBB2FA7BA421184603F006FA0F
:1008E00000BF1037BD4680BD80B483B000AF034663
:1008F000FB80002318460C37BD465DF8047B70472B
:1009000080B483B000AF0346FB8000BF0C37BD4608
:100910005DF8047B704780B584B000AF0346396052
:10092000FB800023FB73FB88DBB20121184603F038
:10093000F7F90346FB73FB7BDBB21A463B681A6090
:1009400000BF1037BD4680BD80B586B000AFB9602E
:100950007A603B600346FB8100233B750023FB75F7
:100960000023BB7500237B754D4B5B781A46BB6833
:10097000934280F09080BB68092B5DD801A252F8A9
:1009800023F000BFAD090008BB090008C909000831
:10099000D7090008E5090008F3090008010A000862
:1009A0000F0A00081D0A00082B0A00080323FB7524
:1009B0000723BB7508237B753FE00923FB750D23D7
:1009C000BB750E237B7538E00F23FB751323BB75B6
:1009D00014237B7531E01523FB751923BB751A238E
:1009E0007B752AE01B23FB751F23BB7520237B75BA
:1009F00023E02123FB752523BB7526237B751CE093
:100A00002723FB752B23BB752C237B7515E02D232A
:100A1000FB753123BB7532237B750EE03323FB75E9
:100A20003723BB7538237B7507E03923FB753D23DE
:100A3000BB753E237B7500E000BFFB89DBB2FA7D0E
:100A40001146184603F06CF903463B753B7DDBB25B
:100A50009B1103F003023B6A1A60FB89DBB2BA7D8B
:100A60001146184603F05CF903463B753B7DDBB24B
:100A70001A467B681A60FB89DBB27A7D11461846FC
:100A800003F04EF903463B753B7DDBB21B1103F0CF
:100A900004023B681A6000BF1837BD4680BD00BF26
:100AA000EC01002080B400AF034B1B781846BD4614
:100AB0005DF8047B704700BFEC01002080B500AFFB
:100AC000FFF7F0FF0346002B04D103F005F9024BBA
:100AD00001221A7000BF80BDEC01002080B485B0F7
:100AE00000AF0346FB800023FB60FB681846143709
:100AF000BD465DF8047B7047B0B588B000AF09F023
:100B000071FA00F037F800F0A5F800F089FB00F06A
:100B1000D1F800F035FB00F021F900F05FF900F0AA
:100B20009DF900F01DFA00F047FA00F065FA00F0B8
:100B3000A1FA00F0CFFA03F065FC00F0FBFA00F038
:100B4000DBF80A4B3C1D1D460FCD0FC495E807008E
:100B500084E807003B1D0021184615F0F2F9034612
:100B6000034A136015F0CAF9FEE700BF4CB3010851
:100B7000E006002080B594B000AF07F120033022DA
:100B80000021184619F0F0FE07F10C0300221A604C
:100B90005A609A60DA601A6109F0E2F82B4B1B6C1C
:100BA0002A4A43F080531364284B1B6C03F0805394
:100BB000BB60BB68264B1B68254A43F44043136067
:100BC000234B1B6803F440437B607B6801233B623B
:100BD0004FF480337B620223BB634FF48003FB63DB
:100BE00019233B644FF4C8737B640223BB6409235D
:100BF000FB6407F12003184607F076F90346002B43
:100C000001D000F011FE09F0BBF80346002B01D023
:100C100000F00AFE0F23FB6002233B6100237B618F
:100C20004FF4A053BB614FF48053FB6107F10C03F9
:100C30000621184607F0FCFB0346002B01D000F00C
:100C4000F3FD00BF5037BD4680BD00BF00380240F5
:100C50000070004080B5A2B000AF3B1D842200218F
:100C6000184619F081FE124B7B604FF4C073BB61D4
:100C700005233B620223FB6103237B620123FB62AA
:100C80004FF400333B634FF00063C7F8803000231C
:100C9000C7F884303B1D184607F0E2FD0346002BE1
:100CA00001D000F0C1FD00BF8837BD4680BD00BF48
:100CB0000800A00080B500AF0D4B0E4A1A600C4B27
:100CC00000221A710A4B00225A71094B00225A6104
:100CD000074B00229A61064B01221A6204480AF06F
:100CE00001F80346002B01D000F09EFD00BF80BD3F
:100CF000F40100200030024080B500AF154B164AC9
:100D00001A60144B00225A60124B00229A60114B59
:100D10000022DA600F4B00229A620E4B0022DA6248
:100D20000C4B00221A630B4B00225A63094819F03E
:100D300013FA0346002B01D000F076FD012105488F
:100D400019F078FC0346002B01D000F06DFD00BFC8
:100D500080BD00BF1802002000B0024080B500AF87
:100D60001B4B1C4A1A601A4B1B4A5A60184B002234
:100D70009A60174B0122DA60154B00221A61144B5E
:100D800000225A61124B00229A61114B0022DA6153
:100D90000F4B00221A620E4809F076F90346002B29
:100DA00001D000F041FD0021094809F003FF03468E
:100DB000002B01D000F038FD0021054809F045FF67
:100DC0000346002B01D000F02FFD00BF80BD00BF07
:100DD0005802002000540040FFEAC00080B500AF78
:100DE0001B4B1C4A1A601A4B1B4A5A60184B0022B4
:100DF0009A60174B0122DA60154B00221A61144BDE
:100E000000225A61124B00229A61114B0022DA61D2
:100E10000F4B00221A620E4809F036F90346002BE8
:100E200001D000F001FD0021094809F0C3FE03468E
:100E3000002B01D000F0F8FC0021054809F005FF67
:100E40000346002B01D000F0EFFC00BF80BD00BFC7
:100E5000AC020020005C0040FFEAC00080B58EB00C
:100E600000AF3B1D34220021184619F07DFD3A4B9E
:100E70003A4A1A60384B00225A60374B00229A6077
:100E8000354B0022DA60344B00221A61324B2822A3
:100E90005A61314B09229A612F4B3522DA612E4B70
:100EA0000B221A622C4B40F215225A622A4B40F256
:100EB0001B129A62284B40F23522DA62264B40F22E
:100EC0001D121A63244B002283F83420224B002287
:100ED00083F83520204B002283F836201E480AF084
:100EE0007FF90346002B01D000F09EFC00237B60BD
:100EF0004FF4F073BB600023FB604FF488733B61D9
:100F000000237B61FF23BB610023FB614FF4C063BF
:100F10003B6207237B624FF04043BB624FF4F073A8
:100F2000FB624FF488733B63002387F8343000235F
:100F300087F83530002387F836303B1D00221946EC
:100F400005480AF0DFFA0346002B01D000F06CFCE4
:100F500000BF3837BD4680BD000300200068014057
:100F600080B500AF124B134A1A60114B01225A6030
:100F70000F4B04229A600E4B1022DA600C4B1822A1
:100F80001A610B4B4FF4A0625A61094B00229A611F
:100F9000074B0022DA61064B00221A6204480AF06D
:100FA000BFFC0346002B01D000F03EFC00BF80BD1B
:100FB000A8030020001000A080B400AF0C4B0D4A25
:100FC0001A600B4B00225A60094B00229A60084BB2
:100FD0000022DA60064B00221A61054B00225A619A
:100FE000034B00229A6100BFBD465DF8047B704749
:100FF000F4030020002C014080B500AF1B4B1C4ABD
:101000001A601A4B4FF482725A60184B00229A6091
:10101000164B4FF44072DA60144B00221A61134BE6
:1010200000225A61114B4FF400729A610F4B00225B
:10103000DA610E4B00221A620C4B00225A620B4BF3
:1010400000229A62094B0722DA62084B00221A63D7
:10105000064B08225A6305480CF0C7FD0346002BD7
:1010600001D000F0E1FB00BF80BD00BF38050020CB
:101070000038004080B500AF144B154A1A60134B7E
:101080004FF4E1325A60114B00229A600F4B00225C
:10109000DA600E4B00221A610C4B0C225A610B4B8A
:1010A00000229A61094B0022DA61084B00221A6281
:1010B000064B00225A6205480DF022F90346002B28
:1010C00001D000F0B1FB00BF80BD00BF9C05002037
:1010D0000010014080B500AF144B154A1A60134B45
:1010E0004FF4E1325A60114B00229A600F4B0022FC
:1010F000DA600E4B00221A610C4B0C225A610B4B2A
:1011000000229A61094B0022DA61084B00221A6220
:10111000064B00225A6205480DF0F2F80346002BF8
:1011200001D000F081FB00BF80BD00BF240600207D
:101130000014014080B582B000AF104B1B6B0F4A0A
:1011400043F4800313630D4B1B6B03F480037B603C
:101150007B68002205213B2008F01AFF3B2008F0A5
:1011600033FF00220521452008F012FF452008F03A
:101170002BFF00BF0837BD4680BD00BF00380240CE
:1011800080B588B000AF3B1D00221A605A609A609B
:10119000DA601A615A619A611F4B204A1A601E4B2D
:1011A00000225A601C4B00229A601B4B0422DA601A
:1011B000194B10221A61184B40225A61164B4FF4FA
:1011C00080729A61144B0022DA61134B4FF4006273
:1011D0001A62114B4FF480525A620F4B00229A62EE
:1011E00002237B600723BB600423FB6007233B6172
:1011F00003237B610223BB610223FB613B1D194674
:10120000054809F05BFF0346002B01D000F00CFB02
:1012100000BF2037BD4680BDAC060020400100A0C5
:1012200080B590B000AF07F12C0300221A605A601D
:101230009A60DA601A61AF4B1B6BAE4A43F0100341
:101240001363AC4B1B6B03F01003BB62BB6AA94B6F
:101250001B6BA84A43F040031363A64B1B6B03F0C0
:1012600040037B627B6AA34B1B6BA24A43F00203E1
:101270001363A04B1B6B03F002033B623B6A9D4B65
:101280001B6B9C4A43F0080313639A4B1B6B03F0E0
:101290000803FB61FB69974B1B6B964A43F0040301
:1012A0001363944B1B6B03F00403BB61BB69914B4D
:1012B0001B6B904A43F0010313638E4B1B6B03F0CF
:1012C00001037B617B698B4B1B6B8A4A43F4007380
:1012D0001363884B1B6B03F400733B613B69854BC5
:1012E0001B6B844A43F480731363824B1B6B03F4C0
:1012F0008073FB60FB687F4B1B6B7E4A43F480630B
:1013000013637C4B1B6B03F48063BB60BB68794B3E
:101310001B6B784A43F020031363764B1B6B03F07F
:1013200020037B607B68734B1B6B724A43F0800326
:101330001363704B1B6B03F080033B603B6801221F
:1013400020216D4808F04CF900220C216B4808F070
:1013500047F9012208216A4808F042F901224FF4B6
:101360008051664808F03CF900224FF4005165486E
:1013700008F036F90022C821634808F031F9082343
:10138000FB6200233B6300237B6307F12C031946B8
:101390005E4807F055FE4FF4D043FB6202233B63E7
:1013A00000237B630323BB630B23FB6307F12C0345
:1013B0001946554807F044FE1023FB6202233B63A5
:1013C00000237B630023BB630223FB6307F12C0331
:1013D00019464F4807F034FE8023FB6202233B632B
:1013E00000237B630023BB630823FB6307F12C030B
:1013F0001946414807F024FE4FF40043FB620223E4
:101400003B6300237B630023BB630123FB6307F182
:101410002C0319463F4807F013FE6023FB620223AA
:101420003B6300237B630023BB630D23FB6307F156
:101430002C031946354807F003FE4FF48053FB6236
:1014400000233B6300237B6307F12C0319463248DA
:1014500007F0F6FD4023FB624FF490133B6300233B
:101460007B6307F12C031946234807F0E9FD4FF48D
:10147000E053FB6202233B6300237B630323BB63D4
:101480000A23FB6307F12C031946224807F0D8FD15
:10149000F023FB6202233B6300237B630023BB63D7
:1014A0000A23FB6307F12C031946144807F0C8FD13
:1014B0004FF48063FB6202233B6300237B630023C2
:1014C000BB630A23FB6307F12C0319460E4807F0A0
:1014D000B7FD2023FB6201233B6300237B630023D2
:1014E000BB6307F12C031946034807F0A9FD082345
:1014F00014E000BF00380240000C0240002002400F
:1015000000280240001C0240001802400010024067
:10151000000402400000024000240240FB6202235B
:101520003B6300237B630023BB630D23FB6307F155
:101530002C0319468E4807F083FD41F20C03FB6231
:1015400001233B6300237B630023BB6307F12C0370
:101550001946884807F074FD4FF40053FB620023DE
:101560003B6300237B6307F12C031946824807F095
:1015700067FD0823FB6201233B6300237B63002399
:10158000BB6307F12C0319467C4807F059FD4FF463
:101590000073FB6202233B6300237B630023BB6376
:1015A0000D23FB6307F12C031946754807F048FD2E
:1015B0001023FB6200233B6300237B6307F12C03B2
:1015C00019466B4807F03CFD48F20403FB62002318
:1015D0003B6300237B6307F12C031946694807F03E
:1015E0002FFD4FF40053FB6201233B6300237B6319
:1015F0000023BB6307F12C031946624807F020FD66
:101600004FF4BC43FB6202233B6300237B63002354
:10161000BB630D23FB6307F12C031946594807F000
:101620000FFD0123FB6202233B6300237B63002346
:10163000BB630223FB6307F12C0319464D4807F0F7
:10164000FFFC4FF48073FB6202233B6300237B6348
:101650000023BB630123FB6307F12C0319464A48AF
:1016600007F0EEFC4FF40053FB624FF490133B6322
:1016700000237B6307F12C0319463E4807F0E0FC8A
:10168000C823FB6201233B6300237B630023BB630E
:1016900007F12C0319463A4807F0D2FC4FF4F863DF
:1016A000FB6203233B6300237B6307F12C03194692
:1016B000364807F0C5FC3223FB6202233B6300235C
:1016C0007B630323BB630B23FB6307F12C031946E6
:1016D000294807F0B5FC0423FB6200233B63002389
:1016E0007B6307F12C031946254807F0A9FC8623E4
:1016F000FB6202233B6300237B630323BB630B2357
:10170000FB6307F12C0319461F4807F099FC0123DE
:10171000FB6203233B6300237B6307F12C03194621
:10172000194807F08DFC5023FB6202233B63002322
:101730007B630023BB630D23FB6307F12C03194676
:10174000114807F07DFC4023FB6202233B6300232A
:101750007B630023BB630923FB6307F12C0319465A
:10176000084807F06DFC00BF4037BD4680BD00BF94
:10177000000C024000200240000802400028024005
:1017800000180240001C0240000002400014024009
:1017900090B583B000AF786002F0ECFA01F094FCF1
:1017A00000F0F8FF01F010F803469CB201F020F8B9
:1017B00003469BB21946204601F0BCFE00F0EAFE4B
:1017C00002F016FB02F038FE0B4B1B78002B0CD1FD
:1017D0000A4B1B78012B05D1094815F05DFA02F080
:1017E00007FB02E0044B1B78012B01F0D7FC6420BF
:1017F00014F0F3FBE8E700BFE4060020E506002054
:101800001015002080B582B000AF78607B681B683F
:10181000044A934201D108F0F3FB00BF0837BD46EC
:1018200080BD00BF0010004080B400AF72B600BFA2
:10183000FEE780B400AF00BFBD465DF8047B704793
:1018400080B483B000AF7860396000BF0C37BD460C
:101850005DF8047B704780B400AF00BFBD465DF803
:10186000047B704780B485B000AFF860B9607A60DF
:10187000FB68074A1A60BB68064A1A607B688022C8
:101880001A6000BF1437BD465DF8047B704700BF87
:10189000E8060020680B002080B400AFFEE780B4AB
:1018A00000AFFEE780B400AFFEE780B400AFFEE714
:1018B00080B400AFFEE780B400AF00BFBD465DF866
:1018C000047B704780B500AF02480BF0E3F800BF1F
:1018D00080BD00BFF403002080B500AF02480CF0CB
:1018E00009FB00BF80BD00BFCC0D002080B500AF5C
:1018F000024807F0BFFF00BF80BD00BF7804002092
:1019000080B500AF024807F0B5FF00BF80BD00BF43
:10191000D804002080B500AF024803F0F9FC00BFF6
:1019200080BD00BFF019002080B500AF024809F06B
:1019300027FD00BF80BD00BF0003002080B500AFC1
:10194000024818F067FD00BF80BD00BF18020020EC
:1019500080B500AF034B1B6B184607F08BFF00BF31
:1019600080BD00BFAC06002080B582B000AF114B37
:101970001B6C104A43F0805313640E4B1B6C03F036
:1019800080537B607B680B4B5B6C0A4A43F480435B
:101990005364084B5B6C03F480433B603B6800225C
:1019A0000F216FF0010008F0F3FA00BF0837BD46C1
:1019B00080BD00BF0038024080B485B000AF7860C1
:1019C0007B681B680A4A93420BD10A4B1B6B094A7E
:1019D00043F480531363074B1B6B03F48053FB608A
:1019E000FB6800BF1437BD465DF8047B704700BF3D
:1019F000003002400038024080B584B000AF78600B
:101A00007B681B680D4A934213D10D4B1B6B0C4A2C
:101A100043F4000313630A4B1B6B03F40003FB60E6
:101A2000FB68002205215A2008F0B2FA5A2008F07B
:101A3000CBFA00BF1037BD4680BD00BF00B00240EA
:101A40000038024080B5ACB000AF786007F19C036D
:101A500000221A605A609A60DA601A6107F118036E
:101A600084220021184618F07FFF7B681B68444AD7
:101A700093423DD14FF48043BB610023FB6707F1E4
:101A80001803184606F0ECFE0346002B01D0FFF7C2
:101A9000CBFE3C4B1B6B3B4A43F002031363394BB9
:101AA0001B6B03F002037B617B694FF44073C7F843
:101AB0009C301223C7F8A0300123C7F8A4300023BC
:101AC000C7F8A8300423C7F8AC3007F19C031946C7
:101AD0002D4807F0B5FA2B4B1B6C2A4A43F4001330
:101AE0001364284B1B6C03F400133B613B6942E019
:101AF0007B681B68254A93423DD14FF48033BB611C
:101B00000023C7F8843007F11803184606F0A8FE32
:101B10000346002B01D0FFF787FE1A4B1B6B194AB7
:101B200043F080031363174B1B6B03F08003FB60D0
:101B3000FB684FF4C073C7F89C301223C7F8A0307D
:101B40000123C7F8A4300323C7F8A8300423C7F83B
:101B5000AC3007F19C0319460D4807F071FA094BA8
:101B60001B6C084A43F400031364064B1B6C03F41C
:101B70000003BB60BB6800BFB037BD4680BD00BF7F
:101B8000005400400038024000040240005C004065
:101B9000001C024080B582B000AF78607B681B6893
:101BA000154A934210D1154B1B6C144A23F40013B1
:101BB00013644FF48071124807F0EEFB4FF400718C
:101BC0000F4807F0E9FB13E07B681B680D4A93425E
:101BD0000ED10A4B1B6C094A23F4000313648021C5
:101BE000094807F0D9FB4FF48071074807F0D4FB90
:101BF00000BF0837BD4680BD005400400038024099
:101C000000040240005C0040001C024080B58EB021
:101C100000AF786007F1240300221A605A609A60CE
:101C2000DA601A617B681B68554A934240F0A380D2
:101C3000544B5B6C534A43F080635364514B5B6C71
:101C400003F080633B623B6A4E4B1B6B4D4A43F093
:101C5000100313634B4B1B6B03F01003FB61FB6919
:101C6000484B1B6B474A43F400731363454B1B6B94
:101C700003F40073BB61BB69424B1B6B414A43F4E5
:101C8000806313633F4B1B6B03F480637B617B6951
:101C90003C4B1B6B3B4A43F040031363394B1B6BBC
:101CA00003F040033B613B69364B1B6B354A43F401
:101CB00080731363334B1B6B03F48073FB60FB680F
:101CC00010237B620223BB620023FB6203233B637E
:101CD0000E237B6307F1240319462B4807F0B0F964
:101CE0004EF6FF737B620223BB620023FB62032379
:101CF0003B630E237B6307F124031946234807F057
:101D00009FF9F7237B620223BB620023FB6203235C
:101D10003B630E237B6307F1240319461C4807F03D
:101D20008FF94FF480537B620223BB620023FB6276
:101D300003233B6309237B6307F1240319461548FA
:101D400007F07EF94FF446437B620223BB62002317
:101D5000FB6203233B630E237B6307F124031946D5
:101D60000D4807F06DF900220521582008F010F900
:101D7000582008F029F900BF3837BD4680BD00BFA4
:101D80000068014000380240001002400024024078
:101D900000280240001802400020024080B58CB0AC
:101DA00000AF786007F11C0300221A605A609A6045
:101DB000DA601A617B681B683B4A934270D13B4BE7
:101DC0009B6B3A4A43F002039363384B9B6B03F0DF
:101DD0000203BB61BB69354B1B6B344A43F01003F4
:101DE0001363324B1B6B03F010037B617B692F4B3A
:101DF0001B6B2E4A43F0020313632C4B1B6B03F047
:101E000002033B613B69294B1B6B284A43F00803E3
:101E10001363264B1B6B03F00803FB60FB68042372
:101E2000FB6102233B6200237B620323BB62092325
:101E3000FB6207F11C0319461D4807F001F9402316
:101E4000FB6102233B6200237B620323BB620A2304
:101E5000FB6207F11C031946164807F0F1F804234A
:101E6000FB6102233B6200237B620323BB620923E5
:101E7000FB6207F11C0319460E4807F0E1F84FF426
:101E80006053FB6102233B6200237B620323BB623E
:101E90000923FB6207F11C031946074807F0D0F835
:101EA00000BF3037BD4680BD001000A000380240A2
:101EB0000010024000040240000C024080B58AB0CD
:101EC00000AF786007F1140300221A605A609A602C
:101ED000DA601A617B681B68664A934240F0C580ED
:101EE000654B5B6C644A43F400635364624B5B6C08
:101EF00003F400633B613B695F4B1B6B5E4A43F03D
:101F0000040313635C4B1B6B03F00403FB60FB686F
:101F1000594B1B6B584A43F008031363564B1B6B1A
:101F200003F00803BB60BB684FF4F8537B610223E6
:101F3000BB610023FB6103233B620C237B6207F13F
:101F4000140319464D4807F07BF804237B610223F4
:101F5000BB610023FB6103233B620C237B6207F11F
:101F600014031946464807F06BF8464B464A1A6078
:101F7000444B4FF000625A60424B00229A60414B42
:101F80000022DA603F4B4FF480621A613D4B4FF400
:101F900080525A613B4B4FF480429A61394B202268
:101FA000DA61384B4FF440321A62364B04225A62DF
:101FB000344B03229A62334B4FF40002DA62314B06
:101FC0004FF400121A632F4807F024FB0346002B3E
:101FD00001D0FFF729FC7B682A4A1A64294A7B68EA
:101FE00093632A4B2A4A1A60284B4FF000625A60CA
:101FF000264B40229A60254B0022DA60234B4FF497
:1020000080621A61214B4FF480525A611F4B4FF48A
:1020100080429A611D4B2022DA611C4B4FF4403202
:102020001A621A4B04225A62184B03229A62174B07
:102030004FF40002DA62154B4FF400121A63134892
:1020400007F0E8FA0346002B01D0FFF7EDFB7B68B1
:102050000E4ADA630D4A7B68936300220521312022
:1020600007F096FF312007F0AFFF00BF2837BD46CD
:1020700080BD00BF002C0140003802400008024033
:10208000000C02407804002058640240D80400206C
:10209000A064024080B58AB000AF786007F11403F5
:1020A00000221A605A609A60DA601A617B681B68C5
:1020B000254A934244D1254B1B6C244A43F4804368
:1020C0001364224B1B6C03F480433B613B691F4B41
:1020D0001B6B1E4A43F4807313631C4B1B6B03F48E
:1020E0008073FB60FB68194B1B6B184A43F00203BB
:1020F0001363164B1B6B03F00203BB60BB68022328
:102100007B610223BB610023FB6100233B6205234B
:102110007B6207F1140319460D4806F091FF4FF456
:1021200040437B610223BB610023FB6100233B62D0
:1021300005237B6207F114031946064806F080FF69
:1021400000BF2837BD4680BD00380040003802403F
:10215000002002400004024080B5AEB000AF7860BD
:1021600007F1A40300221A605A609A60DA601A61CB
:1021700007F1200384220021184618F0F5FB7B6844
:102180001B68534A93425DD140233B6200237B6628
:1021900007F12003184606F063FB0346002B01D02D
:1021A000FFF742FB4B4B5B6C4A4A43F0100353640E
:1021B000484B5B6C03F01003FB61FB69454B1B6BE9
:1021C000444A43F002031363424B1B6B03F00203C8
:1021D000BB61BB693F4B1B6B3E4A43F0010313637A
:1021E0003C4B1B6B03F001037B617B698023C7F8C9
:1021F000A4300223C7F8A8300023C7F8AC3000236E
:10220000C7F8B0300723C7F8B43007F1A403194664
:10221000314806F015FF4FF40073C7F8A4300223CD
:10222000C7F8A8300023C7F8AC300023C7F8B03097
:102230000723C7F8B43007F1A4031946274806F06E
:10224000FFFE40E07B681B68254A93423BD14FF478
:1022500000633B620023BB6707F12003184606F0CA
:10226000FFFA0346002B01D0FFF7DEFA194B5B6C37
:10227000184A43F020035364164B5B6C03F02003B1
:102280003B613B69134B1B6B124A43F0040313631E
:10229000104B1B6B03F00403FB60FB68C023C7F803
:1022A000A4300223C7F8A8300023C7F8AC300323BA
:1022B000C7F8B0300823C7F8B43007F1A4031946B3
:1022C000084806F0BDFE00BFB837BD4680BD00BF60
:1022D00000100140003802400004024000000240AB
:1022E000001401400008024080B586B000AF3B1DDD
:1022F00000221A605A609A60DA601A61584B1B68B3
:10230000002B40F0A880564B01221A60554B9B6B66
:10231000544A43F001039363524B9B6B03F0010358
:102320003B603B684FF683737B600223BB600023F6
:10233000FB6003233B610C237B613B1D19464A482C
:1023400006F07EFE48F233137B600223BB6000235D
:10235000FB6003233B610C237B613B1D1946434813
:1023600006F06EFE4CF203737B600223BB60002319
:10237000FB6003233B610C237B613B1D19463C48FA
:1023800006F05EFE4FF63F037B600223BB60002336
:10239000FB6003233B610C237B613B1D19463548E1
:1023A00006F04EFE28237B600223BB600023FB6007
:1023B00003233B610C237B613B1D19462E4806F02D
:1023C0003FFE08237B600223BB600023FB600323E6
:1023D0003B610C237B613B1D1946284806F030FE0B
:1023E000274B284A1A60264B00225A60244B802231
:1023F0009A60234B4FF40072DA60214B4FF48062F5
:102400001A611F4B4FF480525A611D4B4FF48042AA
:102410009A611B4B0022DA61194B4FF400321A62A9
:10242000174B00225A62164B03229A62144B002269
:10243000DA62134B00221A63114807F0EBF80346E7
:10244000002B01D0FFF7F0F90F4B0D4A1A630C4B2C
:102450000D4A9A6300E000BF1837BD4680BD00BF3B
:10246000680D0020003802400010024000180240B1
:10247000000C024000140240001C02400008024010
:102480006C0D002010640240AC06002080B582B0C4
:1024900000AF7860FFF728FF00BF0837BD4680BD5A
:1024A00080B58EB000AF78600023FB620023BB6272
:1024B000334B1B6C324A43F010031364304B1B6CDC
:1024C00003F01003FB60FB6807F1100207F114032F
:1024D0001146184606F092F93B6AFB62FB6A002B34
:1024E00003D106F063F9786304E006F05FF9034670
:1024F0005B007B637B6B234AA2FB03239B0C013BAA
:10250000BB62214B214A1A601F4B40F2E732DA606E
:102510001D4ABB6A53601C4B00221A611A4B0022F1
:102520009A60194B00229A6117480BF009FC034688
:1025300087F8333097F83330002B1BD112480BF05B
:1025400061FC034687F8333097F83330002B11D104
:10255000362007F039FD7B680F2B08D800227968F8
:10256000362007F015FD0A4A7B68136002E001235C
:1025700087F8333097F8333018463837BD4680BD7A
:102580000038024083DE1B43CC0D002000100040C9
:10259000B400002080B500AF4FF04041002000F0B3
:1025A0003BF9002000F06AF96B4800F0B9F96B487C
:1025B00000F0D0F9694800F099F94FF0FF3000F0D1
:1025C0007DF90123664A0521002000F02FFA00F072
:1025D000FBF803469BB21A461E21002000F0EEFADB
:1025E00000F0F2F803469BB21A463C21002000F0AE
:1025F000E5FA00F0E9F803469BB21A465A2100209A
:1026000000F0DCFA00F0E0F803469BB21A467821AD
:10261000002000F0D3FA00F0D7F803469BB21A4628
:102620009621002000F0CAFA00F0CEF803469BB2D3
:102630001A46B421002000F0C1FA00F0C5F80346A4
:102640009BB21A46D221002000F0B8FA00F0D0F870
:1026500003469BB21A461E21002000F00DFB00F03D
:10266000C7F803469BB21A461E211E2000F004FB49
:1026700000F0BEF803469BB21A461E2140F2DF105E
:1026800000F0FAFA0323374A2421072000F0CEF99C
:102690000323354A4221072000F0C8F90323334AB7
:1026A0006021072000F0C2F90323314A7E21072070
:1026B00000F0BCF903232F4A9C21072000F0B6F953
:1026C00003232D4ABA21072000F0B0F92B4800F06F
:1026D0000DF92A4800F0F2F83D23A022D321002072
:1026E00000F074FB6FF07F0000F0E8F80323244A49
:1026F000E821322000F09AF9224800F0F7F821484A
:1027000000F0DCF83D23A022D321A02000F05EFBE6
:102710006FF07F0000F0D2F803231B4AE821D2209B
:1027200000F084F9194800F0E1F8184800F0C6F804
:102730003D23A022D3214FF4A07000F047FB6FF09F
:102740007F0000F0BBF80323114AE8214FF4B97071
:1027500000F06CF900BF80BD28000020404040FF21
:1027600068B3010878B301087CB3010880B301089D
:1027700084B3010888B301088CB30108FF8080FF8F
:1027800090B30108D3D3D3FF98B301082A2AA5FF39
:10279000A0B3010880B500AF01224FF48051074873
:1027A00006F01EFF01220821054806F019FF054822
:1027B00000F0B6F80023184680BD00BF002002409C
:1027C000002802402800002080B400AF064B1B68A0
:1027D000064A342101FB03F3134460331B68184697
:1027E000BD465DF8047B7047180E002000030020F2
:1027F00080B400AF064B1B68064A342101FB03F38B
:10280000134464331B681846BD465DF8047B70476B
:10281000180E00200003002080B582B000AF0346F0
:102820003960FB80FB883968184600F037F8FA8871
:10283000104913465B0013449B000B4404334FF0D4
:10284000FF321A60FA880B4913465B0013449B0061
:102850000B440833084A1A60FA88064913465B009D
:1028600013449B000B444FF07F421A6000BF0837AF
:10287000BD4680BD1C0E00202800002080B483B01F
:1028800000AF7860044A7B68136000BF0C37BD4618
:102890005DF8047B704700BF180E002080B582B041
:1028A00000AF786039607A683968034808F068FEDC
:1028B00000BF0837BD4680BD0003002080B483B050
:1028C00000AF7860074B1A68074913465B00134452
:1028D0009B000B447A681A6000BF0C37BD465DF858
:1028E000047B7047180E00201C0E002080B483B0BB
:1028F00000AF7860084B1A68084913465B00134420
:102900009B000B4404337A681A6000BF0C37BD4645
:102910005DF8047B704700BF180E00201C0E0020DD
:1029200080B483B000AF7860084B1A68084913463A
:102930005B0013449B000B4408337A681A6000BFA5
:102940000C37BD465DF8047B704700BF180E0020B1
:102950001C0E0020F0B585B002AF78600F4B1C68EC
:102960000E4B1B680E4A342101FB03F313445C3306
:102970001B681E46FFF728FF0546FFF739FF024692
:102980007B6801930023009313462A463146204674
:1029900000F04EFB00BF0C37BD46F0BD180E002006
:1029A0000003002090B583B000AF0346FB800B46C8
:1029B000BB801346FB701B4B1A681B4913465B0018
:1029C00013449B000B4408331B681968FB78A3F180
:1029D0002000144B1A68144C13465B0013449B00F0
:1029E000234408331B68DB8803FB00F00D4B1A6897
:1029F0000D4C13465B0013449B00234408331B68B3
:102A00009B880733002B00DA0733DB1000FB03F34E
:102A1000CA18B988FB88184600F052FA00BF0C3774
:102A2000BD4690BD180E00201C0E0020B0B588B029
:102A300000AFBA601A460346FB810B46BB811346C2
:102A4000FB710123FB830023BB830023BB610023B5
:102A50003B61BB687B6102E0BB690133BB617B69A1
:102A60005A1C7A611B78002BF6D1FFF7ADFE0146A8
:102A7000504B1A68504813465B0013449B000344B4
:102A800008331B689B88B1FBF3F33B61FB79032B95
:102A90001CD0032B33DC012B02D0022B19D02EE0EB
:102AA0003A69BB69D11A434B1A68434813465B0025
:102AB00013449B00034408331B689B8801FB03F30A
:102AC0005B089AB2FB891344FB831BE0FB89FB8301
:102AD00018E03A69BB69D31A99B2364B1A6836487E
:102AE00013465B0013449B00034408331B689B8818
:102AF00011FB03F39AB2FB89D31AFB8302E0FB8933
:102B0000FB8300BFFB8B002B03D0B7F91E30002BDB
:102B10001DDA0123FB831AE0BB681A78B989FB8BA5
:102B20001846FFF73FFF234B1A68234913465B0003
:102B300013449B000B4408331B689A88FB8B134497
:102B4000FB83BB680133BB60BB8B0133BB83BB68BA
:102B50001B78002B14BF01230023DCB2FFF734FEE7
:102B6000B98B144B1A68144D13465B0013449B0039
:102B70002B4408331B689B8801FB03F3C31A99B2EB
:102B80000C4B1A680C4813465B0013449B0003442B
:102B900008331B689B8899422CBF01230023DBB2BA
:102BA0002340DBB2002BB7D100BF00BF2037BD46AA
:102BB000B0BD00BF180E00201C0E0020B0B586B0BE
:102BC00002AF0346FB800B46BB8013467B8000238D
:102BD000FB60264B1B68264A342101FB03F3134498
:102BE00048331B68022B14D1204B1B68204A342128
:102BF00001FB03F313445C331C68FFF7E5FD024659
:102C0000BB8803FB02F2FB8813445B002344FB6098
:102C100013E0164B1B68164A342101FB03F31344DF
:102C20005C331C68FFF7D0FD0246BB8803FB02F251
:102C3000FB8813449B002344FB600C4B1868F96825
:102C40007C880A4B1A680B4D13465B0013449B00AB
:102C50002B441B680193002300930123224600F0BC
:102C6000E7F900BF1037BD46B0BD00BF180E002009
:102C7000000300201C0E0020F0B587B002AF034611
:102C8000FB800B46BB8013467B800023FB60284BF8
:102C90001B68284A342101FB03F3134448331B68A3
:102CA000022B14D1224B1B68224A342101FB03F36F
:102CB00013445C331C68FFF787FD0246BB8803FBA7
:102CC00002F2FB8813445B002344FB6013E0184BC3
:102CD0001B68184A342101FB03F313445C331C685E
:102CE000FFF772FD0246BB8803FB02F2FB88134428
:102CF0009B002344FB600E4B1C68FD687E88FFF739
:102D000063FD0346591E0A4B1A680B4813465B00C5
:102D100013449B0003441B68019300913346012236
:102D20002946204600F084F900BF1437BD46F0BDA7
:102D3000180E0020000300201C0E0020B0B582B049
:102D400000AF03463A60FB800B46BB801D4B1B68FF
:102D50001D4A342101FB03F3134448331B68022B43
:102D600016D1184B1B68184A342101FB03F3134496
:102D70005C331C68BD88FFF727FD034603FB05F2A3
:102D8000FB8813445B0023443A6892B21A8015E032
:102D90000C4B1B680C4A342101FB03F313445C33D6
:102DA0001C68BD88FFF710FD034603FB05F2FB8896
:102DB00013449B0023441A463B68136000BF083746
:102DC000BD46B0BD180E0020000300202DE9F041E3
:102DD00086B002AF0446084611461A462346FB80D9
:102DE0000346BB800B467B8013463B800023FB6081
:102DF000304B1A68304913465B0013449B000B4468
:102E00001B681846FFF75AFD2A4B1B682B4A3421D2
:102E100001FB03F3134448331B68022B14D1254BE9
:102E20001B68264A342101FB03F313445C331C68FE
:102E3000FFF7CAFC0246BB8803FB02F2FB8813447F
:102E40005B002344FB6013E01A4B1B681B4A3421D0
:102E500001FB03F313445C331C68FFF7B5FC024627
:102E6000BB8803FB02F2FB8813449B002344FB60F6
:102E7000104B1C68FD687E88B7F80080FFF7A4FC43
:102E800002467B88D11A0B4B1A680B4813465B002D
:102E900013449B0003441B68019300914346324650
:102EA0002946204600F0C4F800BF1037BD46BDE8F3
:102EB000F08100BF180E00201C0E0020000300202F
:102EC00080B588B000AF03463A60FB800B46BB80FC
:102ED0000023FB610023BB61534B1A68534913461F
:102EE0005B0013449B000B4408331B68DB887B8228
:102EF0004D4B1A684D4913465B0013449B000B442D
:102F000008331B689B883B823B8A0733002B00DA1F
:102F10000733DB10DBB2DB00DAB23B8ADBB2D31A59
:102F2000FB730023FB6176E03B8A0733002B00DA5A
:102F30000733DB101A46FB6902FB03F33A681344BC
:102F4000BB603B8A0733002B00DA0733DB10012B11
:102F500002D0022B04D00CE0BB681B787B6116E02A
:102F6000BB681B781B02BA680132127813437B617D
:102F70000DE0BB681B781A04BB6801331B781B0289
:102F80001343BA680232127813437B6100BF0023F7
:102F9000BB6136E03A8ABB69D21AFB7B1344013B22
:102FA000012202FA03F31A467B691340002B12D068
:102FB000BB699AB2FB88134498B21B4B1A681B4931
:102FC00013465B0013449B000B441A68BB881946E8
:102FD000FFF7B4FE12E0BB699AB2FB88134498B2C3
:102FE000114B1A68114913465B0013449B000B44B4
:102FF00004331A68BB881946FFF7A0FEBB6901338A
:10300000BB613B8ABA699A42C4D3BB880133BB8097
:10301000FB690133FB617B8AFA699A4284D300BF62
:1030200000BF2037BD4680BD180E00201C0E0020BA
:1030300080B586B002AFF860B9607A603B601E4B25
:103040004FF440325A601D4B1B681D4A342101FB6E
:1030500003F3134448331B68022B03D1164B02229F
:103060009A6002E0144B00229A60134ABB69D36055
:10307000114B144A1A60104817F06EF80346002BE3
:1030800015D1F9680C4817F0D5FA0346002B0ED17C
:10309000BA683B6800937B68F969074817F0A6F89F
:1030A0000346002B03D10A21034817F0CAF800BFDA
:1030B0001037BD4680BD00BF18020020180E00204A
:1030C0000003002000B0024080B500AF40F2036072
:1030D00000F004F80023184680BD000080B584B0DD
:1030E00000AF78600023FB602A4B01221A60294B55
:1030F00010225A60274B01229A60264B0022DA6088
:103100004FF6FF722349244808F00CF8012006F01E
:1031100097FF204B02221A601E4B10225A601D4B53
:1031200001229A601B4B0022DA604FF6FF721949A8
:10313000194807F0F7FF174B03221A60154B1022AE
:103140005A60144B08229A60124B0022DA604FF644
:10315000FF721049104807F0E5FF4FF40873FB6059
:103160000C4B04221A600B4B10225A60094B0122AF
:103170009A60FB68074AD3604FF6FF72054906481C
:1031800007F0D0FF7968044808F001F800BF103755
:10319000BD4680BD340E0020AC06002080B58AB04C
:1031A00000AF00237B6007F1080300221A605A6019
:1031B0009A60DA601A615A611A83254800F0FAF9B8
:1031C000234B1B78002B3ED0214B5B8801339AB2F6
:1031D0001F4B5A801E4B9B8901339AB21C4B9A811C
:1031E0001B4B5B88FB841A4B9B89BB84B98CFB8C83
:1031F000184A184600F034F8174B1A78154B1B780C
:103200009A4209D04FF0FF31134800F09DF86FF05B
:103210007F01104800F098F80E4B1A780E4B1A7088
:103220006FF07F00FFF74AFB0A4B1B781A463B1DE5
:103230000A49184617F0FAFC3A1D0323E82140F228
:103240004510FFF7F3FB00BF2837BD4680BD00BF28
:10325000500E0020300000207C0E0020A8B3010892
:1032600080B483B000AF03463A60FB800B46BB805E
:10327000BB881E2B06D9BB883B2B03D83B68012299
:103280001A705BE0BB883C2B06D9BB88592B03D84E
:103290003B6802221A7051E0BB885A2B06D9BB88C2
:1032A000772B03D83B6803221A7047E0BB88782B42
:1032B00006D9BB88952B03D83B6804221A703DE0E1
:1032C000BB88962B06D9BB88B32B03D83B68052255
:1032D0001A7033E0BB88B42B06D9BB88D12B03D836
:1032E0003B6806221A7029E0BB88D22B09D9FB88DB
:1032F000002B06D0FB889F2B03D83B6807221A704F
:103300001CE0BB88D22B0AD9FB88A02B07D9FB88ED
:10331000B3F5A07F03D23B6808221A700EE0BB8889
:10332000D22B0BD9FB88B3F5A07F07D9FB88B3F567
:10333000F07F03D23B6809221A70FFE700BF0C3709
:10334000BD465DF8047B704780B582B000AF786001
:1033500039603868FFF7B2FA7B681B78012B22D1FD
:10336000FFF732FA03469BB21A461E210020FFF7F0
:1033700025FCFFF729FA03469BB21A463C210020A0
:10338000FFF71CFC1E221E210020FFF775FC1E22E9
:103390001E211E20FFF770FC1E221E214FF4F0702C
:1033A000FFF76AFCC1E07B681B78022B22D1FFF794
:1033B0000BFA03469BB21A463C210020FFF7FEFBA6
:1033C000FFF702FA03469BB21A465A210020FFF784
:1033D000F5FB1E223C210020FFF74EFC1E223C2163
:1033E0001E20FFF749FC1E223C214FF4F070FFF72E
:1033F00043FC9AE07B681B78032B22D1FFF7E4F9AA
:1034000003469BB21A465A210020FFF7D7FBFFF76D
:10341000DBF903469BB21A4678210020FFF7CEFB6A
:103420001E225A210020FFF727FC1E225A211E20AF
:10343000FFF722FC1E225A214FF4F070FFF71CFC0C
:1034400073E07B681B78042B22D1FFF7BDF903469C
:103450009BB21A4678210020FFF7B0FBFFF7B4F9C2
:1034600003469BB21A4696210020FFF7A7FB1E22B7
:1034700078210020FFF700FC1E2278211E20FFF794
:10348000FBFB1E2278214FF4F070FFF7F5FB4CE0B8
:103490007B681B78052B22D1FFF796F903469BB278
:1034A0001A4696210020FFF789FBFFF78DF90346A6
:1034B0009BB21A46B4210020FFF780FB1E22962102
:1034C0000020FFF7D9FB1E2296211E20FFF7D4FB18
:1034D0001E2296214FF4F070FFF7CEFB25E07B68AB
:1034E0001B78062B21D1FFF76FF903469BB21A46D2
:1034F000B4210020FFF762FBFFF766F903469BB299
:103500001A46D2210020FFF759FB1E22B4210020C9
:10351000FFF7B2FB1E22B4211E20FFF7ADFB1E22D7
:10352000B4214FF4F070FFF7A7FB00BF0837BD468A
:1035300080BD000080B584B000AF03460A46FB8022
:103540001346BB800023FB73144AFB881380144A84
:10355000BB881380134B1B6870209847114B5B6826
:10356000702098470346512B11D10F4B0D4A1A601A
:103570000E4B70221A700E4B08221A700A4B1B68F1
:10358000DB680A4A127892B21046984701E003239A
:10359000FB73FB7B18461037BD4680BD480E0020EC
:1035A0004A0E002000000020440E00204D0E002096
:1035B0004C0E002090B597B002AF7860002387F8DA
:1035C0004F3000233B610023FB600023BB60B44B02
:1035D0001B681B69B34A127892B21046984703469B
:1035E0001A467B681A707B681B78002B00F0968166
:1035F0000023BB6485E1AA4B1B685B69A94A12786A
:1036000090B207F12001BA6C52008C1807F1140136
:10361000BA6C52000A4421469847A34B1B78012BF1
:1036200017D1BB6C5B0050333B4433F8302CBB6C80
:103630005B0050333B4423F8182CBB6C5B005033C9
:103640003B4433F83C2CBB6C5B0050333B4423F8C9
:10365000242C954B1B7803F00203002B0ED0BB6C7F
:103660005B0050333B4433F8303CC3F580539AB28F
:10367000BB6C5B0050333B4423F8182C8A4B1B78FF
:1036800003F00403002B0ED0BB6C5B0050333B44B3
:1036900033F83C3CC3F580539AB2BB6C5B005033AB
:1036A0003B4423F8242C804B1B7803F00803002BA9
:1036B00017D0BB6C5B0050333B4433F8302CBB6CF1
:1036C0005B0050333B4423F8242CBB6C5B0050332D
:1036D0003B4433F83C2CBB6C5B0050333B4423F839
:1036E000182CBB6C5B0050333B4433F8183C194634
:1036F0006E4ABB6C52F8233099420DD9BB6C5B000B
:1037000050333B4433F8182C6849BB6C51F82330D4
:103710009BB2D31A9BB20CE0644ABB6C52F82330C4
:103720009AB2BB6C5B0050333B4433F8183CD31A5D
:103730009BB2A7F84630BB6C5B0050333B4433F878
:10374000243C19465A4ABB6C52F8233099420DD991
:10375000BB6C5B0050333B4433F8242C5449BB6CA6
:1037600051F823309BB2D31A9BB20CE0504ABB6C89
:1037700052F823309AB2BB6C5B0050333B4433F8B1
:10378000243CD31A9BB2A7F84430B7F84620B7F8C8
:1037900044301344052B15DDBB6C5B0050333B44B8
:1037A00033F8183C1946414ABB6C42F82310BB6CF5
:1037B0005B0050333B4433F8243C19463C4ABB6C15
:1037C00042F82310374B1B78702B19D1BB6C5B0070
:1037D00050333B4433F8181C7A68BB6C5B001344CD
:1037E0000A465A80BB6C5B0050333B4433F8241CC0
:1037F0007A68BB6C04335B0013440A469A8022E06B
:103800002C4B1B881946294ABB6C52F8233001FB0C
:1038100003F31B0B99B27A68BB6C5B0013440A4636
:103820005A80254B1B881946214ABB6C52F823301D
:1038300001FB03F31B0B99B27A68BB6C04335B008A
:1038400013440A469A80174B1B7898B207F10C0173
:1038500007F1100207F1080300930B46B96CFDF75E
:1038600073F83B69D9B27A68BB6C134416330A46C5
:103870001A70FB68D9B27A68BB6C134420330A46CD
:103880001A70BB68032B35D801A252F823F000BF91
:10389000BD380008CB380008D9380008E7380008E0
:1038A000440E00204D0E00204C0E0020800E002003
:1038B000940E0020480E00204A0E00207A68BB6C4F
:1038C00013441B3301221A7018E07A68BB6C13444E
:1038D0001B3302221A7011E07A68BB6C13441B334D
:1038E00003221A700AE07A68BB6C13441B3300226F
:1038F0001A7003E0012387F84F3000BFBB6C01331F
:10390000BB647B681B781A46BB6C9342FFF473AEB2
:10391000786800F009F8034687F84F3097F84F3081
:1039200018465437BD4690BD80B584B000AF78606E
:103930000023BB600023FB733B4B1B789BB207F15A
:10394000080211461846FCF7E6FFBB68492B5ED01B
:10395000492B60D81C2B3FD81C2B5CD801A252F8F5
:1039600023F000BFDF390008173A0008173A0008B3
:10397000173A0008173A0008173A0008173A0008E3
:10398000173A0008173A0008173A0008173A0008D3
:10399000173A0008173A0008173A0008173A0008C3
:1039A000173A0008E7390008173A0008173A0008E4
:1039B000173A0008EF390008173A0008173A0008CC
:1039C000173A0008F7390008173A0008173A0008B4
:1039D000173A0008FF390008402B14D01BE07B6821
:1039E00000229A621AE07B6801229A6216E07B68E4
:1039F00002229A6212E07B6803229A620EE07B68E0
:103A000004229A620AE07B6805229A6206E07B68DB
:103A100006229A6202E00123FB7300BFFB7B18467B
:103A20001037BD4680BD00BF4D0E002080B58CB064
:103A300000AF78607B68514A93424DD1504B1B6B6D
:103A40004F4A43F0800313634D4B1B6B03F080031D
:103A5000BB61BB698023FB6112233B6200237B6255
:103A60000223BB620423FB6207F11C03194645488D
:103A700005F0E6FA4FF48073FB6107F11C03194669
:103A8000404805F0DDFA3E4B1B6C3D4A43F4000311
:103A900013643B4B1B6C03F400037B617B69384B65
:103AA0001B6A374A43F400031362354B1B6A344ADE
:103AB00023F40003136200220F21482006F068FA65
:103AC000482006F081FA00220F21492006F060FA12
:103AD000492006F079FA4DE0294B1B6B284A43F048
:103AE00002031363264B1B6B03F002033B613B692C
:103AF0004FF48073FB6112233B6200237B6202233D
:103B0000BB620423FB6207F11C0319461E4805F043
:103B100097FA4FF40073FB6107F11C0319461A482A
:103B200005F08EFA164B1B6C154A43F40013136410
:103B3000134B1B6C03F40013FB60FB68104B1B6AF8
:103B40000F4A43F4001313620D4B1B6A0C4A23F413
:103B50000013136200220F211F2006F019FA1F2004
:103B600006F032FA00220F21202006F011FA202060
:103B700006F02AFA00BF3037BD4680BDA80E0020EF
:103B800000380240001C02400004024080B582B0B0
:103B900000AF7860786806F065FD0346002B25D1FC
:103BA0007B68144A934203D17B68134A1A6002E08F
:103BB0007B68124A1A607B68114A5A607B6800224F
:103BC0009A607B680122DA607B6800221A617B6858
:103BD00000225A617B680022DA617B6800221A6247
:103BE0007868FFF723FF786806F04EFA00BF0837C1
:103BF000BD4680BDA80E0020005C0040005400407F
:103C00003227914080B58AB004AFF860084611466B
:103C10001A460346FB720B463B811346FB8000238A
:103C2000FB75FB7A99B2F8883A894FF47A7302935C
:103C3000BB8C01933B6A00930346F86806F0F8FBDF
:103C40000346FB75FB7D002B04D0FB7A1946F86810
:103C500000F032F8FB7D18461837BD4680BD80B5B0
:103C60008AB004AFF860084611461A460346FB7254
:103C70000B463B811346FB800023FB75FB7A99B210
:103C8000F8883A894FF47A730293BB8C01933B6AAC
:103C900000930346F86806F0B7FA0346FB75FB7D10
:103CA000002B04D0FB7A1946F86800F005F8FB7D7C
:103CB00018461837BD4680BD80B582B000AF786029
:103CC0000B46FB70786806F06FFA7868FFF75EFFC6
:103CD00000BF0837BD4680BD80B500AF0248FFF782
:103CE00055FF00BF80BD00BFA80E002080B584B086
:103CF00002AF0346FB710B46BB7113467B71BB7968
:103D00009AB2F979012301937B1D009301230348A3
:103D1000FFF7A5FF00BF0837BD4680BDA80E0020F5
:103D200080B586B002AF03460A46FB711346BB71ED
:103D30000023FB73BB799AB2F9790123019307F150
:103D40000F03009301230448FFF75CFFFB7B184639
:103D50001037BD4680BD00BFA80E002080B582B0E0
:103D600000AF7860786806F06BF900BF0837BD4691
:103D700080BD0000B0B5A4B000AF0023FB6207F126
:103D8000300360220021184616F0EEFD134B3C462E
:103D90001D460FCD0FC40FCD0FC495E80300206062
:103DA0000434218002340B0C237000220C490D488E
:103DB0000EF0A0FB0A220C490C480EF0FFFB07F1A5
:103DC00028033946272209480FF003F807480FF067
:103DD00099FB00BF9037BD46B0BD00BFB8B3010826
:103DE00000150020FC0E0020ACB3010838110020A3
:103DF00080B58EB000AF002387F83630002387F8F7
:103E000037302C48FEF772FD4FF0FF30FEF756FDBD
:103E100029492A480FF0A5FB00237B6007F108031E
:103E20002E220021184616F09FFD254923480FF049
:103E3000D4FC234B9B7E002B04D097F83730013302
:103E400087F8373097F83730012B27D997F8373074
:103E5000072B23D81B4800F03BF8034687F8363081
:103E600097F83630012B19D1174B1B8801339AB2C2
:103E7000154B1A803B1D134A1449184616F0D6FEFE
:103E8000114B1B881A461201D31A5B009BB20633F2
:103E900099B23A1D03232520FEF7C8FD084B9B7EEF
:103EA000002BB9D105480FF06DFC00BF3837BD4677
:103EB00080BD00BF404040FFE0B3010890130020E8
:103EC000E0130020FA13002004150020E4B30108D9
:103ED00080B485B000AF78600023FB7302E0FB7B09
:103EE0000133FB73FB7B7A6813441B78002BF6D1FC
:103EF000FB7B002B18D0FB7B033B7A6813441B78B9
:103F00006D2B0FD1FB7B023B7A6813441B78702B1F
:103F100008D1FB7B013B7A6813441B78332B01D11A
:103F2000012302E0002300E0002318461437BD46B9
:103F30005DF8047B7047000080B582B000AF0023BD
:103F4000FB7100F096F80346012B01D0022312E02A
:103F50000B4808F01FFB0346FB71FB79002B09D1CE
:103F60004FF40061064809F0E5F80346002B01D044
:103F70000123FB71FB7918460837BD4680BD00BFA1
:103F8000F403002080B586B000AFF860B9607A60B5
:103F90000023FB757B68BA68F968064808F0B2FB35
:103FA0000346002B01D00123FB75FB7D1846183713
:103FB000BD4680BDF403002080B586B000AFF86038
:103FC000B9607A600023FB757B68BA68F9680648B7
:103FD00008F07AFC0346002B01D00123FB75FB7D22
:103FE00018461837BD4680BDF403002080B500AFE9
:103FF000054809F039F90346042B14BF01230023B7
:10400000DBB2184680BD00BFF403002080B582B04B
:1040100000AF78607968034809F060F800BF08379E
:10402000BD4680BDF403002080B582B000AF78604B
:1040300000F018F800BF0837BD4680BD80B582B0DB
:1040400000AF786000F0ACF900BF0837BD4680BD16
:1040500080B582B000AF786000F0B0F900BF0837DB
:10406000BD4680BD80B400AF00BFBD465DF8047B97
:10407000704780B582B000AF0123FB7100F0ACF94E
:104080000346002B01D10023FB71FB79DBB21846FC
:104090000837BD4680BD80B584B000AF786011F0B0
:1040A00040FFF86006E0FFF7A1FF0346002B01D1B7
:1040B000002309E011F035FF0246FB68D31A7A6845
:1040C0009A42F0D84FF0FF3318461037BD4680BDF6
:1040D00080B582B000AF0346FB710B4B01221A7012
:1040E000FFF784FF0346002B07D1074B1B78DBB299
:1040F00023F00103DAB2044B1A70034B1B78DBB2D6
:1041000018460837BD4680BD3100002090B587B005
:1041100000AF0346FB71204B01221A7011F0F5FE2F
:104120000346002B30D0FFF707FF0346002B07D1D3
:10413000FB791846FFF7CCFF03461A46164B1A7058
:10414000154B1B78DBB2012B1ED0144B1B68002BC8
:104150000ED1134B07F108040FCB84E80F0007F1D1
:1041600008030021184612F022F803460B4A136098
:104170000A4B1B68002B07D1074B1B78DBB243F0BF
:104180000103DAB2044B1A70034B1B78DBB21846FA
:104190001C37BD4690BD00BF31000020081500202F
:1041A000E8B3010880B582B000AF0346FB71FB792C
:1041B0001846FFF78DFF034618460837BD4680BDF9
:1041C00080B58AB000AFB9607A603B600346FB738C
:1041D000012387F8273047F23050FFF75CFF034692
:1041E000002B02DA97F8273032E03A687968B8682D
:1041F000FFF7C8FE034687F8263097F82630002BD5
:1042000024D1154B196807F1140347F230521846B0
:1042100012F036F87B69102B18D1BB69012B15D130
:1042200011F07FFE386208E0FFF7E0FE0346002B46
:1042300003D1002387F8273008E011F072FE024610
:104240003B6AD31A47F22F529342EDD997F82730A1
:1042500018462837BD4680BD0815002080B58AB0B5
:1042600000AFB9607A603B600346FB73012387F8B7
:10427000273047F23050FFF70EFF0346002B02DADB
:1042800097F827302EE03A687968B868FFF794FE0F
:104290000346002B24D1154B196807F1140347F28C
:1042A0003052184611F0ECFF7B69102B18D1BB6916
:1042B000022B15D111F035FE386208E0FFF796FEAB
:1042C0000346002B03D1002387F8273008E011F0C4
:1042D00028FE02463B6AD31A47F22F529342EDD989
:1042E00097F8273018462837BD4680BD08150020AE
:1042F00080B58CB000AF03463A60FB710B46BB71D2
:10430000012387F82F30254B1B78DBB203F0010324
:10431000002B01D003233CE0BB79032B34D801A24E
:1043200052F823F0354300083D4300085543000888
:104330006F430008002387F82F3028E007F10C03B3
:104340001846FFF763FE7A6A3B681A60002387F815
:104350002F301CE007F10C031846FFF757FEBB6A2D
:104360009AB23B681A80002387F82F300FE007F1DC
:104370000C031846FFF74AFEBB6A5A0A3B681A60EC
:10438000002387F82F3002E0042387F82F3097F8B6
:104390002F3018463037BD4680BD00BF31000020A9
:1043A00080B500AF044B1B6800220221184611F0B3
:1043B00027FF00BF80BD00BF0815002080B500AFFB
:1043C000044B1B6800220121184611F019FF00BFA1
:1043D00080BD00BF0815002080B582B000AF01236A
:1043E000FB714FF40051064805F0E2F80346002B3C
:1043F00001D00023FB71FB7918460837BD4680BD0C
:104400000008024080B500AF044905480FF0B2FA39
:1044100003461A46034B1A7000BF80BD00150020EA
:1044200050CF01080C15002080B400AF00231846BF
:10443000BD465DF8047B704780B500AF012212498C
:10444000124812F0B7FB0346002B01D0FDF7ECF940
:104450000F490E4812F0DEFB0346002B01D0FDF79A
:10446000E3F90C49094814F059F90346002B01D02F
:10447000FDF7DAF9054812F003FC0346002B01D0E2
:10448000FDF7D2F900BF80BD3400002010150020D8
:10449000C40000209400002080B483B000AF034625
:1044A0003960FB713B6812221A80034B18460C37A7
:1044B000BD465DF8047B70475400002080B483B093
:1044C00000AF03463960FB713B6804221A80034B3E
:1044D00018460C37BD465DF8047B70477400002019
:1044E00080B582B000AF03463960FB71FB79002BC9
:1044F00005D13A680749084813F0B4FD04E03A686A
:104500000449054813F0AEFD024B18460837BD4676
:1045100080BD00BFEC170020F8B3010880B582B061
:1045200000AF03463960FB713A680449044813F050
:1045300099FD024B18460837BD4680BDEC17002098
:104540000CB4010880B582B000AF03463960FB713E
:104550003B681A221A8000F055F8024B18460837BB
:10456000BD4680BD7800002080B582B000AF034614
:104570003960FB71FB79002B05D13A68074908487F
:1045800013F070FD04E03A680449054813F06AFD31
:10459000024B18460837BD4680BD00BFEC1700200F
:1045A00020B4010880B582B000AF03463960FB71CA
:1045B000FB79002B05D13A680749084813F052FDF2
:1045C00004E03A680449054813F04CFD024B1846D4
:1045D0000837BD4680BD00BFEC1700202CB4010891
:1045E00080B483B000AF03463960FB713B680C2296
:1045F0001A80034B18460C37BD465DF8047B7047A4
:104600006800002080B584B000AF0F4B1B68FB60D2
:104610000E4B1B68BB600E4B1B687B60FA687B68A7
:104620001344FB60FB68002B09D008220949F86895
:1046300000F014F804220849B86800F00FF800BF31
:104640001037BD4680BD00BF20F4F01F24F4F01FDA
:1046500028F4F01F7A0000208A00002080B487B080
:1046600000AFF860B9601346FB710023FB750023AF
:10467000FB7527E0FB681B0F092B0BD8FB681B0F92
:10468000DAB2FB7D5B001946BB680B443032D2B214
:104690001A700AE0FB681B0FDAB2FB7D5B0019465B
:1046A000BB680B443732D2B21A70FB681B01FB6047
:1046B000FB7D5B000133BA68134400221A70FB7D56
:1046C0000133FB75FA7DFB799A42D3D300BF00BF5B
:1046D0001C37BD465DF8047B704780B582B000AFE3
:1046E0000346FB71FFF728FC002318460837BD4638
:1046F00080BD80B58EB000AF0346B9607A60FB73B1
:10470000FF2387F83730FFF7B4FC0346002B0ED0A9
:1047100007F114031846FFF779FCFA6ABB681A60C0
:104720003B6B9AB27B681A80002387F8373097F981
:10473000373018463837BD4680BD000080B584B09C
:1047400000AF0346FB71FF23FB73FFF792FC0346A8
:10475000002B11D00F4B93F90030002B04DAFFF738
:10476000EBFB0C4B00221A70FFF740FC0346002BBA
:104770000AD10023FB7307E0064B93F90030002BAE
:1047800002D1044BFF221A7097F90F3018461037E8
:10479000BD4680BDEC19002080B483B000AF034655
:1047A000FB71002318460C37BD465DF8047B70474B
:1047B00080B586B000AFB9607A601A460346FB73D5
:1047C0001346BB81FF23FB75FFF753FC0346002B09
:1047D0000DD0BB891A467968B868FFF7D3FB00BFD4
:1047E000FFF704FC0346002BFAD10023FB7597F971
:1047F000173018461837BD4680BD80B586B000AF6B
:10480000B9607A601A460346FB731346BB81FF23E7
:10481000FB75FFF72EFC0346002B0DD0BB891A4613
:104820007968B868FFF7C8FB00BFFFF7DFFB0346F6
:10483000002BFAD10023FB7597F91730184618376B
:10484000BD4680BD80B400AF00231846BD465DF86C
:10485000047B704780B58EB000AF786007F1240309
:1048600000221A605A609A60DA601A617B681B68DD
:104870004C4A934240F091804B4B1B6B4A4A43F0A9
:1048800002031363484B1B6B03F002033B623B6A5A
:10489000454B1B6B444A43F080031363424B1B6B35
:1048A00003F08003FB61FB693F4B1B6B3E4A43F007
:1048B000040313633C4B1B6B03F00403BB61BB6934
:1048C000394B1B6B384A43F001031363364B1B6BA8
:1048D00003F001037B617B6943F623437B62022380
:1048E000BB620023FB6203233B630A237B6307F164
:1048F000240319462D4804F0A3FB10237B620223F6
:10490000BB620023FB6203233B630A237B6307F143
:1049100024031946264804F093FB05237B620223F7
:10492000BB620023FB6203233B630A237B6307F123
:10493000240319461F4804F083FB28237B620223CB
:10494000BB620023FB6203233B630A237B6307F103
:1049500024031946184804F073FB134B1B6B124ACF
:1049600043F000531363104B1B6B03F000533B6188
:104970003B690D4B1B6B0C4A43F0804313630A4B9E
:104980001B6B03F08043FB60FB68002205214D2078
:1049900005F0FEFA4D2005F017FB00BF3837BD4685
:1049A00080BD00BF00000440003802400004024007
:1049B000001C0240000802400000024080B582B0A6
:1049C00000AF78607B68D3F804257B6803F2C443AA
:1049D0001946104612F0BCF900BF0837BD4680BD2D
:1049E00080B582B000AF78600B46FB707B68D3F86F
:1049F0000405FA7879681346DB0013449B000B44E6
:104A000003F523731A68FB78194612F0F6F900BF14
:104A10000837BD4680BD80B582B000AF78600B46D8
:104A2000FB707B68D3F80405FA7879681346DB00DD
:104A300013449B000B444C331A68FB78194612F060
:104A40008FFA00BF0837BD4680BD80B582B000AF89
:104A500078607B68D3F80435184612F0C3FB00BFBA
:104A60000837BD4680BD80B584B000AF78600123B3
:104A7000FB737B68DB68002B02D10023FB7308E02B
:104A80007B68DB68022B02D10123FB7301E0FCF79A
:104A9000CBFE7B68D3F80435FA7B1146184612F03A
:104AA00063FB7B68D3F80435184612F00BFB00BF9C
:104AB0001037BD4680BD000080B582B000AF786081
:104AC0007B68D3F80435184612F05EFB7B681B68E0
:104AD00003F560631B687A68126802F5606243F050
:104AE000010313607B681B6A002B05D0044B1B6914
:104AF000034A43F00603136100BF0837BD4680BD7B
:104B000000ED00E080B582B000AF78607B68D3F83C
:104B10000435184612F04EFB00BF0837BD4680BD75
:104B200080B582B000AF78600B46FB707B68D3F82D
:104B30000435FA781146184612F0A6FB00BF083774
:104B4000BD4680BD80B582B000AF78600B46FB707B
:104B50007B68D3F80435FA781146184612F062FBE8
:104B600000BF0837BD4680BD80B582B000AF786019
:104B70007B68D3F80435184612F0B8FB00BF08373D
:104B8000BD4680BD80B582B000AF78607B68D3F849
:104B90000435184612F0B5FB00BF0837BD4680BD8E
:104BA00080B582B000AF78607B681B78012B40D164
:104BB000224A7B68C2F804357B68204AC3F8C822C1
:104BC0001E4B1F4A1A601D4B08225A601B4B0022C5
:104BD000DA601A4B00221A61184B01229A61174BB6
:104BE0000022DA61154B00221A62144B00225A622D
:104BF000124B0022DA62114B00221A630F4B002283
:104C00005A630E4800F016FA0346002B01D0FCF759
:104C10000BFE4FF40071094801F0E5FC80220021F1
:104C2000064801F099FC4FF4BA720121034801F0E3
:104C300093FC002318460837BD4680BDF0190020BC
:104C40000000044080B584B000AF78600023FB739F
:104C50000023BB737B68D3F8C832184600F00EFB04
:104C60000346FB73FB7B184600F0B8F90346BB73A1
:104C7000BB7B18461037BD4680BD80B584B000AF01
:104C800078600023FB730023BB737B68D3F8C832C2
:104C9000184600F015FB0346FB73FB7B184600F03B
:104CA0009DF90346BB73BB7B18461037BD4680BDDC
:104CB00080B584B000AF7860084611461A460346B6
:104CC000FB700B46BB7013463B800023FB73002335
:104CD000BB737B68D3F8C802BB783A88F97801F0D7
:104CE00008F80346FB73FB7B184600F077F9034690
:104CF000BB73BB7B18461037BD4680BD80B584B002
:104D000000AF78600B46FB700023FB730023BB737E
:104D10007B68D3F8C832FA781146184601F051F88A
:104D20000346FB73FB7B184600F058F90346BB7340
:104D3000BB7B18461037BD4680BD80B584B000AF40
:104D400078600B46FB700023FB730023BB737B680A
:104D5000D3F8C832FA781146184601F014FA03461F
:104D6000FB73FB7B184600F039F90346BB73BB7B32
:104D700018461037BD4680BD80B584B000AF78605E
:104D80000B46FB700023FB730023BB737B68D3F8D7
:104D9000C832FA781146184601F00AF90346FB7347
:104DA000FB7B184600F01AF90346BB73BB7B184621
:104DB0001037BD4680BD80B584B000AF78600B462B
:104DC000FB700023FB730023BB737B68D3F8C832EE
:104DD000FA781146184601F04FF90346FB73FB7B46
:104DE000184600F0FBF80346BB73BB7B1846103730
:104DF000BD4680BD80B485B000AF78600B46FB70C7
:104E00007B68D3F8C832FB6097F90330002B0BDACC
:104E1000FB7803F07F02F9681346DB0013449B0024
:104E20000B443E331B780BE0FB7803F07F02F968FC
:104E30001346DB0013449B000B4403F27E231B78D4
:104E400018461437BD465DF8047B704780B584B0C2
:104E500000AF78600B46FB700023FB730023BB732D
:104E60007B68D3F8C832FA781146184600F01CFF68
:104E70000346FB73FB7B184600F0B0F80346BB7398
:104E8000BB7B18461037BD4680BD80B586B000AFED
:104E9000F8607A603B600B46FB720023FB750023D1
:104EA000BB75FB68D3F8C802F97A3B687A6801F0F1
:104EB00035F80346FB75FB7D184600F08FF8034676
:104EC000BB75BB7D18461837BD4680BD80B586B022
:104ED00000AFF8607A603B600B46FB720023FB7505
:104EE0000023BB75FB68D3F8C802F97A3B687A687F
:104EF00000F0B1FF0346FB75FB7D184600F06EF82D
:104F00000346BB75BB7D18461837BD4680BD80B5CE
:104F100082B000AF78600B46FB707B68D3F8C83274
:104F2000FA781146184600F0E1FF034618460837A4
:104F3000BD4680BD80B582B000AF78600B46FB7087
:104F4000FB78002B02D0012B1FD03BE07B681B6A53
:104F5000002B07D000F03CF81C4B1B691B4A23F0C8
:104F6000060313617B681B6803F560631B687A683E
:104F7000126802F5606223F0010313607B68D3F8C6
:104F80000435184612F016F91CE07B681B6803F51F
:104F900060631B687A68126802F5606243F001037F
:104FA00013607B68D3F80435184612F0EDF87B687F
:104FB0001B6A002B05D0054B1B69044A43F006030E
:104FC000136100BF00BF0837BD4680BD00ED00E0A3
:104FD00080B500AFFBF7CEFD00BF80BD80B485B0CB
:104FE00000AF0346FB710023FB73FB79032B17D83B
:104FF00001A252F823F000BF095000080F5000082A
:10500000155000081B5000080023FB730BE003231E
:10501000FB7308E00123FB7305E00323FB7302E04D
:105020000323FB7300BFFB7B18461437BD465DF8B6
:10503000047B7047F0B58FB00AAF78607B68002BB7
:1050400001D1012316E17B681B68BB607B6893F884
:10505000BD34DBB2002B06D17B68002283F8BC2470
:105060007868FFF7F7FB7B68032283F8BD24BB68F1
:10507000DB6B03F48073002B02D17B6800221A6182
:105080007B681B68184601F0EEFB7B681B683B6081
:105090007E686D4606F110040FCC0FC50FCC0FC50E
:1050A00094E8030085E80300331D0ECB386801F057
:1050B000CFFA0346002B05D07B68022283F8BD247B
:1050C0000123D7E07B681B680021184601F0DCFB58
:1050D0000023FB734AE0FA7B79681346DB00134434
:1050E0009B000B443D3301221A70FA7B796813460A
:1050F000DB0013449B000B443C33FA7B1A70FA7BB1
:10510000FB7B98B279681346DB0013449B000B4489
:10511000443302461A80FA7B79681346DB00134455
:105120009B000B44403300221A70FA7B79681346C7
:10513000DB0013449B000B44483300221A60FA7BC7
:1051400079681346DB0013449B000B444C33002268
:105150001A60FA7B79681346DB0013449B000B440A
:10516000543300221A60FB7B0133FB73FA7B7B68AC
:105170005B689A42AFD30023FB7344E0FA7B796803
:105180001346DB0013449B000B4403F27D230022F3
:105190001A70FA7B79681346DB0013449B000B44BA
:1051A00003F51F73FA7B1A70FA7B79681346DB00EC
:1051B00013449B000B4403F5207300221A70FA7B02
:1051C00079681346DB0013449B000B4403F52273FC
:1051D00000221A60FA7B79681346DB0013449B00B7
:1051E0000B4403F5237300221A60FA7B7968134697
:1051F000DB0013449B000B4403F5257300221A6067
:10520000FB7B0133FB73FA7B7B685B689A42B5D307
:105210007B681B683B607E686D4606F110040FCC0E
:105220000FC50FCC0FC594E8030085E80300331DBC
:105230000ECB386801F074FB0346002B05D07B6869
:10524000022283F8BD24012314E07B68002283F846
:1052500038207B68012283F8BD247B685B6A012BC0
:1052600002D1786801F0D0F97B681B68184602F01B
:10527000C2FC002318461437BD46F0BD80B582B08D
:1052800000AF78607B6893F8BC34012B01D1022316
:1052900012E07B68012283F8BC247B681B681846F7
:1052A00001F0D0FA7B681B68184602F083FC7B682B
:1052B000002283F8BC24002318460837BD4680BD71
:1052C00080B582B000AF78607B6893F8BC34012B66
:1052D00001D1022318E07B68012283F8BC247B689B
:1052E0001B68184601F0BFFA7B681B68184602F07D
:1052F00082FC7B681B681021184601F06FFC7B68FC
:10530000002283F8BC24002318460837BD4680BD20
:1053100090B58DB000AF78607B681B683B623B6ADC
:10532000FB617B681B68184602F019FD0346002BE1
:1053300040F0B7847B681B68184602F07DFC03468A
:10534000002B00F0AD84FB6903F500639B681B0A2A
:10535000C3F30D027B68C3F8FC247B681B68184606
:1053600002F06AFC034603F00203022B07D17B68BC
:105370001B685A697B681B6802F002025A617B68ED
:105380001B68184602F058FC034603F01003102B6C
:1053900061D17B681B689A697B681B6822F01002E8
:1053A0009A613B6A1B6ABB61BB6903F00F0213463B
:1053B000DB0013449B0003F51E737A681344043327
:1053C0007B61BB695B0C03F00F03022B24D1BA692C
:1053D00047F6F0731340002B35D07B691969BB6920
:1053E0001B099BB2C3F30A039BB21A46386A02F048
:1053F0008FFA7B691A69BB691B09C3F30A031A4454
:105400007B691A617B691A6ABB691B09C3F30A03CA
:105410001A447B691A6216E0BB695B0C03F00F0348
:10542000062B10D17B6803F2C44308221946386A60
:1054300002F06EFA7B691A6ABB691B09C3F30A039F
:105440001A447B691A627B681B689A697B681B68CF
:1054500042F010029A617B681B68184602F0ECFB70
:10546000034603F40023B3F5002F40F0A780002388
:105470007B627B681B68184602F0F1FBB86299E01A
:10548000BB6A03F00103002B00F08E807B681B6871
:105490007A6AD2B21146184602F015FC38613B69AF
:1054A00003F00103002B0CD07B6A5A01FB69134403
:1054B00003F530631A4601239360796A786800F037
:1054C0001DFF3B6903F00803002B0CD07B6A5A01D7
:1054D000FB69134403F530631A4608239360796A25
:1054E000786800F0F3FF3B6903F01003002B08D04D
:1054F0007B6A5A01FB69134403F530631A46102393
:1055000093603B6903F00203002B30D03B6A5B6978
:1055100003F08003802B09D1FB6903F500635B680E
:10552000FA6902F5006243F4806353607A6A1346B5
:10553000DB0013449B0003F51E737A6813440433A5
:105540007B617B69DB78012B08D17B690022DA70F3
:105550007B6ADBB219467868FFF7E2FA7B6A5A0188
:10556000FB69134403F530631A46022393603B69D9
:1055700003F02003002B08D07B6A5A01FB69134417
:1055800003F530631A46202393603B6903F400530C
:10559000002B09D07B6A5A01FB69134403F5306381
:1055A0001A464FF4005393607B6A01337B62BB6AF7
:1055B0005B08BB62BB6A002B7FF462AF7B681B6831
:1055C000184602F039FB034603F48023B3F5802F1D
:1055D00040F0DB807B681B68184602F05AFBB8621B
:1055E00000237B62CDE0BB6A03F00103002B00F0D7
:1055F000C2807B681B687A6AD2B21146184602F0F4
:1056000080FB38613B6903F00103002B57D07B6AB4
:1056100003F00F03012202FA03F3FB60FB6903F5B9
:1056200000635A6BFB68DB43F96901F500611340C5
:105630004B637B6A5A01FB69134403F510631A46F6
:10564000012393607B681B69012B32D179687A6AE8
:105650001346DB0013449B000B444C3319687868F5
:105660007A6A1346DB0013449B00034448331B68EB
:10567000194478687A6A1346DB0013449B0003449C
:105680004C3319607B6A002B13D179687A6A134610
:10569000DB0013449B000B4454331B68002B08D1E0
:1056A0007B6818687B6803F2C4431A46012102F044
:1056B00089FB7B6ADBB219467868FFF7ACF93B6976
:1056C00003F00803002B08D07B6A5A01FB691344DE
:1056D00003F510631A46082393603B6903F0100337
:1056E000002B08D07B6A5A01FB69134403F5106351
:1056F0001A46102393603B6903F04003002B08D047
:105700007B6A5A01FB69134403F510631A46402370
:1057100093603B6903F00203002B23D0796A386A57
:1057200001F05CFA7A6A1346DB0013449B003833BD
:105730007A68134404337B617B69DB78012B08D1E1
:105740007B690022DA707B6ADBB219467868FFF762
:10575000F9F97B6A5A01FB69134403F510631A4691
:10576000022393603B6903F08003002B03D0796A26
:10577000786800F035FD7B6A01337B62BB6A5B08A9
:10578000BB62BB6A002B7FF42EAF7B681B68184698
:1057900002F052FA034603F00043B3F1004F22D166
:1057A000FB6903F500635B68FA6902F5006223F0A8
:1057B000010353607B6893F8F434012B08D17B68B4
:1057C000002283F8F42400217868FFF7B3FB02E09D
:1057D0007868FFF797F97B681B685A697B681B68D4
:1057E00002F000425A617B681B68184602F024FAF6
:1057F000034603F40063B3F5006F12D1FB6903F5B0
:1058000000639B6803F00103012B02D17868FFF766
:1058100053F97B681B685A697B681B6802F4006255
:105820005A617B681B68184602F006FA034603F0CB
:105830000063B3F1006F21D17B681B685A697B68F4
:105840001B6802F000625A617B6893F8F434002B05
:1058500011D17B68012283F8F4247B681B685B6D9F
:105860009B0803F00F027B68C3F8F82401217868D5
:10587000FFF760FB02E07868FFF71EF97B681B68A2
:10588000184602F0D9F9034603F48053B3F5805F5C
:1058900040F0B780FB6903F500635B68FA6902F5C5
:1058A000006223F0010353607B681B6810211846D7
:1058B00001F094F90023FB6246E0FB6A5A01FB69A0
:1058C000134403F510631A464FF67F339360FB6A67
:1058D0005A01FB69134403F510631B68FA6A51010E
:1058E000FA690A4402F5106223F400131360FB6A9C
:1058F0005A01FB69134403F530631A464FF67F33B0
:105900009360FB6A5A01FB69134403F530631B681B
:10591000FA6A5101FA690A4402F5306223F400136D
:105920001360FB6A5A01FB69134403F530631B687B
:10593000FA6A5101FA690A4402F5306243F00063E1
:105940001360FB6A0133FB627B685B68FA6A9A4208
:10595000B3D3FB6903F50063DB69FA6902F5006202
:1059600043F00113D3617B681B6B002B16D0FB69DE
:1059700003F50063D3F88430FA6902F5006243F05E
:105980000B03C2F88430FB6903F500635B6CFA69B2
:1059900002F5006243F00B03536415E0FB6903F565
:1059A00000635A69FB6903F50063194642F22B0351
:1059B00013434B61FB6903F500631B69FA6902F548
:1059C000006243F00B031361FB6903F500631B687E
:1059D000FA6902F5006223F4FE6313607B681868BD
:1059E0007B681B69D9B27B6803F2C4431A4602F094
:1059F000E9F97B681B685A697B681B6802F480526E
:105A00005A617B681B68184602F016F9034603F4D6
:105A10000053B3F5005F24D17B681B68184602F081
:105A2000ADF97B681B68184601F055F903461A4624
:105A30007B68DA607B681C6802F0ACFE01467B681C
:105A4000DB68DBB21A46204600F05AFE7868FFF7A2
:105A50000AF87B681B685A697B681B6802F400526D
:105A60005A617B681B68184602F0E6F8034603F0AB
:105A70000803082B0AD17868FEF7E7FF7B681B68EC
:105A80005A697B681B6802F008025A617B681B68D0
:105A9000184602F0D1F8034603F08003802B22D190
:105AA0003B6A9B6923F080023B6A9A6101237B6217
:105AB00014E079687A6A1346DB0013449B000B44B8
:105AC00003F27F231B78012B05D17B6ADBB21946D9
:105AD000786800F027FB7B6A01337B627B685B6838
